{
  "contractName": "AuctionCrown",
  "abi": [
    {
      "inputs": [
        {
          "internalType": "address",
          "name": "token_",
          "type": "address"
        },
        {
          "internalType": "address",
          "name": "daoTreasuryAddress_",
          "type": "address"
        }
      ],
      "stateMutability": "nonpayable",
      "type": "constructor"
    },
    {
      "anonymous": false,
      "inputs": [
        {
          "indexed": false,
          "internalType": "uint256",
          "name": "nftId",
          "type": "uint256"
        },
        {
          "indexed": false,
          "internalType": "uint256",
          "name": "highestBid",
          "type": "uint256"
        },
        {
          "indexed": false,
          "internalType": "uint256",
          "name": "withBnb",
          "type": "uint256"
        },
        {
          "indexed": false,
          "internalType": "address",
          "name": "highestBidder",
          "type": "address"
        },
        {
          "indexed": false,
          "internalType": "uint256",
          "name": "totalBid",
          "type": "uint256"
        }
      ],
      "name": "AuctionClosed",
      "type": "event"
    },
    {
      "anonymous": false,
      "inputs": [
        {
          "indexed": false,
          "internalType": "uint256",
          "name": "nftId",
          "type": "uint256"
        },
        {
          "indexed": false,
          "internalType": "uint256",
          "name": "bidPrice",
          "type": "uint256"
        },
        {
          "indexed": false,
          "internalType": "uint256",
          "name": "withBnb",
          "type": "uint256"
        },
        {
          "indexed": false,
          "internalType": "address",
          "name": "bidder",
          "type": "address"
        }
      ],
      "name": "BidPlaced",
      "type": "event"
    },
    {
      "anonymous": false,
      "inputs": [
        {
          "indexed": false,
          "internalType": "uint256",
          "name": "nftId",
          "type": "uint256"
        },
        {
          "indexed": false,
          "internalType": "uint256",
          "name": "startingBid",
          "type": "uint256"
        },
        {
          "indexed": false,
          "internalType": "uint256",
          "name": "withBnb",
          "type": "uint256"
        },
        {
          "indexed": false,
          "internalType": "uint256",
          "name": "closingTime",
          "type": "uint256"
        },
        {
          "indexed": false,
          "internalType": "address",
          "name": "originalOwner",
          "type": "address"
        }
      ],
      "name": "NewAuctionOpened",
      "type": "event"
    },
    {
      "anonymous": false,
      "inputs": [
        {
          "indexed": true,
          "internalType": "address",
          "name": "previousOwner",
          "type": "address"
        },
        {
          "indexed": true,
          "internalType": "address",
          "name": "newOwner",
          "type": "address"
        }
      ],
      "name": "OwnershipTransferred",
      "type": "event"
    },
    {
      "stateMutability": "payable",
      "type": "fallback"
    },
    {
      "inputs": [
        {
          "internalType": "uint256",
          "name": "",
          "type": "uint256"
        }
      ],
      "name": "auctions",
      "outputs": [
        {
          "internalType": "uint256",
          "name": "highestBid",
          "type": "uint256"
        },
        {
          "internalType": "uint256",
          "name": "withBnb",
          "type": "uint256"
        },
        {
          "internalType": "uint256",
          "name": "closingTime",
          "type": "uint256"
        },
        {
          "internalType": "address",
          "name": "highestBidder",
          "type": "address"
        },
        {
          "internalType": "address",
          "name": "originalOwner",
          "type": "address"
        },
        {
          "internalType": "bool",
          "name": "isActive",
          "type": "bool"
        },
        {
          "internalType": "uint256",
          "name": "totalBid",
          "type": "uint256"
        }
      ],
      "stateMutability": "view",
      "type": "function"
    },
    {
      "inputs": [],
      "name": "balances",
      "outputs": [
        {
          "internalType": "uint256",
          "name": "",
          "type": "uint256"
        }
      ],
      "stateMutability": "view",
      "type": "function"
    },
    {
      "inputs": [],
      "name": "decimalPlusBnb",
      "outputs": [
        {
          "internalType": "uint256",
          "name": "",
          "type": "uint256"
        }
      ],
      "stateMutability": "view",
      "type": "function"
    },
    {
      "inputs": [],
      "name": "durationTime",
      "outputs": [
        {
          "internalType": "uint256",
          "name": "",
          "type": "uint256"
        }
      ],
      "stateMutability": "view",
      "type": "function"
    },
    {
      "inputs": [],
      "name": "isAuction",
      "outputs": [
        {
          "internalType": "bool",
          "name": "",
          "type": "bool"
        }
      ],
      "stateMutability": "view",
      "type": "function"
    },
    {
      "inputs": [],
      "name": "lastNftId",
      "outputs": [
        {
          "internalType": "uint256",
          "name": "",
          "type": "uint256"
        }
      ],
      "stateMutability": "view",
      "type": "function"
    },
    {
      "inputs": [],
      "name": "owner",
      "outputs": [
        {
          "internalType": "address",
          "name": "",
          "type": "address"
        }
      ],
      "stateMutability": "view",
      "type": "function"
    },
    {
      "inputs": [],
      "name": "periodDays",
      "outputs": [
        {
          "internalType": "uint256",
          "name": "",
          "type": "uint256"
        }
      ],
      "stateMutability": "view",
      "type": "function"
    },
    {
      "inputs": [],
      "name": "priceBnb",
      "outputs": [
        {
          "internalType": "uint256",
          "name": "",
          "type": "uint256"
        }
      ],
      "stateMutability": "view",
      "type": "function"
    },
    {
      "inputs": [],
      "name": "renounceOwnership",
      "outputs": [],
      "stateMutability": "nonpayable",
      "type": "function"
    },
    {
      "inputs": [
        {
          "internalType": "address",
          "name": "newOwner",
          "type": "address"
        }
      ],
      "name": "transferOwnership",
      "outputs": [],
      "stateMutability": "nonpayable",
      "type": "function"
    },
    {
      "stateMutability": "payable",
      "type": "receive"
    },
    {
      "inputs": [
        {
          "internalType": "address",
          "name": "_sNft",
          "type": "address"
        }
      ],
      "name": "initialize",
      "outputs": [],
      "stateMutability": "nonpayable",
      "type": "function"
    },
    {
      "inputs": [],
      "name": "openAuction",
      "outputs": [],
      "stateMutability": "nonpayable",
      "type": "function"
    },
    {
      "inputs": [
        {
          "internalType": "uint256",
          "name": "_priceBid",
          "type": "uint256"
        }
      ],
      "name": "placeBid",
      "outputs": [],
      "stateMutability": "payable",
      "type": "function"
    },
    {
      "inputs": [],
      "name": "closeAuction",
      "outputs": [],
      "stateMutability": "nonpayable",
      "type": "function"
    },
    {
      "inputs": [],
      "name": "forceCloseAuction",
      "outputs": [],
      "stateMutability": "nonpayable",
      "type": "function"
    },
    {
      "inputs": [
        {
          "internalType": "address",
          "name": "_target",
          "type": "address"
        },
        {
          "internalType": "uint256",
          "name": "_amount",
          "type": "uint256"
        }
      ],
      "name": "withdraw",
      "outputs": [],
      "stateMutability": "nonpayable",
      "type": "function"
    },
    {
      "inputs": [
        {
          "internalType": "address",
          "name": "_target",
          "type": "address"
        },
        {
          "internalType": "uint256",
          "name": "_amount",
          "type": "uint256"
        }
      ],
      "name": "withdrawWDA",
      "outputs": [],
      "stateMutability": "nonpayable",
      "type": "function"
    },
    {
      "inputs": [
        {
          "internalType": "address",
          "name": "daoTreasuryAddress_",
          "type": "address"
        }
      ],
      "name": "setDaoTreasuryAddress",
      "outputs": [],
      "stateMutability": "nonpayable",
      "type": "function"
    },
    {
      "inputs": [
        {
          "internalType": "uint256",
          "name": "days_",
          "type": "uint256"
        },
        {
          "internalType": "uint256",
          "name": "decimalPlusBnb_",
          "type": "uint256"
        }
      ],
      "name": "setAugmentBnb",
      "outputs": [],
      "stateMutability": "nonpayable",
      "type": "function"
    },
    {
      "inputs": [
        {
          "internalType": "uint256",
          "name": "duration_",
          "type": "uint256"
        }
      ],
      "name": "setDurationTime",
      "outputs": [],
      "stateMutability": "nonpayable",
      "type": "function"
    },
    {
      "inputs": [
        {
          "internalType": "address",
          "name": "target",
          "type": "address"
        },
        {
          "internalType": "bool",
          "name": "permission",
          "type": "bool"
        }
      ],
      "name": "setAdmin",
      "outputs": [],
      "stateMutability": "nonpayable",
      "type": "function"
    }
  ],
  "bytecode": "0x6080604052611c20600c553480156200001757600080fd5b50604051620037c2380380620037c283398181016040528101906200003d919062000275565b6200005d620000516200013f60201b60201c565b6200014760201b60201c565b81600160006101000a81548173ffffffffffffffffffffffffffffffffffffffff021916908373ffffffffffffffffffffffffffffffffffffffff16021790555080600260006101000a81548173ffffffffffffffffffffffffffffffffffffffff021916908373ffffffffffffffffffffffffffffffffffffffff1602179055506001600d60003373ffffffffffffffffffffffffffffffffffffffff1673ffffffffffffffffffffffffffffffffffffffff16815260200190815260200160002060006101000a81548160ff0219169083151502179055505050620002bc565b600033905090565b60008060009054906101000a900473ffffffffffffffffffffffffffffffffffffffff169050816000806101000a81548173ffffffffffffffffffffffffffffffffffffffff021916908373ffffffffffffffffffffffffffffffffffffffff1602179055508173ffffffffffffffffffffffffffffffffffffffff168173ffffffffffffffffffffffffffffffffffffffff167f8be0079c531659141344cd1fd0a4f28419497f9722a3daafe3b4186f6b6457e060405160405180910390a35050565b600080fd5b600073ffffffffffffffffffffffffffffffffffffffff82169050919050565b60006200023d8262000210565b9050919050565b6200024f8162000230565b81146200025b57600080fd5b50565b6000815190506200026f8162000244565b92915050565b600080604083850312156200028f576200028e6200020b565b5b60006200029f858286016200025e565b9250506020620002b2858286016200025e565b9150509250929050565b6134f680620002cc6000396000f3fe6080604052600436106101395760003560e01c80639979ef45116100ab578063c9234d521161006f578063c9234d52146103d3578063e171a234146103fc578063e579fc6014610427578063f2fde38b14610452578063f3fef3a31461047b578063f8b75fb5146104a457610159565b80639979ef451461030f578063b08a9c891461032b578063b4646a6014610354578063c17723f91461037f578063c4d66de8146103aa57610159565b8063571a26a0116100fd578063571a26a01461021d578063715018a6146102605780637bb98a68146102775780637e391c63146102a25780638d9257a5146102b95780638da5cb5b146102e457610159565b806304cb72f914610174578063158fa0811461018b578063378252f2146101b457806348bcb963146101cb5780634b0bddd2146101f457610159565b3661015957346005600082825461015091906126ad565b92505081905550005b346005600082825461016b91906126ad565b92505081905550005b34801561018057600080fd5b506101896104cf565b005b34801561019757600080fd5b506101b260048036038101906101ad9190612766565b6108d2565b005b3480156101c057600080fd5b506101c961096c565b005b3480156101d757600080fd5b506101f260048036038101906101ed91906127bf565b610e56565b005b34801561020057600080fd5b5061021b60048036038101906102169190612824565b610eb6565b005b34801561022957600080fd5b50610244600480360381019061023f91906127bf565b610f8d565b6040516102579796959493929190612891565b60405180910390f35b34801561026c57600080fd5b5061027561101c565b005b34801561028357600080fd5b5061028c6110a4565b6040516102999190612900565b60405180910390f35b3480156102ae57600080fd5b506102b76110aa565b005b3480156102c557600080fd5b506102ce6115b4565b6040516102db9190612900565b60405180910390f35b3480156102f057600080fd5b506102f96115ba565b604051610306919061291b565b60405180910390f35b610329600480360381019061032491906127bf565b6115e3565b005b34801561033757600080fd5b50610352600480360381019061034d9190612936565b611dd3565b005b34801561036057600080fd5b5061036961207f565b6040516103769190612900565b60405180910390f35b34801561038b57600080fd5b50610394612085565b6040516103a19190612976565b60405180910390f35b3480156103b657600080fd5b506103d160048036038101906103cc9190612766565b612098565b005b3480156103df57600080fd5b506103fa60048036038101906103f59190612991565b6121e9565b005b34801561040857600080fd5b50610411612251565b60405161041e9190612900565b60405180910390f35b34801561043357600080fd5b5061043c612257565b6040516104499190612900565b60405180910390f35b34801561045e57600080fd5b5061047960048036038101906104749190612766565b61225d565b005b34801561048757600080fd5b506104a2600480360381019061049d9190612936565b612355565b005b3480156104b057600080fd5b506104b9612520565b6040516104c69190612900565b60405180910390f35b600d60003373ffffffffffffffffffffffffffffffffffffffff1673ffffffffffffffffffffffffffffffffffffffff16815260200190815260200160002060009054906101000a900460ff1661052557600080fd5b60001515600a60009054906101000a900460ff1615151461057b576040517f08c379a000000000000000000000000000000000000000000000000000000000815260040161057290612a2e565b60405180910390fd5b6000600460009054906101000a900473ffffffffffffffffffffffffffffffffffffffff1673ffffffffffffffffffffffffffffffffffffffff166311005a9060016040518263ffffffff1660e01b81526004016105d99190612a93565b6020604051808303816000875af11580156105f8573d6000803e3d6000fd5b505050506040513d601f19601f8201168201806040525081019061061c9190612ac3565b9050600015156003600083815260200190815260200160002060040160149054906101000a900460ff16151514610688576040517f08c379a000000000000000000000000000000000000000000000000000000000815260040161067f90612b3c565b60405180910390fd5b80600b819055506001600a60006101000a81548160ff02191690831515021790555060006106b4612526565b6008546106c191906126ad565b905060006003600084815260200190815260200160002060000181905550806003600084815260200190815260200160002060010181905550600c544261070891906126ad565b6003600084815260200190815260200160002060020181905550336003600084815260200190815260200160002060030160006101000a81548173ffffffffffffffffffffffffffffffffffffffff021916908373ffffffffffffffffffffffffffffffffffffffff160217905550336003600084815260200190815260200160002060040160006101000a81548173ffffffffffffffffffffffffffffffffffffffff021916908373ffffffffffffffffffffffffffffffffffffffff16021790555060016003600084815260200190815260200160002060040160146101000a81548160ff021916908315150217905550600060036000848152602001908152602001600020600501819055507fe07f0fdb40e78b85743ef277e13c1dfb448cd39e1da5df4f0415705b045288a7826003600085815260200190815260200160002060000154600360008681526020019081526020016000206001015460036000878152602001908152602001600020600201546003600088815260200190815260200160002060030160009054906101000a900473ffffffffffffffffffffffffffffffffffffffff166040516108c6959493929190612b5c565b60405180910390a15050565b600d60003373ffffffffffffffffffffffffffffffffffffffff1673ffffffffffffffffffffffffffffffffffffffff16815260200190815260200160002060009054906101000a900460ff1661092857600080fd5b80600260006101000a81548173ffffffffffffffffffffffffffffffffffffffff021916908373ffffffffffffffffffffffffffffffffffffffff16021790555050565b600d60003373ffffffffffffffffffffffffffffffffffffffff1673ffffffffffffffffffffffffffffffffffffffff16815260200190815260200160002060009054906101000a900460ff166109c257600080fd5b60011515600a60009054906101000a900460ff16151514610a18576040517f08c379a0000000000000000000000000000000000000000000000000000000008152600401610a0f90612bfb565b60405180910390fd5b6001151560036000600b54815260200190815260200160002060040160149054906101000a900460ff16151514610a84576040517f08c379a0000000000000000000000000000000000000000000000000000000008152600401610a7b90612c67565b60405180910390fd5b4260036000600b548152602001908152602001600020600201541115610adf576040517f08c379a0000000000000000000000000000000000000000000000000000000008152600401610ad690612cd3565b60405180910390fd5b600060036000600b548152602001908152602001600020600001541415610b9457600460009054906101000a900473ffffffffffffffffffffffffffffffffffffffff1673ffffffffffffffffffffffffffffffffffffffff166342966c68600b546040518263ffffffff1660e01b8152600401610b5d9190612900565b600060405180830381600087803b158015610b7757600080fd5b505af1158015610b8b573d6000803e3d6000fd5b50505050610d47565b6000600260009054906101000a900473ffffffffffffffffffffffffffffffffffffffff1673ffffffffffffffffffffffffffffffffffffffff1660036000600b54815260200190815260200160002060010154604051610bf490612d24565b60006040518083038185875af1925050503d8060008114610c31576040519150601f19603f3d011682016040523d82523d6000602084013e610c36565b606091505b5050905080610c7a576040517f08c379a0000000000000000000000000000000000000000000000000000000008152600401610c7190612d85565b60405180910390fd5b600460009054906101000a900473ffffffffffffffffffffffffffffffffffffffff1673ffffffffffffffffffffffffffffffffffffffff166323b872dd3060036000600b54815260200190815260200160002060030160009054906101000a900473ffffffffffffffffffffffffffffffffffffffff16600b546040518463ffffffff1660e01b8152600401610d1393929190612da5565b600060405180830381600087803b158015610d2d57600080fd5b505af1158015610d41573d6000803e3d6000fd5b50505050505b600060036000600b54815260200190815260200160002060040160146101000a81548160ff0219169083151502179055506000600a60006101000a81548160ff0219169083151502179055507f834e31133c0eac64e1b9ef5d6e54713e1b3ed7196088a41626439040c3bc32b2600b5460036000600b5481526020019081526020016000206000015460036000600b5481526020019081526020016000206001015460036000600b54815260200190815260200160002060030160009054906101000a900473ffffffffffffffffffffffffffffffffffffffff1660036000600b54815260200190815260200160002060050154604051610e4c959493929190612ddc565b60405180910390a1565b600d60003373ffffffffffffffffffffffffffffffffffffffff1673ffffffffffffffffffffffffffffffffffffffff16815260200190815260200160002060009054906101000a900460ff16610eac57600080fd5b80600c8190555050565b610ebe612577565b73ffffffffffffffffffffffffffffffffffffffff16610edc6115ba565b73ffffffffffffffffffffffffffffffffffffffff1614610f32576040517f08c379a0000000000000000000000000000000000000000000000000000000008152600401610f2990612e7b565b60405180910390fd5b80600d60008473ffffffffffffffffffffffffffffffffffffffff1673ffffffffffffffffffffffffffffffffffffffff16815260200190815260200160002060006101000a81548160ff0219169083151502179055505050565b60036020528060005260406000206000915090508060000154908060010154908060020154908060030160009054906101000a900473ffffffffffffffffffffffffffffffffffffffff16908060040160009054906101000a900473ffffffffffffffffffffffffffffffffffffffff16908060040160149054906101000a900460ff16908060050154905087565b611024612577565b73ffffffffffffffffffffffffffffffffffffffff166110426115ba565b73ffffffffffffffffffffffffffffffffffffffff1614611098576040517f08c379a000000000000000000000000000000000000000000000000000000000815260040161108f90612e7b565b60405180910390fd5b6110a2600061257f565b565b60055481565b600d60003373ffffffffffffffffffffffffffffffffffffffff1673ffffffffffffffffffffffffffffffffffffffff16815260200190815260200160002060009054906101000a900460ff1661110057600080fd5b60011515600a60009054906101000a900460ff16151514611156576040517f08c379a000000000000000000000000000000000000000000000000000000000815260040161114d90612bfb565b60405180910390fd5b6001151560036000600b54815260200190815260200160002060040160149054906101000a900460ff161515146111c2576040517f08c379a00000000000000000000000000000000000000000000000000000000081526004016111b990612c67565b60405180910390fd5b600060036000600b548152602001908152602001600020600001541115611416576000600160009054906101000a900473ffffffffffffffffffffffffffffffffffffffff1673ffffffffffffffffffffffffffffffffffffffff1663a9059cbb60036000600b54815260200190815260200160002060030160009054906101000a900473ffffffffffffffffffffffffffffffffffffffff1660036000600b548152602001908152602001600020600001546040518363ffffffff1660e01b8152600401611292929190612e9b565b6020604051808303816000875af11580156112b1573d6000803e3d6000fd5b505050506040513d601f19601f820116820180604052508101906112d59190612ed9565b905080611317576040517f08c379a000000000000000000000000000000000000000000000000000000000815260040161130e90612f52565b60405180910390fd5b600060036000600b54815260200190815260200160002060030160009054906101000a900473ffffffffffffffffffffffffffffffffffffffff1673ffffffffffffffffffffffffffffffffffffffff1660036000600b5481526020019081526020016000206001015460405161138d90612d24565b60006040518083038185875af1925050503d80600081146113ca576040519150601f19603f3d011682016040523d82523d6000602084013e6113cf565b606091505b5050905080611413576040517f08c379a000000000000000000000000000000000000000000000000000000000815260040161140a90612d85565b60405180910390fd5b50505b600460009054906101000a900473ffffffffffffffffffffffffffffffffffffffff1673ffffffffffffffffffffffffffffffffffffffff166342966c68600b546040518263ffffffff1660e01b81526004016114739190612900565b600060405180830381600087803b15801561148d57600080fd5b505af11580156114a1573d6000803e3d6000fd5b50505050600060036000600b54815260200190815260200160002060040160146101000a81548160ff0219169083151502179055506000600a60006101000a81548160ff0219169083151502179055507f834e31133c0eac64e1b9ef5d6e54713e1b3ed7196088a41626439040c3bc32b2600b5460036000600b5481526020019081526020016000206000015460036000600b5481526020019081526020016000206001015460036000600b54815260200190815260200160002060030160009054906101000a900473ffffffffffffffffffffffffffffffffffffffff1660036000600b548152602001908152602001600020600501546040516115aa959493929190612ddc565b60405180910390a1565b60085481565b60008060009054906101000a900473ffffffffffffffffffffffffffffffffffffffff16905090565b60011515600a60009054906101000a900460ff16151514611639576040517f08c379a000000000000000000000000000000000000000000000000000000000815260040161163090612bfb565b60405180910390fd5b6001151560036000600b54815260200190815260200160002060040160149054906101000a900460ff161515146116a5576040517f08c379a000000000000000000000000000000000000000000000000000000000815260040161169c90612c67565b60405180910390fd5b4260036000600b54815260200190815260200160002060020154116116ff576040517f08c379a00000000000000000000000000000000000000000000000000000000081526004016116f690612fbe565b60405180910390fd5b60036000600b5481526020019081526020016000206001015434101561175a576040517f08c379a00000000000000000000000000000000000000000000000000000000081526004016117519061302a565b60405180910390fd5b60036000600b5481526020019081526020016000206000015481116117b4576040517f08c379a00000000000000000000000000000000000000000000000000000000081526004016117ab90613096565b60405180910390fd5b6000600160009054906101000a900473ffffffffffffffffffffffffffffffffffffffff1673ffffffffffffffffffffffffffffffffffffffff1663dd62ed3e33306040518363ffffffff1660e01b81526004016118139291906130b6565b602060405180830381865afa158015611830573d6000803e3d6000fd5b505050506040513d601f19601f820116820180604052508101906118549190612ac3565b905081811015611899576040517f08c379a00000000000000000000000000000000000000000000000000000000081526004016118909061312b565b60405180910390fd5b6000600160009054906101000a900473ffffffffffffffffffffffffffffffffffffffff1673ffffffffffffffffffffffffffffffffffffffff166323b872dd3330866040518463ffffffff1660e01b81526004016118fa93929190612da5565b6020604051808303816000875af1158015611919573d6000803e3d6000fd5b505050506040513d601f19601f8201168201806040525081019061193d9190612ed9565b90508061197f576040517f08c379a000000000000000000000000000000000000000000000000000000000815260040161197690613197565b60405180910390fd5b60036000600b54815260200190815260200160002060030160009054906101000a900473ffffffffffffffffffffffffffffffffffffffff1673ffffffffffffffffffffffffffffffffffffffff1660036000600b54815260200190815260200160002060040160009054906101000a900473ffffffffffffffffffffffffffffffffffffffff1673ffffffffffffffffffffffffffffffffffffffff1614611c55576000600160009054906101000a900473ffffffffffffffffffffffffffffffffffffffff1673ffffffffffffffffffffffffffffffffffffffff1663a9059cbb60036000600b54815260200190815260200160002060030160009054906101000a900473ffffffffffffffffffffffffffffffffffffffff1660036000600b548152602001908152602001600020600001546040518363ffffffff1660e01b8152600401611ad1929190612e9b565b6020604051808303816000875af1158015611af0573d6000803e3d6000fd5b505050506040513d601f19601f82011682018060405250810190611b149190612ed9565b905080611b56576040517f08c379a0000000000000000000000000000000000000000000000000000000008152600401611b4d90612f52565b60405180910390fd5b600060036000600b54815260200190815260200160002060030160009054906101000a900473ffffffffffffffffffffffffffffffffffffffff1673ffffffffffffffffffffffffffffffffffffffff1660036000600b54815260200190815260200160002060010154604051611bcc90612d24565b60006040518083038185875af1925050503d8060008114611c09576040519150601f19603f3d011682016040523d82523d6000602084013e611c0e565b606091505b5050905080611c52576040517f08c379a0000000000000000000000000000000000000000000000000000000008152600401611c4990612d85565b60405180910390fd5b50505b8260036000600b548152602001908152602001600020600001819055503460036000600b548152602001908152602001600020600101819055503360036000600b54815260200190815260200160002060030160006101000a81548173ffffffffffffffffffffffffffffffffffffffff021916908373ffffffffffffffffffffffffffffffffffffffff160217905550600160036000600b54815260200190815260200160002060050154611d0b91906126ad565b60036000600b548152602001908152602001600020600501819055507f379fe8bc550443c6867a021184bb0e5a961f3fcd271160873847410c7bdd0e28600b5460036000600b5481526020019081526020016000206000015460036000600b5481526020019081526020016000206001015460036000600b54815260200190815260200160002060030160009054906101000a900473ffffffffffffffffffffffffffffffffffffffff16604051611dc694939291906131b7565b60405180910390a1505050565b600d60003373ffffffffffffffffffffffffffffffffffffffff1673ffffffffffffffffffffffffffffffffffffffff16815260200190815260200160002060009054906101000a900460ff16611e2957600080fd5b60001515600a60009054906101000a900460ff16151514611e7f576040517f08c379a0000000000000000000000000000000000000000000000000000000008152600401611e7690613248565b60405180910390fd5b600073ffffffffffffffffffffffffffffffffffffffff168273ffffffffffffffffffffffffffffffffffffffff161415611eef576040517f08c379a0000000000000000000000000000000000000000000000000000000008152600401611ee6906132b4565b60405180910390fd5b600081118015611f995750600160009054906101000a900473ffffffffffffffffffffffffffffffffffffffff1673ffffffffffffffffffffffffffffffffffffffff166370a08231306040518263ffffffff1660e01b8152600401611f55919061291b565b602060405180830381865afa158015611f72573d6000803e3d6000fd5b505050506040513d601f19601f82011682018060405250810190611f969190612ac3565b81105b611fd8576040517f08c379a0000000000000000000000000000000000000000000000000000000008152600401611fcf90613320565b60405180910390fd5b600160009054906101000a900473ffffffffffffffffffffffffffffffffffffffff1673ffffffffffffffffffffffffffffffffffffffff166323b872dd3084846040518463ffffffff1660e01b815260040161203793929190612da5565b6020604051808303816000875af1158015612056573d6000803e3d6000fd5b505050506040513d601f19601f8201168201806040525081019061207a9190612ed9565b505050565b60075481565b600a60009054906101000a900460ff1681565b600d60003373ffffffffffffffffffffffffffffffffffffffff1673ffffffffffffffffffffffffffffffffffffffff16815260200190815260200160002060009054906101000a900460ff166120ee57600080fd5b600073ffffffffffffffffffffffffffffffffffffffff168173ffffffffffffffffffffffffffffffffffffffff16141561215e576040517f08c379a0000000000000000000000000000000000000000000000000000000008152600401612155906132b4565b60405180910390fd5b80600460006101000a81548173ffffffffffffffffffffffffffffffffffffffff021916908373ffffffffffffffffffffffffffffffffffffffff1602179055506000600581905550601e6007819055506509184e72a000600881905550426006819055506000600a60006101000a81548160ff021916908315150217905550600a60098190555050565b600d60003373ffffffffffffffffffffffffffffffffffffffff1673ffffffffffffffffffffffffffffffffffffffff16815260200190815260200160002060009054906101000a900460ff1661223f57600080fd5b81600781905550806009819055505050565b60095481565b600b5481565b612265612577565b73ffffffffffffffffffffffffffffffffffffffff166122836115ba565b73ffffffffffffffffffffffffffffffffffffffff16146122d9576040517f08c379a00000000000000000000000000000000000000000000000000000000081526004016122d090612e7b565b60405180910390fd5b600073ffffffffffffffffffffffffffffffffffffffff168173ffffffffffffffffffffffffffffffffffffffff161415612349576040517f08c379a0000000000000000000000000000000000000000000000000000000008152600401612340906133b2565b60405180910390fd5b6123528161257f565b50565b600d60003373ffffffffffffffffffffffffffffffffffffffff1673ffffffffffffffffffffffffffffffffffffffff16815260200190815260200160002060009054906101000a900460ff166123ab57600080fd5b60001515600a60009054906101000a900460ff16151514612401576040517f08c379a00000000000000000000000000000000000000000000000000000000081526004016123f890613248565b60405180910390fd5b600073ffffffffffffffffffffffffffffffffffffffff168273ffffffffffffffffffffffffffffffffffffffff161415612471576040517f08c379a0000000000000000000000000000000000000000000000000000000008152600401612468906132b4565b60405180910390fd5b600081118015612482575060055481105b6124c1576040517f08c379a00000000000000000000000000000000000000000000000000000000081526004016124b890613320565b60405180910390fd5b8173ffffffffffffffffffffffffffffffffffffffff166108fc829081150290604051600060405180830381858888f19350505050158015612507573d6000803e3d6000fd5b508060055461251691906133d2565b6005819055505050565b600c5481565b60008060075461253860065442612643565b6125429190613435565b9050670de0b6b3a764000060095460028361255d9190613466565b6125679190613435565b6125719190613466565b91505090565b600033905090565b60008060009054906101000a900473ffffffffffffffffffffffffffffffffffffffff169050816000806101000a81548173ffffffffffffffffffffffffffffffffffffffff021916908373ffffffffffffffffffffffffffffffffffffffff1602179055508173ffffffffffffffffffffffffffffffffffffffff168173ffffffffffffffffffffffffffffffffffffffff167f8be0079c531659141344cd1fd0a4f28419497f9722a3daafe3b4186f6b6457e060405160405180910390a35050565b60008183111561265257600080fd5b62015180838361266291906133d2565b61266c9190613435565b905092915050565b6000819050919050565b7f4e487b7100000000000000000000000000000000000000000000000000000000600052601160045260246000fd5b60006126b882612674565b91506126c383612674565b9250827fffffffffffffffffffffffffffffffffffffffffffffffffffffffffffffffff038211156126f8576126f761267e565b5b828201905092915050565b600080fd5b600073ffffffffffffffffffffffffffffffffffffffff82169050919050565b600061273382612708565b9050919050565b61274381612728565b811461274e57600080fd5b50565b6000813590506127608161273a565b92915050565b60006020828403121561277c5761277b612703565b5b600061278a84828501612751565b91505092915050565b61279c81612674565b81146127a757600080fd5b50565b6000813590506127b981612793565b92915050565b6000602082840312156127d5576127d4612703565b5b60006127e3848285016127aa565b91505092915050565b60008115159050919050565b612801816127ec565b811461280c57600080fd5b50565b60008135905061281e816127f8565b92915050565b6000806040838503121561283b5761283a612703565b5b600061284985828601612751565b925050602061285a8582860161280f565b9150509250929050565b61286d81612674565b82525050565b61287c81612728565b82525050565b61288b816127ec565b82525050565b600060e0820190506128a6600083018a612864565b6128b36020830189612864565b6128c06040830188612864565b6128cd6060830187612873565b6128da6080830186612873565b6128e760a0830185612882565b6128f460c0830184612864565b98975050505050505050565b60006020820190506129156000830184612864565b92915050565b60006020820190506129306000830184612873565b92915050565b6000806040838503121561294d5761294c612703565b5b600061295b85828601612751565b925050602061296c858286016127aa565b9150509250929050565b600060208201905061298b6000830184612882565b92915050565b600080604083850312156129a8576129a7612703565b5b60006129b6858286016127aa565b92505060206129c7858286016127aa565b9150509250929050565b600082825260208201905092915050565b7f4f6e652041756374696f6e206973206f70656e696e6700000000000000000000600082015250565b6000612a186016836129d1565b9150612a23826129e2565b602082019050919050565b60006020820190508181036000830152612a4781612a0b565b9050919050565b6000819050919050565b6000819050919050565b6000612a7d612a78612a7384612a4e565b612a58565b612674565b9050919050565b612a8d81612a62565b82525050565b6000602082019050612aa86000830184612a84565b92915050565b600081519050612abd81612793565b92915050565b600060208284031215612ad957612ad8612703565b5b6000612ae784828501612aae565b91505092915050565b7f4f6e676f696e672061756374696f6e2064657465637465640000000000000000600082015250565b6000612b266018836129d1565b9150612b3182612af0565b602082019050919050565b60006020820190508181036000830152612b5581612b19565b9050919050565b600060a082019050612b716000830188612864565b612b7e6020830187612864565b612b8b6040830186612864565b612b986060830185612864565b612ba56080830184612873565b9695505050505050565b7f4e6f7420666f756e642041756374696f6e206973206f70656e696e6700000000600082015250565b6000612be5601c836129d1565b9150612bf082612baf565b602082019050919050565b60006020820190508181036000830152612c1481612bd8565b9050919050565b7f4e6f74206163746976652061756374696f6e0000000000000000000000000000600082015250565b6000612c516012836129d1565b9150612c5c82612c1b565b602082019050919050565b60006020820190508181036000830152612c8081612c44565b9050919050565b7f4c6173746573742041756374696f6e206973206e6f7420636c6f736564000000600082015250565b6000612cbd601d836129d1565b9150612cc882612c87565b602082019050919050565b60006020820190508181036000830152612cec81612cb0565b9050919050565b600081905092915050565b50565b6000612d0e600083612cf3565b9150612d1982612cfe565b600082019050919050565b6000612d2f82612d01565b9150819050919050565b7f5472616e7366657220424e42206661696c656400000000000000000000000000600082015250565b6000612d6f6013836129d1565b9150612d7a82612d39565b602082019050919050565b60006020820190508181036000830152612d9e81612d62565b9050919050565b6000606082019050612dba6000830186612873565b612dc76020830185612873565b612dd46040830184612864565b949350505050565b600060a082019050612df16000830188612864565b612dfe6020830187612864565b612e0b6040830186612864565b612e186060830185612873565b612e256080830184612864565b9695505050505050565b7f4f776e61626c653a2063616c6c6572206973206e6f7420746865206f776e6572600082015250565b6000612e656020836129d1565b9150612e7082612e2f565b602082019050919050565b60006020820190508181036000830152612e9481612e58565b9050919050565b6000604082019050612eb06000830185612873565b612ebd6020830184612864565b9392505050565b600081519050612ed3816127f8565b92915050565b600060208284031215612eef57612eee612703565b5b6000612efd84828501612ec4565b91505092915050565b7f7472616e736665722057444120546f6b656e206661696c656400000000000000600082015250565b6000612f3c6019836129d1565b9150612f4782612f06565b602082019050919050565b60006020820190508181036000830152612f6b81612f2f565b9050919050565b7f41756374696f6e20697320636c6f736564000000000000000000000000000000600082015250565b6000612fa86011836129d1565b9150612fb382612f72565b602082019050919050565b60006020820190508181036000830152612fd781612f9b565b9050919050565b7f5769746820426e62206e6f7420656e6f75676800000000000000000000000000600082015250565b60006130146013836129d1565b915061301f82612fde565b602082019050919050565b6000602082019050818103600083015261304381613007565b9050919050565b7f42696420697320746f6f206c6f77000000000000000000000000000000000000600082015250565b6000613080600e836129d1565b915061308b8261304a565b602082019050919050565b600060208201905081810360008301526130af81613073565b9050919050565b60006040820190506130cb6000830185612873565b6130d86020830184612873565b9392505050565b7f4f76657220616c6c6f77616e6365000000000000000000000000000000000000600082015250565b6000613115600e836129d1565b9150613120826130df565b602082019050919050565b6000602082019050818103600083015261314481613108565b9050919050565b7f546f6b656e2063616e277420686f6c6400000000000000000000000000000000600082015250565b60006131816010836129d1565b915061318c8261314b565b602082019050919050565b600060208201905081810360008301526131b081613174565b9050919050565b60006080820190506131cc6000830187612864565b6131d96020830186612864565b6131e66040830185612864565b6131f36060830184612873565b95945050505050565b7f412061756374696f6e206973206f70656e696e67000000000000000000000000600082015250565b60006132326014836129d1565b915061323d826131fc565b602082019050919050565b6000602082019050818103600083015261326181613225565b9050919050565b7f496e76616c696420616464726573730000000000000000000000000000000000600082015250565b600061329e600f836129d1565b91506132a982613268565b602082019050919050565b600060208201905081810360008301526132cd81613291565b9050919050565b7f496e76616c696420616d6f756e74000000000000000000000000000000000000600082015250565b600061330a600e836129d1565b9150613315826132d4565b602082019050919050565b60006020820190508181036000830152613339816132fd565b9050919050565b7f4f776e61626c653a206e6577206f776e657220697320746865207a65726f206160008201527f6464726573730000000000000000000000000000000000000000000000000000602082015250565b600061339c6026836129d1565b91506133a782613340565b604082019050919050565b600060208201905081810360008301526133cb8161338f565b9050919050565b60006133dd82612674565b91506133e883612674565b9250828210156133fb576133fa61267e565b5b828203905092915050565b7f4e487b7100000000000000000000000000000000000000000000000000000000600052601260045260246000fd5b600061344082612674565b915061344b83612674565b92508261345b5761345a613406565b5b828204905092915050565b600061347182612674565b915061347c83612674565b9250817fffffffffffffffffffffffffffffffffffffffffffffffffffffffffffffffff04831182151516156134b5576134b461267e565b5b82820290509291505056fea26469706673582212205a58f3eb81d5a02c50c90122c1844390b541301bae6c198507c17b68582bf83364736f6c634300080b0033",
  "immutableReferences": {},
  "source": "// SPDX-License-Identifier: MIT\r\npragma solidity ^0.8.0;\r\n\r\nimport \"../NFT/ICrownNFT.sol\";\r\nimport \"@openzeppelin/contracts/access/Ownable.sol\";\r\nimport \"@openzeppelin/contracts/token/ERC20/IERC20.sol\";\r\n\r\ncontract AuctionCrown is Ownable {\r\n    address wdaToken;\r\n    address daoTreasuryAddress; // Dao Treasury address\r\n\r\n    struct Auction {\r\n        uint256 highestBid;\r\n        uint256 withBnb;\r\n        uint256 closingTime;\r\n        address highestBidder;\r\n        address originalOwner;\r\n        bool isActive;\r\n        uint256 totalBid;\r\n    }\r\n\r\n    // NFT id => Auction data\r\n    mapping(uint256 => Auction) public auctions;\r\n\r\n    // CrownNFT contract interface\r\n    ICrownNFT private sNft_;\r\n\r\n    // BNB balance\r\n    uint256 public balances;\r\n\r\n    uint256 constant SECONDS_PER_DAY = 24 * 60 * 60;\r\n\r\n    // initialize Time\r\n    uint256 private initTime;\r\n\r\n    // period days\r\n    uint256 public periodDays; //days\r\n\r\n    // BNB price\r\n    uint256 public priceBnb;\r\n\r\n    // BNB plus by periodDays\r\n    uint256 public decimalPlusBnb;\r\n\r\n    //avaibale currently Auction\r\n    bool public isAuction;\r\n\r\n    //id NFT is auctioning\r\n    uint256 public lastNftId;\r\n\r\n    //duration Time\r\n    uint256 public durationTime = 2 * 60 * 60;\r\n\r\n    //mapping of admin\r\n    mapping(address => bool) private adminHandle;\r\n\r\n    /**\r\n     * @dev New Auction Opened Event\r\n     * @param nftId Auction NFT Id\r\n     * @param startingBid NFT starting bid price\r\n     * @param withBnb Bnb with bid price\r\n     * @param closingTime Auction close time\r\n     * @param originalOwner Auction creator address\r\n     */\r\n    event NewAuctionOpened(\r\n        uint256 nftId,\r\n        uint256 startingBid,\r\n        uint256 withBnb,\r\n        uint256 closingTime,\r\n        address originalOwner\r\n    );\r\n\r\n    /**\r\n     * @dev Auction Closed Event\r\n     * @param nftId Auction NFT id\r\n     * @param highestBid Auction highest bid\r\n     * @param withBnb Bnb with bid price\r\n     * @param highestBidder Auction highest bidder\r\n     */\r\n    event AuctionClosed(\r\n        uint256 nftId,\r\n        uint256 highestBid,\r\n        uint256 withBnb,\r\n        address highestBidder,\r\n        uint256 totalBid\r\n    );\r\n\r\n    /**\r\n     * @dev Bid Placed Event\r\n     * @param nftId Auction NFT id\r\n     * @param bidPrice Bid price\r\n     * @param withBnb with Bnb price\r\n     * @param bidder Bidder address\r\n     */\r\n    event BidPlaced(\r\n        uint256 nftId,\r\n        uint256 bidPrice,\r\n        uint256 withBnb,\r\n        address bidder\r\n    );\r\n\r\n    /**\r\n     * @dev Receive BNB. msg.data is empty\r\n     */\r\n    receive() external payable {\r\n        balances += msg.value;\r\n    }\r\n\r\n    /**\r\n     * @dev Receive BNB. msg.data is not empty\r\n     */\r\n    fallback() external payable {\r\n        balances += msg.value;\r\n    }\r\n\r\n    /**\r\n     * @dev Contructor Smart contract\r\n     * @param token_ address token\r\n     */\r\n    constructor(address token_, address daoTreasuryAddress_) {\r\n        wdaToken = token_;\r\n        daoTreasuryAddress = daoTreasuryAddress_;\r\n        adminHandle[msg.sender] = true;\r\n    }\r\n\r\n    /**\r\n     * @dev Initialize states\r\n     * @param _sNft CrownNFT contract address\r\n     */\r\n    function initialize(address _sNft) external onlyAdmin {\r\n        require(_sNft != address(0), \"Invalid address\");\r\n        sNft_ = ICrownNFT(_sNft);\r\n        balances = 0;\r\n        periodDays = 30;\r\n        priceBnb = 0.00001 * 10**18;\r\n        initTime = block.timestamp;\r\n        isAuction = false;\r\n        decimalPlusBnb = 10;\r\n    }\r\n\r\n    /**\r\n     * @dev Open Auction\r\n     */\r\n    function openAuction() external onlyAdmin{\r\n        require(isAuction == false, \"One Auction is opening\");\r\n        //Mint Nft for Auction\r\n        uint256 _nftId = sNft_.mintValidTarget(1);\r\n\r\n        require(auctions[_nftId].isActive == false, \"Ongoing auction detected\");\r\n        lastNftId = _nftId;\r\n        isAuction = true;\r\n\r\n        uint256 _withBnb = priceBnb + augmentBnb();\r\n        // Opening new auction\r\n        auctions[_nftId].highestBid = 0;\r\n        auctions[_nftId].withBnb = _withBnb;\r\n        auctions[_nftId].closingTime = block.timestamp + durationTime;\r\n        auctions[_nftId].highestBidder = msg.sender;\r\n        auctions[_nftId].originalOwner = msg.sender;\r\n        auctions[_nftId].isActive = true;\r\n        auctions[_nftId].totalBid = 0;\r\n\r\n        emit NewAuctionOpened(\r\n            _nftId,\r\n            auctions[_nftId].highestBid,\r\n            auctions[_nftId].withBnb,\r\n            auctions[_nftId].closingTime,\r\n            auctions[_nftId].highestBidder\r\n        );\r\n    }\r\n\r\n    /**\r\n     * @dev Place Bid\r\n     */\r\n    function placeBid(uint256 _priceBid) external payable {\r\n        require(isAuction == true, \"Not found Auction is opening\");\r\n        require(auctions[lastNftId].isActive == true, \"Not active auction\");\r\n        require(\r\n            auctions[lastNftId].closingTime > block.timestamp,\r\n            \"Auction is closed\"\r\n        );\r\n        require(msg.value >= auctions[lastNftId].withBnb, \"With Bnb not enough\");\r\n\r\n        require(_priceBid > auctions[lastNftId].highestBid, \"Bid is too low\");\r\n\r\n        // check allowance of msg.sender\r\n        uint256 allowance = IERC20(wdaToken).allowance(\r\n            msg.sender,\r\n            address(this)\r\n        );\r\n        require(allowance >= _priceBid, \"Over allowance\");\r\n        // Holding : Transfer Amount of price Bid to SM Wallet\r\n        bool holding = IERC20(wdaToken).transferFrom(\r\n            msg.sender,\r\n            address(this),\r\n            _priceBid\r\n        );\r\n        require(holding, \"Token can't hold\");\r\n\r\n        if (auctions[lastNftId].originalOwner != auctions[lastNftId].highestBidder) {\r\n            //Transfer WDA token to Previous Highest Bidder\r\n            bool backWDA = IERC20(wdaToken).transfer(\r\n                auctions[lastNftId].highestBidder,\r\n                auctions[lastNftId].highestBid\r\n            );\r\n            require(backWDA, \"transfer WDA Token failed\");\r\n\r\n            // Transfer BNB to Previous Highest Bidder\r\n            (bool sent, ) = payable(auctions[lastNftId].highestBidder).call{\r\n                value: auctions[lastNftId].withBnb\r\n            }(\"\");\r\n\r\n            require(sent, \"Transfer BNB failed\");\r\n        }\r\n\r\n        auctions[lastNftId].highestBid = _priceBid;\r\n        auctions[lastNftId].withBnb = msg.value;\r\n        auctions[lastNftId].highestBidder = msg.sender;\r\n        auctions[lastNftId].totalBid = auctions[lastNftId].totalBid + 1;\r\n\r\n        emit BidPlaced(\r\n            lastNftId,\r\n            auctions[lastNftId].highestBid,\r\n            auctions[lastNftId].withBnb,\r\n            auctions[lastNftId].highestBidder\r\n        );\r\n    }\r\n\r\n    /**\r\n     * @dev Close Auction\r\n     */\r\n    function closeAuction() external onlyAdmin {\r\n        require(isAuction == true, \"Not found Auction is opening\");\r\n        require(auctions[lastNftId].isActive == true, \"Not active auction\");\r\n        require(\r\n            auctions[lastNftId].closingTime <= block.timestamp,\r\n            \"Lastest Auction is not closed\"\r\n        );\r\n\r\n        if (auctions[lastNftId].highestBid == 0) {\r\n            //Bids is empty, NFT will be burn\r\n            sNft_.burn(lastNftId);\r\n        } else {\r\n            // Transfer BNB to Dao Treasury\r\n            (bool sent, ) = payable(daoTreasuryAddress).call{\r\n                    value: auctions[lastNftId].withBnb\r\n                }(\"\");\r\n\r\n            require(sent, \"Transfer BNB failed\");\r\n\r\n            // Transfer NFT to Highest Bidder\r\n            sNft_.transferFrom(\r\n                address(this),\r\n                auctions[lastNftId].highestBidder,\r\n                lastNftId\r\n            );\r\n        }\r\n        // Close Auction\r\n        auctions[lastNftId].isActive = false;\r\n        isAuction = false;\r\n\r\n        emit AuctionClosed(\r\n            lastNftId,\r\n            auctions[lastNftId].highestBid,\r\n            auctions[lastNftId].withBnb,\r\n            auctions[lastNftId].highestBidder,\r\n            auctions[lastNftId].totalBid\r\n        );\r\n    }\r\n\r\n    /**\r\n     * if owner want to force close a Auction\r\n     */\r\n    function forceCloseAuction() external onlyAdmin {\r\n        require(isAuction == true, \"Not found Auction is opening\");\r\n        require(auctions[lastNftId].isActive == true, \"Not active auction\");\r\n        \r\n        if(auctions[lastNftId].highestBid > 0) {\r\n            //Transfer WDA token to Previous Highest Bidder\r\n            bool backWDA = IERC20(wdaToken).transfer(\r\n                auctions[lastNftId].highestBidder,\r\n                auctions[lastNftId].highestBid\r\n            );\r\n            require(backWDA, \"transfer WDA Token failed\");\r\n\r\n            // Transfer BNB to Previous Highest Bidder\r\n            (bool sent, ) = payable(auctions[lastNftId].highestBidder).call{\r\n                value: auctions[lastNftId].withBnb\r\n            }(\"\");\r\n\r\n            require(sent, \"Transfer BNB failed\");\r\n        }\r\n\r\n        //burn NFT\r\n        sNft_.burn(lastNftId);\r\n        // Close Auction\r\n        auctions[lastNftId].isActive = false;\r\n        isAuction = false;\r\n\r\n        emit AuctionClosed(\r\n            lastNftId,\r\n            auctions[lastNftId].highestBid,\r\n            auctions[lastNftId].withBnb,\r\n            auctions[lastNftId].highestBidder,\r\n            auctions[lastNftId].totalBid\r\n        );\r\n    }\r\n    /**\r\n     * @dev Withdraw BNB\r\n     * @param _target Spender address\r\n     * @param _amount Transfer amount\r\n     */\r\n    function withdraw(address _target, uint256 _amount) external onlyAdmin {\r\n        require(isAuction == false, \"A auction is opening\");\r\n        require(_target != address(0), \"Invalid address\");\r\n        require(_amount > 0 && _amount < balances, \"Invalid amount\");\r\n\r\n        payable(_target).transfer(_amount);\r\n\r\n        balances = balances - _amount;\r\n    }\r\n\r\n    /**\r\n     * @dev Withdraw WDA token\r\n     * @param _target Spender address\r\n     * @param _amount Transfer amount\r\n     */\r\n    function withdrawWDA(address _target, uint256 _amount) external onlyAdmin {\r\n        require(isAuction == false, \"A auction is opening\");\r\n        require(_target != address(0), \"Invalid address\");\r\n        require(\r\n            _amount > 0 && _amount < IERC20(wdaToken).balanceOf(address(this)),\r\n            \"Invalid amount\"\r\n        );\r\n        IERC20(wdaToken).transferFrom(address(this), _target, _amount);\r\n    }\r\n\r\n    /*\r\n     * @dev Set Dao Treasury Address\r\n     * @param daoTreasuryAdress_ address\r\n     */\r\n    function setDaoTreasuryAddress(address daoTreasuryAddress_)\r\n        external\r\n        onlyAdmin\r\n    {\r\n        daoTreasuryAddress = daoTreasuryAddress_;\r\n    }\r\n\r\n    /*\r\n     * Different beetween 2 timestamps\r\n     */\r\n    function diffDays(uint256 fromTimestamp, uint256 toTimestamp)\r\n        internal\r\n        pure\r\n        returns (uint256 _days)\r\n    {\r\n        require(fromTimestamp <= toTimestamp);\r\n        _days = (toTimestamp - fromTimestamp) / SECONDS_PER_DAY;\r\n    }\r\n\r\n    /**\r\n     * calculate Augement Bnb by time\r\n     */\r\n    function augmentBnb() internal view returns (uint256 _bnb) {\r\n        uint256 _time = diffDays(initTime, block.timestamp) / periodDays;\r\n        return ((_time * 2) / decimalPlusBnb) * 10**18;\r\n    }\r\n\r\n    /**\r\n     * Set Period days\r\n     */\r\n    function setAugmentBnb(uint256 days_, uint256 decimalPlusBnb_) public onlyAdmin {\r\n        periodDays = days_;\r\n        decimalPlusBnb = decimalPlusBnb_;\r\n    }\r\n\r\n    function setDurationTime(uint256 duration_) public onlyAdmin {\r\n        durationTime = duration_;\r\n    }\r\n    /**\r\n      * set admin\r\n      * target: target address\r\n      * permission : true/false\r\n     */\r\n    function setAdmin(address target, bool permission)\r\n        external\r\n        onlyOwner\r\n    {\r\n        adminHandle[target] = permission;\r\n    }\r\n\r\n    modifier onlyAdmin() {\r\n         require(adminHandle[msg.sender]);\r\n        _;\r\n    }\r\n}\r\n",
  "sourcePath": "C:\\Github\\Dao\\Develop\\Blockchain\\dao-project\\contracts\\Auction\\AuctionCrown.sol",
  "compiler": {
    "name": "solc",
    "version": "0.8.11+commit.d7f03943.Emscripten.clang"
  },
  "schemaVersion": "3.4.7",
  "updatedAt": "2022-06-23T10:13:52.584Z",
  "devdoc": {
    "events": {
      "AuctionClosed(uint256,uint256,uint256,address,uint256)": {
        "details": "Auction Closed Event",
        "params": {
          "highestBid": "Auction highest bid",
          "highestBidder": "Auction highest bidder",
          "nftId": "Auction NFT id",
          "withBnb": "Bnb with bid price"
        }
      },
      "BidPlaced(uint256,uint256,uint256,address)": {
        "details": "Bid Placed Event",
        "params": {
          "bidPrice": "Bid price",
          "bidder": "Bidder address",
          "nftId": "Auction NFT id",
          "withBnb": "with Bnb price"
        }
      },
      "NewAuctionOpened(uint256,uint256,uint256,uint256,address)": {
        "details": "New Auction Opened Event",
        "params": {
          "closingTime": "Auction close time",
          "nftId": "Auction NFT Id",
          "originalOwner": "Auction creator address",
          "startingBid": "NFT starting bid price",
          "withBnb": "Bnb with bid price"
        }
      }
    },
    "kind": "dev",
    "methods": {
      "closeAuction()": {
        "details": "Close Auction"
      },
      "constructor": {
        "details": "Contructor Smart contract",
        "params": {
          "token_": "address token"
        }
      },
      "initialize(address)": {
        "details": "Initialize states",
        "params": {
          "_sNft": "CrownNFT contract address"
        }
      },
      "openAuction()": {
        "details": "Open Auction"
      },
      "owner()": {
        "details": "Returns the address of the current owner."
      },
      "placeBid(uint256)": {
        "details": "Place Bid"
      },
      "renounceOwnership()": {
        "details": "Leaves the contract without owner. It will not be possible to call `onlyOwner` functions anymore. Can only be called by the current owner. NOTE: Renouncing ownership will leave the contract without an owner, thereby removing any functionality that is only available to the owner."
      },
      "transferOwnership(address)": {
        "details": "Transfers ownership of the contract to a new account (`newOwner`). Can only be called by the current owner."
      },
      "withdraw(address,uint256)": {
        "details": "Withdraw BNB",
        "params": {
          "_amount": "Transfer amount",
          "_target": "Spender address"
        }
      },
      "withdrawWDA(address,uint256)": {
        "details": "Withdraw WDA token",
        "params": {
          "_amount": "Transfer amount",
          "_target": "Spender address"
        }
      }
    },
    "version": 1
  },
  "userdoc": {
    "kind": "user",
    "methods": {
      "forceCloseAuction()": {
        "notice": "if owner want to force close a Auction"
      },
      "setAdmin(address,bool)": {
        "notice": "set admin target: target address permission : true/false"
      },
      "setAugmentBnb(uint256,uint256)": {
        "notice": "Set Period days"
      }
    },
    "version": 1
  }
}