{
  "contractName": "Box",
  "abi": [
    {
      "anonymous": false,
      "inputs": [
        {
          "indexed": true,
          "internalType": "address",
          "name": "previousOwner",
          "type": "address"
        },
        {
          "indexed": true,
          "internalType": "address",
          "name": "newOwner",
          "type": "address"
        }
      ],
      "name": "OwnershipTransferred",
      "type": "event"
    },
    {
      "inputs": [],
      "name": "owner",
      "outputs": [
        {
          "internalType": "address",
          "name": "",
          "type": "address"
        }
      ],
      "stateMutability": "view",
      "type": "function"
    },
    {
      "inputs": [],
      "name": "renounceOwnership",
      "outputs": [],
      "stateMutability": "nonpayable",
      "type": "function"
    },
    {
      "inputs": [
        {
          "internalType": "address",
          "name": "newOwner",
          "type": "address"
        }
      ],
      "name": "transferOwnership",
      "outputs": [],
      "stateMutability": "nonpayable",
      "type": "function"
    },
    {
      "inputs": [
        {
          "internalType": "uint256",
          "name": "val_",
          "type": "uint256"
        }
      ],
      "name": "setVal",
      "outputs": [],
      "stateMutability": "nonpayable",
      "type": "function"
    },
    {
      "inputs": [],
      "name": "getVal",
      "outputs": [
        {
          "internalType": "uint256",
          "name": "",
          "type": "uint256"
        }
      ],
      "stateMutability": "view",
      "type": "function"
    }
  ],
  "bytecode": "0x608060405234801561001057600080fd5b5061002d61002261003260201b60201c565b61003a60201b60201c565b6100fe565b600033905090565b60008060009054906101000a900473ffffffffffffffffffffffffffffffffffffffff169050816000806101000a81548173ffffffffffffffffffffffffffffffffffffffff021916908373ffffffffffffffffffffffffffffffffffffffff1602179055508173ffffffffffffffffffffffffffffffffffffffff168173ffffffffffffffffffffffffffffffffffffffff167f8be0079c531659141344cd1fd0a4f28419497f9722a3daafe3b4186f6b6457e060405160405180910390a35050565b61066b8061010d6000396000f3fe608060405234801561001057600080fd5b50600436106100575760003560e01c80633d4197f01461005c578063715018a6146100785780638da5cb5b14610082578063e1cb0e52146100a0578063f2fde38b146100be575b600080fd5b6100766004803603810190610071919061041a565b6100da565b005b610080610160565b005b61008a6101e8565b6040516100979190610488565b60405180910390f35b6100a8610211565b6040516100b591906104b2565b60405180910390f35b6100d860048036038101906100d391906104f9565b61021b565b005b6100e2610313565b73ffffffffffffffffffffffffffffffffffffffff166101006101e8565b73ffffffffffffffffffffffffffffffffffffffff1614610156576040517f08c379a000000000000000000000000000000000000000000000000000000000815260040161014d90610583565b60405180910390fd5b8060018190555050565b610168610313565b73ffffffffffffffffffffffffffffffffffffffff166101866101e8565b73ffffffffffffffffffffffffffffffffffffffff16146101dc576040517f08c379a00000000000000000000000000000000000000000000000000000000081526004016101d390610583565b60405180910390fd5b6101e6600061031b565b565b60008060009054906101000a900473ffffffffffffffffffffffffffffffffffffffff16905090565b6000600154905090565b610223610313565b73ffffffffffffffffffffffffffffffffffffffff166102416101e8565b73ffffffffffffffffffffffffffffffffffffffff1614610297576040517f08c379a000000000000000000000000000000000000000000000000000000000815260040161028e90610583565b60405180910390fd5b600073ffffffffffffffffffffffffffffffffffffffff168173ffffffffffffffffffffffffffffffffffffffff161415610307576040517f08c379a00000000000000000000000000000000000000000000000000000000081526004016102fe90610615565b60405180910390fd5b6103108161031b565b50565b600033905090565b60008060009054906101000a900473ffffffffffffffffffffffffffffffffffffffff169050816000806101000a81548173ffffffffffffffffffffffffffffffffffffffff021916908373ffffffffffffffffffffffffffffffffffffffff1602179055508173ffffffffffffffffffffffffffffffffffffffff168173ffffffffffffffffffffffffffffffffffffffff167f8be0079c531659141344cd1fd0a4f28419497f9722a3daafe3b4186f6b6457e060405160405180910390a35050565b600080fd5b6000819050919050565b6103f7816103e4565b811461040257600080fd5b50565b600081359050610414816103ee565b92915050565b6000602082840312156104305761042f6103df565b5b600061043e84828501610405565b91505092915050565b600073ffffffffffffffffffffffffffffffffffffffff82169050919050565b600061047282610447565b9050919050565b61048281610467565b82525050565b600060208201905061049d6000830184610479565b92915050565b6104ac816103e4565b82525050565b60006020820190506104c760008301846104a3565b92915050565b6104d681610467565b81146104e157600080fd5b50565b6000813590506104f3816104cd565b92915050565b60006020828403121561050f5761050e6103df565b5b600061051d848285016104e4565b91505092915050565b600082825260208201905092915050565b7f4f776e61626c653a2063616c6c6572206973206e6f7420746865206f776e6572600082015250565b600061056d602083610526565b915061057882610537565b602082019050919050565b6000602082019050818103600083015261059c81610560565b9050919050565b7f4f776e61626c653a206e6577206f776e657220697320746865207a65726f206160008201527f6464726573730000000000000000000000000000000000000000000000000000602082015250565b60006105ff602683610526565b915061060a826105a3565b604082019050919050565b6000602082019050818103600083015261062e816105f2565b905091905056fea264697066735822122039ba50490a450662374c2f0d62c4b8df6aae07dd3911447bc395df111beecfbe64736f6c634300080b0033",
  "immutableReferences": {},
  "source": "// SPDX-License-Identifier:MIT\r\npragma solidity ^0.8.0;\r\n\r\nimport \"@openzeppelin/contracts/access/Ownable.sol\";\r\n\r\ncontract Box is Ownable{\r\n    uint256 private _val;\r\n\r\n    function setVal(uint256 val_)external onlyOwner {\r\n        _val = val_;\r\n    }\r\n    function getVal() external view returns(uint256) {\r\n        return _val;\r\n    }\r\n}",
  "sourcePath": "C:\\Github\\Dao\\Develop\\Blockchain\\dao-project\\contracts\\Test\\Box.sol",
  "compiler": {
    "name": "solc",
    "version": "0.8.11+commit.d7f03943.Emscripten.clang"
  },
  "schemaVersion": "3.4.7",
  "updatedAt": "2022-06-23T10:13:52.807Z",
  "devdoc": {
    "kind": "dev",
    "methods": {
      "owner()": {
        "details": "Returns the address of the current owner."
      },
      "renounceOwnership()": {
        "details": "Leaves the contract without owner. It will not be possible to call `onlyOwner` functions anymore. Can only be called by the current owner. NOTE: Renouncing ownership will leave the contract without an owner, thereby removing any functionality that is only available to the owner."
      },
      "transferOwnership(address)": {
        "details": "Transfers ownership of the contract to a new account (`newOwner`). Can only be called by the current owner."
      }
    },
    "version": 1
  },
  "userdoc": {
    "kind": "user",
    "methods": {},
    "version": 1
  }
}