{
  "contractName": "BUSD",
  "abi": [
    {
      "inputs": [
        {
          "internalType": "string",
          "name": "name_",
          "type": "string"
        },
        {
          "internalType": "string",
          "name": "symbol_",
          "type": "string"
        },
        {
          "internalType": "uint256",
          "name": "initialSupply",
          "type": "uint256"
        }
      ],
      "stateMutability": "nonpayable",
      "type": "constructor"
    },
    {
      "anonymous": false,
      "inputs": [
        {
          "indexed": true,
          "internalType": "address",
          "name": "owner",
          "type": "address"
        },
        {
          "indexed": true,
          "internalType": "address",
          "name": "spender",
          "type": "address"
        },
        {
          "indexed": false,
          "internalType": "uint256",
          "name": "value",
          "type": "uint256"
        }
      ],
      "name": "Approval",
      "type": "event"
    },
    {
      "anonymous": false,
      "inputs": [
        {
          "indexed": true,
          "internalType": "address",
          "name": "from",
          "type": "address"
        },
        {
          "indexed": true,
          "internalType": "address",
          "name": "to",
          "type": "address"
        },
        {
          "indexed": false,
          "internalType": "uint256",
          "name": "value",
          "type": "uint256"
        }
      ],
      "name": "Transfer",
      "type": "event"
    },
    {
      "inputs": [
        {
          "internalType": "address",
          "name": "owner",
          "type": "address"
        },
        {
          "internalType": "address",
          "name": "spender",
          "type": "address"
        }
      ],
      "name": "allowance",
      "outputs": [
        {
          "internalType": "uint256",
          "name": "",
          "type": "uint256"
        }
      ],
      "stateMutability": "view",
      "type": "function"
    },
    {
      "inputs": [
        {
          "internalType": "address",
          "name": "spender",
          "type": "address"
        },
        {
          "internalType": "uint256",
          "name": "amount",
          "type": "uint256"
        }
      ],
      "name": "approve",
      "outputs": [
        {
          "internalType": "bool",
          "name": "",
          "type": "bool"
        }
      ],
      "stateMutability": "nonpayable",
      "type": "function"
    },
    {
      "inputs": [
        {
          "internalType": "address",
          "name": "account",
          "type": "address"
        }
      ],
      "name": "balanceOf",
      "outputs": [
        {
          "internalType": "uint256",
          "name": "",
          "type": "uint256"
        }
      ],
      "stateMutability": "view",
      "type": "function"
    },
    {
      "inputs": [],
      "name": "decimals",
      "outputs": [
        {
          "internalType": "uint8",
          "name": "",
          "type": "uint8"
        }
      ],
      "stateMutability": "view",
      "type": "function"
    },
    {
      "inputs": [
        {
          "internalType": "address",
          "name": "spender",
          "type": "address"
        },
        {
          "internalType": "uint256",
          "name": "subtractedValue",
          "type": "uint256"
        }
      ],
      "name": "decreaseAllowance",
      "outputs": [
        {
          "internalType": "bool",
          "name": "",
          "type": "bool"
        }
      ],
      "stateMutability": "nonpayable",
      "type": "function"
    },
    {
      "inputs": [
        {
          "internalType": "address",
          "name": "spender",
          "type": "address"
        },
        {
          "internalType": "uint256",
          "name": "addedValue",
          "type": "uint256"
        }
      ],
      "name": "increaseAllowance",
      "outputs": [
        {
          "internalType": "bool",
          "name": "",
          "type": "bool"
        }
      ],
      "stateMutability": "nonpayable",
      "type": "function"
    },
    {
      "inputs": [],
      "name": "name",
      "outputs": [
        {
          "internalType": "string",
          "name": "",
          "type": "string"
        }
      ],
      "stateMutability": "view",
      "type": "function"
    },
    {
      "inputs": [],
      "name": "symbol",
      "outputs": [
        {
          "internalType": "string",
          "name": "",
          "type": "string"
        }
      ],
      "stateMutability": "view",
      "type": "function"
    },
    {
      "inputs": [],
      "name": "totalSupply",
      "outputs": [
        {
          "internalType": "uint256",
          "name": "",
          "type": "uint256"
        }
      ],
      "stateMutability": "view",
      "type": "function"
    },
    {
      "inputs": [
        {
          "internalType": "address",
          "name": "to",
          "type": "address"
        },
        {
          "internalType": "uint256",
          "name": "amount",
          "type": "uint256"
        }
      ],
      "name": "transfer",
      "outputs": [
        {
          "internalType": "bool",
          "name": "",
          "type": "bool"
        }
      ],
      "stateMutability": "nonpayable",
      "type": "function"
    },
    {
      "inputs": [
        {
          "internalType": "address",
          "name": "from",
          "type": "address"
        },
        {
          "internalType": "address",
          "name": "to",
          "type": "address"
        },
        {
          "internalType": "uint256",
          "name": "amount",
          "type": "uint256"
        }
      ],
      "name": "transferFrom",
      "outputs": [
        {
          "internalType": "bool",
          "name": "",
          "type": "bool"
        }
      ],
      "stateMutability": "nonpayable",
      "type": "function"
    },
    {
      "inputs": [],
      "name": "mint",
      "outputs": [],
      "stateMutability": "nonpayable",
      "type": "function"
    }
  ],
  "bytecode": "0x60806040523480156200001157600080fd5b5060405162001d8438038062001d848339818101604052810190620000379190620004c6565b82828160039080519060200190620000519291906200023e565b5080600490805190602001906200006a9291906200023e565b505050620000a93362000082620000b260201b60201c565b600a620000909190620006f0565b836200009d919062000741565b620000bb60201b60201c565b50505062000915565b60006012905090565b600073ffffffffffffffffffffffffffffffffffffffff168273ffffffffffffffffffffffffffffffffffffffff1614156200012e576040517f08c379a0000000000000000000000000000000000000000000000000000000008152600401620001259062000803565b60405180910390fd5b62000142600083836200023460201b60201c565b806002600082825462000156919062000825565b92505081905550806000808473ffffffffffffffffffffffffffffffffffffffff1673ffffffffffffffffffffffffffffffffffffffff1681526020019081526020016000206000828254620001ad919062000825565b925050819055508173ffffffffffffffffffffffffffffffffffffffff16600073ffffffffffffffffffffffffffffffffffffffff167fddf252ad1be2c89b69c2b068fc378daa952ba7f163c4a11628f55a4df523b3ef8360405162000214919062000893565b60405180910390a362000230600083836200023960201b60201c565b5050565b505050565b505050565b8280546200024c90620008df565b90600052602060002090601f016020900481019282620002705760008555620002bc565b82601f106200028b57805160ff1916838001178555620002bc565b82800160010185558215620002bc579182015b82811115620002bb5782518255916020019190600101906200029e565b5b509050620002cb9190620002cf565b5090565b5b80821115620002ea576000816000905550600101620002d0565b5090565b6000604051905090565b600080fd5b600080fd5b600080fd5b600080fd5b6000601f19601f8301169050919050565b7f4e487b7100000000000000000000000000000000000000000000000000000000600052604160045260246000fd5b62000357826200030c565b810181811067ffffffffffffffff821117156200037957620003786200031d565b5b80604052505050565b60006200038e620002ee565b90506200039c82826200034c565b919050565b600067ffffffffffffffff821115620003bf57620003be6200031d565b5b620003ca826200030c565b9050602081019050919050565b60005b83811015620003f7578082015181840152602081019050620003da565b8381111562000407576000848401525b50505050565b6000620004246200041e84620003a1565b62000382565b90508281526020810184848401111562000443576200044262000307565b5b62000450848285620003d7565b509392505050565b600082601f83011262000470576200046f62000302565b5b8151620004828482602086016200040d565b91505092915050565b6000819050919050565b620004a0816200048b565b8114620004ac57600080fd5b50565b600081519050620004c08162000495565b92915050565b600080600060608486031215620004e257620004e1620002f8565b5b600084015167ffffffffffffffff811115620005035762000502620002fd565b5b620005118682870162000458565b935050602084015167ffffffffffffffff811115620005355762000534620002fd565b5b620005438682870162000458565b92505060406200055686828701620004af565b9150509250925092565b7f4e487b7100000000000000000000000000000000000000000000000000000000600052601160045260246000fd5b60008160011c9050919050565b6000808291508390505b6001851115620005ee57808604811115620005c657620005c562000560565b5b6001851615620005d65780820291505b8081029050620005e6856200058f565b9450620005a6565b94509492505050565b600082620006095760019050620006dc565b81620006195760009050620006dc565b81600181146200063257600281146200063d5762000673565b6001915050620006dc565b60ff84111562000652576200065162000560565b5b8360020a9150848211156200066c576200066b62000560565b5b50620006dc565b5060208310610133831016604e8410600b8410161715620006ad5782820a905083811115620006a757620006a662000560565b5b620006dc565b620006bc84848460016200059c565b92509050818404811115620006d657620006d562000560565b5b81810290505b9392505050565b600060ff82169050919050565b6000620006fd826200048b565b91506200070a83620006e3565b9250620007397fffffffffffffffffffffffffffffffffffffffffffffffffffffffffffffffff8484620005f7565b905092915050565b60006200074e826200048b565b91506200075b836200048b565b9250817fffffffffffffffffffffffffffffffffffffffffffffffffffffffffffffffff048311821515161562000797576200079662000560565b5b828202905092915050565b600082825260208201905092915050565b7f45524332303a206d696e7420746f20746865207a65726f206164647265737300600082015250565b6000620007eb601f83620007a2565b9150620007f882620007b3565b602082019050919050565b600060208201905081810360008301526200081e81620007dc565b9050919050565b600062000832826200048b565b91506200083f836200048b565b9250827fffffffffffffffffffffffffffffffffffffffffffffffffffffffffffffffff0382111562000877576200087662000560565b5b828201905092915050565b6200088d816200048b565b82525050565b6000602082019050620008aa600083018462000882565b92915050565b7f4e487b7100000000000000000000000000000000000000000000000000000000600052602260045260246000fd5b60006002820490506001821680620008f857607f821691505b602082108114156200090f576200090e620008b0565b5b50919050565b61145f80620009256000396000f3fe608060405234801561001057600080fd5b50600436106100b45760003560e01c80633950935111610071578063395093511461017d57806370a08231146101ad57806395d89b41146101dd578063a457c2d7146101fb578063a9059cbb1461022b578063dd62ed3e1461025b576100b4565b806306fdde03146100b9578063095ea7b3146100d75780631249c58b1461010757806318160ddd1461011157806323b872dd1461012f578063313ce5671461015f575b600080fd5b6100c161028b565b6040516100ce9190610cad565b60405180910390f35b6100f160048036038101906100ec9190610d68565b61031d565b6040516100fe9190610dc3565b60405180910390f35b61010f610340565b005b610119610356565b6040516101269190610ded565b60405180910390f35b61014960048036038101906101449190610e08565b610360565b6040516101569190610dc3565b60405180910390f35b61016761038f565b6040516101749190610e77565b60405180910390f35b61019760048036038101906101929190610d68565b610398565b6040516101a49190610dc3565b60405180910390f35b6101c760048036038101906101c29190610e92565b6103cf565b6040516101d49190610ded565b60405180910390f35b6101e5610417565b6040516101f29190610cad565b60405180910390f35b61021560048036038101906102109190610d68565b6104a9565b6040516102229190610dc3565b60405180910390f35b61024560048036038101906102409190610d68565b610520565b6040516102529190610dc3565b60405180910390f35b61027560048036038101906102709190610ebf565b610543565b6040516102829190610ded565b60405180910390f35b60606003805461029a90610f2e565b80601f01602080910402602001604051908101604052809291908181526020018280546102c690610f2e565b80156103135780601f106102e857610100808354040283529160200191610313565b820191906000526020600020905b8154815290600101906020018083116102f657829003601f168201915b5050505050905090565b6000806103286105ca565b90506103358185856105d2565b600191505092915050565b6103543369021e19e0c9bab240000061079d565b565b6000600254905090565b60008061036b6105ca565b90506103788582856108fd565b610383858585610989565b60019150509392505050565b60006012905090565b6000806103a36105ca565b90506103c48185856103b58589610543565b6103bf9190610f8f565b6105d2565b600191505092915050565b60008060008373ffffffffffffffffffffffffffffffffffffffff1673ffffffffffffffffffffffffffffffffffffffff168152602001908152602001600020549050919050565b60606004805461042690610f2e565b80601f016020809104026020016040519081016040528092919081815260200182805461045290610f2e565b801561049f5780601f106104745761010080835404028352916020019161049f565b820191906000526020600020905b81548152906001019060200180831161048257829003601f168201915b5050505050905090565b6000806104b46105ca565b905060006104c28286610543565b905083811015610507576040517f08c379a00000000000000000000000000000000000000000000000000000000081526004016104fe90611057565b60405180910390fd5b61051482868684036105d2565b60019250505092915050565b60008061052b6105ca565b9050610538818585610989565b600191505092915050565b6000600160008473ffffffffffffffffffffffffffffffffffffffff1673ffffffffffffffffffffffffffffffffffffffff16815260200190815260200160002060008373ffffffffffffffffffffffffffffffffffffffff1673ffffffffffffffffffffffffffffffffffffffff16815260200190815260200160002054905092915050565b600033905090565b600073ffffffffffffffffffffffffffffffffffffffff168373ffffffffffffffffffffffffffffffffffffffff161415610642576040517f08c379a0000000000000000000000000000000000000000000000000000000008152600401610639906110e9565b60405180910390fd5b600073ffffffffffffffffffffffffffffffffffffffff168273ffffffffffffffffffffffffffffffffffffffff1614156106b2576040517f08c379a00000000000000000000000000000000000000000000000000000000081526004016106a99061117b565b60405180910390fd5b80600160008573ffffffffffffffffffffffffffffffffffffffff1673ffffffffffffffffffffffffffffffffffffffff16815260200190815260200160002060008473ffffffffffffffffffffffffffffffffffffffff1673ffffffffffffffffffffffffffffffffffffffff168152602001908152602001600020819055508173ffffffffffffffffffffffffffffffffffffffff168373ffffffffffffffffffffffffffffffffffffffff167f8c5be1e5ebec7d5bd14f71427d1e84f3dd0314c0f7b2291e5b200ac8c7c3b925836040516107909190610ded565b60405180910390a3505050565b600073ffffffffffffffffffffffffffffffffffffffff168273ffffffffffffffffffffffffffffffffffffffff16141561080d576040517f08c379a0000000000000000000000000000000000000000000000000000000008152600401610804906111e7565b60405180910390fd5b61081960008383610c0a565b806002600082825461082b9190610f8f565b92505081905550806000808473ffffffffffffffffffffffffffffffffffffffff1673ffffffffffffffffffffffffffffffffffffffff16815260200190815260200160002060008282546108809190610f8f565b925050819055508173ffffffffffffffffffffffffffffffffffffffff16600073ffffffffffffffffffffffffffffffffffffffff167fddf252ad1be2c89b69c2b068fc378daa952ba7f163c4a11628f55a4df523b3ef836040516108e59190610ded565b60405180910390a36108f960008383610c0f565b5050565b60006109098484610543565b90507fffffffffffffffffffffffffffffffffffffffffffffffffffffffffffffffff81146109835781811015610975576040517f08c379a000000000000000000000000000000000000000000000000000000000815260040161096c90611253565b60405180910390fd5b61098284848484036105d2565b5b50505050565b600073ffffffffffffffffffffffffffffffffffffffff168373ffffffffffffffffffffffffffffffffffffffff1614156109f9576040517f08c379a00000000000000000000000000000000000000000000000000000000081526004016109f0906112e5565b60405180910390fd5b600073ffffffffffffffffffffffffffffffffffffffff168273ffffffffffffffffffffffffffffffffffffffff161415610a69576040517f08c379a0000000000000000000000000000000000000000000000000000000008152600401610a6090611377565b60405180910390fd5b610a74838383610c0a565b60008060008573ffffffffffffffffffffffffffffffffffffffff1673ffffffffffffffffffffffffffffffffffffffff16815260200190815260200160002054905081811015610afa576040517f08c379a0000000000000000000000000000000000000000000000000000000008152600401610af190611409565b60405180910390fd5b8181036000808673ffffffffffffffffffffffffffffffffffffffff1673ffffffffffffffffffffffffffffffffffffffff16815260200190815260200160002081905550816000808573ffffffffffffffffffffffffffffffffffffffff1673ffffffffffffffffffffffffffffffffffffffff1681526020019081526020016000206000828254610b8d9190610f8f565b925050819055508273ffffffffffffffffffffffffffffffffffffffff168473ffffffffffffffffffffffffffffffffffffffff167fddf252ad1be2c89b69c2b068fc378daa952ba7f163c4a11628f55a4df523b3ef84604051610bf19190610ded565b60405180910390a3610c04848484610c0f565b50505050565b505050565b505050565b600081519050919050565b600082825260208201905092915050565b60005b83811015610c4e578082015181840152602081019050610c33565b83811115610c5d576000848401525b50505050565b6000601f19601f8301169050919050565b6000610c7f82610c14565b610c898185610c1f565b9350610c99818560208601610c30565b610ca281610c63565b840191505092915050565b60006020820190508181036000830152610cc78184610c74565b905092915050565b600080fd5b600073ffffffffffffffffffffffffffffffffffffffff82169050919050565b6000610cff82610cd4565b9050919050565b610d0f81610cf4565b8114610d1a57600080fd5b50565b600081359050610d2c81610d06565b92915050565b6000819050919050565b610d4581610d32565b8114610d5057600080fd5b50565b600081359050610d6281610d3c565b92915050565b60008060408385031215610d7f57610d7e610ccf565b5b6000610d8d85828601610d1d565b9250506020610d9e85828601610d53565b9150509250929050565b60008115159050919050565b610dbd81610da8565b82525050565b6000602082019050610dd86000830184610db4565b92915050565b610de781610d32565b82525050565b6000602082019050610e026000830184610dde565b92915050565b600080600060608486031215610e2157610e20610ccf565b5b6000610e2f86828701610d1d565b9350506020610e4086828701610d1d565b9250506040610e5186828701610d53565b9150509250925092565b600060ff82169050919050565b610e7181610e5b565b82525050565b6000602082019050610e8c6000830184610e68565b92915050565b600060208284031215610ea857610ea7610ccf565b5b6000610eb684828501610d1d565b91505092915050565b60008060408385031215610ed657610ed5610ccf565b5b6000610ee485828601610d1d565b9250506020610ef585828601610d1d565b9150509250929050565b7f4e487b7100000000000000000000000000000000000000000000000000000000600052602260045260246000fd5b60006002820490506001821680610f4657607f821691505b60208210811415610f5a57610f59610eff565b5b50919050565b7f4e487b7100000000000000000000000000000000000000000000000000000000600052601160045260246000fd5b6000610f9a82610d32565b9150610fa583610d32565b9250827fffffffffffffffffffffffffffffffffffffffffffffffffffffffffffffffff03821115610fda57610fd9610f60565b5b828201905092915050565b7f45524332303a2064656372656173656420616c6c6f77616e63652062656c6f7760008201527f207a65726f000000000000000000000000000000000000000000000000000000602082015250565b6000611041602583610c1f565b915061104c82610fe5565b604082019050919050565b6000602082019050818103600083015261107081611034565b9050919050565b7f45524332303a20617070726f76652066726f6d20746865207a65726f2061646460008201527f7265737300000000000000000000000000000000000000000000000000000000602082015250565b60006110d3602483610c1f565b91506110de82611077565b604082019050919050565b60006020820190508181036000830152611102816110c6565b9050919050565b7f45524332303a20617070726f766520746f20746865207a65726f20616464726560008201527f7373000000000000000000000000000000000000000000000000000000000000602082015250565b6000611165602283610c1f565b915061117082611109565b604082019050919050565b6000602082019050818103600083015261119481611158565b9050919050565b7f45524332303a206d696e7420746f20746865207a65726f206164647265737300600082015250565b60006111d1601f83610c1f565b91506111dc8261119b565b602082019050919050565b60006020820190508181036000830152611200816111c4565b9050919050565b7f45524332303a20696e73756666696369656e7420616c6c6f77616e6365000000600082015250565b600061123d601d83610c1f565b915061124882611207565b602082019050919050565b6000602082019050818103600083015261126c81611230565b9050919050565b7f45524332303a207472616e736665722066726f6d20746865207a65726f20616460008201527f6472657373000000000000000000000000000000000000000000000000000000602082015250565b60006112cf602583610c1f565b91506112da82611273565b604082019050919050565b600060208201905081810360008301526112fe816112c2565b9050919050565b7f45524332303a207472616e7366657220746f20746865207a65726f206164647260008201527f6573730000000000000000000000000000000000000000000000000000000000602082015250565b6000611361602383610c1f565b915061136c82611305565b604082019050919050565b6000602082019050818103600083015261139081611354565b9050919050565b7f45524332303a207472616e7366657220616d6f756e742065786365656473206260008201527f616c616e63650000000000000000000000000000000000000000000000000000602082015250565b60006113f3602683610c1f565b91506113fe82611397565b604082019050919050565b60006020820190508181036000830152611422816113e6565b905091905056fea2646970667358221220d9c6510ab855c8ee35b62e6fc89f5bff82bffe13e0eba7b3d8609e3619c7508d64736f6c634300080b0033",
  "immutableReferences": {},
  "source": "// SPDX-License-Identifier: MIT\r\n\r\npragma solidity ^0.8.11;\r\n\r\nimport \"@openzeppelin/contracts/token/ERC20/ERC20.sol\";\r\n\r\ncontract BUSD is ERC20 {\r\n    constructor(\r\n        string memory name_,\r\n        string memory symbol_,\r\n        uint256 initialSupply\r\n    ) ERC20(name_, symbol_) {\r\n        _mint(msg.sender, initialSupply * 10**decimals());\r\n    }\r\n\r\n    function mint() external {\r\n        _mint(msg.sender, 10000 * 10**18);\r\n    }\r\n}\r\n",
  "sourcePath": "C:\\Github\\Dao\\Develop\\Blockchain\\dao-project\\contracts\\Test\\BUSD.sol",
  "compiler": {
    "name": "solc",
    "version": "0.8.11+commit.d7f03943.Emscripten.clang"
  },
  "schemaVersion": "3.4.7",
  "updatedAt": "2022-06-23T10:13:52.784Z",
  "devdoc": {
    "kind": "dev",
    "methods": {
      "allowance(address,address)": {
        "details": "See {IERC20-allowance}."
      },
      "approve(address,uint256)": {
        "details": "See {IERC20-approve}. NOTE: If `amount` is the maximum `uint256`, the allowance is not updated on `transferFrom`. This is semantically equivalent to an infinite approval. Requirements: - `spender` cannot be the zero address."
      },
      "balanceOf(address)": {
        "details": "See {IERC20-balanceOf}."
      },
      "decimals()": {
        "details": "Returns the number of decimals used to get its user representation. For example, if `decimals` equals `2`, a balance of `505` tokens should be displayed to a user as `5.05` (`505 / 10 ** 2`). Tokens usually opt for a value of 18, imitating the relationship between Ether and Wei. This is the value {ERC20} uses, unless this function is overridden; NOTE: This information is only used for _display_ purposes: it in no way affects any of the arithmetic of the contract, including {IERC20-balanceOf} and {IERC20-transfer}."
      },
      "decreaseAllowance(address,uint256)": {
        "details": "Atomically decreases the allowance granted to `spender` by the caller. This is an alternative to {approve} that can be used as a mitigation for problems described in {IERC20-approve}. Emits an {Approval} event indicating the updated allowance. Requirements: - `spender` cannot be the zero address. - `spender` must have allowance for the caller of at least `subtractedValue`."
      },
      "increaseAllowance(address,uint256)": {
        "details": "Atomically increases the allowance granted to `spender` by the caller. This is an alternative to {approve} that can be used as a mitigation for problems described in {IERC20-approve}. Emits an {Approval} event indicating the updated allowance. Requirements: - `spender` cannot be the zero address."
      },
      "name()": {
        "details": "Returns the name of the token."
      },
      "symbol()": {
        "details": "Returns the symbol of the token, usually a shorter version of the name."
      },
      "totalSupply()": {
        "details": "See {IERC20-totalSupply}."
      },
      "transfer(address,uint256)": {
        "details": "See {IERC20-transfer}. Requirements: - `to` cannot be the zero address. - the caller must have a balance of at least `amount`."
      },
      "transferFrom(address,address,uint256)": {
        "details": "See {IERC20-transferFrom}. Emits an {Approval} event indicating the updated allowance. This is not required by the EIP. See the note at the beginning of {ERC20}. NOTE: Does not update the allowance if the current allowance is the maximum `uint256`. Requirements: - `from` and `to` cannot be the zero address. - `from` must have a balance of at least `amount`. - the caller must have allowance for ``from``'s tokens of at least `amount`."
      }
    },
    "version": 1
  },
  "userdoc": {
    "kind": "user",
    "methods": {},
    "version": 1
  }
}