{
  "contractName": "CrownNFT",
  "abi": [
    {
      "inputs": [
        {
          "internalType": "string",
          "name": "name_",
          "type": "string"
        },
        {
          "internalType": "string",
          "name": "symbol_",
          "type": "string"
        },
        {
          "internalType": "string",
          "name": "baseUri_",
          "type": "string"
        }
      ],
      "stateMutability": "nonpayable",
      "type": "constructor"
    },
    {
      "anonymous": false,
      "inputs": [
        {
          "indexed": true,
          "internalType": "address",
          "name": "owner",
          "type": "address"
        },
        {
          "indexed": true,
          "internalType": "address",
          "name": "approved",
          "type": "address"
        },
        {
          "indexed": true,
          "internalType": "uint256",
          "name": "tokenId",
          "type": "uint256"
        }
      ],
      "name": "Approval",
      "type": "event"
    },
    {
      "anonymous": false,
      "inputs": [
        {
          "indexed": true,
          "internalType": "address",
          "name": "owner",
          "type": "address"
        },
        {
          "indexed": true,
          "internalType": "address",
          "name": "operator",
          "type": "address"
        },
        {
          "indexed": false,
          "internalType": "bool",
          "name": "approved",
          "type": "bool"
        }
      ],
      "name": "ApprovalForAll",
      "type": "event"
    },
    {
      "anonymous": false,
      "inputs": [
        {
          "indexed": true,
          "internalType": "address",
          "name": "delegator",
          "type": "address"
        },
        {
          "indexed": true,
          "internalType": "address",
          "name": "fromDelegate",
          "type": "address"
        },
        {
          "indexed": true,
          "internalType": "address",
          "name": "toDelegate",
          "type": "address"
        }
      ],
      "name": "DelegateChanged",
      "type": "event"
    },
    {
      "anonymous": false,
      "inputs": [
        {
          "indexed": true,
          "internalType": "address",
          "name": "delegate",
          "type": "address"
        },
        {
          "indexed": false,
          "internalType": "uint256",
          "name": "previousBalance",
          "type": "uint256"
        },
        {
          "indexed": false,
          "internalType": "uint256",
          "name": "newBalance",
          "type": "uint256"
        }
      ],
      "name": "DelegateVotesChanged",
      "type": "event"
    },
    {
      "anonymous": false,
      "inputs": [
        {
          "indexed": true,
          "internalType": "address",
          "name": "minter",
          "type": "address"
        },
        {
          "indexed": true,
          "internalType": "uint256",
          "name": "tokenId",
          "type": "uint256"
        },
        {
          "indexed": false,
          "internalType": "uint256",
          "name": "aprBonus",
          "type": "uint256"
        },
        {
          "indexed": false,
          "internalType": "uint256",
          "name": "reduce",
          "type": "uint256"
        }
      ],
      "name": "MintCrown",
      "type": "event"
    },
    {
      "anonymous": false,
      "inputs": [
        {
          "indexed": true,
          "internalType": "address",
          "name": "from",
          "type": "address"
        },
        {
          "indexed": true,
          "internalType": "address",
          "name": "to",
          "type": "address"
        },
        {
          "indexed": true,
          "internalType": "uint256",
          "name": "tokenId",
          "type": "uint256"
        }
      ],
      "name": "Transfer",
      "type": "event"
    },
    {
      "inputs": [],
      "name": "DOMAIN_SEPARATOR",
      "outputs": [
        {
          "internalType": "bytes32",
          "name": "",
          "type": "bytes32"
        }
      ],
      "stateMutability": "view",
      "type": "function",
      "constant": true
    },
    {
      "inputs": [],
      "name": "_transferCoolDown",
      "outputs": [
        {
          "internalType": "uint256",
          "name": "",
          "type": "uint256"
        }
      ],
      "stateMutability": "view",
      "type": "function",
      "constant": true
    },
    {
      "inputs": [
        {
          "internalType": "address",
          "name": "to",
          "type": "address"
        },
        {
          "internalType": "uint256",
          "name": "tokenId",
          "type": "uint256"
        }
      ],
      "name": "approve",
      "outputs": [],
      "stateMutability": "nonpayable",
      "type": "function"
    },
    {
      "inputs": [
        {
          "internalType": "address",
          "name": "owner",
          "type": "address"
        }
      ],
      "name": "balanceOf",
      "outputs": [
        {
          "internalType": "uint256",
          "name": "",
          "type": "uint256"
        }
      ],
      "stateMutability": "view",
      "type": "function",
      "constant": true
    },
    {
      "inputs": [
        {
          "internalType": "address",
          "name": "delegatee",
          "type": "address"
        }
      ],
      "name": "delegate",
      "outputs": [],
      "stateMutability": "nonpayable",
      "type": "function"
    },
    {
      "inputs": [
        {
          "internalType": "address",
          "name": "delegatee",
          "type": "address"
        },
        {
          "internalType": "uint256",
          "name": "nonce",
          "type": "uint256"
        },
        {
          "internalType": "uint256",
          "name": "expiry",
          "type": "uint256"
        },
        {
          "internalType": "uint8",
          "name": "v",
          "type": "uint8"
        },
        {
          "internalType": "bytes32",
          "name": "r",
          "type": "bytes32"
        },
        {
          "internalType": "bytes32",
          "name": "s",
          "type": "bytes32"
        }
      ],
      "name": "delegateBySig",
      "outputs": [],
      "stateMutability": "nonpayable",
      "type": "function"
    },
    {
      "inputs": [
        {
          "internalType": "address",
          "name": "account",
          "type": "address"
        }
      ],
      "name": "delegates",
      "outputs": [
        {
          "internalType": "address",
          "name": "",
          "type": "address"
        }
      ],
      "stateMutability": "view",
      "type": "function",
      "constant": true
    },
    {
      "inputs": [
        {
          "internalType": "uint256",
          "name": "tokenId",
          "type": "uint256"
        }
      ],
      "name": "getApproved",
      "outputs": [
        {
          "internalType": "address",
          "name": "",
          "type": "address"
        }
      ],
      "stateMutability": "view",
      "type": "function",
      "constant": true
    },
    {
      "inputs": [
        {
          "internalType": "uint256",
          "name": "blockNumber",
          "type": "uint256"
        }
      ],
      "name": "getPastTotalSupply",
      "outputs": [
        {
          "internalType": "uint256",
          "name": "",
          "type": "uint256"
        }
      ],
      "stateMutability": "view",
      "type": "function",
      "constant": true
    },
    {
      "inputs": [
        {
          "internalType": "address",
          "name": "account",
          "type": "address"
        }
      ],
      "name": "getVotes",
      "outputs": [
        {
          "internalType": "uint256",
          "name": "",
          "type": "uint256"
        }
      ],
      "stateMutability": "view",
      "type": "function",
      "constant": true
    },
    {
      "inputs": [
        {
          "internalType": "address",
          "name": "owner",
          "type": "address"
        },
        {
          "internalType": "address",
          "name": "operator",
          "type": "address"
        }
      ],
      "name": "isApprovedForAll",
      "outputs": [
        {
          "internalType": "bool",
          "name": "",
          "type": "bool"
        }
      ],
      "stateMutability": "view",
      "type": "function",
      "constant": true
    },
    {
      "inputs": [],
      "name": "maxSupply",
      "outputs": [
        {
          "internalType": "uint256",
          "name": "",
          "type": "uint256"
        }
      ],
      "stateMutability": "view",
      "type": "function",
      "constant": true
    },
    {
      "inputs": [],
      "name": "name",
      "outputs": [
        {
          "internalType": "string",
          "name": "",
          "type": "string"
        }
      ],
      "stateMutability": "view",
      "type": "function",
      "constant": true
    },
    {
      "inputs": [
        {
          "internalType": "address",
          "name": "owner",
          "type": "address"
        }
      ],
      "name": "nonces",
      "outputs": [
        {
          "internalType": "uint256",
          "name": "",
          "type": "uint256"
        }
      ],
      "stateMutability": "view",
      "type": "function",
      "constant": true
    },
    {
      "inputs": [
        {
          "internalType": "uint256",
          "name": "tokenId",
          "type": "uint256"
        }
      ],
      "name": "ownerOf",
      "outputs": [
        {
          "internalType": "address",
          "name": "",
          "type": "address"
        }
      ],
      "stateMutability": "view",
      "type": "function",
      "constant": true
    },
    {
      "inputs": [
        {
          "internalType": "address",
          "name": "from",
          "type": "address"
        },
        {
          "internalType": "address",
          "name": "to",
          "type": "address"
        },
        {
          "internalType": "uint256",
          "name": "tokenId",
          "type": "uint256"
        }
      ],
      "name": "safeTransferFrom",
      "outputs": [],
      "stateMutability": "nonpayable",
      "type": "function"
    },
    {
      "inputs": [
        {
          "internalType": "address",
          "name": "from",
          "type": "address"
        },
        {
          "internalType": "address",
          "name": "to",
          "type": "address"
        },
        {
          "internalType": "uint256",
          "name": "tokenId",
          "type": "uint256"
        },
        {
          "internalType": "bytes",
          "name": "_data",
          "type": "bytes"
        }
      ],
      "name": "safeTransferFrom",
      "outputs": [],
      "stateMutability": "nonpayable",
      "type": "function"
    },
    {
      "inputs": [
        {
          "internalType": "address",
          "name": "operator",
          "type": "address"
        },
        {
          "internalType": "bool",
          "name": "approved",
          "type": "bool"
        }
      ],
      "name": "setApprovalForAll",
      "outputs": [],
      "stateMutability": "nonpayable",
      "type": "function"
    },
    {
      "inputs": [],
      "name": "symbol",
      "outputs": [
        {
          "internalType": "string",
          "name": "",
          "type": "string"
        }
      ],
      "stateMutability": "view",
      "type": "function",
      "constant": true
    },
    {
      "inputs": [
        {
          "internalType": "uint256",
          "name": "index",
          "type": "uint256"
        }
      ],
      "name": "tokenByIndex",
      "outputs": [
        {
          "internalType": "uint256",
          "name": "",
          "type": "uint256"
        }
      ],
      "stateMutability": "view",
      "type": "function",
      "constant": true
    },
    {
      "inputs": [
        {
          "internalType": "address",
          "name": "owner",
          "type": "address"
        },
        {
          "internalType": "uint256",
          "name": "index",
          "type": "uint256"
        }
      ],
      "name": "tokenOfOwnerByIndex",
      "outputs": [
        {
          "internalType": "uint256",
          "name": "",
          "type": "uint256"
        }
      ],
      "stateMutability": "view",
      "type": "function",
      "constant": true
    },
    {
      "inputs": [],
      "name": "totalSupply",
      "outputs": [
        {
          "internalType": "uint256",
          "name": "",
          "type": "uint256"
        }
      ],
      "stateMutability": "view",
      "type": "function",
      "constant": true
    },
    {
      "inputs": [
        {
          "internalType": "address",
          "name": "from",
          "type": "address"
        },
        {
          "internalType": "address",
          "name": "to",
          "type": "address"
        },
        {
          "internalType": "uint256",
          "name": "tokenId",
          "type": "uint256"
        }
      ],
      "name": "transferFrom",
      "outputs": [],
      "stateMutability": "nonpayable",
      "type": "function"
    },
    {
      "inputs": [
        {
          "internalType": "address",
          "name": "target",
          "type": "address"
        },
        {
          "internalType": "bool",
          "name": "permission",
          "type": "bool"
        }
      ],
      "name": "setValidTarget",
      "outputs": [],
      "stateMutability": "nonpayable",
      "type": "function"
    },
    {
      "inputs": [
        {
          "internalType": "bytes4",
          "name": "interfaceId",
          "type": "bytes4"
        }
      ],
      "name": "supportsInterface",
      "outputs": [
        {
          "internalType": "bool",
          "name": "",
          "type": "bool"
        }
      ],
      "stateMutability": "view",
      "type": "function",
      "constant": true
    },
    {
      "inputs": [
        {
          "internalType": "string",
          "name": "baseUri_",
          "type": "string"
        }
      ],
      "name": "setBaseUri",
      "outputs": [],
      "stateMutability": "nonpayable",
      "type": "function"
    },
    {
      "inputs": [
        {
          "internalType": "uint256",
          "name": "tokenId",
          "type": "uint256"
        }
      ],
      "name": "tokenURI",
      "outputs": [
        {
          "internalType": "string",
          "name": "",
          "type": "string"
        }
      ],
      "stateMutability": "view",
      "type": "function",
      "constant": true
    },
    {
      "inputs": [
        {
          "internalType": "uint256",
          "name": "tokenId",
          "type": "uint256"
        }
      ],
      "name": "getTraits",
      "outputs": [
        {
          "components": [
            {
              "internalType": "uint8",
              "name": "reduce",
              "type": "uint8"
            },
            {
              "internalType": "uint8",
              "name": "aprBonus",
              "type": "uint8"
            },
            {
              "internalType": "bool",
              "name": "staked",
              "type": "bool"
            },
            {
              "internalType": "uint256",
              "name": "lockDeadline",
              "type": "uint256"
            }
          ],
          "internalType": "struct CrownNFT.CrownTraits",
          "name": "",
          "type": "tuple"
        }
      ],
      "stateMutability": "view",
      "type": "function",
      "constant": true
    },
    {
      "inputs": [
        {
          "internalType": "uint256",
          "name": "tokenId",
          "type": "uint256"
        },
        {
          "internalType": "bool",
          "name": "status",
          "type": "bool"
        }
      ],
      "name": "stakeOrUnstake",
      "outputs": [],
      "stateMutability": "nonpayable",
      "type": "function"
    },
    {
      "inputs": [
        {
          "internalType": "uint256",
          "name": "number",
          "type": "uint256"
        }
      ],
      "name": "mintValidTarget",
      "outputs": [
        {
          "internalType": "uint256",
          "name": "",
          "type": "uint256"
        }
      ],
      "stateMutability": "nonpayable",
      "type": "function"
    },
    {
      "inputs": [
        {
          "internalType": "uint256",
          "name": "tokenId",
          "type": "uint256"
        }
      ],
      "name": "burn",
      "outputs": [],
      "stateMutability": "nonpayable",
      "type": "function"
    },
    {
      "inputs": [
        {
          "internalType": "address",
          "name": "account",
          "type": "address"
        }
      ],
      "name": "ownerToTokenArray",
      "outputs": [
        {
          "internalType": "uint256[]",
          "name": "",
          "type": "uint256[]"
        }
      ],
      "stateMutability": "view",
      "type": "function",
      "constant": true
    },
    {
      "inputs": [
        {
          "internalType": "address",
          "name": "account",
          "type": "address"
        },
        {
          "internalType": "uint256",
          "name": "blockNumber",
          "type": "uint256"
        }
      ],
      "name": "getPastTokenLocked",
      "outputs": [
        {
          "internalType": "uint256[]",
          "name": "",
          "type": "uint256[]"
        },
        {
          "internalType": "uint256",
          "name": "",
          "type": "uint256"
        }
      ],
      "stateMutability": "view",
      "type": "function",
      "constant": true
    },
    {
      "inputs": [
        {
          "internalType": "address",
          "name": "account",
          "type": "address"
        },
        {
          "internalType": "uint256",
          "name": "blockNumber",
          "type": "uint256"
        }
      ],
      "name": "getPastVotes",
      "outputs": [
        {
          "internalType": "uint256",
          "name": "",
          "type": "uint256"
        }
      ],
      "stateMutability": "view",
      "type": "function",
      "constant": true
    },
    {
      "inputs": [
        {
          "internalType": "address",
          "name": "newOwner",
          "type": "address"
        }
      ],
      "name": "transferOwnership",
      "outputs": [],
      "stateMutability": "nonpayable",
      "type": "function"
    }
  ],
  "bytecode": "0x6101406040523480156200001257600080fd5b506040516200665038038062006650833981810160405281019062000038919062000470565b826040518060400160405280600181526020017f3100000000000000000000000000000000000000000000000000000000000000815250848481600090805190602001906200008992919062000223565b508060019080519060200190620000a292919062000223565b50505060008280519060200120905060008280519060200120905060007f8b73c3c69bb8fe3d512ecc4cf759cc79239f7b179b0ffacaa9a75d522b39400f90508260e081815250508161010081815250504660a081815250506200010e818484620001d160201b60201c565b608081815250503073ffffffffffffffffffffffffffffffffffffffff1660c08173ffffffffffffffffffffffffffffffffffffffff1681525050806101208181525050505050505080600f90805190602001906200016f92919062000223565b5033601060006101000a81548173ffffffffffffffffffffffffffffffffffffffff021916908373ffffffffffffffffffffffffffffffffffffffff160217905550620001c8600e6200020d60201b6200187a1760201c565b50505062000666565b60008383834630604051602001620001ee959493929190620005a4565b6040516020818303038152906040528051906020012090509392505050565b6001816000016000828254019250508190555050565b828054620002319062000630565b90600052602060002090601f016020900481019282620002555760008555620002a1565b82601f106200027057805160ff1916838001178555620002a1565b82800160010185558215620002a1579182015b82811115620002a057825182559160200191906001019062000283565b5b509050620002b09190620002b4565b5090565b5b80821115620002cf576000816000905550600101620002b5565b5090565b6000604051905090565b600080fd5b600080fd5b600080fd5b600080fd5b6000601f19601f8301169050919050565b7f4e487b7100000000000000000000000000000000000000000000000000000000600052604160045260246000fd5b6200033c82620002f1565b810181811067ffffffffffffffff821117156200035e576200035d62000302565b5b80604052505050565b600062000373620002d3565b905062000381828262000331565b919050565b600067ffffffffffffffff821115620003a457620003a362000302565b5b620003af82620002f1565b9050602081019050919050565b60005b83811015620003dc578082015181840152602081019050620003bf565b83811115620003ec576000848401525b50505050565b600062000409620004038462000386565b62000367565b905082815260208101848484011115620004285762000427620002ec565b5b62000435848285620003bc565b509392505050565b600082601f830112620004555762000454620002e7565b5b815162000467848260208601620003f2565b91505092915050565b6000806000606084860312156200048c576200048b620002dd565b5b600084015167ffffffffffffffff811115620004ad57620004ac620002e2565b5b620004bb868287016200043d565b935050602084015167ffffffffffffffff811115620004df57620004de620002e2565b5b620004ed868287016200043d565b925050604084015167ffffffffffffffff811115620005115762000510620002e2565b5b6200051f868287016200043d565b9150509250925092565b6000819050919050565b6200053e8162000529565b82525050565b6000819050919050565b620005598162000544565b82525050565b600073ffffffffffffffffffffffffffffffffffffffff82169050919050565b60006200058c826200055f565b9050919050565b6200059e816200057f565b82525050565b600060a082019050620005bb600083018862000533565b620005ca602083018762000533565b620005d9604083018662000533565b620005e860608301856200054e565b620005f7608083018462000593565b9695505050505050565b7f4e487b7100000000000000000000000000000000000000000000000000000000600052602260045260246000fd5b600060028204905060018216806200064957607f821691505b6020821081141562000660576200065f62000601565b5b50919050565b60805160a05160c05160e0516101005161012051615f9a620006b66000396000611f5801526000611f9a01526000611f7901526000611eae01526000611f0401526000611f2d0152615f9a6000f3fe608060405234801561001057600080fd5b50600436106102115760003560e01c806370a0823111610125578063a22cb465116100ad578063c87b56dd1161007c578063c87b56dd14610681578063d5abeb01146106b1578063e1dc0761146106cf578063e985e9c5146106ff578063f2fde38b1461072f57610211565b8063a22cb4651461060f578063b88d4fde1461062b578063bbb7b0e914610647578063c3cda5201461066557610211565b80638e539e8c116100f45780638e539e8c1461054457806395d89b41146105745780639ab24eb0146105925780639c1d1921146105c2578063a0bcfc7f146105f357610211565b806370a08231146104985780637157b4cc146104c85780637ae22f33146104f85780637ecebe001461051457610211565b80632f745c59116101a857806342966c681161017757806342966c68146103d05780634f6ccce7146103ec578063587cde1e1461041c5780635c19a95c1461044c5780636352211e1461046857610211565b80632f745c59146103365780633644e515146103665780633a46b1a81461038457806342842e0e146103b457610211565b806311005a90116101e457806311005a90146102b057806318160ddd146102e0578063223218a1146102fe57806323b872dd1461031a57610211565b806301ffc9a71461021657806306fdde0314610246578063081812fc14610264578063095ea7b314610294575b600080fd5b610230600480360381019061022b9190613ee7565b61074b565b60405161023d9190613f2f565b60405180910390f35b61024e61075d565b60405161025b9190613fe3565b60405180910390f35b61027e6004803603810190610279919061403b565b6107ef565b60405161028b91906140a9565b60405180910390f35b6102ae60048036038101906102a991906140f0565b610874565b005b6102ca60048036038101906102c5919061403b565b61098c565b6040516102d7919061413f565b60405180910390f35b6102e8610a73565b6040516102f5919061413f565b60405180910390f35b61031860048036038101906103139190614186565b610a80565b005b610334600480360381019061032f91906141c6565b610b06565b005b610350600480360381019061034b91906140f0565b610b66565b60405161035d919061413f565b60405180910390f35b61036e610c0b565b60405161037b9190614232565b60405180910390f35b61039e600480360381019061039991906140f0565b610c1a565b6040516103ab919061413f565b60405180910390f35b6103ce60048036038101906103c991906141c6565b610c48565b005b6103ea60048036038101906103e5919061403b565b610c68565b005b6104066004803603810190610401919061403b565b610d1e565b604051610413919061413f565b60405180910390f35b6104366004803603810190610431919061424d565b610d8f565b60405161044391906140a9565b60405180910390f35b6104666004803603810190610461919061424d565b610df8565b005b610482600480360381019061047d919061403b565b610e12565b60405161048f91906140a9565b60405180910390f35b6104b260048036038101906104ad919061424d565b610ec4565b6040516104bf919061413f565b60405180910390f35b6104e260048036038101906104dd919061424d565b610f7c565b6040516104ef9190614338565b60405180910390f35b610512600480360381019061050d919061435a565b61102c565b005b61052e6004803603810190610529919061424d565b611117565b60405161053b919061413f565b60405180910390f35b61055e6004803603810190610559919061403b565b611167565b60405161056b919061413f565b60405180910390f35b61057c6111c6565b6040516105899190613fe3565b60405180910390f35b6105ac60048036038101906105a7919061424d565b611258565b6040516105b9919061413f565b60405180910390f35b6105dc60048036038101906105d791906140f0565b6112a8565b6040516105ea92919061439a565b60405180910390f35b61060d6004803603810190610608919061442f565b6113ae565b005b6106296004803603810190610624919061435a565b611454565b005b610645600480360381019061064091906145ac565b61146a565b005b61064f6114cc565b60405161065c919061413f565b60405180910390f35b61067f600480360381019061067a9190614694565b6114d1565b005b61069b6004803603810190610696919061403b565b6115d5565b6040516106a89190613fe3565b60405180910390f35b6106b9611646565b6040516106c6919061413f565b60405180910390f35b6106e960048036038101906106e4919061403b565b61164c565b6040516106f69190614794565b60405180910390f35b610719600480360381019061071491906147af565b6116d8565b6040516107269190613f2f565b60405180910390f35b6107496004803603810190610744919061424d565b61176c565b005b600061075682611890565b9050919050565b60606000805461076c9061481e565b80601f01602080910402602001604051908101604052809291908181526020018280546107989061481e565b80156107e55780601f106107ba576101008083540402835291602001916107e5565b820191906000526020600020905b8154815290600101906020018083116107c857829003601f168201915b5050505050905090565b60006107fa8261190a565b610839576040517f08c379a0000000000000000000000000000000000000000000000000000000008152600401610830906148c2565b60405180910390fd5b6004600083815260200190815260200160002060009054906101000a900473ffffffffffffffffffffffffffffffffffffffff169050919050565b600061087f82610e12565b90508073ffffffffffffffffffffffffffffffffffffffff168373ffffffffffffffffffffffffffffffffffffffff1614156108f0576040517f08c379a00000000000000000000000000000000000000000000000000000000081526004016108e790614954565b60405180910390fd5b8073ffffffffffffffffffffffffffffffffffffffff1661090f611976565b73ffffffffffffffffffffffffffffffffffffffff16148061093e575061093d81610938611976565b6116d8565b5b61097d576040517f08c379a0000000000000000000000000000000000000000000000000000000008152600401610974906149e6565b60405180910390fd5b610987838361197e565b505050565b6000601260003373ffffffffffffffffffffffffffffffffffffffff1673ffffffffffffffffffffffffffffffffffffffff16815260200190815260200160002060009054906101000a900460ff16610a1a576040517f08c379a0000000000000000000000000000000000000000000000000000000008152600401610a1190614a52565b60405180910390fd5b60005b82811015610a5557610a3833610a33600e611a37565b611a45565b610a42600e61187a565b8080610a4d90614aa1565b915050610a1d565b506001610a62600e611a37565b610a6c9190614aea565b9050919050565b6000600c80549050905090565b610a8a3383611c38565b610ac9576040517f08c379a0000000000000000000000000000000000000000000000000000000008152600401610ac090614b6a565b60405180910390fd5b610ad460008361197e565b806011600084815260200190815260200160002060000160026101000a81548160ff0219169083151502179055505050565b610b17610b11611976565b82611c38565b610b56576040517f08c379a0000000000000000000000000000000000000000000000000000000008152600401610b4d90614bfc565b60405180910390fd5b610b61838383611d16565b505050565b6000610b7183610ec4565b8210610bb2576040517f08c379a0000000000000000000000000000000000000000000000000000000008152600401610ba990614c8e565b60405180910390fd5b600a60008473ffffffffffffffffffffffffffffffffffffffff1673ffffffffffffffffffffffffffffffffffffffff168152602001908152602001600020600083815260200190815260200160002054905092915050565b6000610c15611eaa565b905090565b600080610c2784846112a8565b91505080610c358585611fc4565b610c3f9190614aea565b91505092915050565b610c638383836040518060200160405280600081525061146a565b505050565b610c79610c73611976565b82611c38565b610cb8576040517f08c379a0000000000000000000000000000000000000000000000000000000008152600401610caf90614d20565b60405180910390fd5b60116000828152602001908152602001600020600080820160006101000a81549060ff02191690556000820160016101000a81549060ff02191690556000820160026101000a81549060ff021916905560018201600090555050610d1b8161201f565b50565b6000610d28610a73565b8210610d69576040517f08c379a0000000000000000000000000000000000000000000000000000000008152600401610d6090614db2565b60405180910390fd5b600c8281548110610d7d57610d7c614dd2565b5b90600052602060002001549050919050565b6000600660008373ffffffffffffffffffffffffffffffffffffffff1673ffffffffffffffffffffffffffffffffffffffff16815260200190815260200160002060009054906101000a900473ffffffffffffffffffffffffffffffffffffffff169050919050565b6000610e02611976565b9050610e0e818361213c565b5050565b6000806002600084815260200190815260200160002060009054906101000a900473ffffffffffffffffffffffffffffffffffffffff169050600073ffffffffffffffffffffffffffffffffffffffff168173ffffffffffffffffffffffffffffffffffffffff161415610ebb576040517f08c379a0000000000000000000000000000000000000000000000000000000008152600401610eb290614e73565b60405180910390fd5b80915050919050565b60008073ffffffffffffffffffffffffffffffffffffffff168273ffffffffffffffffffffffffffffffffffffffff161415610f35576040517f08c379a0000000000000000000000000000000000000000000000000000000008152600401610f2c90614f05565b60405180910390fd5b600360008373ffffffffffffffffffffffffffffffffffffffff1673ffffffffffffffffffffffffffffffffffffffff168152602001908152602001600020549050919050565b60606000610f8983610ec4565b67ffffffffffffffff811115610fa257610fa1614481565b5b604051908082528060200260200182016040528015610fd05781602001602082028036833780820191505090505b50905060005b610fdf84610ec4565b81101561102257610ff08482610b66565b82828151811061100357611002614dd2565b5b602002602001018181525050808061101a90614aa1565b915050610fd6565b5080915050919050565b601060009054906101000a900473ffffffffffffffffffffffffffffffffffffffff1673ffffffffffffffffffffffffffffffffffffffff163373ffffffffffffffffffffffffffffffffffffffff16146110bc576040517f08c379a00000000000000000000000000000000000000000000000000000000081526004016110b390614f71565b60405180910390fd5b80601260008473ffffffffffffffffffffffffffffffffffffffff1673ffffffffffffffffffffffffffffffffffffffff16815260200190815260200160002060006101000a81548160ff0219169083151502179055505050565b6000611160600960008473ffffffffffffffffffffffffffffffffffffffff1673ffffffffffffffffffffffffffffffffffffffff168152602001908152602001600020611a37565b9050919050565b60004382106111ab576040517f08c379a00000000000000000000000000000000000000000000000000000000081526004016111a290614fdd565b60405180910390fd5b6111bf82600861225090919063ffffffff16565b9050919050565b6060600180546111d59061481e565b80601f01602080910402602001604051908101604052809291908181526020018280546112019061481e565b801561124e5780601f106112235761010080835404028352916020019161124e565b820191906000526020600020905b81548152906001019060200180831161123157829003601f168201915b5050505050905090565b60006112a1600760008473ffffffffffffffffffffffffffffffffffffffff1673ffffffffffffffffffffffffffffffffffffffff1681526020019081526020016000206123a8565b9050919050565b60606000806112b685610f7c565b90506000815167ffffffffffffffff8111156112d5576112d4614481565b5b6040519080825280602002602001820160405280156113035781602001602082028036833780820191505090505b5090506000805b835181101561139d578661133785838151811061132a57611329614dd2565b5b602002602001015161164c565b60600151111561138a5783818151811061135457611353614dd2565b5b602002602001015183838151811061136f5761136e614dd2565b5b602002602001018181525050818061138690614aa1565b9250505b808061139590614aa1565b91505061130a565b508181945094505050509250929050565b601060009054906101000a900473ffffffffffffffffffffffffffffffffffffffff1673ffffffffffffffffffffffffffffffffffffffff163373ffffffffffffffffffffffffffffffffffffffff161461143e576040517f08c379a000000000000000000000000000000000000000000000000000000000815260040161143590614f71565b60405180910390fd5b8181600f919061144f929190613da8565b505050565b61146661145f611976565b8383612443565b5050565b61147b611475611976565b83611c38565b6114ba576040517f08c379a00000000000000000000000000000000000000000000000000000000081526004016114b190614bfc565b60405180910390fd5b6114c6848484846125b0565b50505050565b60c881565b83421115611514576040517f08c379a000000000000000000000000000000000000000000000000000000000815260040161150b90615049565b60405180910390fd5b600061157661156e7fe48329057bfd03d55e49b547132e39cffd9c1820ad7b9d4c5307691425d15adf8989896040516020016115539493929190615069565b6040516020818303038152906040528051906020012061260c565b858585612626565b905061158181612651565b86146115c2576040517f08c379a00000000000000000000000000000000000000000000000000000000081526004016115b9906150fa565b60405180910390fd5b6115cc818861213c565b50505050505050565b60606115df6126af565b6115e883612741565b6040518060400160405280600581526020017f2e6a736f6e00000000000000000000000000000000000000000000000000000081525060405160200161163093929190615156565b6040516020818303038152906040529050919050565b61138881565b611654613e2e565b601160008381526020019081526020016000206040518060800160405290816000820160009054906101000a900460ff1660ff1660ff1681526020016000820160019054906101000a900460ff1660ff1660ff1681526020016000820160029054906101000a900460ff161515151581526020016001820154815250509050919050565b6000600560008473ffffffffffffffffffffffffffffffffffffffff1673ffffffffffffffffffffffffffffffffffffffff16815260200190815260200160002060008373ffffffffffffffffffffffffffffffffffffffff1673ffffffffffffffffffffffffffffffffffffffff16815260200190815260200160002060009054906101000a900460ff16905092915050565b601060009054906101000a900473ffffffffffffffffffffffffffffffffffffffff1673ffffffffffffffffffffffffffffffffffffffff163373ffffffffffffffffffffffffffffffffffffffff16146117fc576040517f08c379a00000000000000000000000000000000000000000000000000000000081526004016117f390614f71565b60405180910390fd5b600073ffffffffffffffffffffffffffffffffffffffff168173ffffffffffffffffffffffffffffffffffffffff16141561183657600080fd5b80601060006101000a81548173ffffffffffffffffffffffffffffffffffffffff021916908373ffffffffffffffffffffffffffffffffffffffff16021790555050565b6001816000016000828254019250508190555050565b60007f780e9d63000000000000000000000000000000000000000000000000000000007bffffffffffffffffffffffffffffffffffffffffffffffffffffffff1916827bffffffffffffffffffffffffffffffffffffffffffffffffffffffff191614806119035750611902826128a2565b5b9050919050565b60008073ffffffffffffffffffffffffffffffffffffffff166002600084815260200190815260200160002060009054906101000a900473ffffffffffffffffffffffffffffffffffffffff1673ffffffffffffffffffffffffffffffffffffffff1614159050919050565b600033905090565b816004600083815260200190815260200160002060006101000a81548173ffffffffffffffffffffffffffffffffffffffff021916908373ffffffffffffffffffffffffffffffffffffffff160217905550808273ffffffffffffffffffffffffffffffffffffffff166119f183610e12565b73ffffffffffffffffffffffffffffffffffffffff167f8c5be1e5ebec7d5bd14f71427d1e84f3dd0314c0f7b2291e5b200ac8c7c3b92560405160405180910390a45050565b600081600001549050919050565b611388611a50610a73565b10611a90576040517f08c379a0000000000000000000000000000000000000000000000000000000008152600401611a87906151d3565b60405180910390fd5b6000428383604051602001611aa79392919061525c565b6040516020818303038152906040528051906020012060001c90506000600a601583611ad391906152c8565b611add91906152f9565b905060006005600b428487604051602001611afa93929190615366565b6040516020818303038152906040528051906020012060001c611b1d91906153a3565b611b2791906152f9565b905060405180608001604052808360ff1681526020018260ff16815260200160001515815260200160008152506011600086815260200190815260200160002060008201518160000160006101000a81548160ff021916908360ff16021790555060208201518160000160016101000a81548160ff021916908360ff16021790555060408201518160000160026101000a81548160ff02191690831515021790555060608201518160010155905050838573ffffffffffffffffffffffffffffffffffffffff167f23ab879faf8cad2e807f35beddea69930683459ca431f2efaf2967d483cc13188385604051611c1f92919061540f565b60405180910390a3611c318585612984565b5050505050565b6000611c438261190a565b611c82576040517f08c379a0000000000000000000000000000000000000000000000000000000008152600401611c79906154aa565b60405180910390fd5b6000611c8d83610e12565b90508073ffffffffffffffffffffffffffffffffffffffff168473ffffffffffffffffffffffffffffffffffffffff161480611ccf5750611cce81856116d8565b5b80611d0d57508373ffffffffffffffffffffffffffffffffffffffff16611cf5846107ef565b73ffffffffffffffffffffffffffffffffffffffff16145b91505092915050565b6000601160008381526020019081526020016000209050600015158160000160029054906101000a900460ff16151514611d85576040517f08c379a0000000000000000000000000000000000000000000000000000000008152600401611d7c90615516565b60405180910390fd5b600081600101541480611d9b5750438160010154105b611dda576040517f08c379a0000000000000000000000000000000000000000000000000000000008152600401611dd190615582565b60405180910390fd5b601260008473ffffffffffffffffffffffffffffffffffffffff1673ffffffffffffffffffffffffffffffffffffffff16815260200190815260200160002060009054906101000a900460ff16158015611e7e5750601260008573ffffffffffffffffffffffffffffffffffffffff1673ffffffffffffffffffffffffffffffffffffffff16815260200190815260200160002060009054906101000a900460ff16155b15611e995760c843611e9091906155a2565b81600101819055505b611ea4848484612b5e565b50505050565b60007f000000000000000000000000000000000000000000000000000000000000000073ffffffffffffffffffffffffffffffffffffffff163073ffffffffffffffffffffffffffffffffffffffff16148015611f2657507f000000000000000000000000000000000000000000000000000000000000000046145b15611f53577f00000000000000000000000000000000000000000000000000000000000000009050611fc1565b611fbe7f00000000000000000000000000000000000000000000000000000000000000007f00000000000000000000000000000000000000000000000000000000000000007f0000000000000000000000000000000000000000000000000000000000000000612dc5565b90505b90565b600061201782600760008673ffffffffffffffffffffffffffffffffffffffff1673ffffffffffffffffffffffffffffffffffffffff16815260200190815260200160002061225090919063ffffffff16565b905092915050565b600061202a82610e12565b905061203881600084612dff565b61204360008361197e565b6001600360008373ffffffffffffffffffffffffffffffffffffffff1673ffffffffffffffffffffffffffffffffffffffff16815260200190815260200160002060008282546120939190614aea565b925050819055506002600083815260200190815260200160002060006101000a81549073ffffffffffffffffffffffffffffffffffffffff021916905581600073ffffffffffffffffffffffffffffffffffffffff168273ffffffffffffffffffffffffffffffffffffffff167fddf252ad1be2c89b69c2b068fc378daa952ba7f163c4a11628f55a4df523b3ef60405160405180910390a461213881600084612e0f565b5050565b600061214783610d8f565b905081600660008573ffffffffffffffffffffffffffffffffffffffff1673ffffffffffffffffffffffffffffffffffffffff16815260200190815260200160002060006101000a81548173ffffffffffffffffffffffffffffffffffffffff021916908373ffffffffffffffffffffffffffffffffffffffff1602179055508173ffffffffffffffffffffffffffffffffffffffff168173ffffffffffffffffffffffffffffffffffffffff168473ffffffffffffffffffffffffffffffffffffffff167f3134e8a2e6d97e929a7e54011ea5485d7d196dd5f0ba4d4ef95803e8e3fc257f60405160405180910390a461224b818361224686612e1f565b612e31565b505050565b6000438210612294576040517f08c379a000000000000000000000000000000000000000000000000000000000815260040161228b90615644565b60405180910390fd5b60008360000180549050905060005b818110156123185760006122b7828461303e565b9050848660000182815481106122d0576122cf614dd2565b5b9060005260206000200160000160009054906101000a900463ffffffff1663ffffffff16111561230257809250612312565b60018161230f91906155a2565b91505b506122a3565b6000821461237d57846000016001836123319190614aea565b8154811061234257612341614dd2565b5b9060005260206000200160000160049054906101000a90047bffffffffffffffffffffffffffffffffffffffffffffffffffffffff16612380565b60005b7bffffffffffffffffffffffffffffffffffffffffffffffffffffffff169250505092915050565b600080826000018054905090506000811461241a57826000016001826123ce9190614aea565b815481106123df576123de614dd2565b5b9060005260206000200160000160049054906101000a90047bffffffffffffffffffffffffffffffffffffffffffffffffffffffff1661241d565b60005b7bffffffffffffffffffffffffffffffffffffffffffffffffffffffff16915050919050565b8173ffffffffffffffffffffffffffffffffffffffff168373ffffffffffffffffffffffffffffffffffffffff1614156124b2576040517f08c379a00000000000000000000000000000000000000000000000000000000081526004016124a9906156b0565b60405180910390fd5b80600560008573ffffffffffffffffffffffffffffffffffffffff1673ffffffffffffffffffffffffffffffffffffffff16815260200190815260200160002060008473ffffffffffffffffffffffffffffffffffffffff1673ffffffffffffffffffffffffffffffffffffffff16815260200190815260200160002060006101000a81548160ff0219169083151502179055508173ffffffffffffffffffffffffffffffffffffffff168373ffffffffffffffffffffffffffffffffffffffff167f17307eab39ab6107e8899845ad3d59bd9653f200f220920489ca2b5937696c31836040516125a39190613f2f565b60405180910390a3505050565b6125bb848484611d16565b6125c784848484613064565b612606576040517f08c379a00000000000000000000000000000000000000000000000000000000081526004016125fd90615742565b60405180910390fd5b50505050565b600061261f612619611eaa565b836131ec565b9050919050565b60008060006126378787878761321f565b915091506126448161332c565b8192505050949350505050565b600080600960008473ffffffffffffffffffffffffffffffffffffffff1673ffffffffffffffffffffffffffffffffffffffff168152602001908152602001600020905061269e81611a37565b91506126a98161187a565b50919050565b6060600f80546126be9061481e565b80601f01602080910402602001604051908101604052809291908181526020018280546126ea9061481e565b80156127375780601f1061270c57610100808354040283529160200191612737565b820191906000526020600020905b81548152906001019060200180831161271a57829003601f168201915b5050505050905090565b60606000821415612789576040518060400160405280600181526020017f3000000000000000000000000000000000000000000000000000000000000000815250905061289d565b600082905060005b600082146127bb5780806127a490614aa1565b915050600a826127b49190615762565b9150612791565b60008167ffffffffffffffff8111156127d7576127d6614481565b5b6040519080825280601f01601f1916602001820160405280156128095781602001600182028036833780820191505090505b5090505b60008514612896576001826128229190614aea565b9150600a8561283191906153a3565b603061283d91906155a2565b60f81b81838151811061285357612852614dd2565b5b60200101907effffffffffffffffffffffffffffffffffffffffffffffffffffffffffffff1916908160001a905350600a8561288f9190615762565b945061280d565b8093505050505b919050565b60007f80ac58cd000000000000000000000000000000000000000000000000000000007bffffffffffffffffffffffffffffffffffffffffffffffffffffffff1916827bffffffffffffffffffffffffffffffffffffffffffffffffffffffff1916148061296d57507f5b5e139f000000000000000000000000000000000000000000000000000000007bffffffffffffffffffffffffffffffffffffffffffffffffffffffff1916827bffffffffffffffffffffffffffffffffffffffffffffffffffffffff1916145b8061297d575061297c82613501565b5b9050919050565b600073ffffffffffffffffffffffffffffffffffffffff168273ffffffffffffffffffffffffffffffffffffffff1614156129f4576040517f08c379a00000000000000000000000000000000000000000000000000000000081526004016129eb906157df565b60405180910390fd5b6129fd8161190a565b15612a3d576040517f08c379a0000000000000000000000000000000000000000000000000000000008152600401612a349061584b565b60405180910390fd5b612a4960008383612dff565b6001600360008473ffffffffffffffffffffffffffffffffffffffff1673ffffffffffffffffffffffffffffffffffffffff1681526020019081526020016000206000828254612a9991906155a2565b92505081905550816002600083815260200190815260200160002060006101000a81548173ffffffffffffffffffffffffffffffffffffffff021916908373ffffffffffffffffffffffffffffffffffffffff160217905550808273ffffffffffffffffffffffffffffffffffffffff16600073ffffffffffffffffffffffffffffffffffffffff167fddf252ad1be2c89b69c2b068fc378daa952ba7f163c4a11628f55a4df523b3ef60405160405180910390a4612b5a60008383612e0f565b5050565b8273ffffffffffffffffffffffffffffffffffffffff16612b7e82610e12565b73ffffffffffffffffffffffffffffffffffffffff1614612bd4576040517f08c379a0000000000000000000000000000000000000000000000000000000008152600401612bcb906158dd565b60405180910390fd5b600073ffffffffffffffffffffffffffffffffffffffff168273ffffffffffffffffffffffffffffffffffffffff161415612c44576040517f08c379a0000000000000000000000000000000000000000000000000000000008152600401612c3b9061596f565b60405180910390fd5b612c4f838383612dff565b612c5a60008261197e565b6001600360008573ffffffffffffffffffffffffffffffffffffffff1673ffffffffffffffffffffffffffffffffffffffff1681526020019081526020016000206000828254612caa9190614aea565b925050819055506001600360008473ffffffffffffffffffffffffffffffffffffffff1673ffffffffffffffffffffffffffffffffffffffff1681526020019081526020016000206000828254612d0191906155a2565b92505081905550816002600083815260200190815260200160002060006101000a81548173ffffffffffffffffffffffffffffffffffffffff021916908373ffffffffffffffffffffffffffffffffffffffff160217905550808273ffffffffffffffffffffffffffffffffffffffff168473ffffffffffffffffffffffffffffffffffffffff167fddf252ad1be2c89b69c2b068fc378daa952ba7f163c4a11628f55a4df523b3ef60405160405180910390a4612dc0838383612e0f565b505050565b60008383834630604051602001612de095949392919061598f565b6040516020818303038152906040528051906020012090509392505050565b612e0a83838361356b565b505050565b612e1a83838361367f565b505050565b6000612e2a82610ec4565b9050919050565b8173ffffffffffffffffffffffffffffffffffffffff168373ffffffffffffffffffffffffffffffffffffffff1614158015612e6d5750600081115b1561303957600073ffffffffffffffffffffffffffffffffffffffff168373ffffffffffffffffffffffffffffffffffffffff1614612f5557600080612efe61369b84600760008973ffffffffffffffffffffffffffffffffffffffff1673ffffffffffffffffffffffffffffffffffffffff1681526020019081526020016000206136b19092919063ffffffff16565b915091508473ffffffffffffffffffffffffffffffffffffffff167fdec2bacdd2f05b59de34da9b523dff8be42e5e38e818c82fdb0bae774387a7248383604051612f4a9291906159e2565b60405180910390a250505b600073ffffffffffffffffffffffffffffffffffffffff168273ffffffffffffffffffffffffffffffffffffffff161461303857600080612fe16136df84600760008873ffffffffffffffffffffffffffffffffffffffff1673ffffffffffffffffffffffffffffffffffffffff1681526020019081526020016000206136b19092919063ffffffff16565b915091508373ffffffffffffffffffffffffffffffffffffffff167fdec2bacdd2f05b59de34da9b523dff8be42e5e38e818c82fdb0bae774387a724838360405161302d9291906159e2565b60405180910390a250505b5b505050565b6000600282841861304f9190615762565b82841661305c91906155a2565b905092915050565b60006130858473ffffffffffffffffffffffffffffffffffffffff166136f5565b156131df578373ffffffffffffffffffffffffffffffffffffffff1663150b7a026130ae611976565b8786866040518563ffffffff1660e01b81526004016130d09493929190615a60565b6020604051808303816000875af192505050801561310c57506040513d601f19601f820116820180604052508101906131099190615ac1565b60015b61318f573d806000811461313c576040519150601f19603f3d011682016040523d82523d6000602084013e613141565b606091505b50600081511415613187576040517f08c379a000000000000000000000000000000000000000000000000000000000815260040161317e90615742565b60405180910390fd5b805181602001fd5b63150b7a0260e01b7bffffffffffffffffffffffffffffffffffffffffffffffffffffffff1916817bffffffffffffffffffffffffffffffffffffffffffffffffffffffff1916149150506131e4565b600190505b949350505050565b60008282604051602001613201929190615b5b565b60405160208183030381529060405280519060200120905092915050565b6000807f7fffffffffffffffffffffffffffffff5d576e7357a4501ddfe92f46681b20a08360001c111561325a576000600391509150613323565b601b8560ff16141580156132725750601c8560ff1614155b15613284576000600491509150613323565b6000600187878787604051600081526020016040526040516132a99493929190615ba1565b6020604051602081039080840390855afa1580156132cb573d6000803e3d6000fd5b505050602060405103519050600073ffffffffffffffffffffffffffffffffffffffff168173ffffffffffffffffffffffffffffffffffffffff16141561331a57600060019250925050613323565b80600092509250505b94509492505050565b600060048111156133405761333f615be6565b5b81600481111561335357613352615be6565b5b141561335e576134fe565b6001600481111561337257613371615be6565b5b81600481111561338557613384615be6565b5b14156133c6576040517f08c379a00000000000000000000000000000000000000000000000000000000081526004016133bd90615c61565b60405180910390fd5b600260048111156133da576133d9615be6565b5b8160048111156133ed576133ec615be6565b5b141561342e576040517f08c379a000000000000000000000000000000000000000000000000000000000815260040161342590615ccd565b60405180910390fd5b6003600481111561344257613441615be6565b5b81600481111561345557613454615be6565b5b1415613496576040517f08c379a000000000000000000000000000000000000000000000000000000000815260040161348d90615d5f565b60405180910390fd5b6004808111156134a9576134a8615be6565b5b8160048111156134bc576134bb615be6565b5b14156134fd576040517f08c379a00000000000000000000000000000000000000000000000000000000081526004016134f490615df1565b60405180910390fd5b5b50565b60007f01ffc9a7000000000000000000000000000000000000000000000000000000007bffffffffffffffffffffffffffffffffffffffffffffffffffffffff1916827bffffffffffffffffffffffffffffffffffffffffffffffffffffffff1916149050919050565b613576838383613718565b600073ffffffffffffffffffffffffffffffffffffffff168373ffffffffffffffffffffffffffffffffffffffff1614156135b9576135b48161371d565b6135f8565b8173ffffffffffffffffffffffffffffffffffffffff168373ffffffffffffffffffffffffffffffffffffffff16146135f7576135f68382613766565b5b5b600073ffffffffffffffffffffffffffffffffffffffff168273ffffffffffffffffffffffffffffffffffffffff16141561363b57613636816138d3565b61367a565b8273ffffffffffffffffffffffffffffffffffffffff168273ffffffffffffffffffffffffffffffffffffffff16146136795761367882826139a4565b5b5b505050565b61368b83836001613a23565b613696838383613ae3565b505050565b600081836136a99190614aea565b905092915050565b6000806136d3856136ce6136c4886123a8565b868863ffffffff16565b613ae8565b91509150935093915050565b600081836136ed91906155a2565b905092915050565b6000808273ffffffffffffffffffffffffffffffffffffffff163b119050919050565b505050565b600c80549050600d600083815260200190815260200160002081905550600c81908060018154018082558091505060019003906000526020600020016000909190919091505550565b6000600161377384610ec4565b61377d9190614aea565b90506000600b6000848152602001908152602001600020549050818114613862576000600a60008673ffffffffffffffffffffffffffffffffffffffff1673ffffffffffffffffffffffffffffffffffffffff168152602001908152602001600020600084815260200190815260200160002054905080600a60008773ffffffffffffffffffffffffffffffffffffffff1673ffffffffffffffffffffffffffffffffffffffff16815260200190815260200160002060008481526020019081526020016000208190555081600b600083815260200190815260200160002081905550505b600b600084815260200190815260200160002060009055600a60008573ffffffffffffffffffffffffffffffffffffffff1673ffffffffffffffffffffffffffffffffffffffff16815260200190815260200160002060008381526020019081526020016000206000905550505050565b60006001600c805490506138e79190614aea565b90506000600d60008481526020019081526020016000205490506000600c838154811061391757613916614dd2565b5b9060005260206000200154905080600c838154811061393957613938614dd2565b5b906000526020600020018190555081600d600083815260200190815260200160002081905550600d600085815260200190815260200160002060009055600c80548061398857613987615e11565b5b6001900381819060005260206000200160009055905550505050565b60006139af83610ec4565b905081600a60008573ffffffffffffffffffffffffffffffffffffffff1673ffffffffffffffffffffffffffffffffffffffff16815260200190815260200160002060008381526020019081526020016000208190555080600b600084815260200190815260200160002081905550505050565b600073ffffffffffffffffffffffffffffffffffffffff168373ffffffffffffffffffffffffffffffffffffffff161415613a7357613a706136df8260086136b19092919063ffffffff16565b50505b600073ffffffffffffffffffffffffffffffffffffffff168273ffffffffffffffffffffffffffffffffffffffff161415613ac357613ac061369b8260086136b19092919063ffffffff16565b50505b613ade613acf84610d8f565b613ad884610d8f565b83612e31565b505050565b505050565b6000806000846000018054905090506000613b02866123a8565b9050600082118015613b5857504386600001600184613b219190614aea565b81548110613b3257613b31614dd2565b5b9060005260206000200160000160009054906101000a900463ffffffff1663ffffffff16145b15613be857613b6685613cea565b86600001600184613b779190614aea565b81548110613b8857613b87614dd2565b5b9060005260206000200160000160046101000a8154817bffffffffffffffffffffffffffffffffffffffffffffffffffffffff02191690837bffffffffffffffffffffffffffffffffffffffffffffffffffffffff160217905550613cdb565b856000016040518060400160405280613c0043613d55565b63ffffffff168152602001613c1488613cea565b7bffffffffffffffffffffffffffffffffffffffffffffffffffffffff168152509080600181540180825580915050600190039060005260206000200160009091909190915060008201518160000160006101000a81548163ffffffff021916908363ffffffff16021790555060208201518160000160046101000a8154817bffffffffffffffffffffffffffffffffffffffffffffffffffffffff02191690837bffffffffffffffffffffffffffffffffffffffffffffffffffffffff16021790555050505b80859350935050509250929050565b60007bffffffffffffffffffffffffffffffffffffffffffffffffffffffff8016821115613d4d576040517f08c379a0000000000000000000000000000000000000000000000000000000008152600401613d4490615eb2565b60405180910390fd5b819050919050565b600063ffffffff8016821115613da0576040517f08c379a0000000000000000000000000000000000000000000000000000000008152600401613d9790615f44565b60405180910390fd5b819050919050565b828054613db49061481e565b90600052602060002090601f016020900481019282613dd65760008555613e1d565b82601f10613def57803560ff1916838001178555613e1d565b82800160010185558215613e1d579182015b82811115613e1c578235825591602001919060010190613e01565b5b509050613e2a9190613e5e565b5090565b6040518060800160405280600060ff168152602001600060ff168152602001600015158152602001600081525090565b5b80821115613e77576000816000905550600101613e5f565b5090565b6000604051905090565b600080fd5b600080fd5b60007fffffffff0000000000000000000000000000000000000000000000000000000082169050919050565b613ec481613e8f565b8114613ecf57600080fd5b50565b600081359050613ee181613ebb565b92915050565b600060208284031215613efd57613efc613e85565b5b6000613f0b84828501613ed2565b91505092915050565b60008115159050919050565b613f2981613f14565b82525050565b6000602082019050613f446000830184613f20565b92915050565b600081519050919050565b600082825260208201905092915050565b60005b83811015613f84578082015181840152602081019050613f69565b83811115613f93576000848401525b50505050565b6000601f19601f8301169050919050565b6000613fb582613f4a565b613fbf8185613f55565b9350613fcf818560208601613f66565b613fd881613f99565b840191505092915050565b60006020820190508181036000830152613ffd8184613faa565b905092915050565b6000819050919050565b61401881614005565b811461402357600080fd5b50565b6000813590506140358161400f565b92915050565b60006020828403121561405157614050613e85565b5b600061405f84828501614026565b91505092915050565b600073ffffffffffffffffffffffffffffffffffffffff82169050919050565b600061409382614068565b9050919050565b6140a381614088565b82525050565b60006020820190506140be600083018461409a565b92915050565b6140cd81614088565b81146140d857600080fd5b50565b6000813590506140ea816140c4565b92915050565b6000806040838503121561410757614106613e85565b5b6000614115858286016140db565b925050602061412685828601614026565b9150509250929050565b61413981614005565b82525050565b60006020820190506141546000830184614130565b92915050565b61416381613f14565b811461416e57600080fd5b50565b6000813590506141808161415a565b92915050565b6000806040838503121561419d5761419c613e85565b5b60006141ab85828601614026565b92505060206141bc85828601614171565b9150509250929050565b6000806000606084860312156141df576141de613e85565b5b60006141ed868287016140db565b93505060206141fe868287016140db565b925050604061420f86828701614026565b9150509250925092565b6000819050919050565b61422c81614219565b82525050565b60006020820190506142476000830184614223565b92915050565b60006020828403121561426357614262613e85565b5b6000614271848285016140db565b91505092915050565b600081519050919050565b600082825260208201905092915050565b6000819050602082019050919050565b6142af81614005565b82525050565b60006142c183836142a6565b60208301905092915050565b6000602082019050919050565b60006142e58261427a565b6142ef8185614285565b93506142fa83614296565b8060005b8381101561432b57815161431288826142b5565b975061431d836142cd565b9250506001810190506142fe565b5085935050505092915050565b6000602082019050818103600083015261435281846142da565b905092915050565b6000806040838503121561437157614370613e85565b5b600061437f858286016140db565b925050602061439085828601614171565b9150509250929050565b600060408201905081810360008301526143b481856142da565b90506143c36020830184614130565b9392505050565b600080fd5b600080fd5b600080fd5b60008083601f8401126143ef576143ee6143ca565b5b8235905067ffffffffffffffff81111561440c5761440b6143cf565b5b602083019150836001820283011115614428576144276143d4565b5b9250929050565b6000806020838503121561444657614445613e85565b5b600083013567ffffffffffffffff81111561446457614463613e8a565b5b614470858286016143d9565b92509250509250929050565b600080fd5b7f4e487b7100000000000000000000000000000000000000000000000000000000600052604160045260246000fd5b6144b982613f99565b810181811067ffffffffffffffff821117156144d8576144d7614481565b5b80604052505050565b60006144eb613e7b565b90506144f782826144b0565b919050565b600067ffffffffffffffff82111561451757614516614481565b5b61452082613f99565b9050602081019050919050565b82818337600083830152505050565b600061454f61454a846144fc565b6144e1565b90508281526020810184848401111561456b5761456a61447c565b5b61457684828561452d565b509392505050565b600082601f830112614593576145926143ca565b5b81356145a384826020860161453c565b91505092915050565b600080600080608085870312156145c6576145c5613e85565b5b60006145d4878288016140db565b94505060206145e5878288016140db565b93505060406145f687828801614026565b925050606085013567ffffffffffffffff81111561461757614616613e8a565b5b6146238782880161457e565b91505092959194509250565b600060ff82169050919050565b6146458161462f565b811461465057600080fd5b50565b6000813590506146628161463c565b92915050565b61467181614219565b811461467c57600080fd5b50565b60008135905061468e81614668565b92915050565b60008060008060008060c087890312156146b1576146b0613e85565b5b60006146bf89828a016140db565b96505060206146d089828a01614026565b95505060406146e189828a01614026565b94505060606146f289828a01614653565b935050608061470389828a0161467f565b92505060a061471489828a0161467f565b9150509295509295509295565b61472a8161462f565b82525050565b61473981613f14565b82525050565b6080820160008201516147556000850182614721565b5060208201516147686020850182614721565b50604082015161477b6040850182614730565b50606082015161478e60608501826142a6565b50505050565b60006080820190506147a9600083018461473f565b92915050565b600080604083850312156147c6576147c5613e85565b5b60006147d4858286016140db565b92505060206147e5858286016140db565b9150509250929050565b7f4e487b7100000000000000000000000000000000000000000000000000000000600052602260045260246000fd5b6000600282049050600182168061483657607f821691505b6020821081141561484a576148496147ef565b5b50919050565b7f4552433732313a20617070726f76656420717565727920666f72206e6f6e657860008201527f697374656e7420746f6b656e0000000000000000000000000000000000000000602082015250565b60006148ac602c83613f55565b91506148b782614850565b604082019050919050565b600060208201905081810360008301526148db8161489f565b9050919050565b7f4552433732313a20617070726f76616c20746f2063757272656e74206f776e6560008201527f7200000000000000000000000000000000000000000000000000000000000000602082015250565b600061493e602183613f55565b9150614949826148e2565b604082019050919050565b6000602082019050818103600083015261496d81614931565b9050919050565b7f4552433732313a20617070726f76652063616c6c6572206973206e6f74206f7760008201527f6e6572206e6f7220617070726f76656420666f7220616c6c0000000000000000602082015250565b60006149d0603883613f55565b91506149db82614974565b604082019050919050565b600060208201905081810360008301526149ff816149c3565b9050919050565b7f43726f776e4e46543a4e6f742076616c69642074617267657400000000000000600082015250565b6000614a3c601983613f55565b9150614a4782614a06565b602082019050919050565b60006020820190508181036000830152614a6b81614a2f565b9050919050565b7f4e487b7100000000000000000000000000000000000000000000000000000000600052601160045260246000fd5b6000614aac82614005565b91507fffffffffffffffffffffffffffffffffffffffffffffffffffffffffffffffff821415614adf57614ade614a72565b5b600182019050919050565b6000614af582614005565b9150614b0083614005565b925082821015614b1357614b12614a72565b5b828203905092915050565b7f43726f776e4e46543a4e6f74206f776e6572206f7220617070726f7665640000600082015250565b6000614b54601e83613f55565b9150614b5f82614b1e565b602082019050919050565b60006020820190508181036000830152614b8381614b47565b9050919050565b7f4552433732313a207472616e736665722063616c6c6572206973206e6f74206f60008201527f776e6572206e6f7220617070726f766564000000000000000000000000000000602082015250565b6000614be6603183613f55565b9150614bf182614b8a565b604082019050919050565b60006020820190508181036000830152614c1581614bd9565b9050919050565b7f455243373231456e756d657261626c653a206f776e657220696e646578206f7560008201527f74206f6620626f756e6473000000000000000000000000000000000000000000602082015250565b6000614c78602b83613f55565b9150614c8382614c1c565b604082019050919050565b60006020820190508181036000830152614ca781614c6b565b9050919050565b7f43524f574e4e46543a204e6f74206f776e6572206f7220617070726f7665642060008201527f6279206f776e6572000000000000000000000000000000000000000000000000602082015250565b6000614d0a602883613f55565b9150614d1582614cae565b604082019050919050565b60006020820190508181036000830152614d3981614cfd565b9050919050565b7f455243373231456e756d657261626c653a20676c6f62616c20696e646578206f60008201527f7574206f6620626f756e64730000000000000000000000000000000000000000602082015250565b6000614d9c602c83613f55565b9150614da782614d40565b604082019050919050565b60006020820190508181036000830152614dcb81614d8f565b9050919050565b7f4e487b7100000000000000000000000000000000000000000000000000000000600052603260045260246000fd5b7f4552433732313a206f776e657220717565727920666f72206e6f6e657869737460008201527f656e7420746f6b656e0000000000000000000000000000000000000000000000602082015250565b6000614e5d602983613f55565b9150614e6882614e01565b604082019050919050565b60006020820190508181036000830152614e8c81614e50565b9050919050565b7f4552433732313a2062616c616e636520717565727920666f7220746865207a6560008201527f726f206164647265737300000000000000000000000000000000000000000000602082015250565b6000614eef602a83613f55565b9150614efa82614e93565b604082019050919050565b60006020820190508181036000830152614f1e81614ee2565b9050919050565b7f43726f776e4e46543a204f6e6c79206f776e6572000000000000000000000000600082015250565b6000614f5b601483613f55565b9150614f6682614f25565b602082019050919050565b60006020820190508181036000830152614f8a81614f4e565b9050919050565b7f566f7465733a20626c6f636b206e6f7420796574206d696e6564000000000000600082015250565b6000614fc7601a83613f55565b9150614fd282614f91565b602082019050919050565b60006020820190508181036000830152614ff681614fba565b9050919050565b7f566f7465733a207369676e617475726520657870697265640000000000000000600082015250565b6000615033601883613f55565b915061503e82614ffd565b602082019050919050565b6000602082019050818103600083015261506281615026565b9050919050565b600060808201905061507e6000830187614223565b61508b602083018661409a565b6150986040830185614130565b6150a56060830184614130565b95945050505050565b7f566f7465733a20696e76616c6964206e6f6e6365000000000000000000000000600082015250565b60006150e4601483613f55565b91506150ef826150ae565b602082019050919050565b60006020820190508181036000830152615113816150d7565b9050919050565b600081905092915050565b600061513082613f4a565b61513a818561511a565b935061514a818560208601613f66565b80840191505092915050565b60006151628286615125565b915061516e8285615125565b915061517a8284615125565b9150819050949350505050565b7f43524f574e4e46543a4d6f7265207468616e20746f74616c0000000000000000600082015250565b60006151bd601883613f55565b91506151c882615187565b602082019050919050565b600060208201905081810360008301526151ec816151b0565b9050919050565b6000819050919050565b61520e61520982614005565b6151f3565b82525050565b60008160601b9050919050565b600061522c82615214565b9050919050565b600061523e82615221565b9050919050565b61525661525182614088565b615233565b82525050565b600061526882866151fd565b6020820191506152788285615245565b60148201915061528882846151fd565b602082019150819050949350505050565b7f4e487b7100000000000000000000000000000000000000000000000000000000600052601260045260246000fd5b60006152d38261462f565b91506152de8361462f565b9250826152ee576152ed615299565b5b828206905092915050565b60006153048261462f565b915061530f8361462f565b92508260ff0382111561532557615324614a72565b5b828201905092915050565b60008160f81b9050919050565b600061534882615330565b9050919050565b61536061535b8261462f565b61533d565b82525050565b600061537282866151fd565b602082019150615382828561534f565b60018201915061539282846151fd565b602082019150819050949350505050565b60006153ae82614005565b91506153b983614005565b9250826153c9576153c8615299565b5b828206905092915050565b6000819050919050565b60006153f96153f46153ef8461462f565b6153d4565b614005565b9050919050565b615409816153de565b82525050565b60006040820190506154246000830185615400565b6154316020830184615400565b9392505050565b7f4552433732313a206f70657261746f7220717565727920666f72206e6f6e657860008201527f697374656e7420746f6b656e0000000000000000000000000000000000000000602082015250565b6000615494602c83613f55565b915061549f82615438565b604082019050919050565b600060208201905081810360008301526154c381615487565b9050919050565b7f43524f574e4e46543a5374616b65642100000000000000000000000000000000600082015250565b6000615500601083613f55565b915061550b826154ca565b602082019050919050565b6000602082019050818103600083015261552f816154f3565b9050919050565b7f43726f776e4e46543a4c6f636b696e6721000000000000000000000000000000600082015250565b600061556c601183613f55565b915061557782615536565b602082019050919050565b6000602082019050818103600083015261559b8161555f565b9050919050565b60006155ad82614005565b91506155b883614005565b9250827fffffffffffffffffffffffffffffffffffffffffffffffffffffffffffffffff038211156155ed576155ec614a72565b5b828201905092915050565b7f436865636b706f696e74733a20626c6f636b206e6f7420796574206d696e6564600082015250565b600061562e602083613f55565b9150615639826155f8565b602082019050919050565b6000602082019050818103600083015261565d81615621565b9050919050565b7f4552433732313a20617070726f766520746f2063616c6c657200000000000000600082015250565b600061569a601983613f55565b91506156a582615664565b602082019050919050565b600060208201905081810360008301526156c98161568d565b9050919050565b7f4552433732313a207472616e7366657220746f206e6f6e20455243373231526560008201527f63656976657220696d706c656d656e7465720000000000000000000000000000602082015250565b600061572c603283613f55565b9150615737826156d0565b604082019050919050565b6000602082019050818103600083015261575b8161571f565b9050919050565b600061576d82614005565b915061577883614005565b92508261578857615787615299565b5b828204905092915050565b7f4552433732313a206d696e7420746f20746865207a65726f2061646472657373600082015250565b60006157c9602083613f55565b91506157d482615793565b602082019050919050565b600060208201905081810360008301526157f8816157bc565b9050919050565b7f4552433732313a20746f6b656e20616c7265616479206d696e74656400000000600082015250565b6000615835601c83613f55565b9150615840826157ff565b602082019050919050565b6000602082019050818103600083015261586481615828565b9050919050565b7f4552433732313a207472616e736665722066726f6d20696e636f72726563742060008201527f6f776e6572000000000000000000000000000000000000000000000000000000602082015250565b60006158c7602583613f55565b91506158d28261586b565b604082019050919050565b600060208201905081810360008301526158f6816158ba565b9050919050565b7f4552433732313a207472616e7366657220746f20746865207a65726f2061646460008201527f7265737300000000000000000000000000000000000000000000000000000000602082015250565b6000615959602483613f55565b9150615964826158fd565b604082019050919050565b600060208201905081810360008301526159888161594c565b9050919050565b600060a0820190506159a46000830188614223565b6159b16020830187614223565b6159be6040830186614223565b6159cb6060830185614130565b6159d8608083018461409a565b9695505050505050565b60006040820190506159f76000830185614130565b615a046020830184614130565b9392505050565b600081519050919050565b600082825260208201905092915050565b6000615a3282615a0b565b615a3c8185615a16565b9350615a4c818560208601613f66565b615a5581613f99565b840191505092915050565b6000608082019050615a75600083018761409a565b615a82602083018661409a565b615a8f6040830185614130565b8181036060830152615aa18184615a27565b905095945050505050565b600081519050615abb81613ebb565b92915050565b600060208284031215615ad757615ad6613e85565b5b6000615ae584828501615aac565b91505092915050565b7f1901000000000000000000000000000000000000000000000000000000000000600082015250565b6000615b2460028361511a565b9150615b2f82615aee565b600282019050919050565b6000819050919050565b615b55615b5082614219565b615b3a565b82525050565b6000615b6682615b17565b9150615b728285615b44565b602082019150615b828284615b44565b6020820191508190509392505050565b615b9b8161462f565b82525050565b6000608082019050615bb66000830187614223565b615bc36020830186615b92565b615bd06040830185614223565b615bdd6060830184614223565b95945050505050565b7f4e487b7100000000000000000000000000000000000000000000000000000000600052602160045260246000fd5b7f45434453413a20696e76616c6964207369676e61747572650000000000000000600082015250565b6000615c4b601883613f55565b9150615c5682615c15565b602082019050919050565b60006020820190508181036000830152615c7a81615c3e565b9050919050565b7f45434453413a20696e76616c6964207369676e6174757265206c656e67746800600082015250565b6000615cb7601f83613f55565b9150615cc282615c81565b602082019050919050565b60006020820190508181036000830152615ce681615caa565b9050919050565b7f45434453413a20696e76616c6964207369676e6174757265202773272076616c60008201527f7565000000000000000000000000000000000000000000000000000000000000602082015250565b6000615d49602283613f55565b9150615d5482615ced565b604082019050919050565b60006020820190508181036000830152615d7881615d3c565b9050919050565b7f45434453413a20696e76616c6964207369676e6174757265202776272076616c60008201527f7565000000000000000000000000000000000000000000000000000000000000602082015250565b6000615ddb602283613f55565b9150615de682615d7f565b604082019050919050565b60006020820190508181036000830152615e0a81615dce565b9050919050565b7f4e487b7100000000000000000000000000000000000000000000000000000000600052603160045260246000fd5b7f53616665436173743a2076616c756520646f65736e27742066697420696e203260008201527f3234206269747300000000000000000000000000000000000000000000000000602082015250565b6000615e9c602783613f55565b9150615ea782615e40565b604082019050919050565b60006020820190508181036000830152615ecb81615e8f565b9050919050565b7f53616665436173743a2076616c756520646f65736e27742066697420696e203360008201527f3220626974730000000000000000000000000000000000000000000000000000602082015250565b6000615f2e602683613f55565b9150615f3982615ed2565b604082019050919050565b60006020820190508181036000830152615f5d81615f21565b905091905056fea2646970667358221220a1f855df819fd6af6c0873f627dda5f9602858b7dc78e22a7c1cc893a2566a9064736f6c634300080b0033",
  "immutableReferences": {
    "6045": [
      {
        "length": 32,
        "start": 7981
      }
    ],
    "6047": [
      {
        "length": 32,
        "start": 7940
      }
    ],
    "6049": [
      {
        "length": 32,
        "start": 7854
      }
    ],
    "6051": [
      {
        "length": 32,
        "start": 8057
      }
    ],
    "6053": [
      {
        "length": 32,
        "start": 8090
      }
    ],
    "6055": [
      {
        "length": 32,
        "start": 8024
      }
    ]
  },
  "source": "//SPDX-License-Identifier: MIT\r\npragma solidity ^0.8.0;\r\n\r\nimport \"@openzeppelin/contracts/token/ERC721/extensions/draft-ERC721Votes.sol\";\r\nimport \"@openzeppelin/contracts/token/ERC721/extensions/ERC721Enumerable.sol\";\r\nimport \"@openzeppelin/contracts/utils/Counters.sol\";\r\n\r\ncontract CrownNFT is ERC721Votes, ERC721Enumerable {\r\n    using Strings for uint256;\r\n    using Counters for Counters.Counter;\r\n\r\n    uint256 public constant maxSupply = 5000;\r\n    uint256 public constant  _transferCoolDown = (10 * 60) / 3;\r\n    string private constant _baseExtension = \".json\";\r\n    struct CrownTraits {\r\n        uint8 reduce;\r\n        uint8 aprBonus;\r\n        bool staked;\r\n        uint256 lockDeadline;\r\n    }\r\n\r\n    Counters.Counter private _tokenCounter;\r\n    // 30days estimate 3s per block\r\n    string private _baseUri;\r\n    address private _owner;\r\n    // Mapping token id to it's traits\r\n    mapping(uint256 => CrownTraits) private _tokenIdToTraits;\r\n    // Mapping address to valid target\r\n    mapping(address => bool) private _validTarget;\r\n\r\n    event MintCrown(\r\n        address indexed minter,\r\n        uint256 indexed tokenId,\r\n        uint256 aprBonus,\r\n        uint256 reduce\r\n    );\r\n\r\n    constructor(\r\n        string memory name_,\r\n        string memory symbol_,\r\n        string memory baseUri_\r\n    ) ERC721(name_, symbol_) EIP712(name_, \"1\") {\r\n        _baseUri = baseUri_;\r\n        _owner = msg.sender;\r\n        _tokenCounter.increment();\r\n    }\r\n\r\n    /**\r\n        @dev Setup marketplace for locking period \r\n     */\r\n    function setValidTarget(address target, bool permission)\r\n        external\r\n        onlyOwner\r\n    {\r\n        _validTarget[target] = permission;\r\n    }\r\n\r\n    function supportsInterface(bytes4 interfaceId)\r\n        public\r\n        view\r\n        virtual\r\n        override(ERC721Enumerable, ERC721)\r\n        returns (bool)\r\n    {\r\n        return super.supportsInterface(interfaceId);\r\n    }\r\n\r\n    // setBaseUri for NFT\r\n    function setBaseUri(string calldata baseUri_) external onlyOwner {\r\n        _baseUri = baseUri_;\r\n    }\r\n\r\n    // Return base for NFT\r\n    function _baseURI() internal view override returns (string memory) {\r\n        return _baseUri;\r\n    }\r\n\r\n    function tokenURI(uint256 tokenId)\r\n        public\r\n        view\r\n        override\r\n        returns (string memory)\r\n    {\r\n        return\r\n            string(\r\n                abi.encodePacked(_baseURI(), tokenId.toString(), _baseExtension)\r\n            );\r\n    }\r\n\r\n    // Get traits of NFT\r\n    function getTraits(uint256 tokenId)\r\n        public\r\n        view\r\n        returns (CrownTraits memory)\r\n    {\r\n        return _tokenIdToTraits[tokenId];\r\n    }\r\n    /**\r\n     * @dev using this function for staking or unstaking the NFT to the stakingWDA or Mining pool. After staked the owner still have the vote power of the NFT staked.\r\n     * @param tokenId - token id\r\n     * @param status - state of the stake properties\r\n     * Note: Clear the approve after staked or unstake.\r\n     */\r\n    function stakeOrUnstake(uint256 tokenId, bool status) external {\r\n        require(_isApprovedOrOwner(msg.sender, tokenId), \"CrownNFT:Not owner or approved\");\r\n        _approve(address(0),tokenId);\r\n        _tokenIdToTraits[tokenId].staked = status;\r\n    }\r\n\r\n    /**\r\n     * @dev Only mint for the valid target\r\n     * @param number - the number crown\r\n     */\r\n    function mintValidTarget(uint256 number) external returns(uint256){\r\n        require(_validTarget[msg.sender], \"CrownNFT:Not valid target\");\r\n        for (uint256 i = 0; i < number; i++) {\r\n            _mint(msg.sender, _tokenCounter.current());\r\n            _tokenCounter.increment();\r\n        }\r\n        // TEST ONLY\r\n        return _tokenCounter.current() - 1;\r\n    }\r\n\r\n    function _mint(address to, uint256 tokenId) internal override(ERC721) {\r\n        require(totalSupply() < maxSupply, \"CROWNNFT:More than total\");\r\n        uint8 randomNumber = uint8(\r\n            uint256(keccak256(abi.encodePacked(block.timestamp, to, tokenId))\r\n        ));\r\n        uint8 reduce = (randomNumber % 21) + 10;\r\n        uint8 aprBonus = uint8((uint256(\r\n            keccak256(abi.encodePacked(block.timestamp, reduce, tokenId))\r\n        ) % 11)) + 5;\r\n        // Create a random traits base on token id, timestamp, address of user\r\n        _tokenIdToTraits[tokenId] = CrownTraits(reduce, aprBonus, false,0);\r\n        emit MintCrown(to, tokenId, aprBonus, reduce);\r\n        super._mint(to, tokenId);\r\n    }\r\n\r\n    function burn(uint256 tokenId) public {\r\n        require(\r\n            _isApprovedOrOwner(_msgSender(), tokenId),\r\n            \"CROWNNFT: Not owner or approved by owner\"\r\n        );\r\n        delete _tokenIdToTraits[tokenId];\r\n        _burn(tokenId);\r\n    }\r\n\r\n    function ownerToTokenArray(address account)\r\n        public\r\n        view\r\n        returns (uint256[] memory)\r\n    {\r\n        uint256[] memory ownerArray = new uint256[](balanceOf(account));\r\n        for (uint256 i = 0; i < balanceOf(account); i++) {\r\n            ownerArray[i] = tokenOfOwnerByIndex(account, i);\r\n        }\r\n        return ownerArray;\r\n    }\r\n\r\n    function getPastTokenLocked(address account, uint256 blockNumber)\r\n        public\r\n        view\r\n        returns (uint256[] memory, uint256)\r\n    {\r\n        uint256[] memory ownerArray = ownerToTokenArray(account);\r\n        uint256[] memory numberLocked = new uint256[](ownerArray.length);\r\n        uint256 counter = 0;\r\n        for (uint256 i = 0; i < ownerArray.length; i++) {\r\n            if (getTraits(ownerArray[i]).lockDeadline > blockNumber) {\r\n                numberLocked[counter] = ownerArray[i];\r\n                counter++;\r\n            }\r\n        }\r\n        return (numberLocked, counter);\r\n    }\r\n\r\n    function getPastVotes(address account, uint256 blockNumber)\r\n        public\r\n        view\r\n        override(Votes)\r\n        returns (uint256)\r\n    {\r\n        (,uint256 counter) =  getPastTokenLocked(account, blockNumber);\r\n        return\r\n            super.getPastVotes(account, blockNumber) - counter;\r\n    }\r\n    function _beforeTokenTransfer(\r\n        address from,\r\n        address to,\r\n        uint256 tokenId\r\n    ) internal override(ERC721, ERC721Enumerable) {\r\n        super._beforeTokenTransfer(from, to, tokenId);\r\n    }\r\n\r\n    function _afterTokenTransfer(\r\n        address from,\r\n        address to,\r\n        uint256 tokenId\r\n    ) internal override(ERC721, ERC721Votes) {\r\n        super._afterTokenTransfer(from, to, tokenId);\r\n    }\r\n    /**\r\n     *  @dev override _transfer to specified that the tokenId should trading *  on the marketPlace.\r\n     */\r\n    function _transfer(\r\n        address from,\r\n        address to,\r\n        uint256 tokenId\r\n    ) internal override(ERC721) {\r\n        CrownTraits storage traists = _tokenIdToTraits[tokenId];\r\n        require(traists.staked == false, \"CROWNNFT:Staked!\");\r\n        require(traists.lockDeadline == 0 || traists.lockDeadline < block.number,\"CrownNFT:Locking!\");\r\n        if (!_validTarget[to] && !_validTarget[from]) {\r\n         traists.lockDeadline = block.number + _transferCoolDown;\r\n        }\r\n        super._transfer(from, to, tokenId);\r\n    }\r\n    /**\r\n     * @dev Transfers ownership of the contract to a new account (`newOwner`).\r\n     * Can only be called by the current owner.\r\n     */\r\n    function transferOwnership(address newOwner) public virtual onlyOwner {\r\n        require(\r\n            newOwner != address(0)\r\n        );\r\n        _owner = newOwner;\r\n    }\r\n    modifier onlyOwner() {\r\n        require(msg.sender == _owner, \"CrownNFT: Only owner\");\r\n        _;\r\n    }\r\n}\r\n",
  "sourcePath": "C:\\Github\\Dao\\Develop\\Blockchain\\dao-project\\contracts\\NFT\\CrownNFT.sol",
  "compiler": {
    "name": "solc",
    "version": "0.8.11+commit.d7f03943.Emscripten.clang"
  },
  "schemaVersion": "3.4.7",
  "updatedAt": "2022-06-23T10:15:17.327Z",
  "networkType": "ethereum",
  "devdoc": {
    "kind": "dev",
    "methods": {
      "DOMAIN_SEPARATOR()": {
        "details": "Returns the contract's {EIP712} domain separator."
      },
      "approve(address,uint256)": {
        "details": "See {IERC721-approve}."
      },
      "balanceOf(address)": {
        "details": "See {IERC721-balanceOf}."
      },
      "delegate(address)": {
        "details": "Delegates votes from the sender to `delegatee`."
      },
      "delegateBySig(address,uint256,uint256,uint8,bytes32,bytes32)": {
        "details": "Delegates votes from signer to `delegatee`."
      },
      "delegates(address)": {
        "details": "Returns the delegate that `account` has chosen."
      },
      "getApproved(uint256)": {
        "details": "See {IERC721-getApproved}."
      },
      "getPastTotalSupply(uint256)": {
        "details": "Returns the total supply of votes available at the end of a past block (`blockNumber`). NOTE: This value is the sum of all available votes, which is not necessarily the sum of all delegated votes. Votes that have not been delegated are still part of total supply, even though they would not participate in a vote. Requirements: - `blockNumber` must have been already mined"
      },
      "getPastVotes(address,uint256)": {
        "details": "Returns the amount of votes that `account` had at the end of a past block (`blockNumber`). Requirements: - `blockNumber` must have been already mined"
      },
      "getVotes(address)": {
        "details": "Returns the current amount of votes that `account` has."
      },
      "isApprovedForAll(address,address)": {
        "details": "See {IERC721-isApprovedForAll}."
      },
      "mintValidTarget(uint256)": {
        "details": "Only mint for the valid target",
        "params": {
          "number": "- the number crown"
        }
      },
      "name()": {
        "details": "See {IERC721Metadata-name}."
      },
      "nonces(address)": {
        "details": "Returns an address nonce."
      },
      "ownerOf(uint256)": {
        "details": "See {IERC721-ownerOf}."
      },
      "safeTransferFrom(address,address,uint256)": {
        "details": "See {IERC721-safeTransferFrom}."
      },
      "safeTransferFrom(address,address,uint256,bytes)": {
        "details": "See {IERC721-safeTransferFrom}."
      },
      "setApprovalForAll(address,bool)": {
        "details": "See {IERC721-setApprovalForAll}."
      },
      "setValidTarget(address,bool)": {
        "details": "Setup marketplace for locking period "
      },
      "stakeOrUnstake(uint256,bool)": {
        "details": "using this function for staking or unstaking the NFT to the stakingWDA or Mining pool. After staked the owner still have the vote power of the NFT staked.",
        "params": {
          "status": "- state of the stake properties Note: Clear the approve after staked or unstake.",
          "tokenId": "- token id"
        }
      },
      "symbol()": {
        "details": "See {IERC721Metadata-symbol}."
      },
      "tokenByIndex(uint256)": {
        "details": "See {IERC721Enumerable-tokenByIndex}."
      },
      "tokenOfOwnerByIndex(address,uint256)": {
        "details": "See {IERC721Enumerable-tokenOfOwnerByIndex}."
      },
      "tokenURI(uint256)": {
        "details": "See {IERC721Metadata-tokenURI}."
      },
      "totalSupply()": {
        "details": "See {IERC721Enumerable-totalSupply}."
      },
      "transferFrom(address,address,uint256)": {
        "details": "See {IERC721-transferFrom}."
      },
      "transferOwnership(address)": {
        "details": "Transfers ownership of the contract to a new account (`newOwner`). Can only be called by the current owner."
      }
    },
    "version": 1
  },
  "userdoc": {
    "kind": "user",
    "methods": {},
    "version": 1
  }
}