{
  "contractName": "DAONft",
  "abi": [
    {
      "inputs": [
        {
          "internalType": "string",
          "name": "name_",
          "type": "string"
        },
        {
          "internalType": "string",
          "name": "symbol_",
          "type": "string"
        }
      ],
      "stateMutability": "nonpayable",
      "type": "constructor"
    },
    {
      "anonymous": false,
      "inputs": [
        {
          "indexed": true,
          "internalType": "address",
          "name": "owner",
          "type": "address"
        },
        {
          "indexed": true,
          "internalType": "address",
          "name": "approved",
          "type": "address"
        },
        {
          "indexed": true,
          "internalType": "uint256",
          "name": "tokenId",
          "type": "uint256"
        }
      ],
      "name": "Approval",
      "type": "event"
    },
    {
      "anonymous": false,
      "inputs": [
        {
          "indexed": true,
          "internalType": "address",
          "name": "owner",
          "type": "address"
        },
        {
          "indexed": true,
          "internalType": "address",
          "name": "operator",
          "type": "address"
        },
        {
          "indexed": false,
          "internalType": "bool",
          "name": "approved",
          "type": "bool"
        }
      ],
      "name": "ApprovalForAll",
      "type": "event"
    },
    {
      "anonymous": false,
      "inputs": [
        {
          "indexed": true,
          "internalType": "address",
          "name": "from",
          "type": "address"
        },
        {
          "indexed": true,
          "internalType": "address",
          "name": "to",
          "type": "address"
        },
        {
          "indexed": true,
          "internalType": "uint256",
          "name": "tokenId",
          "type": "uint256"
        }
      ],
      "name": "Transfer",
      "type": "event"
    },
    {
      "inputs": [
        {
          "internalType": "address",
          "name": "to",
          "type": "address"
        },
        {
          "internalType": "uint256",
          "name": "tokenId",
          "type": "uint256"
        }
      ],
      "name": "approve",
      "outputs": [],
      "stateMutability": "nonpayable",
      "type": "function"
    },
    {
      "inputs": [
        {
          "internalType": "address",
          "name": "owner",
          "type": "address"
        }
      ],
      "name": "balanceOf",
      "outputs": [
        {
          "internalType": "uint256",
          "name": "",
          "type": "uint256"
        }
      ],
      "stateMutability": "view",
      "type": "function"
    },
    {
      "inputs": [
        {
          "internalType": "uint256",
          "name": "tokenId",
          "type": "uint256"
        }
      ],
      "name": "getApproved",
      "outputs": [
        {
          "internalType": "address",
          "name": "",
          "type": "address"
        }
      ],
      "stateMutability": "view",
      "type": "function"
    },
    {
      "inputs": [
        {
          "internalType": "address",
          "name": "owner",
          "type": "address"
        },
        {
          "internalType": "address",
          "name": "operator",
          "type": "address"
        }
      ],
      "name": "isApprovedForAll",
      "outputs": [
        {
          "internalType": "bool",
          "name": "",
          "type": "bool"
        }
      ],
      "stateMutability": "view",
      "type": "function"
    },
    {
      "inputs": [],
      "name": "name",
      "outputs": [
        {
          "internalType": "string",
          "name": "",
          "type": "string"
        }
      ],
      "stateMutability": "view",
      "type": "function"
    },
    {
      "inputs": [
        {
          "internalType": "uint256",
          "name": "tokenId",
          "type": "uint256"
        }
      ],
      "name": "ownerOf",
      "outputs": [
        {
          "internalType": "address",
          "name": "",
          "type": "address"
        }
      ],
      "stateMutability": "view",
      "type": "function"
    },
    {
      "inputs": [
        {
          "internalType": "address",
          "name": "from",
          "type": "address"
        },
        {
          "internalType": "address",
          "name": "to",
          "type": "address"
        },
        {
          "internalType": "uint256",
          "name": "tokenId",
          "type": "uint256"
        }
      ],
      "name": "safeTransferFrom",
      "outputs": [],
      "stateMutability": "nonpayable",
      "type": "function"
    },
    {
      "inputs": [
        {
          "internalType": "address",
          "name": "from",
          "type": "address"
        },
        {
          "internalType": "address",
          "name": "to",
          "type": "address"
        },
        {
          "internalType": "uint256",
          "name": "tokenId",
          "type": "uint256"
        },
        {
          "internalType": "bytes",
          "name": "_data",
          "type": "bytes"
        }
      ],
      "name": "safeTransferFrom",
      "outputs": [],
      "stateMutability": "nonpayable",
      "type": "function"
    },
    {
      "inputs": [
        {
          "internalType": "address",
          "name": "operator",
          "type": "address"
        },
        {
          "internalType": "bool",
          "name": "approved",
          "type": "bool"
        }
      ],
      "name": "setApprovalForAll",
      "outputs": [],
      "stateMutability": "nonpayable",
      "type": "function"
    },
    {
      "inputs": [
        {
          "internalType": "bytes4",
          "name": "interfaceId",
          "type": "bytes4"
        }
      ],
      "name": "supportsInterface",
      "outputs": [
        {
          "internalType": "bool",
          "name": "",
          "type": "bool"
        }
      ],
      "stateMutability": "view",
      "type": "function"
    },
    {
      "inputs": [],
      "name": "symbol",
      "outputs": [
        {
          "internalType": "string",
          "name": "",
          "type": "string"
        }
      ],
      "stateMutability": "view",
      "type": "function"
    },
    {
      "inputs": [
        {
          "internalType": "uint256",
          "name": "tokenId",
          "type": "uint256"
        }
      ],
      "name": "tokenURI",
      "outputs": [
        {
          "internalType": "string",
          "name": "",
          "type": "string"
        }
      ],
      "stateMutability": "view",
      "type": "function"
    },
    {
      "inputs": [
        {
          "internalType": "address",
          "name": "from",
          "type": "address"
        },
        {
          "internalType": "address",
          "name": "to",
          "type": "address"
        },
        {
          "internalType": "uint256",
          "name": "tokenId",
          "type": "uint256"
        }
      ],
      "name": "transferFrom",
      "outputs": [],
      "stateMutability": "nonpayable",
      "type": "function"
    },
    {
      "inputs": [],
      "name": "mint",
      "outputs": [],
      "stateMutability": "payable",
      "type": "function"
    },
    {
      "inputs": [
        {
          "internalType": "uint256",
          "name": "number",
          "type": "uint256"
        }
      ],
      "name": "mintValidTarget",
      "outputs": [
        {
          "internalType": "uint256",
          "name": "",
          "type": "uint256"
        }
      ],
      "stateMutability": "nonpayable",
      "type": "function"
    }
  ],
  "bytecode": "0x60806040526113886007553480156200001757600080fd5b5060405162002c5238038062002c5283398181016040528101906200003d9190620002c8565b81818160009080519060200190620000579291906200007b565b508060019080519060200190620000709291906200007b565b5050505050620003b2565b82805462000089906200037c565b90600052602060002090601f016020900481019282620000ad5760008555620000f9565b82601f10620000c857805160ff1916838001178555620000f9565b82800160010185558215620000f9579182015b82811115620000f8578251825591602001919060010190620000db565b5b5090506200010891906200010c565b5090565b5b80821115620001275760008160009055506001016200010d565b5090565b6000604051905090565b600080fd5b600080fd5b600080fd5b600080fd5b6000601f19601f8301169050919050565b7f4e487b7100000000000000000000000000000000000000000000000000000000600052604160045260246000fd5b620001948262000149565b810181811067ffffffffffffffff82111715620001b657620001b56200015a565b5b80604052505050565b6000620001cb6200012b565b9050620001d9828262000189565b919050565b600067ffffffffffffffff821115620001fc57620001fb6200015a565b5b620002078262000149565b9050602081019050919050565b60005b838110156200023457808201518184015260208101905062000217565b8381111562000244576000848401525b50505050565b6000620002616200025b84620001de565b620001bf565b90508281526020810184848401111562000280576200027f62000144565b5b6200028d84828562000214565b509392505050565b600082601f830112620002ad57620002ac6200013f565b5b8151620002bf8482602086016200024a565b91505092915050565b60008060408385031215620002e257620002e162000135565b5b600083015167ffffffffffffffff8111156200030357620003026200013a565b5b620003118582860162000295565b925050602083015167ffffffffffffffff8111156200033557620003346200013a565b5b620003438582860162000295565b9150509250929050565b7f4e487b7100000000000000000000000000000000000000000000000000000000600052602260045260246000fd5b600060028204905060018216806200039557607f821691505b60208210811415620003ac57620003ab6200034d565b5b50919050565b61289080620003c26000396000f3fe6080604052600436106100e85760003560e01c806342842e0e1161008a578063a22cb46511610059578063a22cb465146102f9578063b88d4fde14610322578063c87b56dd1461034b578063e985e9c514610388576100e8565b806342842e0e1461022b5780636352211e1461025457806370a082311461029157806395d89b41146102ce576100e8565b8063095ea7b3116100c6578063095ea7b31461019257806311005a90146101bb5780631249c58b146101f857806323b872dd14610202576100e8565b806301ffc9a7146100ed57806306fdde031461012a578063081812fc14610155575b600080fd5b3480156100f957600080fd5b50610114600480360381019061010f9190611813565b6103c5565b604051610121919061185b565b60405180910390f35b34801561013657600080fd5b5061013f6104a7565b60405161014c919061190f565b60405180910390f35b34801561016157600080fd5b5061017c60048036038101906101779190611967565b610539565b60405161018991906119d5565b60405180910390f35b34801561019e57600080fd5b506101b960048036038101906101b49190611a1c565b6105be565b005b3480156101c757600080fd5b506101e260048036038101906101dd9190611967565b6106d6565b6040516101ef9190611a6b565b60405180910390f35b610200610702565b005b34801561020e57600080fd5b5061022960048036038101906102249190611a86565b61072f565b005b34801561023757600080fd5b50610252600480360381019061024d9190611a86565b61078f565b005b34801561026057600080fd5b5061027b60048036038101906102769190611967565b6107af565b60405161028891906119d5565b60405180910390f35b34801561029d57600080fd5b506102b860048036038101906102b39190611ad9565b610861565b6040516102c59190611a6b565b60405180910390f35b3480156102da57600080fd5b506102e3610919565b6040516102f0919061190f565b60405180910390f35b34801561030557600080fd5b50610320600480360381019061031b9190611b32565b6109ab565b005b34801561032e57600080fd5b5061034960048036038101906103449190611ca7565b6109c1565b005b34801561035757600080fd5b50610372600480360381019061036d9190611967565b610a23565b60405161037f919061190f565b60405180910390f35b34801561039457600080fd5b506103af60048036038101906103aa9190611d2a565b610aca565b6040516103bc919061185b565b60405180910390f35b60007f80ac58cd000000000000000000000000000000000000000000000000000000007bffffffffffffffffffffffffffffffffffffffffffffffffffffffff1916827bffffffffffffffffffffffffffffffffffffffffffffffffffffffff1916148061049057507f5b5e139f000000000000000000000000000000000000000000000000000000007bffffffffffffffffffffffffffffffffffffffffffffffffffffffff1916827bffffffffffffffffffffffffffffffffffffffffffffffffffffffff1916145b806104a0575061049f82610b5e565b5b9050919050565b6060600080546104b690611d99565b80601f01602080910402602001604051908101604052809291908181526020018280546104e290611d99565b801561052f5780601f106105045761010080835404028352916020019161052f565b820191906000526020600020905b81548152906001019060200180831161051257829003601f168201915b5050505050905090565b600061054482610bc8565b610583576040517f08c379a000000000000000000000000000000000000000000000000000000000815260040161057a90611e3d565b60405180910390fd5b6004600083815260200190815260200160002060009054906101000a900473ffffffffffffffffffffffffffffffffffffffff169050919050565b60006105c9826107af565b90508073ffffffffffffffffffffffffffffffffffffffff168373ffffffffffffffffffffffffffffffffffffffff16141561063a576040517f08c379a000000000000000000000000000000000000000000000000000000000815260040161063190611ecf565b60405180910390fd5b8073ffffffffffffffffffffffffffffffffffffffff16610659610c34565b73ffffffffffffffffffffffffffffffffffffffff161480610688575061068781610682610c34565b610aca565b5b6106c7576040517f08c379a00000000000000000000000000000000000000000000000000000000081526004016106be90611f61565b60405180910390fd5b6106d18383610c3c565b505050565b6000806106e36006610cf5565b90506106ef3382610d03565b6106f96006610edd565b80915050919050565b600134101561071057600080fd5b6107233361071e6006610cf5565b610ef3565b61072d6006610edd565b565b61074061073a610c34565b82610f11565b61077f576040517f08c379a000000000000000000000000000000000000000000000000000000000815260040161077690611ff3565b60405180910390fd5b61078a838383610fef565b505050565b6107aa838383604051806020016040528060008152506109c1565b505050565b6000806002600084815260200190815260200160002060009054906101000a900473ffffffffffffffffffffffffffffffffffffffff169050600073ffffffffffffffffffffffffffffffffffffffff168173ffffffffffffffffffffffffffffffffffffffff161415610858576040517f08c379a000000000000000000000000000000000000000000000000000000000815260040161084f90612085565b60405180910390fd5b80915050919050565b60008073ffffffffffffffffffffffffffffffffffffffff168273ffffffffffffffffffffffffffffffffffffffff1614156108d2576040517f08c379a00000000000000000000000000000000000000000000000000000000081526004016108c990612117565b60405180910390fd5b600360008373ffffffffffffffffffffffffffffffffffffffff1673ffffffffffffffffffffffffffffffffffffffff168152602001908152602001600020549050919050565b60606001805461092890611d99565b80601f016020809104026020016040519081016040528092919081815260200182805461095490611d99565b80156109a15780601f10610976576101008083540402835291602001916109a1565b820191906000526020600020905b81548152906001019060200180831161098457829003601f168201915b5050505050905090565b6109bd6109b6610c34565b8383611256565b5050565b6109d26109cc610c34565b83610f11565b610a11576040517f08c379a0000000000000000000000000000000000000000000000000000000008152600401610a0890611ff3565b60405180910390fd5b610a1d848484846113c3565b50505050565b6060610a2e82610bc8565b610a6d576040517f08c379a0000000000000000000000000000000000000000000000000000000008152600401610a64906121a9565b60405180910390fd5b6000610a7761141f565b90506000815111610a975760405180602001604052806000815250610ac2565b80610aa184611436565b604051602001610ab2929190612205565b6040516020818303038152906040525b915050919050565b6000600560008473ffffffffffffffffffffffffffffffffffffffff1673ffffffffffffffffffffffffffffffffffffffff16815260200190815260200160002060008373ffffffffffffffffffffffffffffffffffffffff1673ffffffffffffffffffffffffffffffffffffffff16815260200190815260200160002060009054906101000a900460ff16905092915050565b60007f01ffc9a7000000000000000000000000000000000000000000000000000000007bffffffffffffffffffffffffffffffffffffffffffffffffffffffff1916827bffffffffffffffffffffffffffffffffffffffffffffffffffffffff1916149050919050565b60008073ffffffffffffffffffffffffffffffffffffffff166002600084815260200190815260200160002060009054906101000a900473ffffffffffffffffffffffffffffffffffffffff1673ffffffffffffffffffffffffffffffffffffffff1614159050919050565b600033905090565b816004600083815260200190815260200160002060006101000a81548173ffffffffffffffffffffffffffffffffffffffff021916908373ffffffffffffffffffffffffffffffffffffffff160217905550808273ffffffffffffffffffffffffffffffffffffffff16610caf836107af565b73ffffffffffffffffffffffffffffffffffffffff167f8c5be1e5ebec7d5bd14f71427d1e84f3dd0314c0f7b2291e5b200ac8c7c3b92560405160405180910390a45050565b600081600001549050919050565b600073ffffffffffffffffffffffffffffffffffffffff168273ffffffffffffffffffffffffffffffffffffffff161415610d73576040517f08c379a0000000000000000000000000000000000000000000000000000000008152600401610d6a90612275565b60405180910390fd5b610d7c81610bc8565b15610dbc576040517f08c379a0000000000000000000000000000000000000000000000000000000008152600401610db3906122e1565b60405180910390fd5b610dc860008383611597565b6001600360008473ffffffffffffffffffffffffffffffffffffffff1673ffffffffffffffffffffffffffffffffffffffff1681526020019081526020016000206000828254610e189190612330565b92505081905550816002600083815260200190815260200160002060006101000a81548173ffffffffffffffffffffffffffffffffffffffff021916908373ffffffffffffffffffffffffffffffffffffffff160217905550808273ffffffffffffffffffffffffffffffffffffffff16600073ffffffffffffffffffffffffffffffffffffffff167fddf252ad1be2c89b69c2b068fc378daa952ba7f163c4a11628f55a4df523b3ef60405160405180910390a4610ed96000838361159c565b5050565b6001816000016000828254019250508190555050565b610f0d8282604051806020016040528060008152506115a1565b5050565b6000610f1c82610bc8565b610f5b576040517f08c379a0000000000000000000000000000000000000000000000000000000008152600401610f52906123f8565b60405180910390fd5b6000610f66836107af565b90508073ffffffffffffffffffffffffffffffffffffffff168473ffffffffffffffffffffffffffffffffffffffff161480610fa85750610fa78185610aca565b5b80610fe657508373ffffffffffffffffffffffffffffffffffffffff16610fce84610539565b73ffffffffffffffffffffffffffffffffffffffff16145b91505092915050565b8273ffffffffffffffffffffffffffffffffffffffff1661100f826107af565b73ffffffffffffffffffffffffffffffffffffffff1614611065576040517f08c379a000000000000000000000000000000000000000000000000000000000815260040161105c9061248a565b60405180910390fd5b600073ffffffffffffffffffffffffffffffffffffffff168273ffffffffffffffffffffffffffffffffffffffff1614156110d5576040517f08c379a00000000000000000000000000000000000000000000000000000000081526004016110cc9061251c565b60405180910390fd5b6110e0838383611597565b6110eb600082610c3c565b6001600360008573ffffffffffffffffffffffffffffffffffffffff1673ffffffffffffffffffffffffffffffffffffffff168152602001908152602001600020600082825461113b919061253c565b925050819055506001600360008473ffffffffffffffffffffffffffffffffffffffff1673ffffffffffffffffffffffffffffffffffffffff16815260200190815260200160002060008282546111929190612330565b92505081905550816002600083815260200190815260200160002060006101000a81548173ffffffffffffffffffffffffffffffffffffffff021916908373ffffffffffffffffffffffffffffffffffffffff160217905550808273ffffffffffffffffffffffffffffffffffffffff168473ffffffffffffffffffffffffffffffffffffffff167fddf252ad1be2c89b69c2b068fc378daa952ba7f163c4a11628f55a4df523b3ef60405160405180910390a461125183838361159c565b505050565b8173ffffffffffffffffffffffffffffffffffffffff168373ffffffffffffffffffffffffffffffffffffffff1614156112c5576040517f08c379a00000000000000000000000000000000000000000000000000000000081526004016112bc906125bc565b60405180910390fd5b80600560008573ffffffffffffffffffffffffffffffffffffffff1673ffffffffffffffffffffffffffffffffffffffff16815260200190815260200160002060008473ffffffffffffffffffffffffffffffffffffffff1673ffffffffffffffffffffffffffffffffffffffff16815260200190815260200160002060006101000a81548160ff0219169083151502179055508173ffffffffffffffffffffffffffffffffffffffff168373ffffffffffffffffffffffffffffffffffffffff167f17307eab39ab6107e8899845ad3d59bd9653f200f220920489ca2b5937696c31836040516113b6919061185b565b60405180910390a3505050565b6113ce848484610fef565b6113da848484846115fc565b611419576040517f08c379a00000000000000000000000000000000000000000000000000000000081526004016114109061264e565b60405180910390fd5b50505050565b606060405180602001604052806000815250905090565b6060600082141561147e576040518060400160405280600181526020017f30000000000000000000000000000000000000000000000000000000000000008152509050611592565b600082905060005b600082146114b05780806114999061266e565b915050600a826114a991906126e6565b9150611486565b60008167ffffffffffffffff8111156114cc576114cb611b7c565b5b6040519080825280601f01601f1916602001820160405280156114fe5781602001600182028036833780820191505090505b5090505b6000851461158b57600182611517919061253c565b9150600a856115269190612717565b60306115329190612330565b60f81b81838151811061154857611547612748565b5b60200101907effffffffffffffffffffffffffffffffffffffffffffffffffffffffffffff1916908160001a905350600a8561158491906126e6565b9450611502565b8093505050505b919050565b505050565b505050565b6115ab8383610d03565b6115b860008484846115fc565b6115f7576040517f08c379a00000000000000000000000000000000000000000000000000000000081526004016115ee9061264e565b60405180910390fd5b505050565b600061161d8473ffffffffffffffffffffffffffffffffffffffff16611784565b15611777578373ffffffffffffffffffffffffffffffffffffffff1663150b7a02611646610c34565b8786866040518563ffffffff1660e01b815260040161166894939291906127cc565b6020604051808303816000875af19250505080156116a457506040513d601f19601f820116820180604052508101906116a1919061282d565b60015b611727573d80600081146116d4576040519150601f19603f3d011682016040523d82523d6000602084013e6116d9565b606091505b5060008151141561171f576040517f08c379a00000000000000000000000000000000000000000000000000000000081526004016117169061264e565b60405180910390fd5b805181602001fd5b63150b7a0260e01b7bffffffffffffffffffffffffffffffffffffffffffffffffffffffff1916817bffffffffffffffffffffffffffffffffffffffffffffffffffffffff19161491505061177c565b600190505b949350505050565b6000808273ffffffffffffffffffffffffffffffffffffffff163b119050919050565b6000604051905090565b600080fd5b600080fd5b60007fffffffff0000000000000000000000000000000000000000000000000000000082169050919050565b6117f0816117bb565b81146117fb57600080fd5b50565b60008135905061180d816117e7565b92915050565b600060208284031215611829576118286117b1565b5b6000611837848285016117fe565b91505092915050565b60008115159050919050565b61185581611840565b82525050565b6000602082019050611870600083018461184c565b92915050565b600081519050919050565b600082825260208201905092915050565b60005b838110156118b0578082015181840152602081019050611895565b838111156118bf576000848401525b50505050565b6000601f19601f8301169050919050565b60006118e182611876565b6118eb8185611881565b93506118fb818560208601611892565b611904816118c5565b840191505092915050565b6000602082019050818103600083015261192981846118d6565b905092915050565b6000819050919050565b61194481611931565b811461194f57600080fd5b50565b6000813590506119618161193b565b92915050565b60006020828403121561197d5761197c6117b1565b5b600061198b84828501611952565b91505092915050565b600073ffffffffffffffffffffffffffffffffffffffff82169050919050565b60006119bf82611994565b9050919050565b6119cf816119b4565b82525050565b60006020820190506119ea60008301846119c6565b92915050565b6119f9816119b4565b8114611a0457600080fd5b50565b600081359050611a16816119f0565b92915050565b60008060408385031215611a3357611a326117b1565b5b6000611a4185828601611a07565b9250506020611a5285828601611952565b9150509250929050565b611a6581611931565b82525050565b6000602082019050611a806000830184611a5c565b92915050565b600080600060608486031215611a9f57611a9e6117b1565b5b6000611aad86828701611a07565b9350506020611abe86828701611a07565b9250506040611acf86828701611952565b9150509250925092565b600060208284031215611aef57611aee6117b1565b5b6000611afd84828501611a07565b91505092915050565b611b0f81611840565b8114611b1a57600080fd5b50565b600081359050611b2c81611b06565b92915050565b60008060408385031215611b4957611b486117b1565b5b6000611b5785828601611a07565b9250506020611b6885828601611b1d565b9150509250929050565b600080fd5b600080fd5b7f4e487b7100000000000000000000000000000000000000000000000000000000600052604160045260246000fd5b611bb4826118c5565b810181811067ffffffffffffffff82111715611bd357611bd2611b7c565b5b80604052505050565b6000611be66117a7565b9050611bf28282611bab565b919050565b600067ffffffffffffffff821115611c1257611c11611b7c565b5b611c1b826118c5565b9050602081019050919050565b82818337600083830152505050565b6000611c4a611c4584611bf7565b611bdc565b905082815260208101848484011115611c6657611c65611b77565b5b611c71848285611c28565b509392505050565b600082601f830112611c8e57611c8d611b72565b5b8135611c9e848260208601611c37565b91505092915050565b60008060008060808587031215611cc157611cc06117b1565b5b6000611ccf87828801611a07565b9450506020611ce087828801611a07565b9350506040611cf187828801611952565b925050606085013567ffffffffffffffff811115611d1257611d116117b6565b5b611d1e87828801611c79565b91505092959194509250565b60008060408385031215611d4157611d406117b1565b5b6000611d4f85828601611a07565b9250506020611d6085828601611a07565b9150509250929050565b7f4e487b7100000000000000000000000000000000000000000000000000000000600052602260045260246000fd5b60006002820490506001821680611db157607f821691505b60208210811415611dc557611dc4611d6a565b5b50919050565b7f4552433732313a20617070726f76656420717565727920666f72206e6f6e657860008201527f697374656e7420746f6b656e0000000000000000000000000000000000000000602082015250565b6000611e27602c83611881565b9150611e3282611dcb565b604082019050919050565b60006020820190508181036000830152611e5681611e1a565b9050919050565b7f4552433732313a20617070726f76616c20746f2063757272656e74206f776e6560008201527f7200000000000000000000000000000000000000000000000000000000000000602082015250565b6000611eb9602183611881565b9150611ec482611e5d565b604082019050919050565b60006020820190508181036000830152611ee881611eac565b9050919050565b7f4552433732313a20617070726f76652063616c6c6572206973206e6f74206f7760008201527f6e6572206e6f7220617070726f76656420666f7220616c6c0000000000000000602082015250565b6000611f4b603883611881565b9150611f5682611eef565b604082019050919050565b60006020820190508181036000830152611f7a81611f3e565b9050919050565b7f4552433732313a207472616e736665722063616c6c6572206973206e6f74206f60008201527f776e6572206e6f7220617070726f766564000000000000000000000000000000602082015250565b6000611fdd603183611881565b9150611fe882611f81565b604082019050919050565b6000602082019050818103600083015261200c81611fd0565b9050919050565b7f4552433732313a206f776e657220717565727920666f72206e6f6e657869737460008201527f656e7420746f6b656e0000000000000000000000000000000000000000000000602082015250565b600061206f602983611881565b915061207a82612013565b604082019050919050565b6000602082019050818103600083015261209e81612062565b9050919050565b7f4552433732313a2062616c616e636520717565727920666f7220746865207a6560008201527f726f206164647265737300000000000000000000000000000000000000000000602082015250565b6000612101602a83611881565b915061210c826120a5565b604082019050919050565b60006020820190508181036000830152612130816120f4565b9050919050565b7f4552433732314d657461646174613a2055524920717565727920666f72206e6f60008201527f6e6578697374656e7420746f6b656e0000000000000000000000000000000000602082015250565b6000612193602f83611881565b915061219e82612137565b604082019050919050565b600060208201905081810360008301526121c281612186565b9050919050565b600081905092915050565b60006121df82611876565b6121e981856121c9565b93506121f9818560208601611892565b80840191505092915050565b600061221182856121d4565b915061221d82846121d4565b91508190509392505050565b7f4552433732313a206d696e7420746f20746865207a65726f2061646472657373600082015250565b600061225f602083611881565b915061226a82612229565b602082019050919050565b6000602082019050818103600083015261228e81612252565b9050919050565b7f4552433732313a20746f6b656e20616c7265616479206d696e74656400000000600082015250565b60006122cb601c83611881565b91506122d682612295565b602082019050919050565b600060208201905081810360008301526122fa816122be565b9050919050565b7f4e487b7100000000000000000000000000000000000000000000000000000000600052601160045260246000fd5b600061233b82611931565b915061234683611931565b9250827fffffffffffffffffffffffffffffffffffffffffffffffffffffffffffffffff0382111561237b5761237a612301565b5b828201905092915050565b7f4552433732313a206f70657261746f7220717565727920666f72206e6f6e657860008201527f697374656e7420746f6b656e0000000000000000000000000000000000000000602082015250565b60006123e2602c83611881565b91506123ed82612386565b604082019050919050565b60006020820190508181036000830152612411816123d5565b9050919050565b7f4552433732313a207472616e736665722066726f6d20696e636f72726563742060008201527f6f776e6572000000000000000000000000000000000000000000000000000000602082015250565b6000612474602583611881565b915061247f82612418565b604082019050919050565b600060208201905081810360008301526124a381612467565b9050919050565b7f4552433732313a207472616e7366657220746f20746865207a65726f2061646460008201527f7265737300000000000000000000000000000000000000000000000000000000602082015250565b6000612506602483611881565b9150612511826124aa565b604082019050919050565b60006020820190508181036000830152612535816124f9565b9050919050565b600061254782611931565b915061255283611931565b92508282101561256557612564612301565b5b828203905092915050565b7f4552433732313a20617070726f766520746f2063616c6c657200000000000000600082015250565b60006125a6601983611881565b91506125b182612570565b602082019050919050565b600060208201905081810360008301526125d581612599565b9050919050565b7f4552433732313a207472616e7366657220746f206e6f6e20455243373231526560008201527f63656976657220696d706c656d656e7465720000000000000000000000000000602082015250565b6000612638603283611881565b9150612643826125dc565b604082019050919050565b600060208201905081810360008301526126678161262b565b9050919050565b600061267982611931565b91507fffffffffffffffffffffffffffffffffffffffffffffffffffffffffffffffff8214156126ac576126ab612301565b5b600182019050919050565b7f4e487b7100000000000000000000000000000000000000000000000000000000600052601260045260246000fd5b60006126f182611931565b91506126fc83611931565b92508261270c5761270b6126b7565b5b828204905092915050565b600061272282611931565b915061272d83611931565b92508261273d5761273c6126b7565b5b828206905092915050565b7f4e487b7100000000000000000000000000000000000000000000000000000000600052603260045260246000fd5b600081519050919050565b600082825260208201905092915050565b600061279e82612777565b6127a88185612782565b93506127b8818560208601611892565b6127c1816118c5565b840191505092915050565b60006080820190506127e160008301876119c6565b6127ee60208301866119c6565b6127fb6040830185611a5c565b818103606083015261280d8184612793565b905095945050505050565b600081519050612827816117e7565b92915050565b600060208284031215612843576128426117b1565b5b600061285184828501612818565b9150509291505056fea264697066735822122053f4239576f6fea4baa006c8ea818f00fd517913434409814b66028bfcf4132664736f6c634300080b0033",
  "immutableReferences": {},
  "source": "// SPDX-License-Identifier: MIT\r\npragma solidity ^0.8.11;\r\n\r\nimport \"@openzeppelin/contracts/token/ERC721/ERC721.sol\";\r\nimport \"@openzeppelin/contracts/utils/Counters.sol\";\r\n\r\ncontract DAONft is ERC721 {\r\n    using Counters for Counters.Counter;\r\n    Counters.Counter currentToken;\r\n    uint256 maxSupply = 5000;\r\n\r\n    constructor(string memory name_, string memory symbol_)\r\n        ERC721(name_, symbol_)\r\n    {}\r\n\r\n    function mint() external payable {\r\n        require(msg.value >= 1);\r\n        _safeMint(msg.sender, currentToken.current());\r\n        currentToken.increment();\r\n    }\r\n\r\n    /**\r\n     * @dev Only mint for the valid target\r\n     */\r\n    function mintValidTarget(uint256 number) external returns (uint256) {\r\n        // require(_validTarget[msg.sender], \"CROWNNFT:Not valid target\");\r\n        // for (uint256 i = 0; i < number; i++) {\r\n        uint256 tokenMint = currentToken.current();\r\n        _mint(msg.sender, tokenMint);\r\n        currentToken.increment();\r\n        // }\r\n        return tokenMint;\r\n    }\r\n}\r\n",
  "sourcePath": "C:\\Github\\Dao\\Develop\\Blockchain\\dao-project\\contracts\\DAO\\DAONft.sol",
  "compiler": {
    "name": "solc",
    "version": "0.8.11+commit.d7f03943.Emscripten.clang"
  },
  "schemaVersion": "3.4.7",
  "updatedAt": "2022-06-08T11:26:02.643Z",
  "devdoc": {
    "kind": "dev",
    "methods": {
      "approve(address,uint256)": {
        "details": "See {IERC721-approve}."
      },
      "balanceOf(address)": {
        "details": "See {IERC721-balanceOf}."
      },
      "getApproved(uint256)": {
        "details": "See {IERC721-getApproved}."
      },
      "isApprovedForAll(address,address)": {
        "details": "See {IERC721-isApprovedForAll}."
      },
      "mintValidTarget(uint256)": {
        "details": "Only mint for the valid target"
      },
      "name()": {
        "details": "See {IERC721Metadata-name}."
      },
      "ownerOf(uint256)": {
        "details": "See {IERC721-ownerOf}."
      },
      "safeTransferFrom(address,address,uint256)": {
        "details": "See {IERC721-safeTransferFrom}."
      },
      "safeTransferFrom(address,address,uint256,bytes)": {
        "details": "See {IERC721-safeTransferFrom}."
      },
      "setApprovalForAll(address,bool)": {
        "details": "See {IERC721-setApprovalForAll}."
      },
      "supportsInterface(bytes4)": {
        "details": "See {IERC165-supportsInterface}."
      },
      "symbol()": {
        "details": "See {IERC721Metadata-symbol}."
      },
      "tokenURI(uint256)": {
        "details": "See {IERC721Metadata-tokenURI}."
      },
      "transferFrom(address,address,uint256)": {
        "details": "See {IERC721-transferFrom}."
      }
    },
    "version": 1
  },
  "userdoc": {
    "kind": "user",
    "methods": {},
    "version": 1
  }
}