{
  "contractName": "DAOTreasury",
  "abi": [
    {
      "inputs": [
        {
          "internalType": "contract IERC20",
          "name": "wda_",
          "type": "address"
        }
      ],
      "stateMutability": "nonpayable",
      "type": "constructor"
    },
    {
      "anonymous": false,
      "inputs": [
        {
          "indexed": true,
          "internalType": "address",
          "name": "previousOwner",
          "type": "address"
        },
        {
          "indexed": true,
          "internalType": "address",
          "name": "newOwner",
          "type": "address"
        }
      ],
      "name": "OwnershipTransferred",
      "type": "event"
    },
    {
      "stateMutability": "payable",
      "type": "fallback",
      "payable": true
    },
    {
      "inputs": [],
      "name": "owner",
      "outputs": [
        {
          "internalType": "address",
          "name": "",
          "type": "address"
        }
      ],
      "stateMutability": "view",
      "type": "function",
      "constant": true
    },
    {
      "inputs": [],
      "name": "renounceOwnership",
      "outputs": [],
      "stateMutability": "nonpayable",
      "type": "function"
    },
    {
      "inputs": [
        {
          "internalType": "address",
          "name": "newOwner",
          "type": "address"
        }
      ],
      "name": "transferOwnership",
      "outputs": [],
      "stateMutability": "nonpayable",
      "type": "function"
    },
    {
      "inputs": [],
      "name": "deposit",
      "outputs": [],
      "stateMutability": "payable",
      "type": "function",
      "payable": true
    },
    {
      "inputs": [],
      "name": "getBalance",
      "outputs": [
        {
          "internalType": "uint256",
          "name": "",
          "type": "uint256"
        }
      ],
      "stateMutability": "view",
      "type": "function",
      "constant": true
    },
    {
      "inputs": [
        {
          "internalType": "address",
          "name": "to",
          "type": "address"
        },
        {
          "internalType": "uint256",
          "name": "amount",
          "type": "uint256"
        }
      ],
      "name": "sendWDA",
      "outputs": [],
      "stateMutability": "nonpayable",
      "type": "function"
    },
    {
      "inputs": [
        {
          "internalType": "address payable",
          "name": "to",
          "type": "address"
        },
        {
          "internalType": "uint256",
          "name": "amount",
          "type": "uint256"
        }
      ],
      "name": "transferBNB",
      "outputs": [],
      "stateMutability": "nonpayable",
      "type": "function"
    }
  ],
  "bytecode": "0x60806040523480156200001157600080fd5b5060405162001150380380620011508339818101604052810190620000379190620001e9565b620000576200004b6200009f60201b60201c565b620000a760201b60201c565b80600160006101000a81548173ffffffffffffffffffffffffffffffffffffffff021916908373ffffffffffffffffffffffffffffffffffffffff160217905550506200021b565b600033905090565b60008060009054906101000a900473ffffffffffffffffffffffffffffffffffffffff169050816000806101000a81548173ffffffffffffffffffffffffffffffffffffffff021916908373ffffffffffffffffffffffffffffffffffffffff1602179055508173ffffffffffffffffffffffffffffffffffffffff168173ffffffffffffffffffffffffffffffffffffffff167f8be0079c531659141344cd1fd0a4f28419497f9722a3daafe3b4186f6b6457e060405160405180910390a35050565b600080fd5b600073ffffffffffffffffffffffffffffffffffffffff82169050919050565b60006200019d8262000170565b9050919050565b6000620001b18262000190565b9050919050565b620001c381620001a4565b8114620001cf57600080fd5b50565b600081519050620001e381620001b8565b92915050565b6000602082840312156200020257620002016200016b565b5b60006200021284828501620001d2565b91505092915050565b610f25806200022b6000396000f3fe6080604052600436106100735760003560e01c80638da5cb5b1161004e5780638da5cb5b146100e9578063d0e30db014610114578063eb17fba31461011e578063f2fde38b1461014757610074565b80620250731461007e57806312065fe0146100a7578063715018a6146100d257610074565b5b61007c610170565b005b34801561008a57600080fd5b506100a560048036038101906100a09190610876565b61018b565b005b3480156100b357600080fd5b506100bc6103ec565b6040516100c991906108c5565b60405180910390f35b3480156100de57600080fd5b506100e76103f6565b005b3480156100f557600080fd5b506100fe61047e565b60405161010b91906108ef565b60405180910390f35b61011c610170565b005b34801561012a57600080fd5b5061014560048036038101906101409190610948565b6104a7565b005b34801561015357600080fd5b5061016e60048036038101906101699190610988565b610619565b005b346002600082825461018291906109e4565b92505081905550565b610193610711565b73ffffffffffffffffffffffffffffffffffffffff166101b161047e565b73ffffffffffffffffffffffffffffffffffffffff1614610207576040517f08c379a00000000000000000000000000000000000000000000000000000000081526004016101fe90610a97565b60405180910390fd5b6000600160009054906101000a900473ffffffffffffffffffffffffffffffffffffffff1673ffffffffffffffffffffffffffffffffffffffff166370a08231306040518263ffffffff1660e01b815260040161026491906108ef565b602060405180830381865afa158015610281573d6000803e3d6000fd5b505050506040513d601f19601f820116820180604052508101906102a59190610acc565b90506064600a826102b69190610af9565b6102c09190610b82565b821115610302576040517f08c379a00000000000000000000000000000000000000000000000000000000081526004016102f990610c25565b60405180910390fd5b6000600160009054906101000a900473ffffffffffffffffffffffffffffffffffffffff1673ffffffffffffffffffffffffffffffffffffffff1663a9059cbb85856040518363ffffffff1660e01b8152600401610361929190610c45565b6020604051808303816000875af1158015610380573d6000803e3d6000fd5b505050506040513d601f19601f820116820180604052508101906103a49190610ca6565b9050806103e6576040517f08c379a00000000000000000000000000000000000000000000000000000000081526004016103dd90610d1f565b60405180910390fd5b50505050565b6000600254905090565b6103fe610711565b73ffffffffffffffffffffffffffffffffffffffff1661041c61047e565b73ffffffffffffffffffffffffffffffffffffffff1614610472576040517f08c379a000000000000000000000000000000000000000000000000000000000815260040161046990610a97565b60405180910390fd5b61047c6000610719565b565b60008060009054906101000a900473ffffffffffffffffffffffffffffffffffffffff16905090565b6104af610711565b73ffffffffffffffffffffffffffffffffffffffff166104cd61047e565b73ffffffffffffffffffffffffffffffffffffffff1614610523576040517f08c379a000000000000000000000000000000000000000000000000000000000815260040161051a90610a97565b60405180910390fd5b600060025411610568576040517f08c379a000000000000000000000000000000000000000000000000000000000815260040161055f90610d8b565b60405180910390fd5b60008273ffffffffffffffffffffffffffffffffffffffff168260405161058e90610ddc565b60006040518083038185875af1925050503d80600081146105cb576040519150601f19603f3d011682016040523d82523d6000602084013e6105d0565b606091505b5050905080610614576040517f08c379a000000000000000000000000000000000000000000000000000000000815260040161060b90610e3d565b60405180910390fd5b505050565b610621610711565b73ffffffffffffffffffffffffffffffffffffffff1661063f61047e565b73ffffffffffffffffffffffffffffffffffffffff1614610695576040517f08c379a000000000000000000000000000000000000000000000000000000000815260040161068c90610a97565b60405180910390fd5b600073ffffffffffffffffffffffffffffffffffffffff168173ffffffffffffffffffffffffffffffffffffffff161415610705576040517f08c379a00000000000000000000000000000000000000000000000000000000081526004016106fc90610ecf565b60405180910390fd5b61070e81610719565b50565b600033905090565b60008060009054906101000a900473ffffffffffffffffffffffffffffffffffffffff169050816000806101000a81548173ffffffffffffffffffffffffffffffffffffffff021916908373ffffffffffffffffffffffffffffffffffffffff1602179055508173ffffffffffffffffffffffffffffffffffffffff168173ffffffffffffffffffffffffffffffffffffffff167f8be0079c531659141344cd1fd0a4f28419497f9722a3daafe3b4186f6b6457e060405160405180910390a35050565b600080fd5b600073ffffffffffffffffffffffffffffffffffffffff82169050919050565b600061080d826107e2565b9050919050565b61081d81610802565b811461082857600080fd5b50565b60008135905061083a81610814565b92915050565b6000819050919050565b61085381610840565b811461085e57600080fd5b50565b6000813590506108708161084a565b92915050565b6000806040838503121561088d5761088c6107dd565b5b600061089b8582860161082b565b92505060206108ac85828601610861565b9150509250929050565b6108bf81610840565b82525050565b60006020820190506108da60008301846108b6565b92915050565b6108e981610802565b82525050565b600060208201905061090460008301846108e0565b92915050565b6000610915826107e2565b9050919050565b6109258161090a565b811461093057600080fd5b50565b6000813590506109428161091c565b92915050565b6000806040838503121561095f5761095e6107dd565b5b600061096d85828601610933565b925050602061097e85828601610861565b9150509250929050565b60006020828403121561099e5761099d6107dd565b5b60006109ac8482850161082b565b91505092915050565b7f4e487b7100000000000000000000000000000000000000000000000000000000600052601160045260246000fd5b60006109ef82610840565b91506109fa83610840565b9250827fffffffffffffffffffffffffffffffffffffffffffffffffffffffffffffffff03821115610a2f57610a2e6109b5565b5b828201905092915050565b600082825260208201905092915050565b7f4f776e61626c653a2063616c6c6572206973206e6f7420746865206f776e6572600082015250565b6000610a81602083610a3a565b9150610a8c82610a4b565b602082019050919050565b60006020820190508181036000830152610ab081610a74565b9050919050565b600081519050610ac68161084a565b92915050565b600060208284031215610ae257610ae16107dd565b5b6000610af084828501610ab7565b91505092915050565b6000610b0482610840565b9150610b0f83610840565b9250817fffffffffffffffffffffffffffffffffffffffffffffffffffffffffffffffff0483118215151615610b4857610b476109b5565b5b828202905092915050565b7f4e487b7100000000000000000000000000000000000000000000000000000000600052601260045260246000fd5b6000610b8d82610840565b9150610b9883610840565b925082610ba857610ba7610b53565b5b828204905092915050565b7f44414f547265737572793a204f6e6c79207472616e73666572206c657373207460008201527f68616e2031302070657263656e74616765000000000000000000000000000000602082015250565b6000610c0f603183610a3a565b9150610c1a82610bb3565b604082019050919050565b60006020820190508181036000830152610c3e81610c02565b9050919050565b6000604082019050610c5a60008301856108e0565b610c6760208301846108b6565b9392505050565b60008115159050919050565b610c8381610c6e565b8114610c8e57600080fd5b50565b600081519050610ca081610c7a565b92915050565b600060208284031215610cbc57610cbb6107dd565b5b6000610cca84828501610c91565b91505092915050565b7f44414f547265737572793a5472616e73666572206661696c6564000000000000600082015250565b6000610d09601a83610a3a565b9150610d1482610cd3565b602082019050919050565b60006020820190508181036000830152610d3881610cfc565b9050919050565b7f44414f54726561737572793a496e737566666963656e7420424e420000000000600082015250565b6000610d75601b83610a3a565b9150610d8082610d3f565b602082019050919050565b60006020820190508181036000830152610da481610d68565b9050919050565b600081905092915050565b50565b6000610dc6600083610dab565b9150610dd182610db6565b600082019050919050565b6000610de782610db9565b9150819050919050565b7f5472616e73616374696f6e204661696c65640000000000000000000000000000600082015250565b6000610e27601283610a3a565b9150610e3282610df1565b602082019050919050565b60006020820190508181036000830152610e5681610e1a565b9050919050565b7f4f776e61626c653a206e6577206f776e657220697320746865207a65726f206160008201527f6464726573730000000000000000000000000000000000000000000000000000602082015250565b6000610eb9602683610a3a565b9150610ec482610e5d565b604082019050919050565b60006020820190508181036000830152610ee881610eac565b905091905056fea26469706673582212208463249c5d2ed424e50bbc503b2e18d308e92c3aba605e33a9515d87ef47c10f64736f6c634300080b0033",
  "immutableReferences": {},
  "source": "// SPDX-License-Identifier:MIT\r\n\r\npragma solidity 0.8.11;\r\n\r\nimport \"@openzeppelin/contracts/token/ERC20/IERC20.sol\";\r\nimport \"@openzeppelin/contracts/access/Ownable.sol\";\r\n\r\n// solhint-disable-next-line\r\ncontract DAOTreasury is Ownable{\r\n \r\n    IERC20 private _wda;\r\n    uint256 private balances;\r\n\r\n    constructor(IERC20 wda_){\r\n        _wda = wda_;\r\n    }\r\n\r\n    fallback() payable external{\r\n         deposit();\r\n    }\r\n\r\n    function deposit() payable public{\r\n        balances+=msg.value;\r\n    }\r\n\r\n    function getBalance() external view returns(uint256){\r\n        return balances;\r\n    }\r\n\r\n    function sendWDA(address to, uint256 amount) onlyOwner external{\r\n        uint256 balanceWDA = _wda.balanceOf(address(this));\r\n        require(amount <= balanceWDA * 10 / 100, \"DAOTresury: Only transfer less than 10 percentage\");\r\n        bool success = _wda.transfer(to, amount);\r\n        require(success,\"DAOTresury:Transfer failed\");\r\n    }\r\n\r\n    function transferBNB(address payable to, uint256 amount) onlyOwner external{\r\n        require(balances > 0, \"DAOTreasury:Insufficent BNB\");\r\n        (bool success,)= to.call{value:amount}(\"\");\r\n        require(success,\"Transaction Failed\");\r\n    }\r\n\r\n   \r\n}",
  "sourcePath": "C:\\Github\\Dao\\Develop\\Blockchain\\dao-project\\contracts\\Wallet\\DAOTreasury.sol",
  "compiler": {
    "name": "solc",
    "version": "0.8.11+commit.d7f03943.Emscripten.clang"
  },
  "schemaVersion": "3.4.7",
  "updatedAt": "2022-06-23T10:15:17.314Z",
  "networkType": "ethereum",
  "devdoc": {
    "kind": "dev",
    "methods": {
      "owner()": {
        "details": "Returns the address of the current owner."
      },
      "renounceOwnership()": {
        "details": "Leaves the contract without owner. It will not be possible to call `onlyOwner` functions anymore. Can only be called by the current owner. NOTE: Renouncing ownership will leave the contract without an owner, thereby removing any functionality that is only available to the owner."
      },
      "transferOwnership(address)": {
        "details": "Transfers ownership of the contract to a new account (`newOwner`). Can only be called by the current owner."
      }
    },
    "version": 1
  },
  "userdoc": {
    "kind": "user",
    "methods": {},
    "version": 1
  }
}