{
  "contractName": "DateTime",
  "abi": [
    {
      "inputs": [
        {
          "internalType": "uint256",
          "name": "timestamp",
          "type": "uint256"
        }
      ],
      "name": "getHour",
      "outputs": [
        {
          "internalType": "uint256",
          "name": "",
          "type": "uint256"
        }
      ],
      "stateMutability": "pure",
      "type": "function"
    },
    {
      "inputs": [
        {
          "internalType": "uint256",
          "name": "timestamp",
          "type": "uint256"
        }
      ],
      "name": "getMinute",
      "outputs": [
        {
          "internalType": "uint256",
          "name": "",
          "type": "uint256"
        }
      ],
      "stateMutability": "pure",
      "type": "function"
    },
    {
      "inputs": [
        {
          "internalType": "uint256",
          "name": "timestamp",
          "type": "uint256"
        }
      ],
      "name": "getSecond",
      "outputs": [
        {
          "internalType": "uint256",
          "name": "",
          "type": "uint256"
        }
      ],
      "stateMutability": "pure",
      "type": "function"
    }
  ],
  "bytecode": "0x61029d610053600b82828239805160001a607314610046577f4e487b7100000000000000000000000000000000000000000000000000000000600052600060045260246000fd5b30600052607381538281f3fe730000000000000000000000000000000000000000301460806040526004361061004b5760003560e01c80633e239e1a146100505780638aa001fc14610080578063fa93f883146100b0575b600080fd5b61006a6004803603810190610065919061017f565b6100e0565b60405161007791906101bb565b60405180910390f35b61009a6004803603810190610095919061017f565b61010d565b6040516100a791906101bb565b60405180910390f35b6100ca60048036038101906100c5919061017f565b610123565b6040516100d791906101bb565b60405180910390f35b60006018603c80846100f29190610205565b6100fc9190610205565b6101069190610236565b9050919050565b6000603c8261011c9190610236565b9050919050565b6000603c80836101339190610205565b61013d9190610236565b9050919050565b600080fd5b6000819050919050565b61015c81610149565b811461016757600080fd5b50565b60008135905061017981610153565b92915050565b60006020828403121561019557610194610144565b5b60006101a38482850161016a565b91505092915050565b6101b581610149565b82525050565b60006020820190506101d060008301846101ac565b92915050565b7f4e487b7100000000000000000000000000000000000000000000000000000000600052601260045260246000fd5b600061021082610149565b915061021b83610149565b92508261022b5761022a6101d6565b5b828204905092915050565b600061024182610149565b915061024c83610149565b92508261025c5761025b6101d6565b5b82820690509291505056fea2646970667358221220c0590893c88e4b91f1b69a3393916deed9352c5d176e92fee8acd0374abb867064736f6c634300080b0033",
  "immutableReferences": {},
  "source": "// SPDX-License-Identifier: MIT\r\npragma solidity ^0.8.0;\r\n\r\nlibrary DateTime {\r\n        function getHour(uint256 timestamp) public pure returns (uint256) {\r\n                return uint256((timestamp / 60 / 60) % 24);\r\n        }\r\n\r\n        function getMinute(uint256 timestamp) public pure returns (uint256) {\r\n                return uint256((timestamp / 60) % 60);\r\n        }\r\n\r\n        function getSecond(uint timestamp) public pure returns (uint256) {\r\n                return uint256(timestamp % 60);\r\n        }\r\n}",
  "sourcePath": "C:\\Github\\Dao\\Develop\\Blockchain\\dao-project\\contracts\\Common\\DateTime.sol",
  "compiler": {
    "name": "solc",
    "version": "0.8.11+commit.d7f03943.Emscripten.clang"
  },
  "schemaVersion": "3.4.7",
  "updatedAt": "2022-06-23T10:13:52.597Z",
  "devdoc": {
    "kind": "dev",
    "methods": {},
    "version": 1
  },
  "userdoc": {
    "kind": "user",
    "methods": {},
    "version": 1
  }
}