{
  "contractName": "LuckyTicketNFT",
  "abi": [
    {
      "inputs": [
        {
          "internalType": "contract IERC20",
          "name": "_token",
          "type": "address"
        }
      ],
      "stateMutability": "nonpayable",
      "type": "constructor"
    },
    {
      "anonymous": false,
      "inputs": [
        {
          "indexed": true,
          "internalType": "address",
          "name": "buyer",
          "type": "address"
        },
        {
          "indexed": false,
          "internalType": "uint256",
          "name": "amount",
          "type": "uint256"
        }
      ],
      "name": "BuyTicket",
      "type": "event"
    },
    {
      "anonymous": false,
      "inputs": [
        {
          "indexed": false,
          "internalType": "uint256",
          "name": "timestamp",
          "type": "uint256"
        }
      ],
      "name": "RandomTicket",
      "type": "event"
    },
    {
      "anonymous": false,
      "inputs": [
        {
          "indexed": true,
          "internalType": "address",
          "name": "owner",
          "type": "address"
        },
        {
          "indexed": true,
          "internalType": "uint256",
          "name": "crowId",
          "type": "uint256"
        }
      ],
      "name": "TicketNFTWin",
      "type": "event"
    },
    {
      "inputs": [],
      "name": "contractState",
      "outputs": [
        {
          "internalType": "enum LuckyTicketNFT.ContractState",
          "name": "",
          "type": "uint8"
        }
      ],
      "stateMutability": "view",
      "type": "function"
    },
    {
      "inputs": [],
      "name": "currentSession",
      "outputs": [
        {
          "internalType": "uint256",
          "name": "",
          "type": "uint256"
        }
      ],
      "stateMutability": "view",
      "type": "function"
    },
    {
      "inputs": [],
      "name": "maxTicketProvidePerDay",
      "outputs": [
        {
          "internalType": "uint24",
          "name": "",
          "type": "uint24"
        }
      ],
      "stateMutability": "view",
      "type": "function"
    },
    {
      "inputs": [
        {
          "internalType": "address",
          "name": "",
          "type": "address"
        }
      ],
      "name": "ownerScepterNFT",
      "outputs": [
        {
          "internalType": "uint256",
          "name": "",
          "type": "uint256"
        }
      ],
      "stateMutability": "view",
      "type": "function"
    },
    {
      "inputs": [
        {
          "internalType": "bytes32",
          "name": "requestId",
          "type": "bytes32"
        },
        {
          "internalType": "uint256",
          "name": "randomness",
          "type": "uint256"
        }
      ],
      "name": "rawFulfillRandomness",
      "outputs": [],
      "stateMutability": "nonpayable",
      "type": "function"
    },
    {
      "inputs": [
        {
          "internalType": "bytes4",
          "name": "interfaceId",
          "type": "bytes4"
        }
      ],
      "name": "supportsInterface",
      "outputs": [
        {
          "internalType": "bool",
          "name": "",
          "type": "bool"
        }
      ],
      "stateMutability": "view",
      "type": "function"
    },
    {
      "inputs": [],
      "name": "ticketSoldPerDay",
      "outputs": [
        {
          "internalType": "uint256",
          "name": "",
          "type": "uint256"
        }
      ],
      "stateMutability": "view",
      "type": "function"
    },
    {
      "inputs": [],
      "name": "todayTokenId",
      "outputs": [
        {
          "internalType": "uint256",
          "name": "",
          "type": "uint256"
        }
      ],
      "stateMutability": "view",
      "type": "function"
    },
    {
      "inputs": [
        {
          "internalType": "uint24",
          "name": "newAmount",
          "type": "uint24"
        }
      ],
      "name": "setMaxTicketProvidePerDay",
      "outputs": [],
      "stateMutability": "nonpayable",
      "type": "function"
    },
    {
      "inputs": [
        {
          "internalType": "address",
          "name": "_newAddress",
          "type": "address"
        }
      ],
      "name": "setCrownAddress",
      "outputs": [],
      "stateMutability": "nonpayable",
      "type": "function"
    },
    {
      "inputs": [
        {
          "internalType": "address",
          "name": "_newAddress",
          "type": "address"
        }
      ],
      "name": "setScepterAddress",
      "outputs": [],
      "stateMutability": "nonpayable",
      "type": "function"
    },
    {
      "inputs": [
        {
          "internalType": "address",
          "name": "",
          "type": "address"
        },
        {
          "internalType": "address",
          "name": "",
          "type": "address"
        },
        {
          "internalType": "uint256",
          "name": "",
          "type": "uint256"
        },
        {
          "internalType": "bytes",
          "name": "",
          "type": "bytes"
        }
      ],
      "name": "onERC721Received",
      "outputs": [
        {
          "internalType": "bytes4",
          "name": "",
          "type": "bytes4"
        }
      ],
      "stateMutability": "nonpayable",
      "type": "function"
    },
    {
      "inputs": [
        {
          "internalType": "address",
          "name": "",
          "type": "address"
        },
        {
          "internalType": "address",
          "name": "",
          "type": "address"
        },
        {
          "internalType": "uint256",
          "name": "",
          "type": "uint256"
        },
        {
          "internalType": "uint256",
          "name": "",
          "type": "uint256"
        },
        {
          "internalType": "bytes",
          "name": "",
          "type": "bytes"
        }
      ],
      "name": "onERC1155Received",
      "outputs": [
        {
          "internalType": "bytes4",
          "name": "",
          "type": "bytes4"
        }
      ],
      "stateMutability": "pure",
      "type": "function"
    },
    {
      "inputs": [
        {
          "internalType": "address",
          "name": "",
          "type": "address"
        },
        {
          "internalType": "address",
          "name": "",
          "type": "address"
        },
        {
          "internalType": "uint256[]",
          "name": "",
          "type": "uint256[]"
        },
        {
          "internalType": "uint256[]",
          "name": "",
          "type": "uint256[]"
        },
        {
          "internalType": "bytes",
          "name": "",
          "type": "bytes"
        }
      ],
      "name": "onERC1155BatchReceived",
      "outputs": [
        {
          "internalType": "bytes4",
          "name": "",
          "type": "bytes4"
        }
      ],
      "stateMutability": "pure",
      "type": "function"
    },
    {
      "inputs": [
        {
          "internalType": "address",
          "name": "target",
          "type": "address"
        },
        {
          "internalType": "bool",
          "name": "permission",
          "type": "bool"
        }
      ],
      "name": "setValidTarget",
      "outputs": [],
      "stateMutability": "nonpayable",
      "type": "function"
    },
    {
      "inputs": [],
      "name": "getOwnerCrownNFT",
      "outputs": [
        {
          "internalType": "uint256",
          "name": "",
          "type": "uint256"
        }
      ],
      "stateMutability": "view",
      "type": "function"
    },
    {
      "inputs": [],
      "name": "getListOwnerCrownNFT",
      "outputs": [
        {
          "internalType": "uint256[]",
          "name": "",
          "type": "uint256[]"
        }
      ],
      "stateMutability": "view",
      "type": "function"
    },
    {
      "inputs": [],
      "name": "getOwnerTicket",
      "outputs": [
        {
          "internalType": "uint256",
          "name": "",
          "type": "uint256"
        }
      ],
      "stateMutability": "view",
      "type": "function"
    },
    {
      "inputs": [],
      "name": "setNewCrownBonus",
      "outputs": [],
      "stateMutability": "nonpayable",
      "type": "function"
    },
    {
      "inputs": [],
      "name": "setNewSession",
      "outputs": [],
      "stateMutability": "nonpayable",
      "type": "function"
    },
    {
      "inputs": [
        {
          "internalType": "uint8",
          "name": "index",
          "type": "uint8"
        }
      ],
      "name": "claimCrown",
      "outputs": [],
      "stateMutability": "nonpayable",
      "type": "function"
    },
    {
      "inputs": [],
      "name": "claimScepter",
      "outputs": [],
      "stateMutability": "nonpayable",
      "type": "function"
    },
    {
      "inputs": [],
      "name": "getRandomNumber",
      "outputs": [
        {
          "internalType": "bytes32",
          "name": "requestId",
          "type": "bytes32"
        }
      ],
      "stateMutability": "nonpayable",
      "type": "function"
    },
    {
      "inputs": [],
      "name": "randomWinner",
      "outputs": [
        {
          "internalType": "uint256",
          "name": "",
          "type": "uint256"
        }
      ],
      "stateMutability": "view",
      "type": "function"
    },
    {
      "inputs": [],
      "name": "burnCrown",
      "outputs": [],
      "stateMutability": "nonpayable",
      "type": "function"
    },
    {
      "inputs": [
        {
          "internalType": "address",
          "name": "winner",
          "type": "address"
        }
      ],
      "name": "payWinner",
      "outputs": [],
      "stateMutability": "nonpayable",
      "type": "function"
    },
    {
      "inputs": [
        {
          "internalType": "uint256",
          "name": "_quantity",
          "type": "uint256"
        }
      ],
      "name": "buyTicket",
      "outputs": [],
      "stateMutability": "nonpayable",
      "type": "function"
    },
    {
      "inputs": [
        {
          "internalType": "address",
          "name": "newOwner",
          "type": "address"
        }
      ],
      "name": "transferOwnership",
      "outputs": [],
      "stateMutability": "nonpayable",
      "type": "function"
    }
  ],
  "bytecode": "0x60c06040527f6c3699283bda56ad74f6b855546325b68d482e983852a7a82979cc4807b641f460001b60025567016345785d8a000060035561c350600860146101000a81548162ffffff021916908362ffffff16021790555060006009556802b5e3af16b1880000600a556000600c556000600d60006101000a81548160ff02191690836003811115620000985762000097620001f5565b5b0217905550348015620000aa57600080fd5b50604051620036e0380380620036e08339818101604052810190620000d09190620002a2565b73dd3782915140c8f3b190b5d67eac6dc5760c46e973a36085f69e2889c224210f603d836748e7dc008860016000819055508173ffffffffffffffffffffffffffffffffffffffff1660a08173ffffffffffffffffffffffffffffffffffffffff16815250508073ffffffffffffffffffffffffffffffffffffffff1660808173ffffffffffffffffffffffffffffffffffffffff1681525050505080600660006101000a81548173ffffffffffffffffffffffffffffffffffffffff021916908373ffffffffffffffffffffffffffffffffffffffff16021790555033600560006101000a81548173ffffffffffffffffffffffffffffffffffffffff021916908373ffffffffffffffffffffffffffffffffffffffff16021790555050620002d4565b7f4e487b7100000000000000000000000000000000000000000000000000000000600052602160045260246000fd5b600080fd5b600073ffffffffffffffffffffffffffffffffffffffff82169050919050565b6000620002568262000229565b9050919050565b60006200026a8262000249565b9050919050565b6200027c816200025d565b81146200028857600080fd5b50565b6000815190506200029c8162000271565b92915050565b600060208284031215620002bb57620002ba62000224565b5b6000620002cb848285016200028b565b91505092915050565b60805160a0516133d862000308600039600081816111550152611d2e0152600081816118a80152611cf201526133d86000f3fe608060405234801561001057600080fd5b50600436106101c45760003560e01c806394985ddd116100f9578063c85a0f6c11610097578063f06fa63f11610071578063f06fa63f14610481578063f23a6e611461049f578063f2fde38b146104cf578063f994709c146104eb576101c4565b8063c85a0f6c1461043b578063d416676314610445578063dbdff2c114610463576101c4565b8063a75f1449116100d3578063a75f1449146103d9578063b9a57ab3146103e3578063bc197c81146103ed578063c4a30fbb1461041d576101c4565b806394985ddd146103835780639caaa27f1461039f578063a1019ca0146103bb576101c4565b80635a709d78116101665780637805b9d8116101405780637805b9d8146102fb5780637ab533a7146103195780637ae22f331461034957806385209ee014610365576101c4565b80635a709d78146102a557806367ad91a2146102c357806367dd74ca146102df576101c4565b80632883a1da116101a25780632883a1da146102455780633221c990146102615780634b18b46b1461026b5780634f7e818114610289576101c4565b806301ffc9a7146101c9578063150b7a02146101f957806319b09f9b14610229575b600080fd5b6101e360048036038101906101de9190611f5f565b610509565b6040516101f09190611fa7565b60405180910390f35b610213600480360381019061020e919061219c565b610583565b604051610220919061222e565b60405180910390f35b610243600480360381019061023e9190612249565b610597565b005b61025f600480360381019061025a9190612249565b6106d4565b005b6102696107a8565b005b6102736108f0565b6040516102809190612285565b60405180910390f35b6102a3600480360381019061029e91906122db565b6108f6565b005b6102ad610918565b6040516102ba91906123c6565b60405180910390f35b6102dd60048036038101906102d89190612249565b6109ad565b005b6102f960048036038101906102f491906123e8565b610a81565b005b610303610f5c565b6040516103109190612285565b60405180910390f35b610333600480360381019061032e9190612249565b61103d565b6040516103409190612285565b60405180910390f35b610363600480360381019061035e9190612441565b611055565b005b61036d611140565b60405161037a91906124f8565b60405180910390f35b61039d60048036038101906103989190612549565b611153565b005b6103b960048036038101906103b491906125c2565b6111ef565b005b6103c36113e4565b6040516103d09190612285565b60405180910390f35b6103e16113ea565b005b6103eb611652565b005b610407600480360381019061040291906126a5565b6116e8565b604051610414919061222e565b60405180910390f35b610425611719565b6040516104329190612790565b60405180910390f35b61044361172e565b005b61044d61180f565b60405161045a9190612285565b60405180910390f35b61046b611815565b60405161047891906127ba565b60405180910390f35b6104896119bf565b6040516104969190612285565b60405180910390f35b6104b960048036038101906104b491906127d5565b611a19565b6040516104c6919061222e565b60405180910390f35b6104e960048036038101906104e49190612249565b611a48565b005b6104f3611b54565b6040516105009190612285565b60405180910390f35b60007f4e2312e0000000000000000000000000000000000000000000000000000000007bffffffffffffffffffffffffffffffffffffffffffffffffffffffff1916827bffffffffffffffffffffffffffffffffffffffffffffffffffffffff1916148061057c575061057b82611b70565b5b9050919050565b600063150b7a0260e01b9050949350505050565b601160003373ffffffffffffffffffffffffffffffffffffffff1673ffffffffffffffffffffffffffffffffffffffff16815260200190815260200160002060009054906101000a900460ff16610623576040517f08c379a000000000000000000000000000000000000000000000000000000000815260040161061a906128cc565b60405180910390fd5b600f60008273ffffffffffffffffffffffffffffffffffffffff1673ffffffffffffffffffffffffffffffffffffffff168152602001908152602001600020600b549080600181540180825580915050600190039060005260206000200160009091909190915055600b548173ffffffffffffffffffffffffffffffffffffffff167f6eb26f9398b333215fa9b276f18b39b0b35084394ddee446f586a91970665ec860405160405180910390a350565b600560009054906101000a900473ffffffffffffffffffffffffffffffffffffffff1673ffffffffffffffffffffffffffffffffffffffff163373ffffffffffffffffffffffffffffffffffffffff1614610764576040517f08c379a000000000000000000000000000000000000000000000000000000000815260040161075b90612938565b60405180910390fd5b80600860006101000a81548173ffffffffffffffffffffffffffffffffffffffff021916908373ffffffffffffffffffffffffffffffffffffffff16021790555050565b601160003373ffffffffffffffffffffffffffffffffffffffff1673ffffffffffffffffffffffffffffffffffffffff16815260200190815260200160002060009054906101000a900460ff16610834576040517f08c379a000000000000000000000000000000000000000000000000000000000815260040161082b906128cc565b60405180910390fd5b600760009054906101000a900473ffffffffffffffffffffffffffffffffffffffff1673ffffffffffffffffffffffffffffffffffffffff166342966c68600b546040518263ffffffff1660e01b81526004016108919190612285565b600060405180830381600087803b1580156108ab57600080fd5b505af11580156108bf573d6000803e3d6000fd5b505050506002600d60006101000a81548160ff021916908360038111156108e9576108e8612481565b5b0217905550565b60095481565b80600860146101000a81548162ffffff021916908362ffffff16021790555050565b6060600f60003373ffffffffffffffffffffffffffffffffffffffff1673ffffffffffffffffffffffffffffffffffffffff1681526020019081526020016000208054806020026020016040519081016040528092919081815260200182805480156109a357602002820191906000526020600020905b81548152602001906001019080831161098f575b5050505050905090565b600560009054906101000a900473ffffffffffffffffffffffffffffffffffffffff1673ffffffffffffffffffffffffffffffffffffffff163373ffffffffffffffffffffffffffffffffffffffff1614610a3d576040517f08c379a0000000000000000000000000000000000000000000000000000000008152600401610a3490612938565b60405180910390fd5b80600760006101000a81548173ffffffffffffffffffffffffffffffffffffffff021916908373ffffffffffffffffffffffffffffffffffffffff16021790555050565b60026000541415610ac7576040517f08c379a0000000000000000000000000000000000000000000000000000000008152600401610abe906129a4565b60405180910390fd5b600260008190555060006003811115610ae357610ae2612481565b5b600d60009054906101000a900460ff166003811115610b0557610b04612481565b5b14610b45576040517f08c379a0000000000000000000000000000000000000000000000000000000008152600401610b3c90612a10565b60405180910390fd5b60008111610b88576040517f08c379a0000000000000000000000000000000000000000000000000000000008152600401610b7f90612a7c565b60405180910390fd5b60fa81600e60003373ffffffffffffffffffffffffffffffffffffffff1673ffffffffffffffffffffffffffffffffffffffff1681526020019081526020016000206000600c54815260200190815260200160002054610be89190612acb565b1115610c29576040517f08c379a0000000000000000000000000000000000000000000000000000000008152600401610c2090612b6d565b60405180910390fd5b600860149054906101000a900462ffffff1662ffffff1660095482610c4e9190612acb565b1115610c8f576040517f08c379a0000000000000000000000000000000000000000000000000000000008152600401610c8690612bd9565b60405180910390fd5b6000600a5482610c9f9190612bf9565b90506000600660009054906101000a900473ffffffffffffffffffffffffffffffffffffffff1673ffffffffffffffffffffffffffffffffffffffff1663dd62ed3e33306040518363ffffffff1660e01b8152600401610d00929190612c62565b602060405180830381865afa158015610d1d573d6000803e3d6000fd5b505050506040513d601f19601f82011682018060405250810190610d419190612ca0565b905081811015610d86576040517f08c379a0000000000000000000000000000000000000000000000000000000008152600401610d7d90612d19565b60405180910390fd5b600660009054906101000a900473ffffffffffffffffffffffffffffffffffffffff1673ffffffffffffffffffffffffffffffffffffffff166323b872dd3330856040518463ffffffff1660e01b8152600401610de593929190612d39565b6020604051808303816000875af1158015610e04573d6000803e3d6000fd5b505050506040513d601f19601f82011682018060405250810190610e289190612d85565b508260096000828254610e3b9190612acb565b9250508190555082601060003373ffffffffffffffffffffffffffffffffffffffff1673ffffffffffffffffffffffffffffffffffffffff1681526020019081526020016000206000828254610e919190612acb565b9250508190555082600e60003373ffffffffffffffffffffffffffffffffffffffff1673ffffffffffffffffffffffffffffffffffffffff1681526020019081526020016000206000600c5481526020019081526020016000206000828254610efa9190612acb565b925050819055503373ffffffffffffffffffffffffffffffffffffffff167f2a3164428cba5dad15f5ffe47e10cbefdcbbe9e269fd482753982ee8b2648c3e84604051610f479190612285565b60405180910390a25050600160008190555050565b6000806000905060005b600f60003373ffffffffffffffffffffffffffffffffffffffff1673ffffffffffffffffffffffffffffffffffffffff16815260200190815260200160002080549050811015611035576000600f60003373ffffffffffffffffffffffffffffffffffffffff1673ffffffffffffffffffffffffffffffffffffffff168152602001908152602001600020828154811061100357611002612db2565b5b90600052602060002001541461102257818061101e90612de1565b9250505b808061102d90612de1565b915050610f66565b508091505090565b60106020528060005260406000206000915090505481565b600560009054906101000a900473ffffffffffffffffffffffffffffffffffffffff1673ffffffffffffffffffffffffffffffffffffffff163373ffffffffffffffffffffffffffffffffffffffff16146110e5576040517f08c379a00000000000000000000000000000000000000000000000000000000081526004016110dc90612938565b60405180910390fd5b80601160008473ffffffffffffffffffffffffffffffffffffffff1673ffffffffffffffffffffffffffffffffffffffff16815260200190815260200160002060006101000a81548160ff0219169083151502179055505050565b600d60009054906101000a900460ff1681565b7f000000000000000000000000000000000000000000000000000000000000000073ffffffffffffffffffffffffffffffffffffffff163373ffffffffffffffffffffffffffffffffffffffff16146111e1576040517f08c379a00000000000000000000000000000000000000000000000000000000081526004016111d890612e76565b60405180910390fd5b6111eb8282611bda565b5050565b6000600f60003373ffffffffffffffffffffffffffffffffffffffff1673ffffffffffffffffffffffffffffffffffffffff1681526020019081526020016000208260ff168154811061124557611244612db2565b5b906000526020600020015411611290576040517f08c379a000000000000000000000000000000000000000000000000000000000815260040161128790612ee2565b60405180910390fd5b600760009054906101000a900473ffffffffffffffffffffffffffffffffffffffff1673ffffffffffffffffffffffffffffffffffffffff166323b872dd3033600f60003373ffffffffffffffffffffffffffffffffffffffff1673ffffffffffffffffffffffffffffffffffffffff1681526020019081526020016000208560ff168154811061132457611323612db2565b5b90600052602060002001546040518463ffffffff1660e01b815260040161134d93929190612d39565b600060405180830381600087803b15801561136757600080fd5b505af115801561137b573d6000803e3d6000fd5b50505050600f60003373ffffffffffffffffffffffffffffffffffffffff1673ffffffffffffffffffffffffffffffffffffffff1681526020019081526020016000208160ff16815481106113d3576113d2612db2565b5b906000526020600020016000905550565b600b5481565b6000601060003373ffffffffffffffffffffffffffffffffffffffff1673ffffffffffffffffffffffffffffffffffffffff168152602001908152602001600020541161146c576040517f08c379a000000000000000000000000000000000000000000000000000000000815260040161146390612f4e565b60405180910390fd5b600860009054906101000a900473ffffffffffffffffffffffffffffffffffffffff1673ffffffffffffffffffffffffffffffffffffffff166311005a90601060003373ffffffffffffffffffffffffffffffffffffffff1673ffffffffffffffffffffffffffffffffffffffff168152602001908152602001600020546040518263ffffffff1660e01b81526004016115069190612285565b600060405180830381600087803b15801561152057600080fd5b505af1158015611534573d6000803e3d6000fd5b50505050600860009054906101000a900473ffffffffffffffffffffffffffffffffffffffff1673ffffffffffffffffffffffffffffffffffffffff1663f242432a30336000601060003373ffffffffffffffffffffffffffffffffffffffff1673ffffffffffffffffffffffffffffffffffffffff168152602001908152602001600020546040518563ffffffff1660e01b81526004016115d99493929190612fea565b600060405180830381600087803b1580156115f357600080fd5b505af1158015611607573d6000803e3d6000fd5b505050506000601060003373ffffffffffffffffffffffffffffffffffffffff1673ffffffffffffffffffffffffffffffffffffffff16815260200190815260200160002081905550565b601160003373ffffffffffffffffffffffffffffffffffffffff1673ffffffffffffffffffffffffffffffffffffffff16815260200190815260200160002060009054906101000a900460ff166116de576040517f08c379a00000000000000000000000000000000000000000000000000000000081526004016116d5906128cc565b60405180910390fd5b6116e6611c47565b565b60007fbc197c819b3e337a6f9652dd10becd7eef83032af3b9d958d3d42f6694146621905098975050505050505050565b600860149054906101000a900462ffffff1681565b601160003373ffffffffffffffffffffffffffffffffffffffff1673ffffffffffffffffffffffffffffffffffffffff16815260200190815260200160002060009054906101000a900460ff166117ba576040517f08c379a00000000000000000000000000000000000000000000000000000000081526004016117b1906128cc565b60405180910390fd5b600c60008154809291906117cd90612de1565b919050555060006009819055506000600d60006101000a81548160ff02191690836003811115611800576117ff612481565b5b021790555061180d611c47565b565b600c5481565b6000601160003373ffffffffffffffffffffffffffffffffffffffff1673ffffffffffffffffffffffffffffffffffffffff16815260200190815260200160002060009054906101000a900460ff166118a3576040517f08c379a000000000000000000000000000000000000000000000000000000000815260040161189a906128cc565b60405180910390fd5b6003547f000000000000000000000000000000000000000000000000000000000000000073ffffffffffffffffffffffffffffffffffffffff166370a08231306040518263ffffffff1660e01b81526004016118ff9190613042565b602060405180830381865afa15801561191c573d6000803e3d6000fd5b505050506040513d601f19601f820116820180604052508101906119409190612ca0565b1015611981576040517f08c379a0000000000000000000000000000000000000000000000000000000008152600401611978906130a9565b60405180910390fd5b6001600d60006101000a81548160ff021916908360038111156119a7576119a6612481565b5b02179055506119ba600254600354611cee565b905090565b6000600e60003373ffffffffffffffffffffffffffffffffffffffff1673ffffffffffffffffffffffffffffffffffffffff1681526020019081526020016000206000600c54815260200190815260200160002054905090565b60007ff23a6e612e1ff4830e658fe43f4e3cb4a5f8170bd5d9e69fb5d7a7fa9e4fdf9790509695505050505050565b600560009054906101000a900473ffffffffffffffffffffffffffffffffffffffff1673ffffffffffffffffffffffffffffffffffffffff163373ffffffffffffffffffffffffffffffffffffffff1614611ad8576040517f08c379a0000000000000000000000000000000000000000000000000000000008152600401611acf90612938565b60405180910390fd5b600073ffffffffffffffffffffffffffffffffffffffff168173ffffffffffffffffffffffffffffffffffffffff161415611b48576040517f08c379a0000000000000000000000000000000000000000000000000000000008152600401611b3f9061313b565b60405180910390fd5b611b5181611e40565b50565b600080600954600454611b67919061318a565b90508091505090565b60007f01ffc9a7000000000000000000000000000000000000000000000000000000007bffffffffffffffffffffffffffffffffffffffffffffffffffffffff1916827bffffffffffffffffffffffffffffffffffffffffffffffffffffffff1916149050919050565b806004819055506003600d60006101000a81548160ff02191690836003811115611c0757611c06612481565b5b02179055507f6767d5145d4bd1b56bed32390a7d783a015e0d04b07480b08ff53dcd97be5a8242604051611c3b9190612285565b60405180910390a15050565b600760009054906101000a900473ffffffffffffffffffffffffffffffffffffffff1673ffffffffffffffffffffffffffffffffffffffff166311005a9060016040518263ffffffff1660e01b8152600401611ca391906131f6565b6020604051808303816000875af1158015611cc2573d6000803e3d6000fd5b505050506040513d601f19601f82011682018060405250810190611ce69190612ca0565b600b81905550565b60007f000000000000000000000000000000000000000000000000000000000000000073ffffffffffffffffffffffffffffffffffffffff16634000aea07f000000000000000000000000000000000000000000000000000000000000000084866000604051602001611d62929190613211565b6040516020818303038152906040526040518463ffffffff1660e01b8152600401611d8f939291906132b1565b6020604051808303816000875af1158015611dae573d6000803e3d6000fd5b505050506040513d601f19601f82011682018060405250810190611dd29190612d85565b506000611df5846000306001600089815260200190815260200160002054611e84565b9050600180600086815260200190815260200160002054611e169190612acb565b6001600086815260200190815260200160002081905550611e378482611ec0565b91505092915050565b80600560006101000a81548173ffffffffffffffffffffffffffffffffffffffff021916908373ffffffffffffffffffffffffffffffffffffffff16021790555050565b600084848484604051602001611e9d94939291906132ef565b6040516020818303038152906040528051906020012060001c9050949350505050565b60008282604051602001611ed5929190613376565b60405160208183030381529060405280519060200120905092915050565b6000604051905090565b600080fd5b600080fd5b60007fffffffff0000000000000000000000000000000000000000000000000000000082169050919050565b611f3c81611f07565b8114611f4757600080fd5b50565b600081359050611f5981611f33565b92915050565b600060208284031215611f7557611f74611efd565b5b6000611f8384828501611f4a565b91505092915050565b60008115159050919050565b611fa181611f8c565b82525050565b6000602082019050611fbc6000830184611f98565b92915050565b600073ffffffffffffffffffffffffffffffffffffffff82169050919050565b6000611fed82611fc2565b9050919050565b611ffd81611fe2565b811461200857600080fd5b50565b60008135905061201a81611ff4565b92915050565b6000819050919050565b61203381612020565b811461203e57600080fd5b50565b6000813590506120508161202a565b92915050565b600080fd5b600080fd5b6000601f19601f8301169050919050565b7f4e487b7100000000000000000000000000000000000000000000000000000000600052604160045260246000fd5b6120a982612060565b810181811067ffffffffffffffff821117156120c8576120c7612071565b5b80604052505050565b60006120db611ef3565b90506120e782826120a0565b919050565b600067ffffffffffffffff82111561210757612106612071565b5b61211082612060565b9050602081019050919050565b82818337600083830152505050565b600061213f61213a846120ec565b6120d1565b90508281526020810184848401111561215b5761215a61205b565b5b61216684828561211d565b509392505050565b600082601f83011261218357612182612056565b5b813561219384826020860161212c565b91505092915050565b600080600080608085870312156121b6576121b5611efd565b5b60006121c48782880161200b565b94505060206121d58782880161200b565b93505060406121e687828801612041565b925050606085013567ffffffffffffffff81111561220757612206611f02565b5b6122138782880161216e565b91505092959194509250565b61222881611f07565b82525050565b6000602082019050612243600083018461221f565b92915050565b60006020828403121561225f5761225e611efd565b5b600061226d8482850161200b565b91505092915050565b61227f81612020565b82525050565b600060208201905061229a6000830184612276565b92915050565b600062ffffff82169050919050565b6122b8816122a0565b81146122c357600080fd5b50565b6000813590506122d5816122af565b92915050565b6000602082840312156122f1576122f0611efd565b5b60006122ff848285016122c6565b91505092915050565b600081519050919050565b600082825260208201905092915050565b6000819050602082019050919050565b61233d81612020565b82525050565b600061234f8383612334565b60208301905092915050565b6000602082019050919050565b600061237382612308565b61237d8185612313565b935061238883612324565b8060005b838110156123b95781516123a08882612343565b97506123ab8361235b565b92505060018101905061238c565b5085935050505092915050565b600060208201905081810360008301526123e08184612368565b905092915050565b6000602082840312156123fe576123fd611efd565b5b600061240c84828501612041565b91505092915050565b61241e81611f8c565b811461242957600080fd5b50565b60008135905061243b81612415565b92915050565b6000806040838503121561245857612457611efd565b5b60006124668582860161200b565b92505060206124778582860161242c565b9150509250929050565b7f4e487b7100000000000000000000000000000000000000000000000000000000600052602160045260246000fd5b600481106124c1576124c0612481565b5b50565b60008190506124d2826124b0565b919050565b60006124e2826124c4565b9050919050565b6124f2816124d7565b82525050565b600060208201905061250d60008301846124e9565b92915050565b6000819050919050565b61252681612513565b811461253157600080fd5b50565b6000813590506125438161251d565b92915050565b600080604083850312156125605761255f611efd565b5b600061256e85828601612534565b925050602061257f85828601612041565b9150509250929050565b600060ff82169050919050565b61259f81612589565b81146125aa57600080fd5b50565b6000813590506125bc81612596565b92915050565b6000602082840312156125d8576125d7611efd565b5b60006125e6848285016125ad565b91505092915050565b600080fd5b600080fd5b60008083601f84011261260f5761260e612056565b5b8235905067ffffffffffffffff81111561262c5761262b6125ef565b5b602083019150836020820283011115612648576126476125f4565b5b9250929050565b60008083601f84011261266557612664612056565b5b8235905067ffffffffffffffff811115612682576126816125ef565b5b60208301915083600182028301111561269e5761269d6125f4565b5b9250929050565b60008060008060008060008060a0898b0312156126c5576126c4611efd565b5b60006126d38b828c0161200b565b98505060206126e48b828c0161200b565b975050604089013567ffffffffffffffff81111561270557612704611f02565b5b6127118b828c016125f9565b9650965050606089013567ffffffffffffffff81111561273457612733611f02565b5b6127408b828c016125f9565b9450945050608089013567ffffffffffffffff81111561276357612762611f02565b5b61276f8b828c0161264f565b92509250509295985092959890939650565b61278a816122a0565b82525050565b60006020820190506127a56000830184612781565b92915050565b6127b481612513565b82525050565b60006020820190506127cf60008301846127ab565b92915050565b60008060008060008060a087890312156127f2576127f1611efd565b5b600061280089828a0161200b565b965050602061281189828a0161200b565b955050604061282289828a01612041565b945050606061283389828a01612041565b935050608087013567ffffffffffffffff81111561285457612853611f02565b5b61286089828a0161264f565b92509250509295509295509295565b600082825260208201905092915050565b7f4e6f742076616c69642074617267657400000000000000000000000000000000600082015250565b60006128b660108361286f565b91506128c182612880565b602082019050919050565b600060208201905081810360008301526128e5816128a9565b9050919050565b7f4f776e61626c653a204e6f74206f776e65720000000000000000000000000000600082015250565b600061292260128361286f565b915061292d826128ec565b602082019050919050565b6000602082019050818103600083015261295181612915565b9050919050565b7f5265656e7472616e637947756172643a207265656e7472616e742063616c6c00600082015250565b600061298e601f8361286f565b915061299982612958565b602082019050919050565b600060208201905081810360008301526129bd81612981565b9050919050565b7f4e6f742074696d6520746f206275790000000000000000000000000000000000600082015250565b60006129fa600f8361286f565b9150612a05826129c4565b602082019050919050565b60006020820190508181036000830152612a29816129ed565b9050919050565b7f496e76616c6964207175616e7469747900000000000000000000000000000000600082015250565b6000612a6660108361286f565b9150612a7182612a30565b602082019050919050565b60006020820190508181036000830152612a9581612a59565b9050919050565b7f4e487b7100000000000000000000000000000000000000000000000000000000600052601160045260246000fd5b6000612ad682612020565b9150612ae183612020565b9250827fffffffffffffffffffffffffffffffffffffffffffffffffffffffffffffffff03821115612b1657612b15612a9c565b5b828201905092915050565b7f4d6178696d756d207469636b657420616c6c6f77000000000000000000000000600082015250565b6000612b5760148361286f565b9150612b6282612b21565b602082019050919050565b60006020820190508181036000830152612b8681612b4a565b9050919050565b7f4f766572206c696d69746564207469636b657400000000000000000000000000600082015250565b6000612bc360138361286f565b9150612bce82612b8d565b602082019050919050565b60006020820190508181036000830152612bf281612bb6565b9050919050565b6000612c0482612020565b9150612c0f83612020565b9250817fffffffffffffffffffffffffffffffffffffffffffffffffffffffffffffffff0483118215151615612c4857612c47612a9c565b5b828202905092915050565b612c5c81611fe2565b82525050565b6000604082019050612c776000830185612c53565b612c846020830184612c53565b9392505050565b600081519050612c9a8161202a565b92915050565b600060208284031215612cb657612cb5611efd565b5b6000612cc484828501612c8b565b91505092915050565b7f4f76657220616c6c6f77616e6365205744410000000000000000000000000000600082015250565b6000612d0360128361286f565b9150612d0e82612ccd565b602082019050919050565b60006020820190508181036000830152612d3281612cf6565b9050919050565b6000606082019050612d4e6000830186612c53565b612d5b6020830185612c53565b612d686040830184612276565b949350505050565b600081519050612d7f81612415565b92915050565b600060208284031215612d9b57612d9a611efd565b5b6000612da984828501612d70565b91505092915050565b7f4e487b7100000000000000000000000000000000000000000000000000000000600052603260045260246000fd5b6000612dec82612020565b91507fffffffffffffffffffffffffffffffffffffffffffffffffffffffffffffffff821415612e1f57612e1e612a9c565b5b600182019050919050565b7f4f6e6c7920565246436f6f7264696e61746f722063616e2066756c66696c6c00600082015250565b6000612e60601f8361286f565b9150612e6b82612e2a565b602082019050919050565b60006020820190508181036000830152612e8f81612e53565b9050919050565b7f496e76616c69642043726f776e204e4654204964000000000000000000000000600082015250565b6000612ecc60148361286f565b9150612ed782612e96565b602082019050919050565b60006020820190508181036000830152612efb81612ebf565b9050919050565b7f4e6f7420656e6f756768207175616e7469747900000000000000000000000000600082015250565b6000612f3860138361286f565b9150612f4382612f02565b602082019050919050565b60006020820190508181036000830152612f6781612f2b565b9050919050565b6000819050919050565b6000819050919050565b6000612f9d612f98612f9384612f6e565b612f78565b612020565b9050919050565b612fad81612f82565b82525050565b600082825260208201905092915050565b50565b6000612fd4600083612fb3565b9150612fdf82612fc4565b600082019050919050565b600060a082019050612fff6000830187612c53565b61300c6020830186612c53565b6130196040830185612fa4565b6130266060830184612276565b818103608083015261303781612fc7565b905095945050505050565b60006020820190506130576000830184612c53565b92915050565b7f4e6f7420656e6f75676820666565204c494e4b20696e20636f6e747261637400600082015250565b6000613093601f8361286f565b915061309e8261305d565b602082019050919050565b600060208201905081810360008301526130c281613086565b9050919050565b7f4f776e61626c653a206e6577206f776e657220697320746865207a65726f206160008201527f6464726573730000000000000000000000000000000000000000000000000000602082015250565b600061312560268361286f565b9150613130826130c9565b604082019050919050565b6000602082019050818103600083015261315481613118565b9050919050565b7f4e487b7100000000000000000000000000000000000000000000000000000000600052601260045260246000fd5b600061319582612020565b91506131a083612020565b9250826131b0576131af61315b565b5b828206905092915050565b6000819050919050565b60006131e06131db6131d6846131bb565b612f78565b612020565b9050919050565b6131f0816131c5565b82525050565b600060208201905061320b60008301846131e7565b92915050565b600060408201905061322660008301856127ab565b6132336020830184612276565b9392505050565b600081519050919050565b60005b83811015613263578082015181840152602081019050613248565b83811115613272576000848401525b50505050565b60006132838261323a565b61328d8185612fb3565b935061329d818560208601613245565b6132a681612060565b840191505092915050565b60006060820190506132c66000830186612c53565b6132d36020830185612276565b81810360408301526132e58184613278565b9050949350505050565b600060808201905061330460008301876127ab565b6133116020830186612276565b61331e6040830185612c53565b61332b6060830184612276565b95945050505050565b6000819050919050565b61334f61334a82612513565b613334565b82525050565b6000819050919050565b61337061336b82612020565b613355565b82525050565b6000613382828561333e565b602082019150613392828461335f565b602082019150819050939250505056fea2646970667358221220662d5a7c2cf757c45bd1cc18c4450c48cbb32dfdec0ed016b60c1addeb9f860864736f6c634300080b0033",
  "immutableReferences": {
    "73": [
      {
        "length": 32,
        "start": 6312
      },
      {
        "length": 32,
        "start": 7410
      }
    ],
    "75": [
      {
        "length": 32,
        "start": 4437
      },
      {
        "length": 32,
        "start": 7470
      }
    ]
  },
  "source": "// SPDX-License-Identifier: MIT\r\npragma solidity ^0.8.11;\r\n\r\nimport \"@openzeppelin/contracts/token/ERC20/IERC20.sol\";\r\nimport \"@openzeppelin/contracts/security/ReentrancyGuard.sol\";\r\nimport \"@chainlink/contracts/src/v0.8/VRFConsumerBase.sol\";\r\nimport \"@openzeppelin/contracts/token/ERC1155/utils/ERC1155Receiver.sol\";\r\nimport \"@openzeppelin/contracts/token/ERC721/IERC721Receiver.sol\";\r\nimport \"../NFT/ICrownNFT.sol\";\r\nimport \"../NFT/IScepterNFT.sol\";\r\n\r\ncontract LuckyTicketNFT is\r\n    ReentrancyGuard,\r\n    ERC1155Receiver,\r\n    IERC721Receiver,\r\n    VRFConsumerBase\r\n{\r\n    bytes32 internal _keyHash =\r\n        0x6c3699283bda56ad74f6b855546325b68d482e983852a7a82979cc4807b641f4;\r\n    uint256 internal _fee = 0.1 * 10**18; // MUST CHANGE IT TO 0.2 WHEN DEPLOY TO MAINNET\r\n    uint256 _randomResult;\r\n    address private _owner;\r\n    IERC20 WDAToken;\r\n    ICrownNFT _CrownToken;\r\n    IScepterNFT _ScepterToken;\r\n    uint24 public maxTicketProvidePerDay = 50000;\r\n    uint256 public ticketSoldPerDay = 0;\r\n    uint256 _ticketCost = 50 * 10**18; // wda\r\n    uint256 public todayTokenId;\r\n    uint256 public currentSession = 0;\r\n    enum ContractState {\r\n        NORMAL,\r\n        GETTING_RANDOM_NUMBER,\r\n        BURNING_CROWN,\r\n        REWARDING_TICKET\r\n    }\r\n    ContractState public contractState = ContractState.NORMAL;\r\n\r\n    event BuyTicket(address indexed buyer, uint256 amount);\r\n    event RandomTicket(uint256 timestamp);\r\n    event TicketNFTWin(address indexed owner, uint256 indexed crowId);\r\n\r\n    /**\r\n     * Kovan Testnet\r\n     * VRF coordinator 0xdD3782915140c8f3b190B5D67eAc6dc5760C46E9\r\n     * LINK 0xa36085F69e2889c224210F603D836748e7dC0088\r\n     * keyHash 0x6c3699283bda56ad74f6b855546325b68d482e983852a7a82979cc4807b641f4\r\n     * More information https://docs.chain.link/docs/vrf-contracts/v1/\r\n     */\r\n\r\n    constructor(IERC20 _token)\r\n        VRFConsumerBase(\r\n            0xdD3782915140c8f3b190B5D67eAc6dc5760C46E9,\r\n            0xa36085F69e2889c224210F603D836748e7dC0088\r\n        )\r\n    {\r\n        WDAToken = _token;\r\n        _owner = msg.sender;\r\n    }\r\n\r\n    // address user => session => amount\r\n    mapping(address => mapping(uint256 => uint256)) ownerTicketCount;\r\n    // playe[currentSession]r address => tokenId\r\n    mapping(address => uint256[]) ownerWinningCrownNFT;\r\n    // player address => amount\r\n    mapping(address => uint256) public ownerScepterNFT;\r\n\r\n    mapping(address => bool) validTarget;\r\n\r\n    /** ============== TEST ONLY ============== */\r\n    function setMaxTicketProvidePerDay(uint24 newAmount) public {\r\n        maxTicketProvidePerDay = newAmount;\r\n    }\r\n\r\n    function setCrownAddress(address _newAddress) external onlyOwner {\r\n        _CrownToken = ICrownNFT(_newAddress);\r\n    }\r\n\r\n    function setScepterAddress(address _newAddress) external onlyOwner {\r\n        _ScepterToken = IScepterNFT(_newAddress);\r\n    }\r\n\r\n    /** ============== END OF TEST ONLY =========== */\r\n\r\n    /**\r\n     * Always returns `IERC721Receiver.onERC721Received.selector`.\r\n     */\r\n    function onERC721Received(\r\n        address,\r\n        address,\r\n        uint256,\r\n        bytes memory\r\n    ) public virtual override returns (bytes4) {\r\n        return this.onERC721Received.selector;\r\n    }\r\n\r\n    function onERC1155Received(\r\n        address,\r\n        address,\r\n        uint256,\r\n        uint256,\r\n        bytes calldata\r\n    ) external pure override returns (bytes4) {\r\n        return\r\n            bytes4(\r\n                keccak256(\r\n                    \"onERC1155Received(address,address,uint256,uint256,bytes)\"\r\n                )\r\n            );\r\n    }\r\n\r\n    function onERC1155BatchReceived(\r\n        address,\r\n        address,\r\n        uint256[] calldata,\r\n        uint256[] calldata,\r\n        bytes calldata\r\n    ) external pure override returns (bytes4) {\r\n        return\r\n            bytes4(\r\n                keccak256(\r\n                    \"onERC1155BatchReceived(address,address,uint256[],uint256[],bytes)\"\r\n                )\r\n            );\r\n    }\r\n\r\n    function setValidTarget(address target, bool permission)\r\n        external\r\n        onlyOwner\r\n    {\r\n        validTarget[target] = permission;\r\n    }\r\n\r\n    function getOwnerCrownNFT() external view returns (uint256) {\r\n        uint256 counter = 0;\r\n        for (uint256 i = 0; i < ownerWinningCrownNFT[msg.sender].length; i++) {\r\n            if (ownerWinningCrownNFT[msg.sender][i] != 0) {\r\n                counter++;\r\n            }\r\n        }\r\n        return counter;\r\n    }\r\n\r\n    function getListOwnerCrownNFT() external view returns (uint256[] memory) {\r\n        return ownerWinningCrownNFT[msg.sender];\r\n    }\r\n\r\n    function getOwnerTicket() external view returns (uint256) {\r\n        return ownerTicketCount[msg.sender][currentSession];\r\n    }\r\n\r\n    function setNewCrownBonus() external onlyValidTarget {\r\n        _setNewCrownBonus();\r\n    }\r\n\r\n    function _setNewCrownBonus() internal {\r\n        todayTokenId = _CrownToken.mintValidTarget(1);\r\n    }\r\n\r\n    function setNewSession() external onlyValidTarget {\r\n        currentSession++;\r\n        ticketSoldPerDay = 0;\r\n        contractState = ContractState.NORMAL;\r\n        _setNewCrownBonus();\r\n    }\r\n\r\n    function claimCrown(uint8 index) external {\r\n        require(\r\n            ownerWinningCrownNFT[msg.sender][index] > 0,\r\n            \"Invalid Crown NFT Id\"\r\n        );\r\n        _CrownToken.transferFrom(\r\n            address(this),\r\n            msg.sender,\r\n            ownerWinningCrownNFT[msg.sender][index]\r\n        );\r\n        delete ownerWinningCrownNFT[msg.sender][index];\r\n    }\r\n\r\n    function claimScepter() external {\r\n        require(ownerScepterNFT[msg.sender] > 0, \"Not enough quantity\");\r\n        _ScepterToken.mintValidTarget(ownerScepterNFT[msg.sender]);\r\n        _ScepterToken.safeTransferFrom(\r\n            address(this),\r\n            msg.sender,\r\n            0, // SCEPTER 0\r\n            ownerScepterNFT[msg.sender],\r\n            \"\"\r\n        );\r\n        ownerScepterNFT[msg.sender] = 0;\r\n    }\r\n\r\n    function getRandomNumber()\r\n        external\r\n        onlyValidTarget\r\n        returns (bytes32 requestId)\r\n    {\r\n        require(\r\n            LINK.balanceOf(address(this)) >= _fee,\r\n            \"Not enough fee LINK in contract\"\r\n        );\r\n        contractState = ContractState.GETTING_RANDOM_NUMBER;\r\n        return requestRandomness(_keyHash, _fee);\r\n    }\r\n\r\n    function fulfillRandomness(bytes32, uint256 randomness) internal override {\r\n        _randomResult = randomness;\r\n        contractState = ContractState.REWARDING_TICKET;\r\n        emit RandomTicket(block.timestamp);\r\n    }\r\n\r\n    function randomWinner() external view returns (uint256) {\r\n        uint256 newIndexWinningTicket = _randomResult % ticketSoldPerDay;\r\n        return newIndexWinningTicket;\r\n    }\r\n\r\n    function burnCrown() external onlyValidTarget {\r\n        _CrownToken.burn(todayTokenId);\r\n        contractState = ContractState.BURNING_CROWN;\r\n    }\r\n\r\n    function payWinner(address winner) external onlyValidTarget {\r\n        ownerWinningCrownNFT[winner].push(todayTokenId);\r\n        emit TicketNFTWin(winner, todayTokenId);\r\n    }\r\n\r\n    function buyTicket(uint256 _quantity) external nonReentrant {\r\n        require(contractState == ContractState.NORMAL, \"Not time to buy\");\r\n        require(_quantity > 0, \"Invalid quantity\");\r\n        // check maximum ticket allow of each user\r\n        require(\r\n            ownerTicketCount[msg.sender][currentSession] + _quantity <= 250, // max allowance\r\n            \"Maximum ticket allow\"\r\n        );\r\n        // check quantity provide per day\r\n        require(\r\n            _quantity + ticketSoldPerDay <= maxTicketProvidePerDay,\r\n            \"Over limited ticket\"\r\n        );\r\n        // check allowance\r\n        uint256 _totalFee = _quantity * _ticketCost;\r\n        uint256 allowance = WDAToken.allowance(msg.sender, address(this));\r\n        require(allowance >= _totalFee, \"Over allowance WDA\");\r\n        WDAToken.transferFrom(msg.sender, address(this), _totalFee);\r\n        ticketSoldPerDay += _quantity;\r\n        ownerScepterNFT[msg.sender] += _quantity;\r\n        ownerTicketCount[msg.sender][currentSession] += _quantity;\r\n        emit BuyTicket(msg.sender, _quantity);\r\n    }\r\n\r\n    /**\r\n     * @dev Transfers ownership of the contract to a new account (`newOwner`).\r\n     * Can only be called by the current owner.\r\n     */\r\n    function transferOwnership(address newOwner) public virtual onlyOwner {\r\n        require(\r\n            newOwner != address(0),\r\n            \"Ownable: new owner is the zero address\"\r\n        );\r\n        _transferOwnership(newOwner);\r\n    }\r\n\r\n    /**\r\n     * @dev Transfers ownership of the contract to a new account (`newOwner`).\r\n     * Internal function without access restriction.\r\n     */\r\n    function _transferOwnership(address newOwner) internal virtual {\r\n        _owner = newOwner;\r\n    }\r\n\r\n    modifier onlyValidTarget() {\r\n        require(validTarget[msg.sender], \"Not valid target\");\r\n        _;\r\n    }\r\n\r\n    modifier onlyOwner() {\r\n        require(msg.sender == _owner, \"Ownable: Not owner\");\r\n        _;\r\n    }\r\n}\r\n",
  "sourcePath": "C:\\Github\\Dao\\Develop\\Blockchain\\dao-project\\contracts\\LuckyTicket\\LuckyTicketNFT.sol",
  "compiler": {
    "name": "solc",
    "version": "0.8.11+commit.d7f03943.Emscripten.clang"
  },
  "schemaVersion": "3.4.7",
  "updatedAt": "2022-06-23T10:13:52.649Z",
  "devdoc": {
    "kind": "dev",
    "methods": {
      "supportsInterface(bytes4)": {
        "details": "See {IERC165-supportsInterface}."
      },
      "transferOwnership(address)": {
        "details": "Transfers ownership of the contract to a new account (`newOwner`). Can only be called by the current owner."
      }
    },
    "version": 1
  },
  "userdoc": {
    "kind": "user",
    "methods": {
      "constructor": {
        "notice": "Kovan Testnet VRF coordinator 0xdD3782915140c8f3b190B5D67eAc6dc5760C46E9 LINK 0xa36085F69e2889c224210F603D836748e7dC0088 keyHash 0x6c3699283bda56ad74f6b855546325b68d482e983852a7a82979cc4807b641f4 More information https://docs.chain.link/docs/vrf-contracts/v1/"
      },
      "onERC721Received(address,address,uint256,bytes)": {
        "notice": "Always returns `IERC721Receiver.onERC721Received.selector`."
      },
      "setMaxTicketProvidePerDay(uint24)": {
        "notice": "============== TEST ONLY ============== "
      }
    },
    "version": 1
  }
}