{
  "contractName": "LuckyTicketWDA",
  "abi": [
    {
      "inputs": [
        {
          "internalType": "contract IERC20",
          "name": "_token",
          "type": "address"
        }
      ],
      "stateMutability": "nonpayable",
      "type": "constructor"
    },
    {
      "anonymous": false,
      "inputs": [
        {
          "indexed": true,
          "internalType": "address",
          "name": "buyer",
          "type": "address"
        },
        {
          "indexed": false,
          "internalType": "uint256",
          "name": "amount",
          "type": "uint256"
        },
        {
          "indexed": false,
          "internalType": "uint256",
          "name": "timestamp",
          "type": "uint256"
        },
        {
          "indexed": false,
          "internalType": "uint256",
          "name": "checkpoint",
          "type": "uint256"
        }
      ],
      "name": "BuyTicket",
      "type": "event"
    },
    {
      "anonymous": false,
      "inputs": [
        {
          "indexed": false,
          "internalType": "uint256",
          "name": "timestamp",
          "type": "uint256"
        }
      ],
      "name": "RandomWinner",
      "type": "event"
    },
    {
      "anonymous": false,
      "inputs": [
        {
          "indexed": true,
          "internalType": "address",
          "name": "owner",
          "type": "address"
        },
        {
          "indexed": true,
          "internalType": "uint256",
          "name": "amount",
          "type": "uint256"
        },
        {
          "indexed": false,
          "internalType": "uint8",
          "name": "ticketType",
          "type": "uint8"
        }
      ],
      "name": "TicketWin",
      "type": "event"
    },
    {
      "inputs": [],
      "name": "DAOTreasuryWallet",
      "outputs": [
        {
          "internalType": "address",
          "name": "",
          "type": "address"
        }
      ],
      "stateMutability": "view",
      "type": "function"
    },
    {
      "inputs": [],
      "name": "contractState",
      "outputs": [
        {
          "internalType": "enum LuckyTicketWDA.ContractState",
          "name": "",
          "type": "uint8"
        }
      ],
      "stateMutability": "view",
      "type": "function"
    },
    {
      "inputs": [],
      "name": "lastTimeCheck",
      "outputs": [
        {
          "internalType": "uint256",
          "name": "",
          "type": "uint256"
        }
      ],
      "stateMutability": "view",
      "type": "function"
    },
    {
      "inputs": [
        {
          "internalType": "bytes32",
          "name": "requestId",
          "type": "bytes32"
        },
        {
          "internalType": "uint256",
          "name": "randomness",
          "type": "uint256"
        }
      ],
      "name": "rawFulfillRandomness",
      "outputs": [],
      "stateMutability": "nonpayable",
      "type": "function"
    },
    {
      "inputs": [],
      "name": "totalTicketSoldPerPeriod",
      "outputs": [
        {
          "internalType": "uint256",
          "name": "",
          "type": "uint256"
        }
      ],
      "stateMutability": "view",
      "type": "function"
    },
    {
      "inputs": [
        {
          "internalType": "uint256",
          "name": "amount",
          "type": "uint256"
        }
      ],
      "name": "setMinimumPlayer",
      "outputs": [],
      "stateMutability": "nonpayable",
      "type": "function"
    },
    {
      "inputs": [
        {
          "internalType": "uint256",
          "name": "time",
          "type": "uint256"
        }
      ],
      "name": "setLockTime",
      "outputs": [],
      "stateMutability": "nonpayable",
      "type": "function"
    },
    {
      "inputs": [
        {
          "internalType": "uint256",
          "name": "maxP",
          "type": "uint256"
        }
      ],
      "name": "setMaxPercentProposal",
      "outputs": [],
      "stateMutability": "nonpayable",
      "type": "function"
    },
    {
      "inputs": [],
      "name": "withdrawWDAToDAOTreasury",
      "outputs": [],
      "stateMutability": "nonpayable",
      "type": "function"
    },
    {
      "inputs": [
        {
          "internalType": "address",
          "name": "target",
          "type": "address"
        },
        {
          "internalType": "bool",
          "name": "permission",
          "type": "bool"
        }
      ],
      "name": "setValidTarget",
      "outputs": [],
      "stateMutability": "nonpayable",
      "type": "function"
    },
    {
      "inputs": [],
      "name": "initialize",
      "outputs": [],
      "stateMutability": "nonpayable",
      "type": "function"
    },
    {
      "inputs": [
        {
          "internalType": "uint256",
          "name": "percentChange",
          "type": "uint256"
        },
        {
          "internalType": "uint8",
          "name": "action",
          "type": "uint8"
        }
      ],
      "name": "setProposal",
      "outputs": [],
      "stateMutability": "nonpayable",
      "type": "function"
    },
    {
      "inputs": [],
      "name": "getOwnerWinningTicket5000WDA",
      "outputs": [
        {
          "internalType": "uint256",
          "name": "",
          "type": "uint256"
        }
      ],
      "stateMutability": "view",
      "type": "function"
    },
    {
      "inputs": [],
      "name": "getOwnerWinningTicket100000WDA",
      "outputs": [
        {
          "internalType": "uint256",
          "name": "",
          "type": "uint256"
        }
      ],
      "stateMutability": "view",
      "type": "function"
    },
    {
      "inputs": [],
      "name": "getOwnerWinningTicket5000WDAAvailable",
      "outputs": [
        {
          "internalType": "uint256",
          "name": "",
          "type": "uint256"
        }
      ],
      "stateMutability": "view",
      "type": "function"
    },
    {
      "inputs": [],
      "name": "getOwnerWinningTicket100000WDAAvailable",
      "outputs": [
        {
          "internalType": "uint256",
          "name": "",
          "type": "uint256"
        }
      ],
      "stateMutability": "view",
      "type": "function"
    },
    {
      "inputs": [],
      "name": "getOwnerTicketReward",
      "outputs": [
        {
          "internalType": "uint256",
          "name": "",
          "type": "uint256"
        }
      ],
      "stateMutability": "view",
      "type": "function"
    },
    {
      "inputs": [],
      "name": "getOwnerTicketRewardAvailable",
      "outputs": [
        {
          "internalType": "uint256",
          "name": "",
          "type": "uint256"
        }
      ],
      "stateMutability": "view",
      "type": "function"
    },
    {
      "inputs": [],
      "name": "getOwnerTicket",
      "outputs": [
        {
          "internalType": "uint256",
          "name": "",
          "type": "uint256"
        }
      ],
      "stateMutability": "view",
      "type": "function"
    },
    {
      "inputs": [
        {
          "internalType": "address",
          "name": "_newDAOTreasuryWallet",
          "type": "address"
        }
      ],
      "name": "setDAOTreasuryWallet",
      "outputs": [],
      "stateMutability": "nonpayable",
      "type": "function"
    },
    {
      "inputs": [],
      "name": "getFeePerTicket",
      "outputs": [
        {
          "internalType": "uint256",
          "name": "",
          "type": "uint256"
        }
      ],
      "stateMutability": "view",
      "type": "function"
    },
    {
      "inputs": [
        {
          "internalType": "uint256",
          "name": "_newFeePerTicket",
          "type": "uint256"
        }
      ],
      "name": "setFeePerTicket",
      "outputs": [],
      "stateMutability": "nonpayable",
      "type": "function"
    },
    {
      "inputs": [
        {
          "internalType": "address",
          "name": "winner",
          "type": "address"
        },
        {
          "internalType": "uint256",
          "name": "rewardAmount",
          "type": "uint256"
        },
        {
          "internalType": "uint256",
          "name": "purchaseDate",
          "type": "uint256"
        },
        {
          "internalType": "uint256",
          "name": "checkpoint",
          "type": "uint256"
        }
      ],
      "name": "payWinner",
      "outputs": [],
      "stateMutability": "nonpayable",
      "type": "function"
    },
    {
      "inputs": [
        {
          "internalType": "address",
          "name": "player",
          "type": "address"
        },
        {
          "internalType": "uint256",
          "name": "purchaseDate",
          "type": "uint256"
        },
        {
          "internalType": "uint256",
          "name": "amount",
          "type": "uint256"
        }
      ],
      "name": "rewardTicket",
      "outputs": [],
      "stateMutability": "nonpayable",
      "type": "function"
    },
    {
      "inputs": [],
      "name": "getTicketSoldPerDay",
      "outputs": [
        {
          "internalType": "uint256",
          "name": "",
          "type": "uint256"
        }
      ],
      "stateMutability": "view",
      "type": "function"
    },
    {
      "inputs": [],
      "name": "resetAllTicket",
      "outputs": [],
      "stateMutability": "nonpayable",
      "type": "function"
    },
    {
      "inputs": [],
      "name": "getRandomNumber",
      "outputs": [
        {
          "internalType": "bytes32",
          "name": "requestId",
          "type": "bytes32"
        }
      ],
      "stateMutability": "nonpayable",
      "type": "function"
    },
    {
      "inputs": [
        {
          "internalType": "uint256",
          "name": "mod",
          "type": "uint256"
        }
      ],
      "name": "generateRandomNum",
      "outputs": [
        {
          "internalType": "uint256",
          "name": "",
          "type": "uint256"
        }
      ],
      "stateMutability": "view",
      "type": "function"
    },
    {
      "inputs": [
        {
          "internalType": "uint8",
          "name": "_ticketType",
          "type": "uint8"
        }
      ],
      "name": "claimCoin",
      "outputs": [],
      "stateMutability": "nonpayable",
      "type": "function"
    },
    {
      "inputs": [],
      "name": "claimReward",
      "outputs": [],
      "stateMutability": "nonpayable",
      "type": "function"
    },
    {
      "inputs": [
        {
          "internalType": "uint256",
          "name": "_quantity",
          "type": "uint256"
        }
      ],
      "name": "buyTicket",
      "outputs": [],
      "stateMutability": "payable",
      "type": "function"
    },
    {
      "inputs": [
        {
          "internalType": "address",
          "name": "newOwner",
          "type": "address"
        }
      ],
      "name": "transferOwnership",
      "outputs": [],
      "stateMutability": "nonpayable",
      "type": "function"
    }
  ],
  "bytecode": "0x60c06040527f6c3699283bda56ad74f6b855546325b68d482e983852a7a82979cc4807b641f460001b60025567016345785d8a0000600355735b38da6a701c568545dcfcb03fcb875f56beddc4600760006101000a81548173ffffffffffffffffffffffffffffffffffffffff021916908373ffffffffffffffffffffffffffffffffffffffff16021790555042600855600060095566016bcc41e90000600a55683635c9adc5dea00000600b556000600c556000600e60006101000a81548160ff02191690836002811115620000db57620000da62000248565b5b02179055506107086017556064601855600a601955348015620000fd57600080fd5b50604051620045e5380380620045e58339818101604052810190620001239190620002f5565b73dd3782915140c8f3b190b5d67eac6dc5760c46e973a36085f69e2889c224210f603d836748e7dc008860016000819055508173ffffffffffffffffffffffffffffffffffffffff1660a08173ffffffffffffffffffffffffffffffffffffffff16815250508073ffffffffffffffffffffffffffffffffffffffff1660808173ffffffffffffffffffffffffffffffffffffffff1681525050505080600560006101000a81548173ffffffffffffffffffffffffffffffffffffffff021916908373ffffffffffffffffffffffffffffffffffffffff16021790555033600660006101000a81548173ffffffffffffffffffffffffffffffffffffffff021916908373ffffffffffffffffffffffffffffffffffffffff1602179055505062000327565b7f4e487b7100000000000000000000000000000000000000000000000000000000600052602160045260246000fd5b600080fd5b600073ffffffffffffffffffffffffffffffffffffffff82169050919050565b6000620002a9826200027c565b9050919050565b6000620002bd826200029c565b9050919050565b620002cf81620002b0565b8114620002db57600080fd5b50565b600081519050620002ef81620002c4565b92915050565b6000602082840312156200030e576200030d62000277565b5b60006200031e84828501620002de565b91505092915050565b60805160a05161428a6200035b6000396000818161194e0152612e210152600081816124ab0152612de5015261428a6000f3fe6080604052600436106101e35760003560e01c806394985ddd11610102578063d85eaba411610095578063f6550bac11610064578063f6550bac14610637578063f67134a014610662578063fa0a5c4e1461068d578063fd097bc7146106b8576101e3565b8063d85eaba41461058d578063dbdff2c1146105b8578063f06fa63f146105e3578063f2fde38b1461060e576101e3565b8063b88a802f116100d1578063b88a802f146104f9578063c3fae29314610510578063c5024c4814610539578063d171d0b414610562576101e3565b806394985ddd146104675780639cbd5a5414610490578063a7d7d3f3146104b9578063ae04d45d146104d0576101e3565b806378642aa21161017a5780638129fc1c116101495780638129fc1c146103d157806385209ee0146103e8578063863dcd9a146104135780638d5c128c1461043e576101e3565b806378642aa21461032b5780637ae22f33146103545780637c982b6b1461037d5780637f5d737c146103a8576101e3565b8063488b1d3d116101b6578063488b1d3d146102905780635bf36547146102bb57806362ed829f146102e457806367dd74ca1461030f576101e3565b80630ffb5633146101e85780631c3c927a1461021357806325d0d8a31461023c5780633eaa75cf14610279575b600080fd5b3480156101f457600080fd5b506101fd6106e3565b60405161020a9190613027565b60405180910390f35b34801561021f57600080fd5b5061023a6004803603810190610235919061307d565b610709565b005b34801561024857600080fd5b50610263600480360381019061025e919061307d565b6107a3565b60405161027091906130b9565b60405180910390f35b34801561028557600080fd5b5061028e6107ec565b005b34801561029c57600080fd5b506102a5610905565b6040516102b291906130b9565b60405180910390f35b3480156102c757600080fd5b506102e260048036038101906102dd9190613100565b610a43565b005b3480156102f057600080fd5b506102f9610b74565b60405161030691906130b9565b60405180910390f35b6103296004803603810190610324919061307d565b610b7e565b005b34801561033757600080fd5b50610352600480360381019061034d919061318c565b61116a565b005b34801561036057600080fd5b5061037b60048036038101906103769190613204565b61138f565b005b34801561038957600080fd5b5061039261147a565b60405161039f91906130b9565b60405180910390f35b3480156103b457600080fd5b506103cf60048036038101906103ca9190613244565b6115b7565b005b3480156103dd57600080fd5b506103e6611785565b005b3480156103f457600080fd5b506103fd61185f565b60405161040a91906132e8565b60405180910390f35b34801561041f57600080fd5b50610428611872565b60405161043591906130b9565b60405180910390f35b34801561044a57600080fd5b5061046560048036038101906104609190613303565b611878565b005b34801561047357600080fd5b5061048e60048036038101906104899190613366565b61194c565b005b34801561049c57600080fd5b506104b760048036038101906104b2919061307d565b6119e8565b005b3480156104c557600080fd5b506104ce6119f2565b005b3480156104dc57600080fd5b506104f760048036038101906104f2919061307d565b611be8565b005b34801561050557600080fd5b5061050e611bf2565b005b34801561051c57600080fd5b50610537600480360381019061053291906133a6565b611ed2565b005b34801561054557600080fd5b50610560600480360381019061055b919061307d565b6121a1565b005b34801561056e57600080fd5b506105776121ab565b60405161058491906130b9565b60405180910390f35b34801561059957600080fd5b506105a26122e9565b6040516105af91906130b9565b60405180910390f35b3480156105c457600080fd5b506105cd612418565b6040516105da919061341c565b60405180910390f35b3480156105ef57600080fd5b506105f86125c2565b60405161060591906130b9565b60405180910390f35b34801561061a57600080fd5b5061063560048036038101906106309190613303565b61261c565b005b34801561064357600080fd5b5061064c612728565b60405161065991906130b9565b60405180910390f35b34801561066e57600080fd5b5061067761272e565b60405161068491906130b9565b60405180910390f35b34801561069957600080fd5b506106a261286b565b6040516106af91906130b9565b60405180910390f35b3480156106c457600080fd5b506106cd6128a6565b6040516106da91906130b9565b60405180910390f35b600760009054906101000a900473ffffffffffffffffffffffffffffffffffffffff1681565b600660009054906101000a900473ffffffffffffffffffffffffffffffffffffffff1673ffffffffffffffffffffffffffffffffffffffff163373ffffffffffffffffffffffffffffffffffffffff1614610799576040517f08c379a000000000000000000000000000000000000000000000000000000000815260040161079090613494565b60405180910390fd5b80600a8190555050565b60008060045442336040516020016107bd9392919061351d565b6040516020818303038152906040528051906020012060001c905082816107e49190613589565b915050919050565b601660003373ffffffffffffffffffffffffffffffffffffffff1673ffffffffffffffffffffffffffffffffffffffff16815260200190815260200160002060009054906101000a900460ff16610878576040517f08c379a000000000000000000000000000000000000000000000000000000000815260040161086f90613606565b60405180910390fd5b600c600081548092919061088b90613655565b919050555060005b60058110156108c8576000601360008381526020019081526020016000208190555080806108c090613655565b915050610893565b506000600981905550426008819055506000600e60006101000a81548160ff021916908360028111156108fe576108fd613271565b5b0217905550565b600080600090506000601060003373ffffffffffffffffffffffffffffffffffffffff1673ffffffffffffffffffffffffffffffffffffffff168152602001908152602001600020805480602002602001604051908101604052809291908181526020016000905b828210156109b35783829060005260206000209060020201604051806040016040529081600082015481526020016001820154815250508152602001906001019061096d565b50505050905060005b8151811015610a3a5760008282815181106109da576109d961369e565b5b60200260200101516000015114158015610a1357506000828281518110610a0457610a0361369e565b5b60200260200101516020015114155b15610a27578280610a2390613655565b9350505b8080610a3290613655565b9150506109bc565b50819250505090565b601660003373ffffffffffffffffffffffffffffffffffffffff1673ffffffffffffffffffffffffffffffffffffffff16815260200190815260200160002060009054906101000a900460ff16610acf576040517f08c379a0000000000000000000000000000000000000000000000000000000008152600401610ac690613606565b60405180910390fd5b601260008473ffffffffffffffffffffffffffffffffffffffff1673ffffffffffffffffffffffffffffffffffffffff168152602001908152602001600020604051806040016040528083815260200160175485610b2d91906136cd565b815250908060018154018082558091505060019003906000526020600020906002020160009091909190915060008201518160000155602082015181600101555050505050565b6000600a54905090565b60026000541415610bc4576040517f08c379a0000000000000000000000000000000000000000000000000000000008152600401610bbb9061376f565b60405180910390fd5b600260008190555060006002811115610be057610bdf613271565b5b600e60009054906101000a900460ff166002811115610c0257610c01613271565b5b14610c42576040517f08c379a0000000000000000000000000000000000000000000000000000000008152600401610c39906137db565b60405180910390fd5b60008111610c85576040517f08c379a0000000000000000000000000000000000000000000000000000000008152600401610c7c90613847565b60405180910390fd5b603281600f60003373ffffffffffffffffffffffffffffffffffffffff1673ffffffffffffffffffffffffffffffffffffffff1681526020019081526020016000206000600c54815260200190815260200160002054610ce591906136cd565b1115610d26576040517f08c379a0000000000000000000000000000000000000000000000000000000008152600401610d1d906138b3565b60405180910390fd5b61c350610d3161286b565b82610d3c91906136cd565b1115610d7d576040517f08c379a0000000000000000000000000000000000000000000000000000000008152600401610d749061391f565b60405180910390fd5b6000600a5482610d8d919061393f565b905080341015610dd2576040517f08c379a0000000000000000000000000000000000000000000000000000000008152600401610dc9906139e5565b60405180910390fd5b6000600b5483610de2919061393f565b90506000600560009054906101000a900473ffffffffffffffffffffffffffffffffffffffff1673ffffffffffffffffffffffffffffffffffffffff1663dd62ed3e33306040518363ffffffff1660e01b8152600401610e43929190613a05565b602060405180830381865afa158015610e60573d6000803e3d6000fd5b505050506040513d601f19601f82011682018060405250810190610e849190613a43565b905081811015610ec9576040517f08c379a0000000000000000000000000000000000000000000000000000000008152600401610ec090613abc565b60405180910390fd5b600560009054906101000a900473ffffffffffffffffffffffffffffffffffffffff1673ffffffffffffffffffffffffffffffffffffffff166323b872dd3330856040518463ffffffff1660e01b8152600401610f2893929190613adc565b6020604051808303816000875af1158015610f47573d6000803e3d6000fd5b505050506040513d601f19601f82011682018060405250810190610f6b9190613b28565b508360096000828254610f7e91906136cd565b9250508190555060006201518060085442610f999190613b55565b610fa39190613b89565b905084600f60003373ffffffffffffffffffffffffffffffffffffffff1673ffffffffffffffffffffffffffffffffffffffff1681526020019081526020016000206000600c548152602001908152602001600020600082825461100791906136cd565b925050819055508460136000838152602001908152602001600020600082825461103191906136cd565b925050819055506000600760009054906101000a900473ffffffffffffffffffffffffffffffffffffffff1673ffffffffffffffffffffffffffffffffffffffff168560405161108090613beb565b60006040518083038185875af1925050503d80600081146110bd576040519150601f19603f3d011682016040523d82523d6000602084013e6110c2565b606091505b5050905080611106576040517f08c379a00000000000000000000000000000000000000000000000000000000081526004016110fd90613c4c565b60405180910390fd5b3373ffffffffffffffffffffffffffffffffffffffff167f42f562b021c78f8b7905ca6930e1dea4a0951b995913b2439ee5a997c6fb48a18742600d5460405161115293929190613c6c565b60405180910390a25050505050600160008190555050565b601660003373ffffffffffffffffffffffffffffffffffffffff1673ffffffffffffffffffffffffffffffffffffffff16815260200190815260200160002060009054906101000a900460ff166111f6576040517f08c379a00000000000000000000000000000000000000000000000000000000081526004016111ed90613606565b60405180910390fd5b60195482111561123b576040517f08c379a000000000000000000000000000000000000000000000000000000000815260040161123290613cef565b60405180910390fd5b600060146000600d548152602001908152602001600020549050600060156000600d548152602001908152602001600020549050600d600081548092919061128290613655565b919050555060008360ff16141561131057606484836112a1919061393f565b6112ab9190613b89565b826112b69190613b55565b60146000600d54815260200190815260200160002081905550606484826112dd919061393f565b6112e79190613b89565b816112f29190613b55565b60156000600d54815260200190815260200160002081905550611389565b6064848361131e919061393f565b6113289190613b89565b8261133391906136cd565b60146000600d548152602001908152602001600020819055506064848261135a919061393f565b6113649190613b89565b8161136f91906136cd565b60156000600d548152602001908152602001600020819055505b50505050565b600660009054906101000a900473ffffffffffffffffffffffffffffffffffffffff1673ffffffffffffffffffffffffffffffffffffffff163373ffffffffffffffffffffffffffffffffffffffff161461141f576040517f08c379a000000000000000000000000000000000000000000000000000000000815260040161141690613494565b60405180910390fd5b80601660008473ffffffffffffffffffffffffffffffffffffffff1673ffffffffffffffffffffffffffffffffffffffff16815260200190815260200160002060006101000a81548160ff0219169083151502179055505050565b600080600090506000601060003373ffffffffffffffffffffffffffffffffffffffff1673ffffffffffffffffffffffffffffffffffffffff168152602001908152602001600020805480602002602001604051908101604052809291908181526020016000905b82821015611528578382906000526020600020906002020160405180604001604052908160008201548152602001600182015481525050815260200190600101906114e2565b50505050905060005b81518110156115ae57600082828151811061154f5761154e61369e565b5b602002602001015160200151141580156115875750428282815181106115785761157761369e565b5b60200260200101516020015111155b1561159b57828061159790613655565b9350505b80806115a690613655565b915050611531565b50819250505090565b60008160ff16141561164d576000601060003373ffffffffffffffffffffffffffffffffffffffff1673ffffffffffffffffffffffffffffffffffffffff1681526020019081526020016000208054905011611648576040517f08c379a000000000000000000000000000000000000000000000000000000000815260040161163f90613d81565b60405180910390fd5b6116d3565b6000601160003373ffffffffffffffffffffffffffffffffffffffff1673ffffffffffffffffffffffffffffffffffffffff16815260200190815260200160002080549050116116d2576040517f08c379a00000000000000000000000000000000000000000000000000000000081526004016116c990613d81565b60405180910390fd5b5b60006116de82612a01565b9050600560009054906101000a900473ffffffffffffffffffffffffffffffffffffffff1673ffffffffffffffffffffffffffffffffffffffff1663a9059cbb33836040518363ffffffff1660e01b815260040161173d929190613da1565b6020604051808303816000875af115801561175c573d6000803e3d6000fd5b505050506040513d601f19601f820116820180604052508101906117809190613b28565b505050565b600660009054906101000a900473ffffffffffffffffffffffffffffffffffffffff1673ffffffffffffffffffffffffffffffffffffffff163373ffffffffffffffffffffffffffffffffffffffff1614611815576040517f08c379a000000000000000000000000000000000000000000000000000000000815260040161180c90613494565b60405180910390fd5b69152d02c7e14af680000060146000600d5481526020019081526020016000208190555069010f0cf064dd5920000060156000600d54815260200190815260200160002081905550565b600e60009054906101000a900460ff1681565b60095481565b600660009054906101000a900473ffffffffffffffffffffffffffffffffffffffff1673ffffffffffffffffffffffffffffffffffffffff163373ffffffffffffffffffffffffffffffffffffffff1614611908576040517f08c379a00000000000000000000000000000000000000000000000000000000081526004016118ff90613494565b60405180910390fd5b80600760006101000a81548173ffffffffffffffffffffffffffffffffffffffff021916908373ffffffffffffffffffffffffffffffffffffffff16021790555050565b7f000000000000000000000000000000000000000000000000000000000000000073ffffffffffffffffffffffffffffffffffffffff163373ffffffffffffffffffffffffffffffffffffffff16146119da576040517f08c379a00000000000000000000000000000000000000000000000000000000081526004016119d190613e16565b60405180910390fd5b6119e48282612d74565b5050565b8060188190555050565b600660009054906101000a900473ffffffffffffffffffffffffffffffffffffffff1673ffffffffffffffffffffffffffffffffffffffff163373ffffffffffffffffffffffffffffffffffffffff1614611a82576040517f08c379a0000000000000000000000000000000000000000000000000000000008152600401611a7990613494565b60405180910390fd5b6000600560009054906101000a900473ffffffffffffffffffffffffffffffffffffffff1673ffffffffffffffffffffffffffffffffffffffff166370a08231306040518263ffffffff1660e01b8152600401611adf9190613027565b602060405180830381865afa158015611afc573d6000803e3d6000fd5b505050506040513d601f19601f82011682018060405250810190611b209190613a43565b9050600560009054906101000a900473ffffffffffffffffffffffffffffffffffffffff1673ffffffffffffffffffffffffffffffffffffffff1663a9059cbb600760009054906101000a900473ffffffffffffffffffffffffffffffffffffffff16836040518363ffffffff1660e01b8152600401611ba1929190613da1565b6020604051808303816000875af1158015611bc0573d6000803e3d6000fd5b505050506040513d601f19601f82011682018060405250810190611be49190613b28565b5050565b8060178190555050565b6000601260003373ffffffffffffffffffffffffffffffffffffffff1673ffffffffffffffffffffffffffffffffffffffff168152602001908152602001600020805480602002602001604051908101604052809291908181526020016000905b82821015611c9957838290600052602060002090600202016040518060400160405290816000820154815260200160018201548152505081526020019060010190611c53565b5050505090506000815111611ce3576040517f08c379a0000000000000000000000000000000000000000000000000000000008152600401611cda90613e82565b60405180910390fd5b6000805b8251811015611e1f576000838281518110611d0557611d0461369e565b5b60200260200101516000015114158015611d3e57506000838281518110611d2f57611d2e61369e565b5b60200260200101516020015114155b8015611d68575042838281518110611d5957611d5861369e565b5b60200260200101516020015111155b15611e0c57601260003373ffffffffffffffffffffffffffffffffffffffff1673ffffffffffffffffffffffffffffffffffffffff1681526020019081526020016000208181548110611dbe57611dbd61369e565b5b906000526020600020906002020160008082016000905560018201600090555050828181518110611df257611df161369e565b5b60200260200101516000015182611e0991906136cd565b91505b8080611e1790613655565b915050611ce7565b50600560009054906101000a900473ffffffffffffffffffffffffffffffffffffffff1673ffffffffffffffffffffffffffffffffffffffff1663a9059cbb33600b5484611e6d919061393f565b6040518363ffffffff1660e01b8152600401611e8a929190613da1565b6020604051808303816000875af1158015611ea9573d6000803e3d6000fd5b505050506040513d601f19601f82011682018060405250810190611ecd9190613b28565b505050565b601660003373ffffffffffffffffffffffffffffffffffffffff1673ffffffffffffffffffffffffffffffffffffffff16815260200190815260200160002060009054906101000a900460ff16611f5e576040517f08c379a0000000000000000000000000000000000000000000000000000000008152600401611f5590613606565b60405180910390fd5b620186a083141561208457601160008573ffffffffffffffffffffffffffffffffffffffff1673ffffffffffffffffffffffffffffffffffffffff16815260200190815260200160002060405180604001604052806014600085815260200190815260200160002054815260200160175485611fda91906136cd565b81525090806001815401808255809150506001900390600052602060002090600202016000909190919091506000820151816000015560208201518160010155505060146000828152602001908152602001600020548473ffffffffffffffffffffffffffffffffffffffff167f313a9d642c1351d1278a845650cadc1ef0b321d6633f6b7d510963805d1f382c60016040516120779190613ee7565b60405180910390a361219b565b601060008573ffffffffffffffffffffffffffffffffffffffff1673ffffffffffffffffffffffffffffffffffffffff168152602001908152602001600020604051806040016040528060156000858152602001908152602001600020548152602001601754856120f591906136cd565b81525090806001815401808255809150506001900390600052602060002090600202016000909190919091506000820151816000015560208201518160010155505060156000828152602001908152602001600020548473ffffffffffffffffffffffffffffffffffffffff167f313a9d642c1351d1278a845650cadc1ef0b321d6633f6b7d510963805d1f382c60006040516121929190613f3d565b60405180910390a35b50505050565b8060198190555050565b600080600090506000601160003373ffffffffffffffffffffffffffffffffffffffff1673ffffffffffffffffffffffffffffffffffffffff168152602001908152602001600020805480602002602001604051908101604052809291908181526020016000905b8282101561225957838290600052602060002090600202016040518060400160405290816000820154815260200160018201548152505081526020019060010190612213565b50505050905060005b81518110156122e05760008282815181106122805761227f61369e565b5b602002602001015160000151141580156122b9575060008282815181106122aa576122a961369e565b5b60200260200101516020015114155b156122cd5782806122c990613655565b9350505b80806122d890613655565b915050612262565b50819250505090565b600080600090506000601260003373ffffffffffffffffffffffffffffffffffffffff1673ffffffffffffffffffffffffffffffffffffffff168152602001908152602001600020805480602002602001604051908101604052809291908181526020016000905b8282101561239757838290600052602060002090600202016040518060400160405290816000820154815260200160018201548152505081526020019060010190612351565b50505050905060005b815181101561240f5760008282815181106123be576123bd61369e565b5b602002602001015160200151146123fc578181815181106123e2576123e161369e565b5b602002602001015160000151836123f991906136cd565b92505b808061240790613655565b9150506123a0565b50819250505090565b6000601660003373ffffffffffffffffffffffffffffffffffffffff1673ffffffffffffffffffffffffffffffffffffffff16815260200190815260200160002060009054906101000a900460ff166124a6576040517f08c379a000000000000000000000000000000000000000000000000000000000815260040161249d90613606565b60405180910390fd5b6003547f000000000000000000000000000000000000000000000000000000000000000073ffffffffffffffffffffffffffffffffffffffff166370a08231306040518263ffffffff1660e01b81526004016125029190613027565b602060405180830381865afa15801561251f573d6000803e3d6000fd5b505050506040513d601f19601f820116820180604052508101906125439190613a43565b1015612584576040517f08c379a000000000000000000000000000000000000000000000000000000000815260040161257b90613fa4565b60405180910390fd5b6001600e60006101000a81548160ff021916908360028111156125aa576125a9613271565b5b02179055506125bd600254600354612de1565b905090565b6000600f60003373ffffffffffffffffffffffffffffffffffffffff1673ffffffffffffffffffffffffffffffffffffffff1681526020019081526020016000206000600c54815260200190815260200160002054905090565b600660009054906101000a900473ffffffffffffffffffffffffffffffffffffffff1673ffffffffffffffffffffffffffffffffffffffff163373ffffffffffffffffffffffffffffffffffffffff16146126ac576040517f08c379a00000000000000000000000000000000000000000000000000000000081526004016126a390613494565b60405180910390fd5b600073ffffffffffffffffffffffffffffffffffffffff168173ffffffffffffffffffffffffffffffffffffffff16141561271c576040517f08c379a000000000000000000000000000000000000000000000000000000000815260040161271390614036565b60405180910390fd5b61272581612f33565b50565b60085481565b600080600090506000601160003373ffffffffffffffffffffffffffffffffffffffff1673ffffffffffffffffffffffffffffffffffffffff168152602001908152602001600020805480602002602001604051908101604052809291908181526020016000905b828210156127dc57838290600052602060002090600202016040518060400160405290816000820154815260200160018201548152505081526020019060010190612796565b50505050905060005b81518110156128625760008282815181106128035761280261369e565b5b6020026020010151602001511415801561283b57504282828151811061282c5761282b61369e565b5b60200260200101516020015111155b1561284f57828061284b90613655565b9350505b808061285a90613655565b9150506127e5565b50819250505090565b60008062015180600854426128809190613b55565b61288a9190613b89565b9050601360008281526020019081526020016000205491505090565b600080600090506000601260003373ffffffffffffffffffffffffffffffffffffffff1673ffffffffffffffffffffffffffffffffffffffff168152602001908152602001600020805480602002602001604051908101604052809291908181526020016000905b828210156129545783829060005260206000209060020201604051806040016040529081600082015481526020016001820154815250508152602001906001019061290e565b50505050905060005b81518110156129f857600082828151811061297b5761297a61369e565b5b602002602001015160200151141580156129b35750428282815181106129a4576129a361369e565b5b60200260200101516020015111155b156129e5578181815181106129cb576129ca61369e565b5b602002602001015160000151836129e291906136cd565b92505b80806129f090613655565b91505061295d565b50819250505090565b6000806000905060008360ff161415612ba05760005b601060003373ffffffffffffffffffffffffffffffffffffffff1673ffffffffffffffffffffffffffffffffffffffff16815260200190815260200160002080549050811015612b9a576000601060003373ffffffffffffffffffffffffffffffffffffffff1673ffffffffffffffffffffffffffffffffffffffff1681526020019081526020016000208281548110612ab457612ab361369e565b5b90600052602060002090600202016040518060400160405290816000820154815260200160018201548152505090506000816020015114158015612afc575042816020015111155b15612b8657806000015183612b1191906136cd565b9250601060003373ffffffffffffffffffffffffffffffffffffffff1673ffffffffffffffffffffffffffffffffffffffff1681526020019081526020016000208281548110612b6457612b6361369e565b5b9060005260206000209060020201600080820160009055600182016000905550505b508080612b9290613655565b915050612a17565b50612d28565b60005b601160003373ffffffffffffffffffffffffffffffffffffffff1673ffffffffffffffffffffffffffffffffffffffff16815260200190815260200160002080549050811015612d26576000601160003373ffffffffffffffffffffffffffffffffffffffff1673ffffffffffffffffffffffffffffffffffffffff1681526020019081526020016000208281548110612c4057612c3f61369e565b5b90600052602060002090600202016040518060400160405290816000820154815260200160018201548152505090506000816020015114158015612c88575042816020015111155b15612d1257806000015183612c9d91906136cd565b9250601160003373ffffffffffffffffffffffffffffffffffffffff1673ffffffffffffffffffffffffffffffffffffffff1681526020019081526020016000208281548110612cf057612cef61369e565b5b9060005260206000209060020201600080820160009055600182016000905550505b508080612d1e90613655565b915050612ba3565b505b60008111612d6b576040517f08c379a0000000000000000000000000000000000000000000000000000000008152600401612d62906140a2565b60405180910390fd5b80915050919050565b806004819055506002600e60006101000a81548160ff02191690836002811115612da157612da0613271565b5b02179055507fdf03216c9a4e6e1afc1b15bb3558f3eb1258fc4396a3d1184dad0512c04e1a0242604051612dd591906130b9565b60405180910390a15050565b60007f000000000000000000000000000000000000000000000000000000000000000073ffffffffffffffffffffffffffffffffffffffff16634000aea07f000000000000000000000000000000000000000000000000000000000000000084866000604051602001612e559291906140c2565b6040516020818303038152906040526040518463ffffffff1660e01b8152600401612e8293929190614184565b6020604051808303816000875af1158015612ea1573d6000803e3d6000fd5b505050506040513d601f19601f82011682018060405250810190612ec59190613b28565b506000612ee8846000306001600089815260200190815260200160002054612f77565b9050600180600086815260200190815260200160002054612f0991906136cd565b6001600086815260200190815260200160002081905550612f2a8482612fb3565b91505092915050565b80600660006101000a81548173ffffffffffffffffffffffffffffffffffffffff021916908373ffffffffffffffffffffffffffffffffffffffff16021790555050565b600084848484604051602001612f9094939291906141c2565b6040516020818303038152906040528051906020012060001c9050949350505050565b60008282604051602001612fc8929190614228565b60405160208183030381529060405280519060200120905092915050565b600073ffffffffffffffffffffffffffffffffffffffff82169050919050565b600061301182612fe6565b9050919050565b61302181613006565b82525050565b600060208201905061303c6000830184613018565b92915050565b600080fd5b6000819050919050565b61305a81613047565b811461306557600080fd5b50565b60008135905061307781613051565b92915050565b60006020828403121561309357613092613042565b5b60006130a184828501613068565b91505092915050565b6130b381613047565b82525050565b60006020820190506130ce60008301846130aa565b92915050565b6130dd81613006565b81146130e857600080fd5b50565b6000813590506130fa816130d4565b92915050565b60008060006060848603121561311957613118613042565b5b6000613127868287016130eb565b935050602061313886828701613068565b925050604061314986828701613068565b9150509250925092565b600060ff82169050919050565b61316981613153565b811461317457600080fd5b50565b60008135905061318681613160565b92915050565b600080604083850312156131a3576131a2613042565b5b60006131b185828601613068565b92505060206131c285828601613177565b9150509250929050565b60008115159050919050565b6131e1816131cc565b81146131ec57600080fd5b50565b6000813590506131fe816131d8565b92915050565b6000806040838503121561321b5761321a613042565b5b6000613229858286016130eb565b925050602061323a858286016131ef565b9150509250929050565b60006020828403121561325a57613259613042565b5b600061326884828501613177565b91505092915050565b7f4e487b7100000000000000000000000000000000000000000000000000000000600052602160045260246000fd5b600381106132b1576132b0613271565b5b50565b60008190506132c2826132a0565b919050565b60006132d2826132b4565b9050919050565b6132e2816132c7565b82525050565b60006020820190506132fd60008301846132d9565b92915050565b60006020828403121561331957613318613042565b5b6000613327848285016130eb565b91505092915050565b6000819050919050565b61334381613330565b811461334e57600080fd5b50565b6000813590506133608161333a565b92915050565b6000806040838503121561337d5761337c613042565b5b600061338b85828601613351565b925050602061339c85828601613068565b9150509250929050565b600080600080608085870312156133c0576133bf613042565b5b60006133ce878288016130eb565b94505060206133df87828801613068565b93505060406133f087828801613068565b925050606061340187828801613068565b91505092959194509250565b61341681613330565b82525050565b6000602082019050613431600083018461340d565b92915050565b600082825260208201905092915050565b7f4f776e61626c653a204e6f74206f776e65720000000000000000000000000000600082015250565b600061347e601283613437565b915061348982613448565b602082019050919050565b600060208201905081810360008301526134ad81613471565b9050919050565b6000819050919050565b6134cf6134ca82613047565b6134b4565b82525050565b60008160601b9050919050565b60006134ed826134d5565b9050919050565b60006134ff826134e2565b9050919050565b61351761351282613006565b6134f4565b82525050565b600061352982866134be565b60208201915061353982856134be565b6020820191506135498284613506565b601482019150819050949350505050565b7f4e487b7100000000000000000000000000000000000000000000000000000000600052601260045260246000fd5b600061359482613047565b915061359f83613047565b9250826135af576135ae61355a565b5b828206905092915050565b7f4e6f742076616c69642074617267657400000000000000000000000000000000600082015250565b60006135f0601083613437565b91506135fb826135ba565b602082019050919050565b6000602082019050818103600083015261361f816135e3565b9050919050565b7f4e487b7100000000000000000000000000000000000000000000000000000000600052601160045260246000fd5b600061366082613047565b91507fffffffffffffffffffffffffffffffffffffffffffffffffffffffffffffffff82141561369357613692613626565b5b600182019050919050565b7f4e487b7100000000000000000000000000000000000000000000000000000000600052603260045260246000fd5b60006136d882613047565b91506136e383613047565b9250827fffffffffffffffffffffffffffffffffffffffffffffffffffffffffffffffff0382111561371857613717613626565b5b828201905092915050565b7f5265656e7472616e637947756172643a207265656e7472616e742063616c6c00600082015250565b6000613759601f83613437565b915061376482613723565b602082019050919050565b600060208201905081810360008301526137888161374c565b9050919050565b7f4e6f742074696d6520746f206275790000000000000000000000000000000000600082015250565b60006137c5600f83613437565b91506137d08261378f565b602082019050919050565b600060208201905081810360008301526137f4816137b8565b9050919050565b7f496e76616c6964207175616e7469747900000000000000000000000000000000600082015250565b6000613831601083613437565b915061383c826137fb565b602082019050919050565b6000602082019050818103600083015261386081613824565b9050919050565b7f4d6178696d756d207469636b657420616c6c6f77000000000000000000000000600082015250565b600061389d601483613437565b91506138a882613867565b602082019050919050565b600060208201905081810360008301526138cc81613890565b9050919050565b7f4f766572206c696d69746564207469636b657400000000000000000000000000600082015250565b6000613909601383613437565b9150613914826138d3565b602082019050919050565b60006020820190508181036000830152613938816138fc565b9050919050565b600061394a82613047565b915061395583613047565b9250817fffffffffffffffffffffffffffffffffffffffffffffffffffffffffffffffff048311821515161561398e5761398d613626565b5b828202905092915050565b7f4e6f7420656e6f7567682066656520424e420000000000000000000000000000600082015250565b60006139cf601283613437565b91506139da82613999565b602082019050919050565b600060208201905081810360008301526139fe816139c2565b9050919050565b6000604082019050613a1a6000830185613018565b613a276020830184613018565b9392505050565b600081519050613a3d81613051565b92915050565b600060208284031215613a5957613a58613042565b5b6000613a6784828501613a2e565b91505092915050565b7f4f76657220616c6c6f77616e6365205744410000000000000000000000000000600082015250565b6000613aa6601283613437565b9150613ab182613a70565b602082019050919050565b60006020820190508181036000830152613ad581613a99565b9050919050565b6000606082019050613af16000830186613018565b613afe6020830185613018565b613b0b60408301846130aa565b949350505050565b600081519050613b22816131d8565b92915050565b600060208284031215613b3e57613b3d613042565b5b6000613b4c84828501613b13565b91505092915050565b6000613b6082613047565b9150613b6b83613047565b925082821015613b7e57613b7d613626565b5b828203905092915050565b6000613b9482613047565b9150613b9f83613047565b925082613baf57613bae61355a565b5b828204905092915050565b600081905092915050565b50565b6000613bd5600083613bba565b9150613be082613bc5565b600082019050919050565b6000613bf682613bc8565b9150819050919050565b7f5472616e7366657220424e4220746f2073656c6c6572206661696c6564000000600082015250565b6000613c36601d83613437565b9150613c4182613c00565b602082019050919050565b60006020820190508181036000830152613c6581613c29565b9050919050565b6000606082019050613c8160008301866130aa565b613c8e60208301856130aa565b613c9b60408301846130aa565b949350505050565b7f50657263656e7461676520746f6f206269670000000000000000000000000000600082015250565b6000613cd9601283613437565b9150613ce482613ca3565b602082019050919050565b60006020820190508181036000830152613d0881613ccc565b9050919050565b7f4e6f6e65207469636b657420697320617661696c61626c6520746f20636c616960008201527f6d00000000000000000000000000000000000000000000000000000000000000602082015250565b6000613d6b602183613437565b9150613d7682613d0f565b604082019050919050565b60006020820190508181036000830152613d9a81613d5e565b9050919050565b6000604082019050613db66000830185613018565b613dc360208301846130aa565b9392505050565b7f4f6e6c7920565246436f6f7264696e61746f722063616e2066756c66696c6c00600082015250565b6000613e00601f83613437565b9150613e0b82613dca565b602082019050919050565b60006020820190508181036000830152613e2f81613df3565b9050919050565b7f4e6f6e65207469636b657420697320617661696c61626c650000000000000000600082015250565b6000613e6c601883613437565b9150613e7782613e36565b602082019050919050565b60006020820190508181036000830152613e9b81613e5f565b9050919050565b6000819050919050565b6000819050919050565b6000613ed1613ecc613ec784613ea2565b613eac565b613153565b9050919050565b613ee181613eb6565b82525050565b6000602082019050613efc6000830184613ed8565b92915050565b6000819050919050565b6000613f27613f22613f1d84613f02565b613eac565b613153565b9050919050565b613f3781613f0c565b82525050565b6000602082019050613f526000830184613f2e565b92915050565b7f4e6f7420656e6f75676820666565204c494e4b20696e20636f6e747261637400600082015250565b6000613f8e601f83613437565b9150613f9982613f58565b602082019050919050565b60006020820190508181036000830152613fbd81613f81565b9050919050565b7f4f776e61626c653a206e6577206f776e657220697320746865207a65726f206160008201527f6464726573730000000000000000000000000000000000000000000000000000602082015250565b6000614020602683613437565b915061402b82613fc4565b604082019050919050565b6000602082019050818103600083015261404f81614013565b9050919050565b7f5469636b6574206c6f636b656400000000000000000000000000000000000000600082015250565b600061408c600d83613437565b915061409782614056565b602082019050919050565b600060208201905081810360008301526140bb8161407f565b9050919050565b60006040820190506140d7600083018561340d565b6140e460208301846130aa565b9392505050565b600081519050919050565b600082825260208201905092915050565b60005b8381101561412557808201518184015260208101905061410a565b83811115614134576000848401525b50505050565b6000601f19601f8301169050919050565b6000614156826140eb565b61416081856140f6565b9350614170818560208601614107565b6141798161413a565b840191505092915050565b60006060820190506141996000830186613018565b6141a660208301856130aa565b81810360408301526141b8818461414b565b9050949350505050565b60006080820190506141d7600083018761340d565b6141e460208301866130aa565b6141f16040830185613018565b6141fe60608301846130aa565b95945050505050565b6000819050919050565b61422261421d82613330565b614207565b82525050565b60006142348285614211565b60208201915061424482846134be565b602082019150819050939250505056fea264697066735822122092cc8e36a9f332d198a4141ff74bb4f71ab1980604491eb9b2aa554e99524d6764736f6c634300080b0033",
  "immutableReferences": {
    "73": [
      {
        "length": 32,
        "start": 9387
      },
      {
        "length": 32,
        "start": 11749
      }
    ],
    "75": [
      {
        "length": 32,
        "start": 6478
      },
      {
        "length": 32,
        "start": 11809
      }
    ]
  },
  "source": "// SPDX-License-Identifier: MIT\r\npragma solidity ^0.8.11;\r\n\r\nimport \"@openzeppelin/contracts/token/ERC20/IERC20.sol\";\r\nimport \"@openzeppelin/contracts/security/ReentrancyGuard.sol\";\r\nimport \"@chainlink/contracts/src/v0.8/VRFConsumerBase.sol\";\r\n\r\ncontract LuckyTicketWDA is ReentrancyGuard, VRFConsumerBase {\r\n    bytes32 internal _keyHash =\r\n        0x6c3699283bda56ad74f6b855546325b68d482e983852a7a82979cc4807b641f4;\r\n    uint256 internal _fee = 0.1 * 10**18; // MAINNET CHANGE IT TO 0.2 LINK\r\n    uint256 _randomResult;\r\n\r\n    IERC20 WDAToken;\r\n    address private _owner;\r\n    address public DAOTreasuryWallet =\r\n        0x5B38Da6a701c568545dCfcB03FcB875f56beddC4;\r\n    uint256 constant maxTicketProvidePerDay = 50000;\r\n    uint256 public lastTimeCheck = block.timestamp;\r\n    uint256 public totalTicketSoldPerPeriod = 0; // maximum 50000 * 5 days = 250000\r\n    uint256 constant ownerTicketMaxCount = 50;\r\n    uint256 _feePerTicket = 0.0004 * 10**18; // BNB\r\n    uint256 _ticketCost = 1000 * 10**18; // WDA\r\n    uint256 currentSession = 0;\r\n    uint256 checkpointProposal;\r\n\r\n    enum ContractState {\r\n        NORMAL,\r\n        GETTING_RANDOM_NUMBER,\r\n        REWARDING_TICKET\r\n    }\r\n    ContractState public contractState = ContractState.NORMAL;\r\n\r\n    struct TicketReward {\r\n        uint256 amount;\r\n        uint256 claimableDate;\r\n    }\r\n\r\n    event BuyTicket(\r\n        address indexed buyer,\r\n        uint256 amount,\r\n        uint256 timestamp,\r\n        uint256 checkpoint\r\n    );\r\n    event TicketWin(\r\n        address indexed owner,\r\n        uint256 indexed amount,\r\n        uint8 ticketType\r\n    );\r\n    event RandomWinner(uint256 timestamp);\r\n\r\n    /**\r\n     * KOVAN Testnet\r\n     * VRF coordinator 0xdD3782915140c8f3b190B5D67eAc6dc5760C46E9\r\n     * LINK 0xa36085F69e2889c224210F603D836748e7dC0088\r\n     * keyHash 0x6c3699283bda56ad74f6b855546325b68d482e983852a7a82979cc4807b641f4\r\n     * More information https://docs.chain.link/docs/vrf-contracts/v1/\r\n     */\r\n\r\n    constructor(IERC20 _token)\r\n        VRFConsumerBase(\r\n            0xdD3782915140c8f3b190B5D67eAc6dc5760C46E9, // Coordinator\r\n            0xa36085F69e2889c224210F603D836748e7dC0088 // link\r\n        )\r\n    {\r\n        WDAToken = _token;\r\n        _owner = msg.sender;\r\n    }\r\n\r\n    // address user => session => amount\r\n    mapping(address => mapping(uint256 => uint256)) ownerTicketCount;\r\n    // player address => ticket reward amount\r\n    mapping(address => TicketReward[]) ownerWinningTicket5000WDA;\r\n    // player address => ticket reward amount\r\n    mapping(address => TicketReward[]) ownerWinningTicket100000WDA;\r\n    // address => ticket reward\r\n    mapping(address => TicketReward[]) ownerTicketReward;\r\n    // ticket each day\r\n    mapping(uint256 => uint256) ticketEachDay;\r\n    mapping(uint256 => uint256) checkpointToJackpot;\r\n    mapping(uint256 => uint256) checkpointToLucky;\r\n    mapping(address => bool) validTarget;\r\n\r\n    /**\r\n     * --------------- TEST ONLY -----------------\r\n     */\r\n    uint256 lockTime = 1800;\r\n    uint256 minimumPlayer = 100;\r\n\r\n    // minimum player la 100\r\n    function setMinimumPlayer(uint256 amount) external {\r\n        minimumPlayer = amount;\r\n    }\r\n\r\n    function setLockTime(uint256 time) external {\r\n        lockTime = time;\r\n    }\r\n\r\n    uint256 maxPercent = 10;\r\n\r\n    function setMaxPercentProposal(uint256 maxP) external {\r\n        maxPercent = maxP;\r\n    }\r\n\r\n    /** ------------- END OF TEST ONLY --------------- */\r\n\r\n    function withdrawWDAToDAOTreasury() external onlyOwner {\r\n        uint256 amount = WDAToken.balanceOf(address(this));\r\n        WDAToken.transfer(DAOTreasuryWallet, amount);\r\n    }\r\n\r\n    function setValidTarget(address target, bool permission)\r\n        external\r\n        onlyOwner\r\n    {\r\n        validTarget[target] = permission;\r\n    }\r\n\r\n    function initialize() external onlyOwner {\r\n        checkpointToJackpot[checkpointProposal] = 100000 * 10**18;\r\n        checkpointToLucky[checkpointProposal] = 5000 * 10**18;\r\n    }\r\n\r\n    /**\r\n     * @param percentChange: update percent proposal\r\n     * @param action: 0 deceasing, 1: increasting\r\n     */\r\n    function setProposal(uint256 percentChange, uint8 action)\r\n        external\r\n        onlyValidTarget\r\n    {\r\n        require(percentChange <= maxPercent, \"Percentage too big\");\r\n        uint256 prevCheckpointJackpot = checkpointToJackpot[checkpointProposal];\r\n        uint256 prevCheckpointLucky = checkpointToLucky[checkpointProposal];\r\n        checkpointProposal++;\r\n        if (action == 0) {\r\n            checkpointToJackpot[checkpointProposal] =\r\n                prevCheckpointJackpot -\r\n                ((prevCheckpointJackpot * percentChange) / 100);\r\n            checkpointToLucky[checkpointProposal] =\r\n                prevCheckpointLucky -\r\n                ((prevCheckpointLucky * percentChange) / 100);\r\n        } else {\r\n            checkpointToJackpot[checkpointProposal] =\r\n                prevCheckpointJackpot +\r\n                ((prevCheckpointJackpot * percentChange) / 100);\r\n            checkpointToLucky[checkpointProposal] =\r\n                prevCheckpointLucky +\r\n                ((prevCheckpointLucky * percentChange) / 100);\r\n        }\r\n    }\r\n\r\n    function getOwnerWinningTicket5000WDA() external view returns (uint256) {\r\n        uint256 count = 0;\r\n        TicketReward[] memory ownerReward = ownerWinningTicket5000WDA[\r\n            msg.sender\r\n        ];\r\n        for (uint256 i = 0; i < ownerReward.length; i++) {\r\n            if (\r\n                ownerReward[i].amount != 0 && ownerReward[i].claimableDate != 0\r\n            ) {\r\n                count++;\r\n            }\r\n        }\r\n        return count;\r\n    }\r\n\r\n    function getOwnerWinningTicket100000WDA() external view returns (uint256) {\r\n        uint256 count = 0;\r\n        TicketReward[] memory ownerReward = ownerWinningTicket100000WDA[\r\n            msg.sender\r\n        ];\r\n        for (uint256 i = 0; i < ownerReward.length; i++) {\r\n            if (\r\n                ownerReward[i].amount != 0 && ownerReward[i].claimableDate != 0\r\n            ) {\r\n                count++;\r\n            }\r\n        }\r\n        return count;\r\n    }\r\n\r\n    function getOwnerWinningTicket5000WDAAvailable()\r\n        external\r\n        view\r\n        returns (uint256)\r\n    {\r\n        uint256 amount = 0;\r\n        TicketReward[] memory ownerReward = ownerWinningTicket5000WDA[\r\n            msg.sender\r\n        ];\r\n        for (uint256 i = 0; i < ownerReward.length; i++) {\r\n            if (\r\n                ownerReward[i].claimableDate != 0 &&\r\n                ownerReward[i].claimableDate <= block.timestamp\r\n            ) {\r\n                amount++;\r\n            }\r\n        }\r\n        return amount;\r\n    }\r\n\r\n    function getOwnerWinningTicket100000WDAAvailable()\r\n        external\r\n        view\r\n        returns (uint256)\r\n    {\r\n        uint256 amount = 0;\r\n        TicketReward[] memory ownerReward = ownerWinningTicket100000WDA[\r\n            msg.sender\r\n        ];\r\n        for (uint256 i = 0; i < ownerReward.length; i++) {\r\n            if (\r\n                ownerReward[i].claimableDate != 0 &&\r\n                ownerReward[i].claimableDate <= block.timestamp\r\n            ) {\r\n                amount++;\r\n            }\r\n        }\r\n        return amount;\r\n    }\r\n\r\n    function getOwnerTicketReward() external view returns (uint256) {\r\n        uint256 amount = 0;\r\n        TicketReward[] memory ownerTicket = ownerTicketReward[msg.sender];\r\n        for (uint256 i = 0; i < ownerTicket.length; i++) {\r\n            if (ownerTicket[i].claimableDate != 0) {\r\n                amount += ownerTicket[i].amount;\r\n            }\r\n        }\r\n        return amount;\r\n    }\r\n\r\n    function getOwnerTicketRewardAvailable() external view returns (uint256) {\r\n        uint256 amount = 0;\r\n        TicketReward[] memory ownerTicket = ownerTicketReward[msg.sender];\r\n        for (uint256 i = 0; i < ownerTicket.length; i++) {\r\n            if (\r\n                ownerTicket[i].claimableDate != 0 &&\r\n                ownerTicket[i].claimableDate <= block.timestamp\r\n            ) {\r\n                amount += ownerTicket[i].amount;\r\n            }\r\n        }\r\n        return amount;\r\n    }\r\n\r\n    function getOwnerTicket() external view returns (uint256) {\r\n        return ownerTicketCount[msg.sender][currentSession];\r\n    }\r\n\r\n    function setDAOTreasuryWallet(address _newDAOTreasuryWallet)\r\n        external\r\n        onlyOwner\r\n    {\r\n        DAOTreasuryWallet = _newDAOTreasuryWallet;\r\n    }\r\n\r\n    function getFeePerTicket() external view returns (uint256) {\r\n        return _feePerTicket;\r\n    }\r\n\r\n    function setFeePerTicket(uint256 _newFeePerTicket) external onlyOwner {\r\n        _feePerTicket = _newFeePerTicket;\r\n    }\r\n\r\n    function payWinner(\r\n        address winner,\r\n        uint256 rewardAmount,\r\n        uint256 purchaseDate,\r\n        uint256 checkpoint\r\n    ) external onlyValidTarget {\r\n        if (rewardAmount == 100000) {\r\n            ownerWinningTicket100000WDA[winner].push(\r\n                TicketReward(\r\n                    checkpointToJackpot[checkpoint],\r\n                    purchaseDate + lockTime\r\n                )\r\n            );\r\n            emit TicketWin(winner, checkpointToJackpot[checkpoint], 1);\r\n        } else {\r\n            ownerWinningTicket5000WDA[winner].push(\r\n                TicketReward(\r\n                    checkpointToLucky[checkpoint],\r\n                    purchaseDate + lockTime\r\n                )\r\n            );\r\n            emit TicketWin(winner, checkpointToLucky[checkpoint], 0);\r\n        }\r\n    }\r\n\r\n    function rewardTicket(\r\n        address player,\r\n        uint256 purchaseDate,\r\n        uint256 amount\r\n    ) external onlyValidTarget {\r\n        ownerTicketReward[player].push(\r\n            TicketReward(amount, purchaseDate + lockTime)\r\n        );\r\n    }\r\n\r\n    function getTicketSoldPerDay() public view returns (uint256) {\r\n        uint256 currentDate = (block.timestamp - lastTimeCheck) / 1 days;\r\n        return ticketEachDay[currentDate];\r\n    }\r\n\r\n    function resetAllTicket() external onlyValidTarget {\r\n        currentSession++;\r\n        for (uint256 i = 0; i < 5; i++) {\r\n            ticketEachDay[i] = 0;\r\n        }\r\n        totalTicketSoldPerPeriod = 0;\r\n        lastTimeCheck = block.timestamp;\r\n        contractState = ContractState.NORMAL;\r\n    }\r\n\r\n    function getRandomNumber()\r\n        public\r\n        onlyValidTarget\r\n        returns (bytes32 requestId)\r\n    {\r\n        require(\r\n            LINK.balanceOf(address(this)) >= _fee,\r\n            \"Not enough fee LINK in contract\"\r\n        );\r\n        contractState = ContractState.GETTING_RANDOM_NUMBER;\r\n        return requestRandomness(_keyHash, _fee);\r\n    }\r\n\r\n    function fulfillRandomness(bytes32, uint256 randomness) internal override {\r\n        _randomResult = randomness;\r\n        contractState = ContractState.REWARDING_TICKET;\r\n        emit RandomWinner(block.timestamp);\r\n    }\r\n\r\n    function generateRandomNum(uint256 mod) public view returns (uint256) {\r\n        uint256 randomNumber = uint256(\r\n            keccak256(\r\n                abi.encodePacked(_randomResult, block.timestamp, msg.sender)\r\n            )\r\n        );\r\n        return randomNumber % mod;\r\n    }\r\n\r\n    function _calculateReward(uint8 ticketType) internal returns (uint256) {\r\n        uint256 earned = 0;\r\n        if (ticketType == 0) {\r\n            for (\r\n                uint256 i = 0;\r\n                i < ownerWinningTicket5000WDA[msg.sender].length;\r\n                i++\r\n            ) {\r\n                TicketReward memory reward = ownerWinningTicket5000WDA[\r\n                    msg.sender\r\n                ][i];\r\n                if (\r\n                    reward.claimableDate != 0 &&\r\n                    reward.claimableDate <= block.timestamp\r\n                ) {\r\n                    earned += reward.amount;\r\n                    delete ownerWinningTicket5000WDA[msg.sender][i];\r\n                }\r\n            }\r\n        } else {\r\n            for (\r\n                uint256 i = 0;\r\n                i < ownerWinningTicket100000WDA[msg.sender].length;\r\n                i++\r\n            ) {\r\n                TicketReward memory reward = ownerWinningTicket100000WDA[\r\n                    msg.sender\r\n                ][i];\r\n                if (\r\n                    reward.claimableDate != 0 &&\r\n                    reward.claimableDate <= block.timestamp\r\n                ) {\r\n                    earned += reward.amount;\r\n                    delete ownerWinningTicket100000WDA[msg.sender][i];\r\n                }\r\n            }\r\n        }\r\n        require(earned > 0, \"Ticket locked\");\r\n        return earned;\r\n    }\r\n\r\n    function claimCoin(uint8 _ticketType) external {\r\n        // _ticketType: 0: 5000, 1: 100000\r\n        if (_ticketType == 0) {\r\n            require(\r\n                ownerWinningTicket5000WDA[msg.sender].length > 0,\r\n                \"None ticket is available to claim\"\r\n            );\r\n        } else {\r\n            require(\r\n                ownerWinningTicket100000WDA[msg.sender].length > 0,\r\n                \"None ticket is available to claim\"\r\n            );\r\n        }\r\n        uint256 _earned = _calculateReward(_ticketType);\r\n        WDAToken.transfer(msg.sender, _earned);\r\n    }\r\n\r\n    function claimReward() external {\r\n        TicketReward[] memory ownerReward = ownerTicketReward[msg.sender];\r\n        require(ownerReward.length > 0, \"None ticket is available\");\r\n        uint256 count = 0;\r\n        for (uint256 i = 0; i < ownerReward.length; i++) {\r\n            if (\r\n                ownerReward[i].amount != 0 &&\r\n                ownerReward[i].claimableDate != 0 &&\r\n                ownerReward[i].claimableDate <= block.timestamp\r\n            ) {\r\n                delete ownerTicketReward[msg.sender][i];\r\n                count += ownerReward[i].amount;\r\n            }\r\n        }\r\n        WDAToken.transfer(msg.sender, count * _ticketCost);\r\n    }\r\n\r\n    function buyTicket(uint256 _quantity) external payable nonReentrant {\r\n        require(contractState == ContractState.NORMAL, \"Not time to buy\");\r\n        require(_quantity > 0, \"Invalid quantity\");\r\n        // check maximum ticket allow of each user\r\n        require(\r\n            ownerTicketCount[msg.sender][currentSession] + _quantity <=\r\n                ownerTicketMaxCount,\r\n            \"Maximum ticket allow\"\r\n        );\r\n        // check quantity provide per day\r\n        require(\r\n            _quantity + getTicketSoldPerDay() <= maxTicketProvidePerDay,\r\n            \"Over limited ticket\"\r\n        );\r\n        // check fee\r\n        uint256 _totalFeeBNB = _quantity * _feePerTicket;\r\n        require(msg.value >= _totalFeeBNB, \"Not enough fee BNB\");\r\n        // check allowance\r\n        uint256 _totalFeeWDA = _quantity * _ticketCost;\r\n        uint256 allowance = WDAToken.allowance(msg.sender, address(this));\r\n        require(allowance >= _totalFeeWDA, \"Over allowance WDA\");\r\n        WDAToken.transferFrom(\r\n            msg.sender,\r\n            address(this),\r\n            _totalFeeWDA // send ticket cost only to address(this)\r\n        );\r\n        totalTicketSoldPerPeriod += _quantity;\r\n        uint256 currentDate = (block.timestamp - lastTimeCheck) / 1 days;\r\n        ownerTicketCount[msg.sender][currentSession] += _quantity;\r\n        ticketEachDay[currentDate] += _quantity;\r\n\r\n        // send fee per ticket (BNB) to DAO treasury\r\n        (bool sent, ) = payable(DAOTreasuryWallet).call{value: _totalFeeBNB}(\r\n            \"\"\r\n        );\r\n        require(sent, \"Transfer BNB to seller failed\");\r\n        emit BuyTicket(\r\n            msg.sender,\r\n            _quantity,\r\n            block.timestamp,\r\n            checkpointProposal\r\n        );\r\n    }\r\n\r\n    /**\r\n     * @dev Transfers ownership of the contract to a new account (`newOwner`).\r\n     * Can only be called by the current owner.\r\n     */\r\n    function transferOwnership(address newOwner) public virtual onlyOwner {\r\n        require(\r\n            newOwner != address(0),\r\n            \"Ownable: new owner is the zero address\"\r\n        );\r\n        _transferOwnership(newOwner);\r\n    }\r\n\r\n    /**\r\n     * @dev Transfers ownership of the contract to a new account (`newOwner`).\r\n     * Internal function without access restriction.\r\n     */\r\n    function _transferOwnership(address newOwner) internal virtual {\r\n        _owner = newOwner;\r\n    }\r\n\r\n    modifier onlyValidTarget() {\r\n        require(validTarget[msg.sender], \"Not valid target\");\r\n        _;\r\n    }\r\n\r\n    modifier onlyOwner() {\r\n        require(msg.sender == _owner, \"Ownable: Not owner\");\r\n        _;\r\n    }\r\n}\r\n",
  "sourcePath": "C:\\Github\\Dao\\Develop\\Blockchain\\dao-project\\contracts\\LuckyTicket\\LuckyTicketWDA.sol",
  "compiler": {
    "name": "solc",
    "version": "0.8.11+commit.d7f03943.Emscripten.clang"
  },
  "schemaVersion": "3.4.7",
  "updatedAt": "2022-06-23T10:13:52.665Z",
  "devdoc": {
    "kind": "dev",
    "methods": {
      "setProposal(uint256,uint8)": {
        "params": {
          "action": ": 0 deceasing, 1: increasting",
          "percentChange": ": update percent proposal"
        }
      },
      "transferOwnership(address)": {
        "details": "Transfers ownership of the contract to a new account (`newOwner`). Can only be called by the current owner."
      }
    },
    "version": 1
  },
  "userdoc": {
    "kind": "user",
    "methods": {
      "constructor": {
        "notice": "KOVAN Testnet VRF coordinator 0xdD3782915140c8f3b190B5D67eAc6dc5760C46E9 LINK 0xa36085F69e2889c224210F603D836748e7dC0088 keyHash 0x6c3699283bda56ad74f6b855546325b68d482e983852a7a82979cc4807b641f4 More information https://docs.chain.link/docs/vrf-contracts/v1/"
      },
      "withdrawWDAToDAOTreasury()": {
        "notice": "------------- END OF TEST ONLY --------------- "
      }
    },
    "version": 1
  }
}