{
  "contractName": "Market",
  "abi": [
    {
      "inputs": [],
      "stateMutability": "nonpayable",
      "type": "constructor"
    },
    {
      "anonymous": false,
      "inputs": [
        {
          "indexed": true,
          "internalType": "uint256",
          "name": "itemId",
          "type": "uint256"
        },
        {
          "indexed": true,
          "internalType": "uint256",
          "name": "tokenId",
          "type": "uint256"
        },
        {
          "indexed": false,
          "internalType": "uint256",
          "name": "quantity",
          "type": "uint256"
        },
        {
          "indexed": false,
          "internalType": "uint256",
          "name": "price",
          "type": "uint256"
        },
        {
          "indexed": false,
          "internalType": "address",
          "name": "seller",
          "type": "address"
        },
        {
          "indexed": false,
          "internalType": "address",
          "name": "buyer",
          "type": "address"
        }
      ],
      "name": "BuyMarketItem",
      "type": "event"
    },
    {
      "anonymous": false,
      "inputs": [
        {
          "indexed": true,
          "internalType": "uint256",
          "name": "itemId",
          "type": "uint256"
        },
        {
          "indexed": true,
          "internalType": "uint256",
          "name": "tokenId",
          "type": "uint256"
        },
        {
          "indexed": false,
          "internalType": "address",
          "name": "seller",
          "type": "address"
        },
        {
          "indexed": false,
          "internalType": "uint256",
          "name": "price",
          "type": "uint256"
        },
        {
          "indexed": false,
          "internalType": "uint256",
          "name": "quantity",
          "type": "uint256"
        }
      ],
      "name": "MarketItemCreated",
      "type": "event"
    },
    {
      "anonymous": false,
      "inputs": [
        {
          "indexed": true,
          "internalType": "uint256",
          "name": "itemId",
          "type": "uint256"
        },
        {
          "indexed": true,
          "internalType": "uint256",
          "name": "tokenId",
          "type": "uint256"
        },
        {
          "indexed": false,
          "internalType": "address",
          "name": "owner",
          "type": "address"
        }
      ],
      "name": "WithdrawItem",
      "type": "event"
    },
    {
      "inputs": [
        {
          "internalType": "bytes4",
          "name": "interfaceId",
          "type": "bytes4"
        }
      ],
      "name": "supportsInterface",
      "outputs": [
        {
          "internalType": "bool",
          "name": "",
          "type": "bool"
        }
      ],
      "stateMutability": "view",
      "type": "function",
      "constant": true
    },
    {
      "inputs": [
        {
          "internalType": "address",
          "name": "",
          "type": "address"
        },
        {
          "internalType": "address",
          "name": "",
          "type": "address"
        },
        {
          "internalType": "uint256",
          "name": "",
          "type": "uint256"
        },
        {
          "internalType": "bytes",
          "name": "",
          "type": "bytes"
        }
      ],
      "name": "onERC721Received",
      "outputs": [
        {
          "internalType": "bytes4",
          "name": "",
          "type": "bytes4"
        }
      ],
      "stateMutability": "nonpayable",
      "type": "function"
    },
    {
      "inputs": [
        {
          "internalType": "address",
          "name": "",
          "type": "address"
        },
        {
          "internalType": "address",
          "name": "",
          "type": "address"
        },
        {
          "internalType": "uint256",
          "name": "",
          "type": "uint256"
        },
        {
          "internalType": "uint256",
          "name": "",
          "type": "uint256"
        },
        {
          "internalType": "bytes",
          "name": "",
          "type": "bytes"
        }
      ],
      "name": "onERC1155Received",
      "outputs": [
        {
          "internalType": "bytes4",
          "name": "",
          "type": "bytes4"
        }
      ],
      "stateMutability": "pure",
      "type": "function",
      "constant": true
    },
    {
      "inputs": [
        {
          "internalType": "address",
          "name": "",
          "type": "address"
        },
        {
          "internalType": "address",
          "name": "",
          "type": "address"
        },
        {
          "internalType": "uint256[]",
          "name": "",
          "type": "uint256[]"
        },
        {
          "internalType": "uint256[]",
          "name": "",
          "type": "uint256[]"
        },
        {
          "internalType": "bytes",
          "name": "",
          "type": "bytes"
        }
      ],
      "name": "onERC1155BatchReceived",
      "outputs": [
        {
          "internalType": "bytes4",
          "name": "",
          "type": "bytes4"
        }
      ],
      "stateMutability": "pure",
      "type": "function",
      "constant": true
    },
    {
      "inputs": [
        {
          "internalType": "address",
          "name": "_newAddress",
          "type": "address"
        }
      ],
      "name": "setCrownContract",
      "outputs": [],
      "stateMutability": "nonpayable",
      "type": "function"
    },
    {
      "inputs": [
        {
          "internalType": "address",
          "name": "_newAddress",
          "type": "address"
        }
      ],
      "name": "setScepterContract",
      "outputs": [],
      "stateMutability": "nonpayable",
      "type": "function"
    },
    {
      "inputs": [
        {
          "internalType": "address",
          "name": "_newAddress",
          "type": "address"
        }
      ],
      "name": "setDAOTreasuryWallet",
      "outputs": [],
      "stateMutability": "nonpayable",
      "type": "function"
    },
    {
      "inputs": [
        {
          "internalType": "uint256",
          "name": "tokenId",
          "type": "uint256"
        },
        {
          "internalType": "uint256",
          "name": "price",
          "type": "uint256"
        },
        {
          "internalType": "uint256",
          "name": "quantity",
          "type": "uint256"
        },
        {
          "internalType": "uint8",
          "name": "nftType",
          "type": "uint8"
        }
      ],
      "name": "createMarketItem",
      "outputs": [],
      "stateMutability": "nonpayable",
      "type": "function"
    },
    {
      "inputs": [
        {
          "internalType": "uint256",
          "name": "itemIndex",
          "type": "uint256"
        }
      ],
      "name": "buyMarketItem",
      "outputs": [],
      "stateMutability": "payable",
      "type": "function",
      "payable": true
    },
    {
      "inputs": [
        {
          "internalType": "uint256",
          "name": "itemId",
          "type": "uint256"
        }
      ],
      "name": "withdrawNFT",
      "outputs": [],
      "stateMutability": "nonpayable",
      "type": "function"
    },
    {
      "inputs": [
        {
          "internalType": "address",
          "name": "newOwner",
          "type": "address"
        }
      ],
      "name": "transferOwnership",
      "outputs": [],
      "stateMutability": "nonpayable",
      "type": "function"
    }
  ],
  "bytecode": "0x608060405273d2a859a8f31f811b962556e0730c3e7bf45a7ed2600160006101000a81548173ffffffffffffffffffffffffffffffffffffffff021916908373ffffffffffffffffffffffffffffffffffffffff16021790555034801561006557600080fd5b5033600260006101000a81548173ffffffffffffffffffffffffffffffffffffffff021916908373ffffffffffffffffffffffffffffffffffffffff160217905550612228806100b66000396000f3fe60806040526004361061009c5760003560e01c80634abf9aa3116100645780634abf9aa3146101895780635b39e2b5146101b25780638d5c128c146101db578063bc197c8114610204578063f23a6e6114610241578063f2fde38b1461027e5761009c565b806301ffc9a7146100a1578063023245d7146100de578063150b7a0214610107578063351901c3146101445780633f503fa914610160575b600080fd5b3480156100ad57600080fd5b506100c860048036038101906100c39190611335565b6102a7565b6040516100d5919061137d565b60405180910390f35b3480156100ea57600080fd5b50610105600480360381019061010091906113ce565b610321565b005b34801561011357600080fd5b5061012e6004803603810190610129919061159f565b61064d565b60405161013b9190611631565b60405180910390f35b61015e600480360381019061015991906113ce565b610661565b005b34801561016c57600080fd5b5061018760048036038101906101829190611685565b610b59565b005b34801561019557600080fd5b506101b060048036038101906101ab91906116ec565b610f2b565b005b3480156101be57600080fd5b506101d960048036038101906101d491906116ec565b610f6f565b005b3480156101e757600080fd5b5061020260048036038101906101fd91906116ec565b610fb3565b005b34801561021057600080fd5b5061022b600480360381019061022691906117cf565b611089565b6040516102389190611631565b60405180910390f35b34801561024d57600080fd5b50610268600480360381019061026391906118ab565b6110ba565b6040516102759190611631565b60405180910390f35b34801561028a57600080fd5b506102a560048036038101906102a091906116ec565b6110e9565b005b60007f4e2312e0000000000000000000000000000000000000000000000000000000007bffffffffffffffffffffffffffffffffffffffffffffffffffffffff1916827bffffffffffffffffffffffffffffffffffffffffffffffffffffffff1916148061031a5750610319826111f7565b5b9050919050565b6005600082815260200190815260200160002060020160009054906101000a900473ffffffffffffffffffffffffffffffffffffffff168073ffffffffffffffffffffffffffffffffffffffff163373ffffffffffffffffffffffffffffffffffffffff16146103c6576040517f08c379a00000000000000000000000000000000000000000000000000000000081526004016103bd906119a2565b60405180910390fd5b6000600560008481526020019081526020016000206040518060a001604052908160008201548152602001600182015481526020016002820160009054906101000a900473ffffffffffffffffffffffffffffffffffffffff1673ffffffffffffffffffffffffffffffffffffffff1673ffffffffffffffffffffffffffffffffffffffff1681526020016003820154815260200160048201548152505090506005600084815260200190815260200160002060008082016000905560018201600090556002820160006101000a81549073ffffffffffffffffffffffffffffffffffffffff021916905560038201600090556004820160009055505060018160800151111561056d57600460009054906101000a900473ffffffffffffffffffffffffffffffffffffffff1673ffffffffffffffffffffffffffffffffffffffff1663f242432a3033600085608001516040518563ffffffff1660e01b81526004016105369493929190611a5c565b600060405180830381600087803b15801561055057600080fd5b505af1158015610564573d6000803e3d6000fd5b50505050610603565b600360009054906101000a900473ffffffffffffffffffffffffffffffffffffffff1673ffffffffffffffffffffffffffffffffffffffff166323b872dd303384602001516040518463ffffffff1660e01b81526004016105d093929190611ab4565b600060405180830381600087803b1580156105ea57600080fd5b505af11580156105fe573d6000803e3d6000fd5b505050505b806020015181600001517ff14a9cbe01fc845847526300acd057416c171aa3034b4ea54f4f1a412c284a7183604001516040516106409190611b40565b60405180910390a3505050565b600063150b7a0260e01b9050949350505050565b6000600560008381526020019081526020016000206040518060a001604052908160008201548152602001600182015481526020016002820160009054906101000a900473ffffffffffffffffffffffffffffffffffffffff1673ffffffffffffffffffffffffffffffffffffffff1673ffffffffffffffffffffffffffffffffffffffff1681526020016003820154815260200160048201548152505090503373ffffffffffffffffffffffffffffffffffffffff16816040015173ffffffffffffffffffffffffffffffffffffffff161415610774576040517f08c379a000000000000000000000000000000000000000000000000000000000815260040161076b90611ba7565b60405180910390fd5b600081606001519050803410156107c0576040517f08c379a00000000000000000000000000000000000000000000000000000000081526004016107b790611c39565b60405180910390fd5b600060646005836107d19190611c88565b6107db9190611d11565b90506000836080015190506000846020015190506000856040015173ffffffffffffffffffffffffffffffffffffffff1684866108189190611d42565b60405161082490611da4565b60006040518083038185875af1925050503d8060008114610861576040519150601f19603f3d011682016040523d82523d6000602084013e610866565b606091505b50509050806108aa576040517f08c379a00000000000000000000000000000000000000000000000000000000081526004016108a190611e05565b60405180910390fd5b6000600160009054906101000a900473ffffffffffffffffffffffffffffffffffffffff1673ffffffffffffffffffffffffffffffffffffffff16856040516108f290611da4565b60006040518083038185875af1925050503d806000811461092f576040519150601f19603f3d011682016040523d82523d6000602084013e610934565b606091505b5050905080610978576040517f08c379a000000000000000000000000000000000000000000000000000000000815260040161096f90611e97565b60405180910390fd5b6005600089815260200190815260200160002060008082016000905560018201600090556002820160006101000a81549073ffffffffffffffffffffffffffffffffffffffff02191690556003820160009055600482016000905550506001841115610a7657600460009054906101000a900473ffffffffffffffffffffffffffffffffffffffff1673ffffffffffffffffffffffffffffffffffffffff1663f242432a303386886040518563ffffffff1660e01b8152600401610a3f9493929190611eb7565b600060405180830381600087803b158015610a5957600080fd5b505af1158015610a6d573d6000803e3d6000fd5b50505050610b08565b600360009054906101000a900473ffffffffffffffffffffffffffffffffffffffff1673ffffffffffffffffffffffffffffffffffffffff166323b872dd3033866040518463ffffffff1660e01b8152600401610ad593929190611ab4565b600060405180830381600087803b158015610aef57600080fd5b505af1158015610b03573d6000803e3d6000fd5b505050505b8287600001517f13d9025911af360f78af66e6d8d93d471e1960036cd1be34af1f2da6682c6f8b86898b6040015133604051610b479493929190611f0f565b60405180910390a35050505050505050565b60008311610b9c576040517f08c379a0000000000000000000000000000000000000000000000000000000008152600401610b9390611fa0565b60405180910390fd5b60008160ff161415610d65576064821015610bec576040517f08c379a0000000000000000000000000000000000000000000000000000000008152600401610be390612032565b60405180910390fd5b81600460009054906101000a900473ffffffffffffffffffffffffffffffffffffffff1673ffffffffffffffffffffffffffffffffffffffff1662fdd58e3360006040518363ffffffff1660e01b8152600401610c4a929190612052565b602060405180830381865afa158015610c67573d6000803e3d6000fd5b505050506040513d601f19601f82011682018060405250810190610c8b9190612090565b1015610ccc576040517f08c379a0000000000000000000000000000000000000000000000000000000008152600401610cc390612109565b60405180910390fd5b600460009054906101000a900473ffffffffffffffffffffffffffffffffffffffff1673ffffffffffffffffffffffffffffffffffffffff1663f242432a33306000866040518563ffffffff1660e01b8152600401610d2e9493929190611a5c565b600060405180830381600087803b158015610d4857600080fd5b505af1158015610d5c573d6000803e3d6000fd5b50505050610df7565b600360009054906101000a900473ffffffffffffffffffffffffffffffffffffffff1673ffffffffffffffffffffffffffffffffffffffff166323b872dd3330876040518463ffffffff1660e01b8152600401610dc493929190611ab4565b600060405180830381600087803b158015610dde57600080fd5b505af1158015610df2573d6000803e3d6000fd5b505050505b610e016000611261565b6000610e0d6000611277565b90506040518060a001604052808281526020018681526020013373ffffffffffffffffffffffffffffffffffffffff1681526020018585610e4e9190611c88565b81526020018481525060056000838152602001908152602001600020600082015181600001556020820151816001015560408201518160020160006101000a81548173ffffffffffffffffffffffffffffffffffffffff021916908373ffffffffffffffffffffffffffffffffffffffff160217905550606082015181600301556080820151816004015590505084817f117136b53832b5e8bbde1e9e2b7e283939a09b780c150657c0fb8f2d9fff2147338787610f0c9190611c88565b87604051610f1c93929190612129565b60405180910390a35050505050565b80600460006101000a81548173ffffffffffffffffffffffffffffffffffffffff021916908373ffffffffffffffffffffffffffffffffffffffff16021790555050565b80600360006101000a81548173ffffffffffffffffffffffffffffffffffffffff021916908373ffffffffffffffffffffffffffffffffffffffff16021790555050565b600260009054906101000a900473ffffffffffffffffffffffffffffffffffffffff168073ffffffffffffffffffffffffffffffffffffffff163373ffffffffffffffffffffffffffffffffffffffff1614611044576040517f08c379a000000000000000000000000000000000000000000000000000000000815260040161103b906119a2565b60405180910390fd5b81600160006101000a81548173ffffffffffffffffffffffffffffffffffffffff021916908373ffffffffffffffffffffffffffffffffffffffff1602179055505050565b60007fbc197c819b3e337a6f9652dd10becd7eef83032af3b9d958d3d42f6694146621905098975050505050505050565b60007ff23a6e612e1ff4830e658fe43f4e3cb4a5f8170bd5d9e69fb5d7a7fa9e4fdf9790509695505050505050565b600260009054906101000a900473ffffffffffffffffffffffffffffffffffffffff168073ffffffffffffffffffffffffffffffffffffffff163373ffffffffffffffffffffffffffffffffffffffff161461117a576040517f08c379a0000000000000000000000000000000000000000000000000000000008152600401611171906119a2565b60405180910390fd5b600073ffffffffffffffffffffffffffffffffffffffff168273ffffffffffffffffffffffffffffffffffffffff1614156111ea576040517f08c379a00000000000000000000000000000000000000000000000000000000081526004016111e1906121d2565b60405180910390fd5b6111f382611285565b5050565b60007f01ffc9a7000000000000000000000000000000000000000000000000000000007bffffffffffffffffffffffffffffffffffffffffffffffffffffffff1916827bffffffffffffffffffffffffffffffffffffffffffffffffffffffff1916149050919050565b6001816000016000828254019250508190555050565b600081600001549050919050565b80600260006101000a81548173ffffffffffffffffffffffffffffffffffffffff021916908373ffffffffffffffffffffffffffffffffffffffff16021790555050565b6000604051905090565b600080fd5b600080fd5b60007fffffffff0000000000000000000000000000000000000000000000000000000082169050919050565b611312816112dd565b811461131d57600080fd5b50565b60008135905061132f81611309565b92915050565b60006020828403121561134b5761134a6112d3565b5b600061135984828501611320565b91505092915050565b60008115159050919050565b61137781611362565b82525050565b6000602082019050611392600083018461136e565b92915050565b6000819050919050565b6113ab81611398565b81146113b657600080fd5b50565b6000813590506113c8816113a2565b92915050565b6000602082840312156113e4576113e36112d3565b5b60006113f2848285016113b9565b91505092915050565b600073ffffffffffffffffffffffffffffffffffffffff82169050919050565b6000611426826113fb565b9050919050565b6114368161141b565b811461144157600080fd5b50565b6000813590506114538161142d565b92915050565b600080fd5b600080fd5b6000601f19601f8301169050919050565b7f4e487b7100000000000000000000000000000000000000000000000000000000600052604160045260246000fd5b6114ac82611463565b810181811067ffffffffffffffff821117156114cb576114ca611474565b5b80604052505050565b60006114de6112c9565b90506114ea82826114a3565b919050565b600067ffffffffffffffff82111561150a57611509611474565b5b61151382611463565b9050602081019050919050565b82818337600083830152505050565b600061154261153d846114ef565b6114d4565b90508281526020810184848401111561155e5761155d61145e565b5b611569848285611520565b509392505050565b600082601f83011261158657611585611459565b5b813561159684826020860161152f565b91505092915050565b600080600080608085870312156115b9576115b86112d3565b5b60006115c787828801611444565b94505060206115d887828801611444565b93505060406115e9878288016113b9565b925050606085013567ffffffffffffffff81111561160a576116096112d8565b5b61161687828801611571565b91505092959194509250565b61162b816112dd565b82525050565b60006020820190506116466000830184611622565b92915050565b600060ff82169050919050565b6116628161164c565b811461166d57600080fd5b50565b60008135905061167f81611659565b92915050565b6000806000806080858703121561169f5761169e6112d3565b5b60006116ad878288016113b9565b94505060206116be878288016113b9565b93505060406116cf878288016113b9565b92505060606116e087828801611670565b91505092959194509250565b600060208284031215611702576117016112d3565b5b600061171084828501611444565b91505092915050565b600080fd5b600080fd5b60008083601f84011261173957611738611459565b5b8235905067ffffffffffffffff81111561175657611755611719565b5b6020830191508360208202830111156117725761177161171e565b5b9250929050565b60008083601f84011261178f5761178e611459565b5b8235905067ffffffffffffffff8111156117ac576117ab611719565b5b6020830191508360018202830111156117c8576117c761171e565b5b9250929050565b60008060008060008060008060a0898b0312156117ef576117ee6112d3565b5b60006117fd8b828c01611444565b985050602061180e8b828c01611444565b975050604089013567ffffffffffffffff81111561182f5761182e6112d8565b5b61183b8b828c01611723565b9650965050606089013567ffffffffffffffff81111561185e5761185d6112d8565b5b61186a8b828c01611723565b9450945050608089013567ffffffffffffffff81111561188d5761188c6112d8565b5b6118998b828c01611779565b92509250509295985092959890939650565b60008060008060008060a087890312156118c8576118c76112d3565b5b60006118d689828a01611444565b96505060206118e789828a01611444565b95505060406118f889828a016113b9565b945050606061190989828a016113b9565b935050608087013567ffffffffffffffff81111561192a576119296112d8565b5b61193689828a01611779565b92509250509295509295509295565b600082825260208201905092915050565b7f4f776e61626c653a204e6f74206f776e65720000000000000000000000000000600082015250565b600061198c601283611945565b915061199782611956565b602082019050919050565b600060208201905081810360008301526119bb8161197f565b9050919050565b6119cb8161141b565b82525050565b6000819050919050565b6000819050919050565b6000611a006119fb6119f6846119d1565b6119db565b611398565b9050919050565b611a10816119e5565b82525050565b611a1f81611398565b82525050565b600082825260208201905092915050565b50565b6000611a46600083611a25565b9150611a5182611a36565b600082019050919050565b600060a082019050611a7160008301876119c2565b611a7e60208301866119c2565b611a8b6040830185611a07565b611a986060830184611a16565b8181036080830152611aa981611a39565b905095945050505050565b6000606082019050611ac960008301866119c2565b611ad660208301856119c2565b611ae36040830184611a16565b949350505050565b6000611b06611b01611afc846113fb565b6119db565b6113fb565b9050919050565b6000611b1882611aeb565b9050919050565b6000611b2a82611b0d565b9050919050565b611b3a81611b1f565b82525050565b6000602082019050611b556000830184611b31565b92915050565b7f43616e206e6f742062757920796f7572206974656d0000000000000000000000600082015250565b6000611b91601583611945565b9150611b9c82611b5b565b602082019050919050565b60006020820190508181036000830152611bc081611b84565b9050919050565b7f506c65617365207375626d6974207468652061736b696e67207072696365206960008201527f6e206f7264657220746f20636f6d706c65746520746865207075726368617365602082015250565b6000611c23604083611945565b9150611c2e82611bc7565b604082019050919050565b60006020820190508181036000830152611c5281611c16565b9050919050565b7f4e487b7100000000000000000000000000000000000000000000000000000000600052601160045260246000fd5b6000611c9382611398565b9150611c9e83611398565b9250817fffffffffffffffffffffffffffffffffffffffffffffffffffffffffffffffff0483118215151615611cd757611cd6611c59565b5b828202905092915050565b7f4e487b7100000000000000000000000000000000000000000000000000000000600052601260045260246000fd5b6000611d1c82611398565b9150611d2783611398565b925082611d3757611d36611ce2565b5b828204905092915050565b6000611d4d82611398565b9150611d5883611398565b925082821015611d6b57611d6a611c59565b5b828203905092915050565b600081905092915050565b6000611d8e600083611d76565b9150611d9982611a36565b600082019050919050565b6000611daf82611d81565b9150819050919050565b7f5472616e7366657220424e4220746f2073656c6c6572206661696c6564000000600082015250565b6000611def601d83611945565b9150611dfa82611db9565b602082019050919050565b60006020820190508181036000830152611e1e81611de2565b9050919050565b7f5472616e7366657220424e4220746f2044414f2054726561737572792066616960008201527f6c65640000000000000000000000000000000000000000000000000000000000602082015250565b6000611e81602383611945565b9150611e8c82611e25565b604082019050919050565b60006020820190508181036000830152611eb081611e74565b9050919050565b600060a082019050611ecc60008301876119c2565b611ed960208301866119c2565b611ee66040830185611a16565b611ef36060830184611a16565b8181036080830152611f0481611a39565b905095945050505050565b6000608082019050611f246000830187611a16565b611f316020830186611a16565b611f3e6040830185611b31565b611f4b60608301846119c2565b95945050505050565b7f5072696365206d757374206265206174206c6561737420312077656900000000600082015250565b6000611f8a601c83611945565b9150611f9582611f54565b602082019050919050565b60006020820190508181036000830152611fb981611f7d565b9050919050565b7f53636570746572207175616e74697479206d757374206265206174206c65617360008201527f7420313030206974656d2e000000000000000000000000000000000000000000602082015250565b600061201c602b83611945565b915061202782611fc0565b604082019050919050565b6000602082019050818103600083015261204b8161200f565b9050919050565b600060408201905061206760008301856119c2565b6120746020830184611a07565b9392505050565b60008151905061208a816113a2565b92915050565b6000602082840312156120a6576120a56112d3565b5b60006120b48482850161207b565b91505092915050565b7f55736572206e6f74206861766520656e6f756768205343455054455200000000600082015250565b60006120f3601c83611945565b91506120fe826120bd565b602082019050919050565b60006020820190508181036000830152612122816120e6565b9050919050565b600060608201905061213e60008301866119c2565b61214b6020830185611a16565b6121586040830184611a16565b949350505050565b7f4f776e61626c653a206e6577206f776e657220697320746865207a65726f206160008201527f6464726573730000000000000000000000000000000000000000000000000000602082015250565b60006121bc602683611945565b91506121c782612160565b604082019050919050565b600060208201905081810360008301526121eb816121af565b905091905056fea2646970667358221220e649945486f51b04fc8d4c9a2586f63dc48953f1e8c365019086b04e783908aa64736f6c634300080b0033",
  "immutableReferences": {},
  "source": "// SPDX-License-Identifier: MIT\r\npragma solidity ^0.8.11;\r\n\r\nimport \"@openzeppelin/contracts/utils/Counters.sol\";\r\nimport \"@openzeppelin/contracts/token/ERC20/IERC20.sol\";\r\nimport \"@openzeppelin/contracts/token/ERC1155/utils/ERC1155Receiver.sol\";\r\nimport \"@openzeppelin/contracts/token/ERC721/IERC721Receiver.sol\";\r\nimport \"../NFT/ICrownNFT.sol\";\r\nimport \"../NFT/IScepterNFT.sol\";\r\n\r\ncontract Market is ERC1155Receiver, IERC721Receiver {\r\n    using Counters for Counters.Counter;\r\n    Counters.Counter private _itemIds;\r\n\r\n    address _DAOTreasury = 0xd2a859A8F31f811B962556E0730c3E7Bf45A7Ed2;\r\n    address _owner;\r\n    ICrownNFT CrownNFTContract;\r\n    IScepterNFT ScepterNFTContract;\r\n\r\n    constructor() {\r\n        _owner = msg.sender;\r\n    }\r\n\r\n    struct MarketItem {\r\n        uint256 itemId;\r\n        uint256 tokenId;\r\n        address payable seller;\r\n        uint256 price;\r\n        uint256 quantity;\r\n    }\r\n\r\n    mapping(uint256 => MarketItem) private idToMarketItem;\r\n\r\n    event MarketItemCreated(\r\n        uint256 indexed itemId,\r\n        uint256 indexed tokenId,\r\n        address seller,\r\n        uint256 price,\r\n        uint256 quantity\r\n    );\r\n\r\n    event BuyMarketItem(\r\n        uint256 indexed itemId,\r\n        uint256 indexed tokenId,\r\n        uint256 quantity,\r\n        uint256 price,\r\n        address seller,\r\n        address buyer\r\n    );\r\n\r\n    event WithdrawItem(\r\n        uint256 indexed itemId,\r\n        uint256 indexed tokenId,\r\n        address owner\r\n    );\r\n\r\n    /**\r\n     * Always returns `IERC721Receiver.onERC721Received.selector`.\r\n     */\r\n    function onERC721Received(\r\n        address,\r\n        address,\r\n        uint256,\r\n        bytes memory\r\n    ) public virtual override returns (bytes4) {\r\n        return this.onERC721Received.selector;\r\n    }\r\n\r\n    function onERC1155Received(\r\n        address,\r\n        address,\r\n        uint256,\r\n        uint256,\r\n        bytes calldata\r\n    ) external pure override returns (bytes4) {\r\n        return\r\n            bytes4(\r\n                keccak256(\r\n                    \"onERC1155Received(address,address,uint256,uint256,bytes)\"\r\n                )\r\n            );\r\n    }\r\n\r\n    function onERC1155BatchReceived(\r\n        address,\r\n        address,\r\n        uint256[] calldata,\r\n        uint256[] calldata,\r\n        bytes calldata\r\n    ) external pure override returns (bytes4) {\r\n        return\r\n            bytes4(\r\n                keccak256(\r\n                    \"onERC1155BatchReceived(address,address,uint256[],uint256[],bytes)\"\r\n                )\r\n            );\r\n    }\r\n\r\n    function setCrownContract(address _newAddress) external {\r\n        CrownNFTContract = ICrownNFT(_newAddress);\r\n    }\r\n\r\n    function setScepterContract(address _newAddress) external {\r\n        ScepterNFTContract = IScepterNFT(_newAddress);\r\n    }\r\n\r\n    function setDAOTreasuryWallet(address _newAddress)\r\n        external\r\n        onlyOwnerOf(address(_owner))\r\n    {\r\n        _DAOTreasury = _newAddress;\r\n    }\r\n\r\n    /*\r\n     @param\r\n     tokenId: token id\r\n     price: BNB,\r\n     quantity: s lng\r\n     nftType:  0 l scepter, 1 l crown\r\n    */\r\n    function createMarketItem(\r\n        uint256 tokenId,\r\n        uint256 price,\r\n        uint256 quantity,\r\n        uint8 nftType\r\n    ) external {\r\n        // validate price\r\n        require(price > 0, \"Price must be at least 1 wei\");\r\n\r\n        if (nftType == 0) {\r\n            // scepter minimum quantity 100\r\n            require(\r\n                quantity >= 100,\r\n                \"Scepter quantity must be at least 100 item.\"\r\n            );\r\n            require(\r\n                ScepterNFTContract.balanceOf(msg.sender, 0) >= quantity,\r\n                \"User not have enough SCEPTER\"\r\n            );\r\n            ScepterNFTContract.safeTransferFrom(\r\n                msg.sender,\r\n                address(this),\r\n                0,\r\n                quantity,\r\n                \"\"\r\n            );\r\n        } else {\r\n            CrownNFTContract.transferFrom(msg.sender, address(this), tokenId);\r\n        }\r\n\r\n        _itemIds.increment();\r\n        uint256 itemId = _itemIds.current();\r\n        idToMarketItem[itemId] = MarketItem(\r\n            itemId,\r\n            tokenId,\r\n            payable(msg.sender),\r\n            quantity * price,\r\n            quantity\r\n        );\r\n\r\n        emit MarketItemCreated(\r\n            itemId,\r\n            tokenId,\r\n            msg.sender,\r\n            quantity * price,\r\n            quantity\r\n        );\r\n    }\r\n\r\n    function buyMarketItem(uint256 itemIndex) public payable {\r\n        MarketItem memory currentItem = idToMarketItem[itemIndex];\r\n        require(currentItem.seller != msg.sender, \"Can not buy your item\");\r\n        uint256 totalPrice = currentItem.price;\r\n        require(\r\n            msg.value >= totalPrice,\r\n            \"Please submit the asking price in order to complete the purchase\"\r\n        );\r\n        // sell successfully => tax sell 5% of market item's price\r\n        uint256 taxSell = (totalPrice * 5) / 100;\r\n        uint256 quantity = currentItem.quantity; // quantity >= 100 => scepter nft, else crown nft\r\n        uint256 tokenId = currentItem.tokenId;\r\n        // send BNB to seller\r\n        (bool sent, ) = payable(currentItem.seller).call{\r\n            value: totalPrice - taxSell\r\n        }(\"\");\r\n        require(sent, \"Transfer BNB to seller failed\");\r\n        // send tax sell to DAO treasury\r\n        (bool sentTx, ) = payable(_DAOTreasury).call{value: taxSell}(\"\"); // transfer BNB\r\n        require(sentTx, \"Transfer BNB to DAO Treasury failed\");\r\n        // transfer market item to buyer\r\n        delete idToMarketItem[itemIndex];\r\n        if (quantity > 1) {\r\n            ScepterNFTContract.safeTransferFrom(\r\n                address(this),\r\n                msg.sender,\r\n                tokenId,\r\n                quantity,\r\n                \"\"\r\n            );\r\n        } else {\r\n            CrownNFTContract.transferFrom(address(this), msg.sender, tokenId);\r\n        }\r\n        // remove market item\r\n        emit BuyMarketItem(\r\n            currentItem.itemId,\r\n            tokenId,\r\n            quantity,\r\n            totalPrice,\r\n            currentItem.seller,\r\n            msg.sender\r\n        );\r\n    }\r\n\r\n    function withdrawNFT(uint256 itemId)\r\n        external\r\n        onlyOwnerOf(idToMarketItem[itemId].seller)\r\n    {\r\n        MarketItem memory item = idToMarketItem[itemId];\r\n        delete idToMarketItem[itemId];\r\n        if (item.quantity > 1) {\r\n            // quantity > 1 => scepter\r\n            ScepterNFTContract.safeTransferFrom(\r\n                address(this),\r\n                msg.sender,\r\n                0,\r\n                item.quantity,\r\n                \"\"\r\n            );\r\n        } else {\r\n            CrownNFTContract.transferFrom(\r\n                address(this),\r\n                msg.sender,\r\n                item.tokenId\r\n            );\r\n        }\r\n        emit WithdrawItem(item.itemId, item.tokenId, item.seller);\r\n    }\r\n\r\n    /**\r\n     * @dev Transfers ownership of the contract to a new account (`newOwner`).\r\n     * Can only be called by the current owner.\r\n     */\r\n    function transferOwnership(address newOwner)\r\n        public\r\n        virtual\r\n        onlyOwnerOf(_owner)\r\n    {\r\n        require(\r\n            newOwner != address(0),\r\n            \"Ownable: new owner is the zero address\"\r\n        );\r\n        _transferOwnership(newOwner);\r\n    }\r\n\r\n    /**\r\n     * @dev Transfers ownership of the contract to a new account (`newOwner`).\r\n     * Internal function without access restriction.\r\n     */\r\n    function _transferOwnership(address newOwner) internal virtual {\r\n        _owner = newOwner;\r\n    }\r\n\r\n    modifier onlyOwnerOf(address _ownerAddress) {\r\n        require(msg.sender == _ownerAddress, \"Ownable: Not owner\");\r\n        _;\r\n    }\r\n}\r\n",
  "sourcePath": "C:\\Github\\Dao\\Develop\\Blockchain\\dao-project\\contracts\\MarketStore\\Market.sol",
  "compiler": {
    "name": "solc",
    "version": "0.8.11+commit.d7f03943.Emscripten.clang"
  },
  "schemaVersion": "3.4.7",
  "updatedAt": "2022-06-23T10:15:17.303Z",
  "networkType": "ethereum",
  "devdoc": {
    "kind": "dev",
    "methods": {
      "supportsInterface(bytes4)": {
        "details": "See {IERC165-supportsInterface}."
      },
      "transferOwnership(address)": {
        "details": "Transfers ownership of the contract to a new account (`newOwner`). Can only be called by the current owner."
      }
    },
    "version": 1
  },
  "userdoc": {
    "kind": "user",
    "methods": {
      "onERC721Received(address,address,uint256,bytes)": {
        "notice": "Always returns `IERC721Receiver.onERC721Received.selector`."
      }
    },
    "version": 1
  }
}