{
  "contractName": "MarketStore",
  "abi": [
    {
      "inputs": [],
      "stateMutability": "nonpayable",
      "type": "constructor"
    },
    {
      "anonymous": false,
      "inputs": [
        {
          "indexed": true,
          "internalType": "uint256",
          "name": "itemId",
          "type": "uint256"
        },
        {
          "indexed": true,
          "internalType": "uint256",
          "name": "tokenId",
          "type": "uint256"
        },
        {
          "indexed": false,
          "internalType": "uint256",
          "name": "quantity",
          "type": "uint256"
        },
        {
          "indexed": false,
          "internalType": "uint256",
          "name": "price",
          "type": "uint256"
        },
        {
          "indexed": false,
          "internalType": "address",
          "name": "seller",
          "type": "address"
        },
        {
          "indexed": false,
          "internalType": "address",
          "name": "buyer",
          "type": "address"
        }
      ],
      "name": "BuyMarketItem",
      "type": "event"
    },
    {
      "anonymous": false,
      "inputs": [
        {
          "indexed": true,
          "internalType": "uint256",
          "name": "itemId",
          "type": "uint256"
        },
        {
          "indexed": true,
          "internalType": "uint256",
          "name": "tokenId",
          "type": "uint256"
        },
        {
          "indexed": false,
          "internalType": "address",
          "name": "seller",
          "type": "address"
        },
        {
          "indexed": false,
          "internalType": "uint256",
          "name": "price",
          "type": "uint256"
        },
        {
          "indexed": false,
          "internalType": "uint256",
          "name": "quantity",
          "type": "uint256"
        }
      ],
      "name": "MarketItemCreated",
      "type": "event"
    },
    {
      "anonymous": false,
      "inputs": [
        {
          "indexed": true,
          "internalType": "uint256",
          "name": "itemId",
          "type": "uint256"
        },
        {
          "indexed": true,
          "internalType": "uint256",
          "name": "tokenId",
          "type": "uint256"
        },
        {
          "indexed": false,
          "internalType": "address",
          "name": "owner",
          "type": "address"
        }
      ],
      "name": "WithdrawItem",
      "type": "event"
    },
    {
      "inputs": [
        {
          "internalType": "bytes4",
          "name": "interfaceId",
          "type": "bytes4"
        }
      ],
      "name": "supportsInterface",
      "outputs": [
        {
          "internalType": "bool",
          "name": "",
          "type": "bool"
        }
      ],
      "stateMutability": "view",
      "type": "function"
    },
    {
      "inputs": [
        {
          "internalType": "address",
          "name": "",
          "type": "address"
        },
        {
          "internalType": "address",
          "name": "",
          "type": "address"
        },
        {
          "internalType": "uint256",
          "name": "",
          "type": "uint256"
        },
        {
          "internalType": "bytes",
          "name": "",
          "type": "bytes"
        }
      ],
      "name": "onERC721Received",
      "outputs": [
        {
          "internalType": "bytes4",
          "name": "",
          "type": "bytes4"
        }
      ],
      "stateMutability": "nonpayable",
      "type": "function"
    },
    {
      "inputs": [
        {
          "internalType": "address",
          "name": "",
          "type": "address"
        },
        {
          "internalType": "address",
          "name": "",
          "type": "address"
        },
        {
          "internalType": "uint256",
          "name": "",
          "type": "uint256"
        },
        {
          "internalType": "uint256",
          "name": "",
          "type": "uint256"
        },
        {
          "internalType": "bytes",
          "name": "",
          "type": "bytes"
        }
      ],
      "name": "onERC1155Received",
      "outputs": [
        {
          "internalType": "bytes4",
          "name": "",
          "type": "bytes4"
        }
      ],
      "stateMutability": "pure",
      "type": "function"
    },
    {
      "inputs": [
        {
          "internalType": "address",
          "name": "",
          "type": "address"
        },
        {
          "internalType": "address",
          "name": "",
          "type": "address"
        },
        {
          "internalType": "uint256[]",
          "name": "",
          "type": "uint256[]"
        },
        {
          "internalType": "uint256[]",
          "name": "",
          "type": "uint256[]"
        },
        {
          "internalType": "bytes",
          "name": "",
          "type": "bytes"
        }
      ],
      "name": "onERC1155BatchReceived",
      "outputs": [
        {
          "internalType": "bytes4",
          "name": "",
          "type": "bytes4"
        }
      ],
      "stateMutability": "pure",
      "type": "function"
    },
    {
      "inputs": [
        {
          "internalType": "address",
          "name": "_newAddress",
          "type": "address"
        }
      ],
      "name": "setCrownContract",
      "outputs": [],
      "stateMutability": "nonpayable",
      "type": "function"
    },
    {
      "inputs": [
        {
          "internalType": "address",
          "name": "_newAddress",
          "type": "address"
        }
      ],
      "name": "setScepterContract",
      "outputs": [],
      "stateMutability": "nonpayable",
      "type": "function"
    },
    {
      "inputs": [
        {
          "internalType": "address",
          "name": "_newAddress",
          "type": "address"
        }
      ],
      "name": "setDAOTreasuryWallet",
      "outputs": [],
      "stateMutability": "nonpayable",
      "type": "function"
    },
    {
      "inputs": [
        {
          "internalType": "uint256",
          "name": "tokenId",
          "type": "uint256"
        },
        {
          "internalType": "uint256",
          "name": "price",
          "type": "uint256"
        },
        {
          "internalType": "uint256",
          "name": "quantity",
          "type": "uint256"
        },
        {
          "internalType": "uint8",
          "name": "nftType",
          "type": "uint8"
        }
      ],
      "name": "createMarketItem",
      "outputs": [],
      "stateMutability": "nonpayable",
      "type": "function"
    },
    {
      "inputs": [
        {
          "internalType": "uint256",
          "name": "itemIndex",
          "type": "uint256"
        }
      ],
      "name": "buyMarketItem",
      "outputs": [],
      "stateMutability": "payable",
      "type": "function"
    },
    {
      "inputs": [
        {
          "internalType": "uint256",
          "name": "itemId",
          "type": "uint256"
        }
      ],
      "name": "withdrawNFT",
      "outputs": [],
      "stateMutability": "nonpayable",
      "type": "function"
    },
    {
      "inputs": [
        {
          "internalType": "address",
          "name": "newOwner",
          "type": "address"
        }
      ],
      "name": "transferOwnership",
      "outputs": [],
      "stateMutability": "nonpayable",
      "type": "function"
    }
  ],
  "bytecode": "0x608060405273d2a859a8f31f811b962556e0730c3e7bf45a7ed2600160006101000a81548173ffffffffffffffffffffffffffffffffffffffff021916908373ffffffffffffffffffffffffffffffffffffffff16021790555034801561006557600080fd5b5033600260006101000a81548173ffffffffffffffffffffffffffffffffffffffff021916908373ffffffffffffffffffffffffffffffffffffffff160217905550612389806100b66000396000f3fe60806040526004361061009c5760003560e01c80634abf9aa3116100645780634abf9aa3146101895780635b39e2b5146101b25780638d5c128c146101db578063bc197c8114610204578063f23a6e6114610241578063f2fde38b1461027e5761009c565b806301ffc9a7146100a1578063023245d7146100de578063150b7a0214610107578063351901c3146101445780633f503fa914610160575b600080fd5b3480156100ad57600080fd5b506100c860048036038101906100c39190611496565b6102a7565b6040516100d591906114de565b60405180910390f35b3480156100ea57600080fd5b506101056004803603810190610100919061152f565b610321565b005b34801561011357600080fd5b5061012e60048036038101906101299190611700565b61064d565b60405161013b9190611792565b60405180910390f35b61015e6004803603810190610159919061152f565b610661565b005b34801561016c57600080fd5b50610187600480360381019061018291906117e6565b610b96565b005b34801561019557600080fd5b506101b060048036038101906101ab919061184d565b610f68565b005b3480156101be57600080fd5b506101d960048036038101906101d4919061184d565b61103e565b005b3480156101e757600080fd5b5061020260048036038101906101fd919061184d565b611114565b005b34801561021057600080fd5b5061022b60048036038101906102269190611930565b6111ea565b6040516102389190611792565b60405180910390f35b34801561024d57600080fd5b5061026860048036038101906102639190611a0c565b61121b565b6040516102759190611792565b60405180910390f35b34801561028a57600080fd5b506102a560048036038101906102a0919061184d565b61124a565b005b60007f4e2312e0000000000000000000000000000000000000000000000000000000007bffffffffffffffffffffffffffffffffffffffffffffffffffffffff1916827bffffffffffffffffffffffffffffffffffffffffffffffffffffffff1916148061031a575061031982611358565b5b9050919050565b6005600082815260200190815260200160002060020160009054906101000a900473ffffffffffffffffffffffffffffffffffffffff168073ffffffffffffffffffffffffffffffffffffffff163373ffffffffffffffffffffffffffffffffffffffff16146103c6576040517f08c379a00000000000000000000000000000000000000000000000000000000081526004016103bd90611b03565b60405180910390fd5b6000600560008481526020019081526020016000206040518060a001604052908160008201548152602001600182015481526020016002820160009054906101000a900473ffffffffffffffffffffffffffffffffffffffff1673ffffffffffffffffffffffffffffffffffffffff1673ffffffffffffffffffffffffffffffffffffffff1681526020016003820154815260200160048201548152505090506005600084815260200190815260200160002060008082016000905560018201600090556002820160006101000a81549073ffffffffffffffffffffffffffffffffffffffff021916905560038201600090556004820160009055505060018160800151111561056d57600460009054906101000a900473ffffffffffffffffffffffffffffffffffffffff1673ffffffffffffffffffffffffffffffffffffffff1663f242432a3033600085608001516040518563ffffffff1660e01b81526004016105369493929190611bbd565b600060405180830381600087803b15801561055057600080fd5b505af1158015610564573d6000803e3d6000fd5b50505050610603565b600360009054906101000a900473ffffffffffffffffffffffffffffffffffffffff1673ffffffffffffffffffffffffffffffffffffffff166323b872dd303384602001516040518463ffffffff1660e01b81526004016105d093929190611c15565b600060405180830381600087803b1580156105ea57600080fd5b505af11580156105fe573d6000803e3d6000fd5b505050505b806020015181600001517ff14a9cbe01fc845847526300acd057416c171aa3034b4ea54f4f1a412c284a7183604001516040516106409190611ca1565b60405180910390a3505050565b600063150b7a0260e01b9050949350505050565b3373ffffffffffffffffffffffffffffffffffffffff166005600083815260200190815260200160002060020160009054906101000a900473ffffffffffffffffffffffffffffffffffffffff1673ffffffffffffffffffffffffffffffffffffffff161415610706576040517f08c379a00000000000000000000000000000000000000000000000000000000081526004016106fd90611d08565b60405180910390fd5b60006005600083815260200190815260200160002060030154905080341015610764576040517f08c379a000000000000000000000000000000000000000000000000000000000815260040161075b90611d9a565b60405180910390fd5b600060646005836107759190611de9565b61077f9190611e72565b905060006005600085815260200190815260200160002060040154905060006005600086815260200190815260200160002060010154905060006005600087815260200190815260200160002060020160009054906101000a900473ffffffffffffffffffffffffffffffffffffffff1673ffffffffffffffffffffffffffffffffffffffff1684866108129190611ea3565b60405161081e90611f05565b60006040518083038185875af1925050503d806000811461085b576040519150601f19603f3d011682016040523d82523d6000602084013e610860565b606091505b50509050806108a4576040517f08c379a000000000000000000000000000000000000000000000000000000000815260040161089b90611f66565b60405180910390fd5b6000600160009054906101000a900473ffffffffffffffffffffffffffffffffffffffff1673ffffffffffffffffffffffffffffffffffffffff16856040516108ec90611f05565b60006040518083038185875af1925050503d8060008114610929576040519150601f19603f3d011682016040523d82523d6000602084013e61092e565b606091505b5050905080610972576040517f08c379a000000000000000000000000000000000000000000000000000000000815260040161096990611ff8565b60405180910390fd5b6001841115610a1357600460009054906101000a900473ffffffffffffffffffffffffffffffffffffffff1673ffffffffffffffffffffffffffffffffffffffff1663f242432a303386886040518563ffffffff1660e01b81526004016109dc9493929190612018565b600060405180830381600087803b1580156109f657600080fd5b505af1158015610a0a573d6000803e3d6000fd5b50505050610aa5565b600360009054906101000a900473ffffffffffffffffffffffffffffffffffffffff1673ffffffffffffffffffffffffffffffffffffffff166323b872dd3033866040518463ffffffff1660e01b8152600401610a7293929190611c15565b600060405180830381600087803b158015610a8c57600080fd5b505af1158015610aa0573d6000803e3d6000fd5b505050505b8260056000898152602001908152602001600020600001547f13d9025911af360f78af66e6d8d93d471e1960036cd1be34af1f2da6682c6f8b8689600560008d815260200190815260200160002060020160009054906101000a900473ffffffffffffffffffffffffffffffffffffffff1633604051610b289493929190612070565b60405180910390a36005600088815260200190815260200160002060008082016000905560018201600090556002820160006101000a81549073ffffffffffffffffffffffffffffffffffffffff021916905560038201600090556004820160009055505050505050505050565b60008311610bd9576040517f08c379a0000000000000000000000000000000000000000000000000000000008152600401610bd090612101565b60405180910390fd5b60008160ff161415610da2576064821015610c29576040517f08c379a0000000000000000000000000000000000000000000000000000000008152600401610c2090612193565b60405180910390fd5b81600460009054906101000a900473ffffffffffffffffffffffffffffffffffffffff1673ffffffffffffffffffffffffffffffffffffffff1662fdd58e3360006040518363ffffffff1660e01b8152600401610c879291906121b3565b602060405180830381865afa158015610ca4573d6000803e3d6000fd5b505050506040513d601f19601f82011682018060405250810190610cc891906121f1565b1015610d09576040517f08c379a0000000000000000000000000000000000000000000000000000000008152600401610d009061226a565b60405180910390fd5b600460009054906101000a900473ffffffffffffffffffffffffffffffffffffffff1673ffffffffffffffffffffffffffffffffffffffff1663f242432a33306000866040518563ffffffff1660e01b8152600401610d6b9493929190611bbd565b600060405180830381600087803b158015610d8557600080fd5b505af1158015610d99573d6000803e3d6000fd5b50505050610e34565b600360009054906101000a900473ffffffffffffffffffffffffffffffffffffffff1673ffffffffffffffffffffffffffffffffffffffff166323b872dd3330876040518463ffffffff1660e01b8152600401610e0193929190611c15565b600060405180830381600087803b158015610e1b57600080fd5b505af1158015610e2f573d6000803e3d6000fd5b505050505b610e3e60006113c2565b6000610e4a60006113d8565b90506040518060a001604052808281526020018681526020013373ffffffffffffffffffffffffffffffffffffffff1681526020018585610e8b9190611de9565b81526020018481525060056000838152602001908152602001600020600082015181600001556020820151816001015560408201518160020160006101000a81548173ffffffffffffffffffffffffffffffffffffffff021916908373ffffffffffffffffffffffffffffffffffffffff160217905550606082015181600301556080820151816004015590505084817f117136b53832b5e8bbde1e9e2b7e283939a09b780c150657c0fb8f2d9fff2147338787610f499190611de9565b87604051610f599392919061228a565b60405180910390a35050505050565b600260009054906101000a900473ffffffffffffffffffffffffffffffffffffffff168073ffffffffffffffffffffffffffffffffffffffff163373ffffffffffffffffffffffffffffffffffffffff1614610ff9576040517f08c379a0000000000000000000000000000000000000000000000000000000008152600401610ff090611b03565b60405180910390fd5b81600460006101000a81548173ffffffffffffffffffffffffffffffffffffffff021916908373ffffffffffffffffffffffffffffffffffffffff1602179055505050565b600260009054906101000a900473ffffffffffffffffffffffffffffffffffffffff168073ffffffffffffffffffffffffffffffffffffffff163373ffffffffffffffffffffffffffffffffffffffff16146110cf576040517f08c379a00000000000000000000000000000000000000000000000000000000081526004016110c690611b03565b60405180910390fd5b81600360006101000a81548173ffffffffffffffffffffffffffffffffffffffff021916908373ffffffffffffffffffffffffffffffffffffffff1602179055505050565b600260009054906101000a900473ffffffffffffffffffffffffffffffffffffffff168073ffffffffffffffffffffffffffffffffffffffff163373ffffffffffffffffffffffffffffffffffffffff16146111a5576040517f08c379a000000000000000000000000000000000000000000000000000000000815260040161119c90611b03565b60405180910390fd5b81600160006101000a81548173ffffffffffffffffffffffffffffffffffffffff021916908373ffffffffffffffffffffffffffffffffffffffff1602179055505050565b60007fbc197c819b3e337a6f9652dd10becd7eef83032af3b9d958d3d42f6694146621905098975050505050505050565b60007ff23a6e612e1ff4830e658fe43f4e3cb4a5f8170bd5d9e69fb5d7a7fa9e4fdf9790509695505050505050565b600260009054906101000a900473ffffffffffffffffffffffffffffffffffffffff168073ffffffffffffffffffffffffffffffffffffffff163373ffffffffffffffffffffffffffffffffffffffff16146112db576040517f08c379a00000000000000000000000000000000000000000000000000000000081526004016112d290611b03565b60405180910390fd5b600073ffffffffffffffffffffffffffffffffffffffff168273ffffffffffffffffffffffffffffffffffffffff16141561134b576040517f08c379a000000000000000000000000000000000000000000000000000000000815260040161134290612333565b60405180910390fd5b611354826113e6565b5050565b60007f01ffc9a7000000000000000000000000000000000000000000000000000000007bffffffffffffffffffffffffffffffffffffffffffffffffffffffff1916827bffffffffffffffffffffffffffffffffffffffffffffffffffffffff1916149050919050565b6001816000016000828254019250508190555050565b600081600001549050919050565b80600260006101000a81548173ffffffffffffffffffffffffffffffffffffffff021916908373ffffffffffffffffffffffffffffffffffffffff16021790555050565b6000604051905090565b600080fd5b600080fd5b60007fffffffff0000000000000000000000000000000000000000000000000000000082169050919050565b6114738161143e565b811461147e57600080fd5b50565b6000813590506114908161146a565b92915050565b6000602082840312156114ac576114ab611434565b5b60006114ba84828501611481565b91505092915050565b60008115159050919050565b6114d8816114c3565b82525050565b60006020820190506114f360008301846114cf565b92915050565b6000819050919050565b61150c816114f9565b811461151757600080fd5b50565b60008135905061152981611503565b92915050565b60006020828403121561154557611544611434565b5b60006115538482850161151a565b91505092915050565b600073ffffffffffffffffffffffffffffffffffffffff82169050919050565b60006115878261155c565b9050919050565b6115978161157c565b81146115a257600080fd5b50565b6000813590506115b48161158e565b92915050565b600080fd5b600080fd5b6000601f19601f8301169050919050565b7f4e487b7100000000000000000000000000000000000000000000000000000000600052604160045260246000fd5b61160d826115c4565b810181811067ffffffffffffffff8211171561162c5761162b6115d5565b5b80604052505050565b600061163f61142a565b905061164b8282611604565b919050565b600067ffffffffffffffff82111561166b5761166a6115d5565b5b611674826115c4565b9050602081019050919050565b82818337600083830152505050565b60006116a361169e84611650565b611635565b9050828152602081018484840111156116bf576116be6115bf565b5b6116ca848285611681565b509392505050565b600082601f8301126116e7576116e66115ba565b5b81356116f7848260208601611690565b91505092915050565b6000806000806080858703121561171a57611719611434565b5b6000611728878288016115a5565b9450506020611739878288016115a5565b935050604061174a8782880161151a565b925050606085013567ffffffffffffffff81111561176b5761176a611439565b5b611777878288016116d2565b91505092959194509250565b61178c8161143e565b82525050565b60006020820190506117a76000830184611783565b92915050565b600060ff82169050919050565b6117c3816117ad565b81146117ce57600080fd5b50565b6000813590506117e0816117ba565b92915050565b60008060008060808587031215611800576117ff611434565b5b600061180e8782880161151a565b945050602061181f8782880161151a565b93505060406118308782880161151a565b9250506060611841878288016117d1565b91505092959194509250565b60006020828403121561186357611862611434565b5b6000611871848285016115a5565b91505092915050565b600080fd5b600080fd5b60008083601f84011261189a576118996115ba565b5b8235905067ffffffffffffffff8111156118b7576118b661187a565b5b6020830191508360208202830111156118d3576118d261187f565b5b9250929050565b60008083601f8401126118f0576118ef6115ba565b5b8235905067ffffffffffffffff81111561190d5761190c61187a565b5b6020830191508360018202830111156119295761192861187f565b5b9250929050565b60008060008060008060008060a0898b0312156119505761194f611434565b5b600061195e8b828c016115a5565b985050602061196f8b828c016115a5565b975050604089013567ffffffffffffffff8111156119905761198f611439565b5b61199c8b828c01611884565b9650965050606089013567ffffffffffffffff8111156119bf576119be611439565b5b6119cb8b828c01611884565b9450945050608089013567ffffffffffffffff8111156119ee576119ed611439565b5b6119fa8b828c016118da565b92509250509295985092959890939650565b60008060008060008060a08789031215611a2957611a28611434565b5b6000611a3789828a016115a5565b9650506020611a4889828a016115a5565b9550506040611a5989828a0161151a565b9450506060611a6a89828a0161151a565b935050608087013567ffffffffffffffff811115611a8b57611a8a611439565b5b611a9789828a016118da565b92509250509295509295509295565b600082825260208201905092915050565b7f4f776e61626c653a204e6f74206f776e65720000000000000000000000000000600082015250565b6000611aed601283611aa6565b9150611af882611ab7565b602082019050919050565b60006020820190508181036000830152611b1c81611ae0565b9050919050565b611b2c8161157c565b82525050565b6000819050919050565b6000819050919050565b6000611b61611b5c611b5784611b32565b611b3c565b6114f9565b9050919050565b611b7181611b46565b82525050565b611b80816114f9565b82525050565b600082825260208201905092915050565b50565b6000611ba7600083611b86565b9150611bb282611b97565b600082019050919050565b600060a082019050611bd26000830187611b23565b611bdf6020830186611b23565b611bec6040830185611b68565b611bf96060830184611b77565b8181036080830152611c0a81611b9a565b905095945050505050565b6000606082019050611c2a6000830186611b23565b611c376020830185611b23565b611c446040830184611b77565b949350505050565b6000611c67611c62611c5d8461155c565b611b3c565b61155c565b9050919050565b6000611c7982611c4c565b9050919050565b6000611c8b82611c6e565b9050919050565b611c9b81611c80565b82525050565b6000602082019050611cb66000830184611c92565b92915050565b7f43616e206e6f742062757920796f7572206974656d0000000000000000000000600082015250565b6000611cf2601583611aa6565b9150611cfd82611cbc565b602082019050919050565b60006020820190508181036000830152611d2181611ce5565b9050919050565b7f506c65617365207375626d6974207468652061736b696e67207072696365206960008201527f6e206f7264657220746f20636f6d706c65746520746865207075726368617365602082015250565b6000611d84604083611aa6565b9150611d8f82611d28565b604082019050919050565b60006020820190508181036000830152611db381611d77565b9050919050565b7f4e487b7100000000000000000000000000000000000000000000000000000000600052601160045260246000fd5b6000611df4826114f9565b9150611dff836114f9565b9250817fffffffffffffffffffffffffffffffffffffffffffffffffffffffffffffffff0483118215151615611e3857611e37611dba565b5b828202905092915050565b7f4e487b7100000000000000000000000000000000000000000000000000000000600052601260045260246000fd5b6000611e7d826114f9565b9150611e88836114f9565b925082611e9857611e97611e43565b5b828204905092915050565b6000611eae826114f9565b9150611eb9836114f9565b925082821015611ecc57611ecb611dba565b5b828203905092915050565b600081905092915050565b6000611eef600083611ed7565b9150611efa82611b97565b600082019050919050565b6000611f1082611ee2565b9150819050919050565b7f5472616e7366657220424e4220746f2073656c6c6572206661696c6564000000600082015250565b6000611f50601d83611aa6565b9150611f5b82611f1a565b602082019050919050565b60006020820190508181036000830152611f7f81611f43565b9050919050565b7f5472616e7366657220424e4220746f2044414f2054726561737572792066616960008201527f6c65640000000000000000000000000000000000000000000000000000000000602082015250565b6000611fe2602383611aa6565b9150611fed82611f86565b604082019050919050565b6000602082019050818103600083015261201181611fd5565b9050919050565b600060a08201905061202d6000830187611b23565b61203a6020830186611b23565b6120476040830185611b77565b6120546060830184611b77565b818103608083015261206581611b9a565b905095945050505050565b60006080820190506120856000830187611b77565b6120926020830186611b77565b61209f6040830185611c92565b6120ac6060830184611b23565b95945050505050565b7f5072696365206d757374206265206174206c6561737420312077656900000000600082015250565b60006120eb601c83611aa6565b91506120f6826120b5565b602082019050919050565b6000602082019050818103600083015261211a816120de565b9050919050565b7f53636570746572207175616e74697479206d757374206265206174206c65617360008201527f7420313030206974656d2e000000000000000000000000000000000000000000602082015250565b600061217d602b83611aa6565b915061218882612121565b604082019050919050565b600060208201905081810360008301526121ac81612170565b9050919050565b60006040820190506121c86000830185611b23565b6121d56020830184611b68565b9392505050565b6000815190506121eb81611503565b92915050565b60006020828403121561220757612206611434565b5b6000612215848285016121dc565b91505092915050565b7f55736572206e6f74206861766520656e6f756768205343455054455200000000600082015250565b6000612254601c83611aa6565b915061225f8261221e565b602082019050919050565b6000602082019050818103600083015261228381612247565b9050919050565b600060608201905061229f6000830186611b23565b6122ac6020830185611b77565b6122b96040830184611b77565b949350505050565b7f4f776e61626c653a206e6577206f776e657220697320746865207a65726f206160008201527f6464726573730000000000000000000000000000000000000000000000000000602082015250565b600061231d602683611aa6565b9150612328826122c1565b604082019050919050565b6000602082019050818103600083015261234c81612310565b905091905056fea26469706673582212203e74afa40de555c1bb3ddf8d8f7405b91e9683861499e164ba5b9e9c7266377564736f6c634300080b0033",
  "immutableReferences": {},
  "source": "// SPDX-License-Identifier: MIT\r\npragma solidity ^0.8.11;\r\n\r\nimport \"@openzeppelin/contracts/utils/Counters.sol\";\r\nimport \"@openzeppelin/contracts/token/ERC20/IERC20.sol\";\r\nimport \"@openzeppelin/contracts/token/ERC1155/utils/ERC1155Receiver.sol\";\r\nimport \"@openzeppelin/contracts/token/ERC721/IERC721Receiver.sol\";\r\nimport \"../NFT/ICrownNFT.sol\";\r\nimport \"../NFT/IScepterNFT.sol\";\r\n\r\ncontract MarketStore is ERC1155Receiver, IERC721Receiver {\r\n    using Counters for Counters.Counter;\r\n    Counters.Counter private _itemIds;\r\n\r\n    address _DAOTreasury = 0xd2a859A8F31f811B962556E0730c3E7Bf45A7Ed2;\r\n    address _owner;\r\n    ICrownNFT CrownNFTContract;\r\n    IScepterNFT ScepterNFTContract;\r\n\r\n    constructor() {\r\n        _owner = msg.sender;\r\n    }\r\n\r\n    struct MarketItem {\r\n        uint256 itemId;\r\n        uint256 tokenId;\r\n        address payable seller;\r\n        uint256 price;\r\n        uint256 quantity;\r\n    }\r\n\r\n    mapping(uint256 => MarketItem) private idToMarketItem;\r\n\r\n    event MarketItemCreated(\r\n        uint256 indexed itemId,\r\n        uint256 indexed tokenId,\r\n        address seller,\r\n        uint256 price,\r\n        uint256 quantity\r\n    );\r\n\r\n    event BuyMarketItem(\r\n        uint256 indexed itemId,\r\n        uint256 indexed tokenId,\r\n        uint256 quantity,\r\n        uint256 price,\r\n        address seller,\r\n        address buyer\r\n    );\r\n\r\n    event WithdrawItem(\r\n        uint256 indexed itemId,\r\n        uint256 indexed tokenId,\r\n        address owner\r\n    );\r\n\r\n    /**\r\n     * Always returns `IERC721Receiver.onERC721Received.selector`.\r\n     */\r\n    function onERC721Received(\r\n        address,\r\n        address,\r\n        uint256,\r\n        bytes memory\r\n    ) public virtual override returns (bytes4) {\r\n        return this.onERC721Received.selector;\r\n    }\r\n\r\n    function onERC1155Received(\r\n        address,\r\n        address,\r\n        uint256,\r\n        uint256,\r\n        bytes calldata\r\n    ) external pure override returns (bytes4) {\r\n        return\r\n            bytes4(\r\n                keccak256(\r\n                    \"onERC1155Received(address,address,uint256,uint256,bytes)\"\r\n                )\r\n            );\r\n    }\r\n\r\n    function onERC1155BatchReceived(\r\n        address,\r\n        address,\r\n        uint256[] calldata,\r\n        uint256[] calldata,\r\n        bytes calldata\r\n    ) external pure override returns (bytes4) {\r\n        return\r\n            bytes4(\r\n                keccak256(\r\n                    \"onERC1155BatchReceived(address,address,uint256[],uint256[],bytes)\"\r\n                )\r\n            );\r\n    }\r\n\r\n    function setCrownContract(address _newAddress)\r\n        external\r\n        onlyOwnerOf(_owner)\r\n    {\r\n        CrownNFTContract = ICrownNFT(_newAddress);\r\n    }\r\n\r\n    function setScepterContract(address _newAddress)\r\n        external\r\n        onlyOwnerOf(_owner)\r\n    {\r\n        ScepterNFTContract = IScepterNFT(_newAddress);\r\n    }\r\n\r\n    function setDAOTreasuryWallet(address _newAddress)\r\n        external\r\n        onlyOwnerOf(address(_owner))\r\n    {\r\n        _DAOTreasury = _newAddress;\r\n    }\r\n\r\n    /*\r\n     @param\r\n     tokenId: token id\r\n     price: BNB,\r\n     quantity: s lng\r\n     nftType:  0 l scepter, 1 l crown\r\n    */\r\n    function createMarketItem(\r\n        uint256 tokenId,\r\n        uint256 price,\r\n        uint256 quantity,\r\n        uint8 nftType\r\n    ) external {\r\n        // validate price\r\n        require(price > 0, \"Price must be at least 1 wei\");\r\n\r\n        if (nftType == 0) {\r\n            // scepter minimum quantity 100\r\n            require(\r\n                quantity >= 100,\r\n                \"Scepter quantity must be at least 100 item.\"\r\n            );\r\n            require(\r\n                ScepterNFTContract.balanceOf(msg.sender, 0) >= quantity,\r\n                \"User not have enough SCEPTER\"\r\n            );\r\n            ScepterNFTContract.safeTransferFrom(\r\n                msg.sender,\r\n                address(this),\r\n                0,\r\n                quantity,\r\n                \"\"\r\n            );\r\n        } else {\r\n            CrownNFTContract.transferFrom(msg.sender, address(this), tokenId);\r\n        }\r\n\r\n        _itemIds.increment();\r\n        uint256 itemId = _itemIds.current();\r\n        idToMarketItem[itemId] = MarketItem(\r\n            itemId,\r\n            tokenId,\r\n            payable(msg.sender),\r\n            quantity * price,\r\n            quantity\r\n        );\r\n\r\n        emit MarketItemCreated(\r\n            itemId,\r\n            tokenId,\r\n            msg.sender,\r\n            quantity * price,\r\n            quantity\r\n        );\r\n    }\r\n\r\n    function buyMarketItem(uint256 itemIndex) public payable {\r\n        require(\r\n            idToMarketItem[itemIndex].seller != msg.sender,\r\n            \"Can not buy your item\"\r\n        );\r\n        uint256 totalPrice = idToMarketItem[itemIndex].price;\r\n        require(\r\n            msg.value >= totalPrice,\r\n            \"Please submit the asking price in order to complete the purchase\"\r\n        );\r\n        // sell successfully => tax sell 5% of market item's price\r\n        uint256 taxSell = (totalPrice * 5) / 100;\r\n        uint256 quantity = idToMarketItem[itemIndex].quantity; // quantity >= 100 => scepter nft, else crown nft\r\n        uint256 tokenId = idToMarketItem[itemIndex].tokenId;\r\n        // send BNB to seller\r\n        (bool sent, ) = payable(idToMarketItem[itemIndex].seller).call{\r\n            value: totalPrice - taxSell\r\n        }(\"\");\r\n        require(sent, \"Transfer BNB to seller failed\");\r\n        // send tax sell to DAO treasury\r\n        (bool sentTx, ) = payable(_DAOTreasury).call{value: taxSell}(\"\"); // transfer BNB\r\n        require(sentTx, \"Transfer BNB to DAO Treasury failed\");\r\n        // transfer market item to buyer\r\n        if (quantity > 1) {\r\n            ScepterNFTContract.safeTransferFrom(\r\n                address(this),\r\n                msg.sender,\r\n                tokenId,\r\n                quantity,\r\n                \"\"\r\n            );\r\n        } else {\r\n            CrownNFTContract.transferFrom(address(this), msg.sender, tokenId);\r\n        }\r\n        // remove market item\r\n        emit BuyMarketItem(\r\n            idToMarketItem[itemIndex].itemId,\r\n            tokenId,\r\n            quantity,\r\n            totalPrice,\r\n            idToMarketItem[itemIndex].seller,\r\n            msg.sender\r\n        );\r\n        delete idToMarketItem[itemIndex];\r\n    }\r\n\r\n    function withdrawNFT(uint256 itemId)\r\n        external\r\n        onlyOwnerOf(idToMarketItem[itemId].seller)\r\n    {\r\n        MarketItem memory item = idToMarketItem[itemId];\r\n        delete idToMarketItem[itemId];\r\n        if (item.quantity > 1) {\r\n            // quantity > 1 => scepter\r\n            ScepterNFTContract.safeTransferFrom(\r\n                address(this),\r\n                msg.sender,\r\n                0,\r\n                item.quantity,\r\n                \"\"\r\n            );\r\n        } else {\r\n            CrownNFTContract.transferFrom(\r\n                address(this),\r\n                msg.sender,\r\n                item.tokenId\r\n            );\r\n        }\r\n        emit WithdrawItem(item.itemId, item.tokenId, item.seller);\r\n    }\r\n\r\n    /**\r\n     * @dev Transfers ownership of the contract to a new account (`newOwner`).\r\n     * Can only be called by the current owner.\r\n     */\r\n    function transferOwnership(address newOwner)\r\n        public\r\n        virtual\r\n        onlyOwnerOf(_owner)\r\n    {\r\n        require(\r\n            newOwner != address(0),\r\n            \"Ownable: new owner is the zero address\"\r\n        );\r\n        _transferOwnership(newOwner);\r\n    }\r\n\r\n    /**\r\n     * @dev Transfers ownership of the contract to a new account (`newOwner`).\r\n     * Internal function without access restriction.\r\n     */\r\n    function _transferOwnership(address newOwner) internal virtual {\r\n        _owner = newOwner;\r\n    }\r\n\r\n    modifier onlyOwnerOf(address _ownerAddress) {\r\n        require(msg.sender == _ownerAddress, \"Ownable: Not owner\");\r\n        _;\r\n    }\r\n}\r\n",
  "sourcePath": "C:\\Github\\Dao\\Develop\\Blockchain\\dao-project\\contracts\\MarketStore\\Market.sol",
  "compiler": {
    "name": "solc",
    "version": "0.8.11+commit.d7f03943.Emscripten.clang"
  },
  "schemaVersion": "3.4.7",
  "updatedAt": "2022-05-30T09:09:23.641Z",
  "devdoc": {
    "kind": "dev",
    "methods": {
      "supportsInterface(bytes4)": {
        "details": "See {IERC165-supportsInterface}."
      },
      "transferOwnership(address)": {
        "details": "Transfers ownership of the contract to a new account (`newOwner`). Can only be called by the current owner."
      }
    },
    "version": 1
  },
  "userdoc": {
    "kind": "user",
    "methods": {
      "onERC721Received(address,address,uint256,bytes)": {
        "notice": "Always returns `IERC721Receiver.onERC721Received.selector`."
      }
    },
    "version": 1
  }
}