{
  "contractName": "Mining",
  "abi": [
    {
      "inputs": [
        {
          "internalType": "address",
          "name": "_token",
          "type": "address"
        }
      ],
      "stateMutability": "nonpayable",
      "type": "constructor"
    },
    {
      "anonymous": false,
      "inputs": [
        {
          "indexed": true,
          "internalType": "uint256",
          "name": "id",
          "type": "uint256"
        },
        {
          "indexed": true,
          "internalType": "address",
          "name": "owner",
          "type": "address"
        },
        {
          "indexed": true,
          "internalType": "uint256",
          "name": "tokenId",
          "type": "uint256"
        },
        {
          "indexed": false,
          "internalType": "uint256",
          "name": "amount",
          "type": "uint256"
        },
        {
          "indexed": false,
          "internalType": "uint256",
          "name": "duration",
          "type": "uint256"
        }
      ],
      "name": "Claimed",
      "type": "event"
    },
    {
      "anonymous": false,
      "inputs": [
        {
          "indexed": true,
          "internalType": "uint256",
          "name": "id",
          "type": "uint256"
        },
        {
          "indexed": true,
          "internalType": "address",
          "name": "owner",
          "type": "address"
        },
        {
          "indexed": false,
          "internalType": "uint256",
          "name": "amount",
          "type": "uint256"
        },
        {
          "indexed": true,
          "internalType": "uint256",
          "name": "duration",
          "type": "uint256"
        },
        {
          "indexed": false,
          "internalType": "uint256",
          "name": "contributeNFTId",
          "type": "uint256"
        },
        {
          "indexed": false,
          "internalType": "uint256",
          "name": "receiveNFTId",
          "type": "uint256"
        }
      ],
      "name": "Minted",
      "type": "event"
    },
    {
      "inputs": [],
      "name": "mintedQuantity",
      "outputs": [
        {
          "internalType": "uint256",
          "name": "",
          "type": "uint256"
        }
      ],
      "stateMutability": "view",
      "type": "function"
    },
    {
      "inputs": [
        {
          "internalType": "uint256",
          "name": "miningId",
          "type": "uint256"
        },
        {
          "internalType": "uint256",
          "name": "newDuration",
          "type": "uint256"
        }
      ],
      "name": "setDuration",
      "outputs": [],
      "stateMutability": "nonpayable",
      "type": "function"
    },
    {
      "inputs": [
        {
          "internalType": "address",
          "name": "_CrownAddress",
          "type": "address"
        }
      ],
      "name": "setCrownContract",
      "outputs": [],
      "stateMutability": "nonpayable",
      "type": "function"
    },
    {
      "inputs": [
        {
          "internalType": "uint256",
          "name": "percent",
          "type": "uint256"
        }
      ],
      "name": "setMaxPercentProposal",
      "outputs": [],
      "stateMutability": "nonpayable",
      "type": "function"
    },
    {
      "inputs": [
        {
          "internalType": "address",
          "name": "_newWinDaoAddress",
          "type": "address"
        }
      ],
      "name": "setWinDAOAddress",
      "outputs": [],
      "stateMutability": "nonpayable",
      "type": "function"
    },
    {
      "inputs": [
        {
          "internalType": "uint256",
          "name": "newUnit",
          "type": "uint256"
        }
      ],
      "name": "setToSecond",
      "outputs": [],
      "stateMutability": "nonpayable",
      "type": "function"
    },
    {
      "inputs": [],
      "name": "initialize",
      "outputs": [],
      "stateMutability": "nonpayable",
      "type": "function"
    },
    {
      "inputs": [
        {
          "internalType": "uint256",
          "name": "percentChange",
          "type": "uint256"
        },
        {
          "internalType": "uint8",
          "name": "action",
          "type": "uint8"
        }
      ],
      "name": "setProposal",
      "outputs": [],
      "stateMutability": "nonpayable",
      "type": "function"
    },
    {
      "inputs": [
        {
          "internalType": "uint256",
          "name": "nftId",
          "type": "uint256"
        }
      ],
      "name": "getListPackage",
      "outputs": [
        {
          "components": [
            {
              "internalType": "uint8",
              "name": "id",
              "type": "uint8"
            },
            {
              "internalType": "uint256",
              "name": "amount",
              "type": "uint256"
            },
            {
              "internalType": "uint256",
              "name": "duration",
              "type": "uint256"
            }
          ],
          "internalType": "struct Mining.Package[3]",
          "name": "",
          "type": "tuple[3]"
        }
      ],
      "stateMutability": "view",
      "type": "function"
    },
    {
      "inputs": [
        {
          "internalType": "uint256",
          "name": "_miningId",
          "type": "uint256"
        },
        {
          "internalType": "uint256",
          "name": "_nftId",
          "type": "uint256"
        }
      ],
      "name": "mint",
      "outputs": [],
      "stateMutability": "nonpayable",
      "type": "function"
    },
    {
      "inputs": [
        {
          "internalType": "uint256",
          "name": "_miningId",
          "type": "uint256"
        }
      ],
      "name": "claim",
      "outputs": [],
      "stateMutability": "nonpayable",
      "type": "function"
    },
    {
      "inputs": [
        {
          "internalType": "address",
          "name": "newOwner",
          "type": "address"
        }
      ],
      "name": "transferOwnership",
      "outputs": [],
      "stateMutability": "nonpayable",
      "type": "function"
    }
  ],
  "bytecode": "0x6080604052600a600e55610e106010553480156200001c57600080fd5b506040516200258f3803806200258f833981810160405281019062000042919062000135565b80600160006101000a81548173ffffffffffffffffffffffffffffffffffffffff021916908373ffffffffffffffffffffffffffffffffffffffff16021790555033600260006101000a81548173ffffffffffffffffffffffffffffffffffffffff021916908373ffffffffffffffffffffffffffffffffffffffff1602179055505062000167565b600080fd5b600073ffffffffffffffffffffffffffffffffffffffff82169050919050565b6000620000fd82620000d0565b9050919050565b6200010f81620000f0565b81146200011b57600080fd5b50565b6000815190506200012f8162000104565b92915050565b6000602082840312156200014e576200014d620000cb565b5b60006200015e848285016200011e565b91505092915050565b61241880620001776000396000f3fe608060405234801561001057600080fd5b50600436106100b45760003560e01c806378642aa21161007157806378642aa2146101635780638129fc1c1461017f578063c5024c4814610189578063cd7ea095146101a5578063f2351f95146101c1578063f2fde38b146101f1576100b4565b80631b2ef1ca146100b95780632f7b390e146100d5578063379607f5146100f35780635b39e2b51461010f578063602bc9791461012b5780636b97093214610147575b600080fd5b6100d360048036038101906100ce919061186a565b61020d565b005b6100dd6109ba565b6040516100ea91906118b9565b60405180910390f35b61010d600480360381019061010891906118d4565b6109c0565b005b6101296004803603810190610124919061195f565b610e25565b005b610145600480360381019061014091906118d4565b610e69565b005b610161600480360381019061015c919061195f565b610e73565b005b61017d600480360381019061017891906119c5565b610eb7565b005b6101876111c5565b005b6101a3600480360381019061019e91906118d4565b6113e0565b005b6101bf60048036038101906101ba919061186a565b6113ea565b005b6101db60048036038101906101d691906118d4565b611418565b6040516101e89190611b01565b60405180910390f35b61020b6004803603810190610206919061195f565b611684565b005b611388600c60009054906101000a900473ffffffffffffffffffffffffffffffffffffffff1673ffffffffffffffffffffffffffffffffffffffff166318160ddd6040518163ffffffff1660e01b8152600401602060405180830381865afa15801561027d573d6000803e3d6000fd5b505050506040513d601f19601f820116820180604052508101906102a19190611b32565b106102e1576040517f08c379a00000000000000000000000000000000000000000000000000000000081526004016102d890611bbc565b60405180910390fd5b6000600383600381106102f7576102f6611bdc565b5b600302016040518060600160405290816000820160009054906101000a900460ff1660ff1660ff1681526020016001820154815260200160028201548152505090506000821461056f573373ffffffffffffffffffffffffffffffffffffffff16600c60009054906101000a900473ffffffffffffffffffffffffffffffffffffffff1673ffffffffffffffffffffffffffffffffffffffff16636352211e846040518263ffffffff1660e01b81526004016103b391906118b9565b602060405180830381865afa1580156103d0573d6000803e3d6000fd5b505050506040513d601f19601f820116820180604052508101906103f49190611c20565b73ffffffffffffffffffffffffffffffffffffffff161461044a576040517f08c379a000000000000000000000000000000000000000000000000000000000815260040161044190611c99565b60405180910390fd5b6000600c60009054906101000a900473ffffffffffffffffffffffffffffffffffffffff1673ffffffffffffffffffffffffffffffffffffffff1663e1dc0761846040518263ffffffff1660e01b81526004016104a791906118b9565b608060405180830381865afa1580156104c4573d6000803e3d6000fd5b505050506040513d601f19601f820116820180604052508101906104e89190611dfa565b9050600015158160600151151514610535576040517f08c379a000000000000000000000000000000000000000000000000000000000815260040161052c90611e73565b60405180910390fd5b60648160000151836020015161054b9190611ec2565b6105559190611f4b565b826020018181516105669190611f7c565b91508181525050505b6000600160009054906101000a900473ffffffffffffffffffffffffffffffffffffffff1673ffffffffffffffffffffffffffffffffffffffff1663dd62ed3e33306040518363ffffffff1660e01b81526004016105ce929190611fbf565b602060405180830381865afa1580156105eb573d6000803e3d6000fd5b505050506040513d601f19601f8201168201806040525081019061060f9190611b32565b90508160200151811015610658576040517f08c379a000000000000000000000000000000000000000000000000000000000815260040161064f90612034565b60405180910390fd5b600160009054906101000a900473ffffffffffffffffffffffffffffffffffffffff1673ffffffffffffffffffffffffffffffffffffffff166323b872dd333085602001516040518463ffffffff1660e01b81526004016106bb93929190612054565b6020604051808303816000875af11580156106da573d6000803e3d6000fd5b505050506040513d601f19601f820116820180604052508101906106fe919061208b565b506000831461079857600c60009054906101000a900473ffffffffffffffffffffffffffffffffffffffff1673ffffffffffffffffffffffffffffffffffffffff1663223218a18460016040518363ffffffff1660e01b81526004016107659291906120c7565b600060405180830381600087803b15801561077f57600080fd5b505af1158015610793573d6000803e3d6000fd5b505050505b6000600c60009054906101000a900473ffffffffffffffffffffffffffffffffffffffff1673ffffffffffffffffffffffffffffffffffffffff166311005a9060016040518263ffffffff1660e01b81526004016107f69190612135565b6020604051808303816000875af1158015610815573d6000803e3d6000fd5b505050506040513d601f19601f820116820180604052508101906108399190611b32565b9050600d6040518060e0016040528060005481526020013373ffffffffffffffffffffffffffffffffffffffff16815260200142815260200185602001518152602001856040015181526020018681526020018381525090806001815401808255809150506001900390600052602060002090600702016000909190919091506000820151816000015560208201518160010160006101000a81548173ffffffffffffffffffffffffffffffffffffffff021916908373ffffffffffffffffffffffffffffffffffffffff16021790555060408201518160020155606082015181600301556080820151816004015560a0820151816005015560c08201518160060155505082604001513373ffffffffffffffffffffffffffffffffffffffff166000547f5e3dadc6188d5e847161446e870880254c956f08cf768fc0948e2725456521d58660200151888660405161099493929190612150565b60405180910390a46000808154809291906109ae90612187565b91905055505050505050565b60005481565b6000600d82815481106109d6576109d5611bdc565b5b90600052602060002090600702016040518060e0016040529081600082015481526020016001820160009054906101000a900473ffffffffffffffffffffffffffffffffffffffff1673ffffffffffffffffffffffffffffffffffffffff1673ffffffffffffffffffffffffffffffffffffffff168152602001600282015481526020016003820154815260200160048201548152602001600582015481526020016006820154815250509050806020015173ffffffffffffffffffffffffffffffffffffffff163373ffffffffffffffffffffffffffffffffffffffff1614610af5576040517f08c379a0000000000000000000000000000000000000000000000000000000008152600401610aec90611c99565b60405180910390fd5b60008160400151905060008260800151905060105481610b159190611ec2565b82610b2091906121d0565b421015610b62576040517f08c379a0000000000000000000000000000000000000000000000000000000008152600401610b5990612272565b60405180910390fd5b60008360a0015114610c0357600c60009054906101000a900473ffffffffffffffffffffffffffffffffffffffff1673ffffffffffffffffffffffffffffffffffffffff1663223218a18460a0015160006040518363ffffffff1660e01b8152600401610bd09291906120c7565b600060405180830381600087803b158015610bea57600080fd5b505af1158015610bfe573d6000803e3d6000fd5b505050505b600d8481548110610c1757610c16611bdc565b5b90600052602060002090600702016000808201600090556001820160006101000a81549073ffffffffffffffffffffffffffffffffffffffff0219169055600282016000905560038201600090556004820160009055600582016000905560068201600090555050600c60009054906101000a900473ffffffffffffffffffffffffffffffffffffffff1673ffffffffffffffffffffffffffffffffffffffff166323b872dd30338660c001516040518463ffffffff1660e01b8152600401610ce293929190612054565b600060405180830381600087803b158015610cfc57600080fd5b505af1158015610d10573d6000803e3d6000fd5b505050508260c00151836020015173ffffffffffffffffffffffffffffffffffffffff1684600001517f528937b330082d892a98d4e428ab2dcca7844b51d227a1c0ae67f0b5261acbd986606001518760800151604051610d72929190612292565b60405180910390a4600160009054906101000a900473ffffffffffffffffffffffffffffffffffffffff1673ffffffffffffffffffffffffffffffffffffffff1663a9059cbb3385606001516040518363ffffffff1660e01b8152600401610ddb9291906122bb565b6020604051808303816000875af1158015610dfa573d6000803e3d6000fd5b505050506040513d601f19601f82011682018060405250810190610e1e919061208b565b5050505050565b80600c60006101000a81548173ffffffffffffffffffffffffffffffffffffffff021916908373ffffffffffffffffffffffffffffffffffffffff16021790555050565b8060108190555050565b80600f60006101000a81548173ffffffffffffffffffffffffffffffffffffffff021916908373ffffffffffffffffffffffffffffffffffffffff16021790555050565b600260009054906101000a900473ffffffffffffffffffffffffffffffffffffffff1673ffffffffffffffffffffffffffffffffffffffff163373ffffffffffffffffffffffffffffffffffffffff161480610f605750600f60009054906101000a900473ffffffffffffffffffffffffffffffffffffffff1673ffffffffffffffffffffffffffffffffffffffff163373ffffffffffffffffffffffffffffffffffffffff16145b610f9f576040517f08c379a0000000000000000000000000000000000000000000000000000000008152600401610f9690611c99565b60405180910390fd5b600e54821115610fe4576040517f08c379a0000000000000000000000000000000000000000000000000000000008152600401610fdb90612330565b60405180910390fd5b60006064836003600060038110610ffe57610ffd611bdc565b5b60030201600101546110109190611ec2565b61101a9190611f4b565b90506000606484600360016003811061103657611035611bdc565b5b60030201600101546110489190611ec2565b6110529190611f4b565b90506000606485600360026003811061106e5761106d611bdc565b5b60030201600101546110809190611ec2565b61108a9190611f4b565b905060008460ff161415611124578260036000600381106110ae576110ad611bdc565b5b6003020160010160008282546110c49190611f7c565b925050819055508160036001600381106110e1576110e0611bdc565b5b6003020160010160008282546110f79190611f7c565b9250508190555080600360026003811061111457611113611bdc565b5b60030201600101819055506111be565b82600360006003811061113a57611139611bdc565b5b60030201600101600082825461115091906121d0565b9250508190555081600360016003811061116d5761116c611bdc565b5b60030201600101600082825461118391906121d0565b925050819055508060036002600381106111a05761119f611bdc565b5b6003020160010160008282546111b691906121d0565b925050819055505b5050505050565b600260009054906101000a900473ffffffffffffffffffffffffffffffffffffffff1673ffffffffffffffffffffffffffffffffffffffff163373ffffffffffffffffffffffffffffffffffffffff1614611255576040517f08c379a000000000000000000000000000000000000000000000000000000000815260040161124c90611c99565b60405180910390fd5b6945e155fa0110fa400000600360006003811061127557611274611bdc565b5b600302016001018190555060038060006003811061129657611295611bdc565b5b6003020160020181905550600060036000600381106112b8576112b7611bdc565b5b6003020160000160006101000a81548160ff021916908360ff16021790555069a968163f0a57b400000060036001600381106112f7576112f6611bdc565b5b60030201600101819055506002600360016003811061131957611318611bdc565b5b60030201600201819055506001600360016003811061133b5761133a611bdc565b5b6003020160000160006101000a81548160ff021916908360ff1602179055506a01a784379d99db42000000600360026003811061137b5761137a611bdc565b5b60030201600101819055506001600360026003811061139d5761139c611bdc565b5b6003020160020181905550600260036002600381106113bf576113be611bdc565b5b6003020160000160006101000a81548160ff021916908360ff160217905550565b80600e8190555050565b80600d83815481106113ff576113fe611bdc565b5b9060005260206000209060070201600401819055505050565b6114206117d4565b600060038080602002604051908101604052809291906000905b82821015611493578382600302016040518060600160405290816000820160009054906101000a900460ff1660ff1660ff168152602001600182015481526020016002820154815250508152602001906001019061143a565b5050505090506000831461167b576000600c60009054906101000a900473ffffffffffffffffffffffffffffffffffffffff1673ffffffffffffffffffffffffffffffffffffffff1663e1dc0761856040518263ffffffff1660e01b81526004016114fe91906118b9565b608060405180830381865afa15801561151b573d6000803e3d6000fd5b505050506040513d601f19601f8201168201806040525081019061153f9190611dfa565b9050606481600001518360006003811061155c5761155b611bdc565b5b60200201516020015161156f9190611ec2565b6115799190611f4b565b8260006003811061158d5761158c611bdc565b5b60200201516020018181516115a29190611f7c565b9150818152505060648160000151836001600381106115c4576115c3611bdc565b5b6020020151602001516115d79190611ec2565b6115e19190611f4b565b826001600381106115f5576115f4611bdc565b5b602002015160200181815161160a9190611f7c565b91508181525050606481600001518360026003811061162c5761162b611bdc565b5b60200201516020015161163f9190611ec2565b6116499190611f4b565b8260026003811061165d5761165c611bdc565b5b60200201516020018181516116729190611f7c565b91508181525050505b80915050919050565b600073ffffffffffffffffffffffffffffffffffffffff168173ffffffffffffffffffffffffffffffffffffffff1614156116f4576040517f08c379a00000000000000000000000000000000000000000000000000000000081526004016116eb906123c2565b60405180910390fd5b600260009054906101000a900473ffffffffffffffffffffffffffffffffffffffff1673ffffffffffffffffffffffffffffffffffffffff163373ffffffffffffffffffffffffffffffffffffffff1614611784576040517f08c379a000000000000000000000000000000000000000000000000000000000815260040161177b90611c99565b60405180910390fd5b61178d81611790565b50565b80600260006101000a81548173ffffffffffffffffffffffffffffffffffffffff021916908373ffffffffffffffffffffffffffffffffffffffff16021790555050565b60405180606001604052806003905b6117eb611801565b8152602001906001900390816117e35790505090565b6040518060600160405280600060ff16815260200160008152602001600081525090565b6000604051905090565b600080fd5b6000819050919050565b61184781611834565b811461185257600080fd5b50565b6000813590506118648161183e565b92915050565b600080604083850312156118815761188061182f565b5b600061188f85828601611855565b92505060206118a085828601611855565b9150509250929050565b6118b381611834565b82525050565b60006020820190506118ce60008301846118aa565b92915050565b6000602082840312156118ea576118e961182f565b5b60006118f884828501611855565b91505092915050565b600073ffffffffffffffffffffffffffffffffffffffff82169050919050565b600061192c82611901565b9050919050565b61193c81611921565b811461194757600080fd5b50565b60008135905061195981611933565b92915050565b6000602082840312156119755761197461182f565b5b60006119838482850161194a565b91505092915050565b600060ff82169050919050565b6119a28161198c565b81146119ad57600080fd5b50565b6000813590506119bf81611999565b92915050565b600080604083850312156119dc576119db61182f565b5b60006119ea85828601611855565b92505060206119fb858286016119b0565b9150509250929050565b600060039050919050565b600081905092915050565b6000819050919050565b611a2e8161198c565b82525050565b611a3d81611834565b82525050565b606082016000820151611a596000850182611a25565b506020820151611a6c6020850182611a34565b506040820151611a7f6040850182611a34565b50505050565b6000611a918383611a43565b60608301905092915050565b6000602082019050919050565b611ab381611a05565b611abd8184611a10565b9250611ac882611a1b565b8060005b83811015611af9578151611ae08782611a85565b9650611aeb83611a9d565b925050600181019050611acc565b505050505050565b600061012082019050611b176000830184611aaa565b92915050565b600081519050611b2c8161183e565b92915050565b600060208284031215611b4857611b4761182f565b5b6000611b5684828501611b1d565b91505092915050565b600082825260208201905092915050565b7f4f7665722043726f776e20737570706c79000000000000000000000000000000600082015250565b6000611ba6601183611b5f565b9150611bb182611b70565b602082019050919050565b60006020820190508181036000830152611bd581611b99565b9050919050565b7f4e487b7100000000000000000000000000000000000000000000000000000000600052603260045260246000fd5b600081519050611c1a81611933565b92915050565b600060208284031215611c3657611c3561182f565b5b6000611c4484828501611c0b565b91505092915050565b7f4f776e61626c653a204e6f74206f776e65720000000000000000000000000000600082015250565b6000611c83601283611b5f565b9150611c8e82611c4d565b602082019050919050565b60006020820190508181036000830152611cb281611c76565b9050919050565b600080fd5b6000601f19601f8301169050919050565b7f4e487b7100000000000000000000000000000000000000000000000000000000600052604160045260246000fd5b611d0782611cbe565b810181811067ffffffffffffffff82111715611d2657611d25611ccf565b5b80604052505050565b6000611d39611825565b9050611d458282611cfe565b919050565b60008115159050919050565b611d5f81611d4a565b8114611d6a57600080fd5b50565b600081519050611d7c81611d56565b92915050565b600060808284031215611d9857611d97611cb9565b5b611da26080611d2f565b90506000611db284828501611b1d565b6000830152506020611dc684828501611b1d565b6020830152506040611dda84828501611b1d565b6040830152506060611dee84828501611d6d565b60608301525092915050565b600060808284031215611e1057611e0f61182f565b5b6000611e1e84828501611d82565b91505092915050565b7f43726f776e207374616b65640000000000000000000000000000000000000000600082015250565b6000611e5d600c83611b5f565b9150611e6882611e27565b602082019050919050565b60006020820190508181036000830152611e8c81611e50565b9050919050565b7f4e487b7100000000000000000000000000000000000000000000000000000000600052601160045260246000fd5b6000611ecd82611834565b9150611ed883611834565b9250817fffffffffffffffffffffffffffffffffffffffffffffffffffffffffffffffff0483118215151615611f1157611f10611e93565b5b828202905092915050565b7f4e487b7100000000000000000000000000000000000000000000000000000000600052601260045260246000fd5b6000611f5682611834565b9150611f6183611834565b925082611f7157611f70611f1c565b5b828204905092915050565b6000611f8782611834565b9150611f9283611834565b925082821015611fa557611fa4611e93565b5b828203905092915050565b611fb981611921565b82525050565b6000604082019050611fd46000830185611fb0565b611fe16020830184611fb0565b9392505050565b7f4f76657220616c6c6f77616e6365205744410000000000000000000000000000600082015250565b600061201e601283611b5f565b915061202982611fe8565b602082019050919050565b6000602082019050818103600083015261204d81612011565b9050919050565b60006060820190506120696000830186611fb0565b6120766020830185611fb0565b61208360408301846118aa565b949350505050565b6000602082840312156120a1576120a061182f565b5b60006120af84828501611d6d565b91505092915050565b6120c181611d4a565b82525050565b60006040820190506120dc60008301856118aa565b6120e960208301846120b8565b9392505050565b6000819050919050565b6000819050919050565b600061211f61211a612115846120f0565b6120fa565b611834565b9050919050565b61212f81612104565b82525050565b600060208201905061214a6000830184612126565b92915050565b600060608201905061216560008301866118aa565b61217260208301856118aa565b61217f60408301846118aa565b949350505050565b600061219282611834565b91507fffffffffffffffffffffffffffffffffffffffffffffffffffffffffffffffff8214156121c5576121c4611e93565b5b600182019050919050565b60006121db82611834565b91506121e683611834565b9250827fffffffffffffffffffffffffffffffffffffffffffffffffffffffffffffffff0382111561221b5761221a611e93565b5b828201905092915050565b7f4d696e696e67206c6f636b656400000000000000000000000000000000000000600082015250565b600061225c600d83611b5f565b915061226782612226565b602082019050919050565b6000602082019050818103600083015261228b8161224f565b9050919050565b60006040820190506122a760008301856118aa565b6122b460208301846118aa565b9392505050565b60006040820190506122d06000830185611fb0565b6122dd60208301846118aa565b9392505050565b7f50657263656e7461676520746f6f206269670000000000000000000000000000600082015250565b600061231a601283611b5f565b9150612325826122e4565b602082019050919050565b600060208201905081810360008301526123498161230d565b9050919050565b7f4f776e61626c653a206e6577206f776e657220697320746865207a65726f206160008201527f6464726573730000000000000000000000000000000000000000000000000000602082015250565b60006123ac602683611b5f565b91506123b782612350565b604082019050919050565b600060208201905081810360008301526123db8161239f565b905091905056fea26469706673582212207e2510cfeaa5781d4f80fc93077b5e2f371a4d18a0f3d5638f91a631982a950064736f6c634300080b0033",
  "immutableReferences": {},
  "source": "// SPDX-License-Identifier: MIT\r\npragma solidity ^0.8.11;\r\n\r\nimport \"@openzeppelin/contracts/token/ERC20/IERC20.sol\";\r\nimport \"../NFT/ICrownNFT.sol\";\r\n\r\ncontract Mining {\r\n    uint256 public mintedQuantity;\r\n\r\n    struct Mint {\r\n        uint256 id;\r\n        address owner;\r\n        uint256 timestamp;\r\n        uint256 amount;\r\n        uint256 duration;\r\n        uint256 contributeNFTId;\r\n        uint256 receiveNFTId;\r\n    }\r\n\r\n    struct Package {\r\n        uint8 id;\r\n        uint256 amount;\r\n        uint256 duration;\r\n    }\r\n\r\n    event Minted(\r\n        uint256 indexed id,\r\n        address indexed owner,\r\n        uint256 amount,\r\n        uint256 indexed duration,\r\n        uint256 contributeNFTId,\r\n        uint256 receiveNFTId\r\n    );\r\n\r\n    event Claimed(\r\n        uint256 indexed id,\r\n        address indexed owner,\r\n        uint256 indexed tokenId,\r\n        uint256 amount,\r\n        uint256 duration\r\n    );\r\n\r\n    address _WDAtokenAddress;\r\n    address _owner;\r\n    Package[3] packages;\r\n    ICrownNFT CrownContract;\r\n    // maps address of user to stake\r\n    Mint[] vault;\r\n\r\n    constructor(address _token) {\r\n        _WDAtokenAddress = _token;\r\n        _owner = msg.sender;\r\n    }\r\n\r\n    /** ============== TEST ONLY ================ */\r\n    function setDuration(uint256 miningId, uint256 newDuration) public {\r\n        vault[miningId].duration = newDuration;\r\n    }\r\n\r\n    function setCrownContract(address _CrownAddress) external {\r\n        CrownContract = ICrownNFT(_CrownAddress);\r\n    }\r\n\r\n    uint256 maxPercentProposal = 10;\r\n\r\n    function setMaxPercentProposal(uint256 percent) external {\r\n        maxPercentProposal = percent;\r\n    }\r\n\r\n    address WinDaoAddress;\r\n\r\n    function setWinDAOAddress(address _newWinDaoAddress) external {\r\n        WinDaoAddress = _newWinDaoAddress;\r\n    }\r\n\r\n    uint256 unitToSecond = 60 * 60;\r\n\r\n    function setToSecond(uint256 newUnit) external {\r\n        unitToSecond = newUnit;\r\n    }\r\n\r\n    /** ============== END OF TEST ONLY ============== */\r\n\r\n    function initialize() external {\r\n        require(msg.sender == _owner, \"Ownable: Not owner\");\r\n        packages[0].amount = 330000 * 10**18;\r\n        packages[0].duration = 3; // MUST CHANGE TO 360\r\n        packages[0].id = 0;\r\n        packages[1].amount = 800000 * 10**18;\r\n        packages[1].duration = 2; // MUST CHANGE TO 180\r\n        packages[1].id = 1;\r\n        packages[2].amount = 2000000 * 10**18;\r\n        packages[2].duration = 1; // MUST CHANGE TO 90\r\n        packages[2].id = 2;\r\n    }\r\n\r\n    function setProposal(uint256 percentChange, uint8 action) external {\r\n        require(\r\n            msg.sender == _owner || msg.sender == WinDaoAddress,\r\n            \"Ownable: Not owner\"\r\n        );\r\n        require(percentChange <= maxPercentProposal, \"Percentage too big\");\r\n        uint256 amountChangePackage1 = (packages[0].amount * percentChange) /\r\n            100;\r\n        uint256 amountChangePackage2 = (packages[1].amount * percentChange) /\r\n            100;\r\n        uint256 amountChangePackage3 = (packages[2].amount * percentChange) /\r\n            100;\r\n        if (action == 0) {\r\n            packages[0].amount -= amountChangePackage1;\r\n            packages[1].amount -= amountChangePackage2;\r\n            packages[2].amount = amountChangePackage3;\r\n        } else {\r\n            packages[0].amount += amountChangePackage1;\r\n            packages[1].amount += amountChangePackage2;\r\n            packages[2].amount += amountChangePackage3;\r\n        }\r\n    }\r\n\r\n    function getListPackage(uint256 nftId)\r\n        external\r\n        view\r\n        returns (Package[3] memory)\r\n    {\r\n        Package[3] memory finalPackages = packages;\r\n\r\n        if (nftId != 0) {\r\n            ICrownNFT.CrownTraits memory nftDetail = CrownContract.getTraits(\r\n                nftId\r\n            );\r\n            finalPackages[0].amount -= ((finalPackages[0].amount *\r\n                nftDetail.reduce) / 100);\r\n            finalPackages[1].amount -= ((finalPackages[1].amount *\r\n                nftDetail.reduce) / 100);\r\n            finalPackages[2].amount -= ((finalPackages[2].amount *\r\n                nftDetail.reduce) / 100);\r\n        }\r\n        return finalPackages;\r\n    }\r\n\r\n    /**\r\n     * @param _miningId: 0, 1, 2\r\n     * @param _nftId: apply nft to reduce fee\r\n     */\r\n    function mint(uint256 _miningId, uint256 _nftId) external {\r\n        require(CrownContract.totalSupply() < 5000, \"Over Crown supply\");\r\n        Package memory finalPackage = packages[_miningId];\r\n        if (_nftId != 0) {\r\n            require(\r\n                CrownContract.ownerOf(_nftId) == msg.sender,\r\n                \"Ownable: Not owner\"\r\n            );\r\n            ICrownNFT.CrownTraits memory nftDetail = CrownContract.getTraits(\r\n                _nftId\r\n            );\r\n            require(nftDetail.staked == false, \"Crown staked\");\r\n            finalPackage.amount -= ((finalPackage.amount * nftDetail.reduce) /\r\n                100);\r\n        }\r\n\r\n        uint256 allowance = IERC20(_WDAtokenAddress).allowance(\r\n            msg.sender,\r\n            address(this)\r\n        );\r\n        require(allowance >= finalPackage.amount, \"Over allowance WDA\");\r\n        IERC20(_WDAtokenAddress).transferFrom(\r\n            msg.sender,\r\n            address(this),\r\n            finalPackage.amount\r\n        );\r\n        if (_nftId != 0) {\r\n            CrownContract.stakeOrUnstake(_nftId, true);\r\n        }\r\n        // mint crown for this mining\r\n        uint256 receiveTokenId = CrownContract.mintValidTarget(1);\r\n\r\n        vault.push(\r\n            Mint(\r\n                mintedQuantity,\r\n                msg.sender,\r\n                block.timestamp,\r\n                finalPackage.amount,\r\n                finalPackage.duration,\r\n                _nftId,\r\n                receiveTokenId\r\n            )\r\n        );\r\n        emit Minted(\r\n            mintedQuantity,\r\n            msg.sender,\r\n            finalPackage.amount,\r\n            finalPackage.duration,\r\n            _nftId,\r\n            receiveTokenId\r\n        );\r\n        mintedQuantity++;\r\n    }\r\n\r\n    function claim(uint256 _miningId) external {\r\n        Mint memory minted = vault[_miningId];\r\n        require(msg.sender == minted.owner, \"Ownable: Not owner\");\r\n        uint256 lastTimeCheck = minted.timestamp;\r\n        uint256 miningDuration = minted.duration;\r\n        // phi ng thi hn mi claim c\r\n        require(\r\n            block.timestamp >=\r\n                (lastTimeCheck + (miningDuration * unitToSecond)),\r\n            \"Mining locked\"\r\n        );\r\n        // delete mining\r\n        if (minted.contributeNFTId != 0) {\r\n            CrownContract.stakeOrUnstake(minted.contributeNFTId, false);\r\n        }\r\n        delete vault[_miningId];\r\n        //\r\n        CrownContract.transferFrom(\r\n            address(this),\r\n            msg.sender,\r\n            minted.receiveNFTId\r\n        );\r\n        emit Claimed(\r\n            minted.id,\r\n            minted.owner,\r\n            minted.receiveNFTId,\r\n            minted.amount,\r\n            minted.duration\r\n        );\r\n        IERC20(_WDAtokenAddress).transfer(msg.sender, minted.amount);\r\n    }\r\n\r\n    /**\r\n     * @dev Transfers ownership of the contract to a new account (`newOwner`).\r\n     * Can only be called by the current owner.\r\n     */\r\n    function transferOwnership(address newOwner) public virtual {\r\n        require(\r\n            newOwner != address(0),\r\n            \"Ownable: new owner is the zero address\"\r\n        );\r\n        require(msg.sender == _owner, \"Ownable: Not owner\");\r\n        _transferOwnership(newOwner);\r\n    }\r\n\r\n    /**\r\n     * @dev Transfers ownership of the contract to a new account (`newOwner`).\r\n     * Internal function without access restriction.\r\n     */\r\n    function _transferOwnership(address newOwner) internal virtual {\r\n        _owner = newOwner;\r\n    }\r\n}\r\n",
  "sourcePath": "C:\\Github\\Dao\\Develop\\Blockchain\\dao-project\\contracts\\Staking\\Mining.sol",
  "compiler": {
    "name": "solc",
    "version": "0.8.11+commit.d7f03943.Emscripten.clang"
  },
  "schemaVersion": "3.4.7",
  "updatedAt": "2022-06-23T10:13:52.755Z",
  "devdoc": {
    "kind": "dev",
    "methods": {
      "mint(uint256,uint256)": {
        "params": {
          "_miningId": ": 0, 1, 2",
          "_nftId": ": apply nft to reduce fee"
        }
      },
      "transferOwnership(address)": {
        "details": "Transfers ownership of the contract to a new account (`newOwner`). Can only be called by the current owner."
      }
    },
    "version": 1
  },
  "userdoc": {
    "kind": "user",
    "methods": {
      "initialize()": {
        "notice": "============== END OF TEST ONLY ============== "
      },
      "setDuration(uint256,uint256)": {
        "notice": "============== TEST ONLY ================ "
      }
    },
    "version": 1
  }
}