{
  "contractName": "PrivateWallet",
  "abi": [
    {
      "inputs": [
        {
          "internalType": "address",
          "name": "token_",
          "type": "address"
        },
        {
          "internalType": "address",
          "name": "exchangeToken_",
          "type": "address"
        }
      ],
      "stateMutability": "nonpayable",
      "type": "constructor"
    },
    {
      "anonymous": false,
      "inputs": [
        {
          "indexed": true,
          "internalType": "address",
          "name": "buyer",
          "type": "address"
        },
        {
          "indexed": false,
          "internalType": "uint256",
          "name": "amount",
          "type": "uint256"
        }
      ],
      "name": "ClaimWDA",
      "type": "event"
    },
    {
      "anonymous": false,
      "inputs": [
        {
          "indexed": true,
          "internalType": "address",
          "name": "previousOwner",
          "type": "address"
        },
        {
          "indexed": true,
          "internalType": "address",
          "name": "newOwner",
          "type": "address"
        }
      ],
      "name": "OwnershipTransferred",
      "type": "event"
    },
    {
      "anonymous": false,
      "inputs": [
        {
          "indexed": true,
          "internalType": "address",
          "name": "buyer",
          "type": "address"
        },
        {
          "indexed": false,
          "internalType": "uint256",
          "name": "amount",
          "type": "uint256"
        }
      ],
      "name": "Register",
      "type": "event"
    },
    {
      "anonymous": false,
      "inputs": [
        {
          "indexed": false,
          "internalType": "bool",
          "name": "soldout",
          "type": "bool"
        }
      ],
      "name": "SoldOut",
      "type": "event"
    },
    {
      "inputs": [],
      "name": "_cost",
      "outputs": [
        {
          "internalType": "uint256",
          "name": "",
          "type": "uint256"
        }
      ],
      "stateMutability": "view",
      "type": "function"
    },
    {
      "inputs": [],
      "name": "_endAt",
      "outputs": [
        {
          "internalType": "uint256",
          "name": "",
          "type": "uint256"
        }
      ],
      "stateMutability": "view",
      "type": "function"
    },
    {
      "inputs": [],
      "name": "_exchangeToken",
      "outputs": [
        {
          "internalType": "address",
          "name": "",
          "type": "address"
        }
      ],
      "stateMutability": "view",
      "type": "function"
    },
    {
      "inputs": [],
      "name": "_firstLockingTime",
      "outputs": [
        {
          "internalType": "uint256",
          "name": "",
          "type": "uint256"
        }
      ],
      "stateMutability": "view",
      "type": "function"
    },
    {
      "inputs": [],
      "name": "_maxW1",
      "outputs": [
        {
          "internalType": "uint256",
          "name": "",
          "type": "uint256"
        }
      ],
      "stateMutability": "view",
      "type": "function"
    },
    {
      "inputs": [],
      "name": "_maxW2",
      "outputs": [
        {
          "internalType": "uint256",
          "name": "",
          "type": "uint256"
        }
      ],
      "stateMutability": "view",
      "type": "function"
    },
    {
      "inputs": [],
      "name": "_minW1",
      "outputs": [
        {
          "internalType": "uint256",
          "name": "",
          "type": "uint256"
        }
      ],
      "stateMutability": "view",
      "type": "function"
    },
    {
      "inputs": [],
      "name": "_minW2",
      "outputs": [
        {
          "internalType": "uint256",
          "name": "",
          "type": "uint256"
        }
      ],
      "stateMutability": "view",
      "type": "function"
    },
    {
      "inputs": [],
      "name": "_soldOut",
      "outputs": [
        {
          "internalType": "bool",
          "name": "",
          "type": "bool"
        }
      ],
      "stateMutability": "view",
      "type": "function"
    },
    {
      "inputs": [],
      "name": "_startAt",
      "outputs": [
        {
          "internalType": "uint256",
          "name": "",
          "type": "uint256"
        }
      ],
      "stateMutability": "view",
      "type": "function"
    },
    {
      "inputs": [],
      "name": "_tge",
      "outputs": [
        {
          "internalType": "uint256",
          "name": "",
          "type": "uint256"
        }
      ],
      "stateMutability": "view",
      "type": "function"
    },
    {
      "inputs": [],
      "name": "_tgeTime",
      "outputs": [
        {
          "internalType": "uint256",
          "name": "",
          "type": "uint256"
        }
      ],
      "stateMutability": "view",
      "type": "function"
    },
    {
      "inputs": [],
      "name": "_token",
      "outputs": [
        {
          "internalType": "address",
          "name": "",
          "type": "address"
        }
      ],
      "stateMutability": "view",
      "type": "function"
    },
    {
      "inputs": [],
      "name": "_totalBalances",
      "outputs": [
        {
          "internalType": "uint256",
          "name": "",
          "type": "uint256"
        }
      ],
      "stateMutability": "view",
      "type": "function"
    },
    {
      "inputs": [],
      "name": "_totalVestingPeriod",
      "outputs": [
        {
          "internalType": "uint256",
          "name": "",
          "type": "uint256"
        }
      ],
      "stateMutability": "view",
      "type": "function"
    },
    {
      "inputs": [],
      "name": "_vestingPeriod",
      "outputs": [
        {
          "internalType": "uint256",
          "name": "",
          "type": "uint256"
        }
      ],
      "stateMutability": "view",
      "type": "function"
    },
    {
      "inputs": [],
      "name": "owner",
      "outputs": [
        {
          "internalType": "address",
          "name": "",
          "type": "address"
        }
      ],
      "stateMutability": "view",
      "type": "function"
    },
    {
      "inputs": [],
      "name": "renounceOwnership",
      "outputs": [],
      "stateMutability": "nonpayable",
      "type": "function"
    },
    {
      "inputs": [
        {
          "internalType": "address",
          "name": "newOwner",
          "type": "address"
        }
      ],
      "name": "transferOwnership",
      "outputs": [],
      "stateMutability": "nonpayable",
      "type": "function"
    },
    {
      "inputs": [
        {
          "internalType": "address",
          "name": "",
          "type": "address"
        }
      ],
      "name": "users",
      "outputs": [
        {
          "internalType": "uint256",
          "name": "balance",
          "type": "uint256"
        },
        {
          "internalType": "uint256",
          "name": "amountClaimVesting",
          "type": "uint256"
        },
        {
          "internalType": "bool",
          "name": "isClaimTGE",
          "type": "bool"
        }
      ],
      "stateMutability": "view",
      "type": "function"
    },
    {
      "inputs": [
        {
          "internalType": "uint256",
          "name": "",
          "type": "uint256"
        }
      ],
      "name": "whiteList1",
      "outputs": [
        {
          "internalType": "address",
          "name": "",
          "type": "address"
        }
      ],
      "stateMutability": "view",
      "type": "function"
    },
    {
      "inputs": [
        {
          "internalType": "uint256",
          "name": "",
          "type": "uint256"
        }
      ],
      "name": "whiteList2",
      "outputs": [
        {
          "internalType": "address",
          "name": "",
          "type": "address"
        }
      ],
      "stateMutability": "view",
      "type": "function"
    },
    {
      "inputs": [
        {
          "internalType": "uint256",
          "name": "startAt_",
          "type": "uint256"
        },
        {
          "internalType": "uint256",
          "name": "firstLockingTime_",
          "type": "uint256"
        },
        {
          "internalType": "uint256",
          "name": "tge_",
          "type": "uint256"
        },
        {
          "internalType": "uint256",
          "name": "vestingPeriod_",
          "type": "uint256"
        },
        {
          "internalType": "uint256",
          "name": "totalVestingPeriod_",
          "type": "uint256"
        },
        {
          "internalType": "uint256",
          "name": "totalBalances_",
          "type": "uint256"
        },
        {
          "internalType": "uint256",
          "name": "cost_",
          "type": "uint256"
        }
      ],
      "name": "initialize",
      "outputs": [],
      "stateMutability": "nonpayable",
      "type": "function"
    },
    {
      "inputs": [
        {
          "internalType": "uint256",
          "name": "minW1_",
          "type": "uint256"
        },
        {
          "internalType": "uint256",
          "name": "maxW1_",
          "type": "uint256"
        },
        {
          "internalType": "uint256",
          "name": "minW2_",
          "type": "uint256"
        },
        {
          "internalType": "uint256",
          "name": "maxW2_",
          "type": "uint256"
        }
      ],
      "name": "setMinMax",
      "outputs": [],
      "stateMutability": "nonpayable",
      "type": "function"
    },
    {
      "inputs": [
        {
          "internalType": "uint256",
          "name": "amount",
          "type": "uint256"
        }
      ],
      "name": "buy",
      "outputs": [],
      "stateMutability": "nonpayable",
      "type": "function"
    },
    {
      "inputs": [
        {
          "internalType": "uint256",
          "name": "tgeTime_",
          "type": "uint256"
        }
      ],
      "name": "setTgeTime",
      "outputs": [],
      "stateMutability": "nonpayable",
      "type": "function"
    },
    {
      "inputs": [],
      "name": "claimTGE",
      "outputs": [],
      "stateMutability": "nonpayable",
      "type": "function"
    },
    {
      "inputs": [],
      "name": "vesting",
      "outputs": [],
      "stateMutability": "nonpayable",
      "type": "function"
    },
    {
      "inputs": [
        {
          "internalType": "address",
          "name": "account",
          "type": "address"
        }
      ],
      "name": "getUnlocked",
      "outputs": [
        {
          "internalType": "uint256",
          "name": "",
          "type": "uint256"
        }
      ],
      "stateMutability": "view",
      "type": "function"
    },
    {
      "inputs": [
        {
          "internalType": "address[]",
          "name": "users_",
          "type": "address[]"
        }
      ],
      "name": "setWhiteList1",
      "outputs": [],
      "stateMutability": "nonpayable",
      "type": "function"
    },
    {
      "inputs": [
        {
          "internalType": "address",
          "name": "account",
          "type": "address"
        }
      ],
      "name": "isWhiteList1",
      "outputs": [
        {
          "internalType": "bool",
          "name": "",
          "type": "bool"
        }
      ],
      "stateMutability": "view",
      "type": "function"
    },
    {
      "inputs": [
        {
          "internalType": "address[]",
          "name": "users_",
          "type": "address[]"
        }
      ],
      "name": "setWhiteList2",
      "outputs": [],
      "stateMutability": "nonpayable",
      "type": "function"
    },
    {
      "inputs": [
        {
          "internalType": "address",
          "name": "account",
          "type": "address"
        }
      ],
      "name": "isWhiteList2",
      "outputs": [
        {
          "internalType": "bool",
          "name": "",
          "type": "bool"
        }
      ],
      "stateMutability": "view",
      "type": "function"
    },
    {
      "inputs": [
        {
          "internalType": "address",
          "name": "account",
          "type": "address"
        },
        {
          "internalType": "uint256",
          "name": "amount",
          "type": "uint256"
        }
      ],
      "name": "setUserBalance",
      "outputs": [],
      "stateMutability": "nonpayable",
      "type": "function"
    },
    {
      "inputs": [],
      "name": "withdrawBusd",
      "outputs": [],
      "stateMutability": "nonpayable",
      "type": "function"
    },
    {
      "inputs": [
        {
          "internalType": "address",
          "name": "account",
          "type": "address"
        }
      ],
      "name": "getBusdBalance",
      "outputs": [
        {
          "internalType": "uint256",
          "name": "",
          "type": "uint256"
        }
      ],
      "stateMutability": "view",
      "type": "function"
    },
    {
      "inputs": [
        {
          "internalType": "address",
          "name": "account",
          "type": "address"
        }
      ],
      "name": "getWDABalance",
      "outputs": [
        {
          "internalType": "uint256",
          "name": "",
          "type": "uint256"
        }
      ],
      "stateMutability": "view",
      "type": "function"
    },
    {
      "inputs": [],
      "name": "getTotalBoughtWDA",
      "outputs": [
        {
          "internalType": "uint256",
          "name": "",
          "type": "uint256"
        }
      ],
      "stateMutability": "view",
      "type": "function"
    },
    {
      "inputs": [],
      "name": "getTotalUnboughtWDA",
      "outputs": [
        {
          "internalType": "uint256",
          "name": "",
          "type": "uint256"
        }
      ],
      "stateMutability": "view",
      "type": "function"
    },
    {
      "inputs": [
        {
          "internalType": "address",
          "name": "account",
          "type": "address"
        }
      ],
      "name": "isExistAddress",
      "outputs": [
        {
          "internalType": "bool",
          "name": "",
          "type": "bool"
        }
      ],
      "stateMutability": "view",
      "type": "function"
    }
  ],
  "bytecode": "0x60806040523480156200001157600080fd5b506040516200383c3803806200383c83398181016040528101906200003791906200021e565b620000576200004b620000e860201b60201c565b620000f060201b60201c565b6001808190555081600f60016101000a81548173ffffffffffffffffffffffffffffffffffffffff021916908373ffffffffffffffffffffffffffffffffffffffff16021790555080601060006101000a81548173ffffffffffffffffffffffffffffffffffffffff021916908373ffffffffffffffffffffffffffffffffffffffff160217905550505062000265565b600033905090565b60008060009054906101000a900473ffffffffffffffffffffffffffffffffffffffff169050816000806101000a81548173ffffffffffffffffffffffffffffffffffffffff021916908373ffffffffffffffffffffffffffffffffffffffff1602179055508173ffffffffffffffffffffffffffffffffffffffff168173ffffffffffffffffffffffffffffffffffffffff167f8be0079c531659141344cd1fd0a4f28419497f9722a3daafe3b4186f6b6457e060405160405180910390a35050565b600080fd5b600073ffffffffffffffffffffffffffffffffffffffff82169050919050565b6000620001e682620001b9565b9050919050565b620001f881620001d9565b81146200020457600080fd5b50565b6000815190506200021881620001ed565b92915050565b60008060408385031215620002385762000237620001b4565b5b6000620002488582860162000207565b92505060206200025b8582860162000207565b9150509250929050565b6135c780620002756000396000f3fe608060405234801561001057600080fd5b50600436106102485760003560e01c80639b8c1fed1161013b578063e3897081116100b8578063f2fde38b1161007c578063f2fde38b146106af578063fa3e2518146106cb578063fd455ebf146106e9578063fe17770014610707578063ff50ed451461072357610248565b8063e389708114610609578063e8acf7b714610627578063ecd0c0c314610643578063eeaa306e14610661578063effade411461067f57610248565b8063c3ce6ac1116100ff578063c3ce6ac114610565578063c432dec914610595578063cba1a99c146105b3578063cc681cff146105d1578063d96a094a146105ed57610248565b80639b8c1fed146104bf578063a730043e146104c9578063a87430ba146104e7578063aaa470b514610519578063b6610ace1461054957610248565b8063489c3403116101c9578063812efdb31161018d578063812efdb314610417578063837f4579146104355780638da5cb5b1461045357806394e11ca81461047157806397e278b4146104a157610248565b8063489c34031461038757806359d439d1146103a357806359ffcde4146103d3578063715018a61461040357806372edf0631461040d57610248565b80632d17c7e8116102105780632d17c7e81461030757806332050fa51461032557806332f1360614610341578063352b70391461035f57806344c63eec1461037d57610248565b806304305f421461024d57806305396f261461026b578063146224ff1461029b578063186675ec146102b95780632bb42a46146102e9575b600080fd5b610255610741565b6040516102629190612640565b60405180910390f35b61028560048036038101906102809190612691565b610747565b60405161029291906126ff565b60405180910390f35b6102a3610786565b6040516102b09190612640565b60405180910390f35b6102d360048036038101906102ce9190612746565b61078c565b6040516102e0919061278e565b60405180910390f35b6102f161083b565b6040516102fe9190612640565b60405180910390f35b61030f610857565b60405161031c9190612640565b60405180910390f35b61033f600480360381019061033a91906127a9565b61085d565b005b6103496108fb565b6040516103569190612640565b60405180910390f35b610367610901565b6040516103749190612640565b60405180910390f35b610385610907565b005b6103a1600480360381019061039c9190612691565b610aa1565b005b6103bd60048036038101906103b89190612746565b610b80565b6040516103ca9190612640565b60405180910390f35b6103ed60048036038101906103e89190612746565b610cbb565b6040516103fa919061278e565b60405180910390f35b61040b610d6a565b005b610415610df2565b005b61041f610fb9565b60405161042c9190612640565b60405180910390f35b61043d610fbf565b60405161044a9190612640565b60405180910390f35b61045b610fc5565b60405161046891906126ff565b60405180910390f35b61048b60048036038101906104869190612746565b610fee565b6040516104989190612640565b60405180910390f35b6104a96111b6565b6040516104b69190612640565b60405180910390f35b6104c76111bc565b005b6104d161133d565b6040516104de9190612640565b60405180910390f35b61050160048036038101906104fc9190612746565b6113fd565b60405161051093929190612810565b60405180910390f35b610533600480360381019061052e9190612691565b611434565b60405161054091906126ff565b60405180910390f35b610563600480360381019061055e9190612847565b611473565b005b61057f600480360381019061057a9190612746565b611529565b60405161058c9190612640565b60405180910390f35b61059d611657565b6040516105aa9190612640565b60405180910390f35b6105bb61165d565b6040516105c89190612640565b60405180910390f35b6105eb60048036038101906105e6919061294e565b611663565b005b61060760048036038101906106029190612691565b611703565b005b610611611dce565b60405161061e91906126ff565b60405180910390f35b610641600480360381019061063c919061294e565b611df4565b005b61064b611e94565b60405161065891906126ff565b60405180910390f35b610669611eba565b6040516106769190612640565b60405180910390f35b61069960048036038101906106949190612746565b611ec0565b6040516106a6919061278e565b60405180910390f35b6106c960048036038101906106c49190612746565b611f6f565b005b6106d3612067565b6040516106e09190612640565b60405180910390f35b6106f161206d565b6040516106fe9190612640565b60405180910390f35b610721600480360381019061071c919061299b565b612073565b005b61072b612294565b604051610738919061278e565b60405180910390f35b60095481565b6011818154811061075757600080fd5b906000526020600020016000915054906101000a900473ffffffffffffffffffffffffffffffffffffffff1681565b60025481565b600080600090505b601180549050811015610830578273ffffffffffffffffffffffffffffffffffffffff16601182815481106107cc576107cb6129db565b5b9060005260206000200160009054906101000a900473ffffffffffffffffffffffffffffffffffffffff1673ffffffffffffffffffffffffffffffffffffffff16141561081d576001915050610836565b808061082890612a39565b915050610794565b50600090505b919050565b600061084561133d565b6008546108529190612a82565b905090565b600c5481565b6108656122a7565b73ffffffffffffffffffffffffffffffffffffffff16610883610fc5565b73ffffffffffffffffffffffffffffffffffffffff16146108d9576040517f08c379a00000000000000000000000000000000000000000000000000000000081526004016108d090612b13565b60405180910390fd5b83600a8190555082600b8190555081600c8190555080600d8190555050505050565b60035481565b600e5481565b6002600154141561094d576040517f08c379a000000000000000000000000000000000000000000000000000000000815260040161094490612b7f565b60405180910390fd5b60026001819055506000600e541161099a576040517f08c379a000000000000000000000000000000000000000000000000000000000815260040161099190612beb565b60405180910390fd5b600e544210156109df576040517f08c379a00000000000000000000000000000000000000000000000000000000081526004016109d690612c57565b60405180910390fd5b6000601460003373ffffffffffffffffffffffffffffffffffffffff1673ffffffffffffffffffffffffffffffffffffffff16815260200190815260200160002090506000610a2d33610fee565b905060008111610a72576040517f08c379a0000000000000000000000000000000000000000000000000000000008152600401610a6990612cc3565b60405180910390fd5b80826001016000828254610a869190612ce3565b92505081905550610a96816122af565b505060018081905550565b610aa96122a7565b73ffffffffffffffffffffffffffffffffffffffff16610ac7610fc5565b73ffffffffffffffffffffffffffffffffffffffff1614610b1d576040517f08c379a0000000000000000000000000000000000000000000000000000000008152600401610b1490612b13565b60405180910390fd5b42811015610b60576040517f08c379a0000000000000000000000000000000000000000000000000000000008152600401610b5790612d85565b60405180910390fd5b80600e81905550600e54600454610b779190612ce3565b60048190555050565b600080600090505b601380549050811015610cb0578273ffffffffffffffffffffffffffffffffffffffff1660138281548110610bc057610bbf6129db565b5b9060005260206000200160009054906101000a900473ffffffffffffffffffffffffffffffffffffffff1673ffffffffffffffffffffffffffffffffffffffff161415610c9d576009546014600060138481548110610c2257610c216129db565b5b9060005260206000200160009054906101000a900473ffffffffffffffffffffffffffffffffffffffff1673ffffffffffffffffffffffffffffffffffffffff1673ffffffffffffffffffffffffffffffffffffffff16815260200190815260200160002060000154610c959190612da5565b915050610cb6565b8080610ca890612a39565b915050610b88565b50600090505b919050565b600080600090505b601280549050811015610d5f578273ffffffffffffffffffffffffffffffffffffffff1660128281548110610cfb57610cfa6129db565b5b9060005260206000200160009054906101000a900473ffffffffffffffffffffffffffffffffffffffff1673ffffffffffffffffffffffffffffffffffffffff161415610d4c576001915050610d65565b8080610d5790612a39565b915050610cc3565b50600090505b919050565b610d726122a7565b73ffffffffffffffffffffffffffffffffffffffff16610d90610fc5565b73ffffffffffffffffffffffffffffffffffffffff1614610de6576040517f08c379a0000000000000000000000000000000000000000000000000000000008152600401610ddd90612b13565b60405180910390fd5b610df06000612485565b565b610dfa6122a7565b73ffffffffffffffffffffffffffffffffffffffff16610e18610fc5565b73ffffffffffffffffffffffffffffffffffffffff1614610e6e576040517f08c379a0000000000000000000000000000000000000000000000000000000008152600401610e6590612b13565b60405180910390fd5b6000601060009054906101000a900473ffffffffffffffffffffffffffffffffffffffff1673ffffffffffffffffffffffffffffffffffffffff166370a08231306040518263ffffffff1660e01b8152600401610ecb91906126ff565b602060405180830381865afa158015610ee8573d6000803e3d6000fd5b505050506040513d601f19601f82011682018060405250810190610f0c9190612e14565b9050601060009054906101000a900473ffffffffffffffffffffffffffffffffffffffff1673ffffffffffffffffffffffffffffffffffffffff1663a9059cbb610f54610fc5565b836040518363ffffffff1660e01b8152600401610f72929190612e41565b6020604051808303816000875af1158015610f91573d6000803e3d6000fd5b505050506040513d601f19601f82011682018060405250810190610fb59190612e96565b5050565b60075481565b60085481565b60008060009054906101000a900473ffffffffffffffffffffffffffffffffffffffff16905090565b600080601460008473ffffffffffffffffffffffffffffffffffffffff1673ffffffffffffffffffffffffffffffffffffffff16815260200190815260200160002090506000600454421015611079576040517f08c379a000000000000000000000000000000000000000000000000000000000815260040161107090612f0f565b60405180910390fd5b60006007546004544261108c9190612a82565b6110969190612f5e565b90506001816110a59190612ce3565b9050600081116110ea576040517f08c379a00000000000000000000000000000000000000000000000000000000081526004016110e190612fdb565b60405180910390fd5b6000600654606460055460646111009190612a82565b866000015461110f9190612da5565b6111199190612f5e565b6111239190612f5e565b9050600081836111339190612da5565b9050606460055460646111469190612a82565b86600001546111559190612da5565b61115f9190612f5e565b811061119657606460055460646111769190612a82565b86600001546111859190612da5565b61118f9190612f5e565b93506111a9565b8460010154816111a69190612a82565b93505b8395505050505050919050565b600a5481565b60026001541415611202576040517f08c379a00000000000000000000000000000000000000000000000000000000081526004016111f990612b7f565b60405180910390fd5b6002600181905550600e5442101561124f576040517f08c379a000000000000000000000000000000000000000000000000000000000815260040161124690612c57565b60405180910390fd5b6000601460003373ffffffffffffffffffffffffffffffffffffffff1673ffffffffffffffffffffffffffffffffffffffff16815260200190815260200160002090508060020160009054906101000a900460ff16156112e4576040517f08c379a00000000000000000000000000000000000000000000000000000000081526004016112db90613047565b60405180910390fd5b60008160000154905060006064600554836112ff9190612da5565b6113099190612f5e565b9050611314816122af565b60018360020160006101000a81548160ff02191690831515021790555050505060018081905550565b6000806000905060005b6013805490508110156113f557601460006013838154811061136c5761136b6129db565b5b9060005260206000200160009054906101000a900473ffffffffffffffffffffffffffffffffffffffff1673ffffffffffffffffffffffffffffffffffffffff1673ffffffffffffffffffffffffffffffffffffffff16815260200190815260200160002060000154826113e09190612ce3565b915080806113ed90612a39565b915050611347565b508091505090565b60146020528060005260406000206000915090508060000154908060010154908060020160009054906101000a900460ff16905083565b6012818154811061144457600080fd5b906000526020600020016000915054906101000a900473ffffffffffffffffffffffffffffffffffffffff1681565b61147b6122a7565b73ffffffffffffffffffffffffffffffffffffffff16611499610fc5565b73ffffffffffffffffffffffffffffffffffffffff16146114ef576040517f08c379a00000000000000000000000000000000000000000000000000000000081526004016114e690612b13565b60405180910390fd5b8660028190555085600481905550846005819055508360078190555082600681905550816008819055508060098190555050505050505050565b600080600090505b60138054905081101561164c578273ffffffffffffffffffffffffffffffffffffffff1660138281548110611569576115686129db565b5b9060005260206000200160009054906101000a900473ffffffffffffffffffffffffffffffffffffffff1673ffffffffffffffffffffffffffffffffffffffff1614156116395760146000601383815481106115c8576115c76129db565b5b9060005260206000200160009054906101000a900473ffffffffffffffffffffffffffffffffffffffff1673ffffffffffffffffffffffffffffffffffffffff1673ffffffffffffffffffffffffffffffffffffffff16815260200190815260200160002060000154915050611652565b808061164490612a39565b915050611531565b50600090505b919050565b600d5481565b60065481565b61166b6122a7565b73ffffffffffffffffffffffffffffffffffffffff16611689610fc5565b73ffffffffffffffffffffffffffffffffffffffff16146116df576040517f08c379a00000000000000000000000000000000000000000000000000000000081526004016116d690612b13565b60405180910390fd5b601160006116ed9190612549565b8181601191906116fe92919061256a565b505050565b600254421015611748576040517f08c379a000000000000000000000000000000000000000000000000000000000815260040161173f906130b3565b60405180910390fd5b6002600154141561178e576040517f08c379a000000000000000000000000000000000000000000000000000000000815260040161178590612b7f565b60405180910390fd5b60026001819055506000600b54141580156117ac57506000600d5414155b6117eb576040517f08c379a00000000000000000000000000000000000000000000000000000000081526004016117e29061311f565b60405180910390fd5b600854816117f761133d565b6118019190612ce3565b1115611842576040517f08c379a00000000000000000000000000000000000000000000000000000000081526004016118399061318b565b60405180910390fd5b61184b3361078c565b8061185b575061185a33610cbb565b5b61189a576040517f08c379a0000000000000000000000000000000000000000000000000000000008152600401611891906131f7565b60405180910390fd5b6118a333611ec0565b6119a1576040518060600160405280600081526020016000815260200160001515815250601460003373ffffffffffffffffffffffffffffffffffffffff1673ffffffffffffffffffffffffffffffffffffffff168152602001908152602001600020600082015181600001556020820151816001015560408201518160020160006101000a81548160ff0219169083151502179055509050506013339080600181540180825580915050600190039060005260206000200160009091909190916101000a81548173ffffffffffffffffffffffffffffffffffffffff021916908373ffffffffffffffffffffffffffffffffffffffff1602179055505b6000601460003373ffffffffffffffffffffffffffffffffffffffff1673ffffffffffffffffffffffffffffffffffffffff16815260200190815260200160002090506119ed3361078c565b15611a9057600a54821015611a37576040517f08c379a0000000000000000000000000000000000000000000000000000000008152600401611a2e90613263565b60405180910390fd5b600b54828260000154611a4a9190612ce3565b1115611a8b576040517f08c379a0000000000000000000000000000000000000000000000000000000008152600401611a82906132cf565b60405180910390fd5b611b39565b611a9933610cbb565b15611b3857600c54821015611ae3576040517f08c379a0000000000000000000000000000000000000000000000000000000008152600401611ada9061333b565b60405180910390fd5b600d54828260000154611af69190612ce3565b1115611b37576040517f08c379a0000000000000000000000000000000000000000000000000000000008152600401611b2e906132cf565b60405180910390fd5b5b5b81816000016000828254611b4d9190612ce3565b92505081905550600854611b5f61133d565b1415611bc7576001600f60006101000a81548160ff0219169083151502179055507f0a3cfaceb3e57ff8026ea1ea844ce08ca4b74964e184e542ea2ab22605e34f62600f60009054906101000a900460ff16604051611bbe919061278e565b60405180910390a15b6000600954670de0b6b3a764000084611be09190612f5e565b611bea9190612da5565b90506000601060009054906101000a900473ffffffffffffffffffffffffffffffffffffffff1673ffffffffffffffffffffffffffffffffffffffff1663dd62ed3e33306040518363ffffffff1660e01b8152600401611c4b92919061335b565b602060405180830381865afa158015611c68573d6000803e3d6000fd5b505050506040513d601f19601f82011682018060405250810190611c8c9190612e14565b905080821115611cd1576040517f08c379a0000000000000000000000000000000000000000000000000000000008152600401611cc8906133d0565b60405180910390fd5b601060009054906101000a900473ffffffffffffffffffffffffffffffffffffffff1673ffffffffffffffffffffffffffffffffffffffff166323b872dd3330856040518463ffffffff1660e01b8152600401611d30939291906133f0565b6020604051808303816000875af1158015611d4f573d6000803e3d6000fd5b505050506040513d601f19601f82011682018060405250810190611d739190612e96565b503373ffffffffffffffffffffffffffffffffffffffff167e7dc6ab80cc84c043b7b8d4fcafc802187470087f7ea7fccd2e17aecd0256a185604051611db99190612640565b60405180910390a25050506001808190555050565b601060009054906101000a900473ffffffffffffffffffffffffffffffffffffffff1681565b611dfc6122a7565b73ffffffffffffffffffffffffffffffffffffffff16611e1a610fc5565b73ffffffffffffffffffffffffffffffffffffffff1614611e70576040517f08c379a0000000000000000000000000000000000000000000000000000000008152600401611e6790612b13565b60405180910390fd5b60126000611e7e9190612549565b818160129190611e8f92919061256a565b505050565b600f60019054906101000a900473ffffffffffffffffffffffffffffffffffffffff1681565b60055481565b600080600090505b601380549050811015611f64578273ffffffffffffffffffffffffffffffffffffffff1660138281548110611f0057611eff6129db565b5b9060005260206000200160009054906101000a900473ffffffffffffffffffffffffffffffffffffffff1673ffffffffffffffffffffffffffffffffffffffff161415611f51576001915050611f6a565b8080611f5c90612a39565b915050611ec8565b50600090505b919050565b611f776122a7565b73ffffffffffffffffffffffffffffffffffffffff16611f95610fc5565b73ffffffffffffffffffffffffffffffffffffffff1614611feb576040517f08c379a0000000000000000000000000000000000000000000000000000000008152600401611fe290612b13565b60405180910390fd5b600073ffffffffffffffffffffffffffffffffffffffff168173ffffffffffffffffffffffffffffffffffffffff16141561205b576040517f08c379a000000000000000000000000000000000000000000000000000000000815260040161205290613499565b60405180910390fd5b61206481612485565b50565b600b5481565b60045481565b61207b6122a7565b73ffffffffffffffffffffffffffffffffffffffff16612099610fc5565b73ffffffffffffffffffffffffffffffffffffffff16146120ef576040517f08c379a00000000000000000000000000000000000000000000000000000000081526004016120e690612b13565b60405180910390fd5b6120f882611ec0565b15612138576040517f08c379a000000000000000000000000000000000000000000000000000000000815260040161212f90613505565b60405180910390fd5b6040518060600160405280600081526020016000815260200160001515815250601460008473ffffffffffffffffffffffffffffffffffffffff1673ffffffffffffffffffffffffffffffffffffffff168152602001908152602001600020600082015181600001556020820151816001015560408201518160020160006101000a81548160ff0219169083151502179055509050506013829080600181540180825580915050600190039060005260206000200160009091909190916101000a81548173ffffffffffffffffffffffffffffffffffffffff021916908373ffffffffffffffffffffffffffffffffffffffff1602179055506000601460008473ffffffffffffffffffffffffffffffffffffffff1673ffffffffffffffffffffffffffffffffffffffff1681526020019081526020016000209050818160000160008282546122889190612ce3565b92505081905550505050565b600f60009054906101000a900460ff1681565b600033905090565b6000600f60019054906101000a900473ffffffffffffffffffffffffffffffffffffffff1673ffffffffffffffffffffffffffffffffffffffff166370a08231306040518263ffffffff1660e01b815260040161230c91906126ff565b602060405180830381865afa158015612329573d6000803e3d6000fd5b505050506040513d601f19601f8201168201806040525081019061234d9190612e14565b905080821115612392576040517f08c379a000000000000000000000000000000000000000000000000000000000815260040161238990613571565b60405180910390fd5b600f60019054906101000a900473ffffffffffffffffffffffffffffffffffffffff1673ffffffffffffffffffffffffffffffffffffffff1663a9059cbb33846040518363ffffffff1660e01b81526004016123ef929190612e41565b6020604051808303816000875af115801561240e573d6000803e3d6000fd5b505050506040513d601f19601f820116820180604052508101906124329190612e96565b503373ffffffffffffffffffffffffffffffffffffffff167fc4f5f666de248767462ece0cae2dd9321323c27827f24a39f78a4a60f915f775836040516124799190612640565b60405180910390a25050565b60008060009054906101000a900473ffffffffffffffffffffffffffffffffffffffff169050816000806101000a81548173ffffffffffffffffffffffffffffffffffffffff021916908373ffffffffffffffffffffffffffffffffffffffff1602179055508173ffffffffffffffffffffffffffffffffffffffff168173ffffffffffffffffffffffffffffffffffffffff167f8be0079c531659141344cd1fd0a4f28419497f9722a3daafe3b4186f6b6457e060405160405180910390a35050565b5080546000825590600052602060002090810190612567919061260a565b50565b8280548282559060005260206000209081019282156125f9579160200282015b828111156125f857823573ffffffffffffffffffffffffffffffffffffffff168260006101000a81548173ffffffffffffffffffffffffffffffffffffffff021916908373ffffffffffffffffffffffffffffffffffffffff1602179055509160200191906001019061258a565b5b509050612606919061260a565b5090565b5b8082111561262357600081600090555060010161260b565b5090565b6000819050919050565b61263a81612627565b82525050565b60006020820190506126556000830184612631565b92915050565b600080fd5b600080fd5b61266e81612627565b811461267957600080fd5b50565b60008135905061268b81612665565b92915050565b6000602082840312156126a7576126a661265b565b5b60006126b58482850161267c565b91505092915050565b600073ffffffffffffffffffffffffffffffffffffffff82169050919050565b60006126e9826126be565b9050919050565b6126f9816126de565b82525050565b600060208201905061271460008301846126f0565b92915050565b612723816126de565b811461272e57600080fd5b50565b6000813590506127408161271a565b92915050565b60006020828403121561275c5761275b61265b565b5b600061276a84828501612731565b91505092915050565b60008115159050919050565b61278881612773565b82525050565b60006020820190506127a3600083018461277f565b92915050565b600080600080608085870312156127c3576127c261265b565b5b60006127d18782880161267c565b94505060206127e28782880161267c565b93505060406127f38782880161267c565b92505060606128048782880161267c565b91505092959194509250565b60006060820190506128256000830186612631565b6128326020830185612631565b61283f604083018461277f565b949350505050565b600080600080600080600060e0888a0312156128665761286561265b565b5b60006128748a828b0161267c565b97505060206128858a828b0161267c565b96505060406128968a828b0161267c565b95505060606128a78a828b0161267c565b94505060806128b88a828b0161267c565b93505060a06128c98a828b0161267c565b92505060c06128da8a828b0161267c565b91505092959891949750929550565b600080fd5b600080fd5b600080fd5b60008083601f84011261290e5761290d6128e9565b5b8235905067ffffffffffffffff81111561292b5761292a6128ee565b5b602083019150836020820283011115612947576129466128f3565b5b9250929050565b600080602083850312156129655761296461265b565b5b600083013567ffffffffffffffff81111561298357612982612660565b5b61298f858286016128f8565b92509250509250929050565b600080604083850312156129b2576129b161265b565b5b60006129c085828601612731565b92505060206129d18582860161267c565b9150509250929050565b7f4e487b7100000000000000000000000000000000000000000000000000000000600052603260045260246000fd5b7f4e487b7100000000000000000000000000000000000000000000000000000000600052601160045260246000fd5b6000612a4482612627565b91507fffffffffffffffffffffffffffffffffffffffffffffffffffffffffffffffff821415612a7757612a76612a0a565b5b600182019050919050565b6000612a8d82612627565b9150612a9883612627565b925082821015612aab57612aaa612a0a565b5b828203905092915050565b600082825260208201905092915050565b7f4f776e61626c653a2063616c6c6572206973206e6f7420746865206f776e6572600082015250565b6000612afd602083612ab6565b9150612b0882612ac7565b602082019050919050565b60006020820190508181036000830152612b2c81612af0565b9050919050565b7f5265656e7472616e637947756172643a207265656e7472616e742063616c6c00600082015250565b6000612b69601f83612ab6565b9150612b7482612b33565b602082019050919050565b60006020820190508181036000830152612b9881612b5c565b9050919050565b7f534545443a20544745206e6f7420737461727400000000000000000000000000600082015250565b6000612bd5601383612ab6565b9150612be082612b9f565b602082019050919050565b60006020820190508181036000830152612c0481612bc8565b9050919050565b7f505249564154453a204561726c7920666f722074676500000000000000000000600082015250565b6000612c41601683612ab6565b9150612c4c82612c0b565b602082019050919050565b60006020820190508181036000830152612c7081612c34565b9050919050565b7f505249564154453a20556e6c6f636b20746f6b656e2069732030000000000000600082015250565b6000612cad601a83612ab6565b9150612cb882612c77565b602082019050919050565b60006020820190508181036000830152612cdc81612ca0565b9050919050565b6000612cee82612627565b9150612cf983612627565b9250827fffffffffffffffffffffffffffffffffffffffffffffffffffffffffffffffff03821115612d2e57612d2d612a0a565b5b828201905092915050565b7f505249564154453a5467652074696d6520696e76616c69640000000000000000600082015250565b6000612d6f601883612ab6565b9150612d7a82612d39565b602082019050919050565b60006020820190508181036000830152612d9e81612d62565b9050919050565b6000612db082612627565b9150612dbb83612627565b9250817fffffffffffffffffffffffffffffffffffffffffffffffffffffffffffffffff0483118215151615612df457612df3612a0a565b5b828202905092915050565b600081519050612e0e81612665565b92915050565b600060208284031215612e2a57612e2961265b565b5b6000612e3884828501612dff565b91505092915050565b6000604082019050612e5660008301856126f0565b612e636020830184612631565b9392505050565b612e7381612773565b8114612e7e57600080fd5b50565b600081519050612e9081612e6a565b92915050565b600060208284031215612eac57612eab61265b565b5b6000612eba84828501612e81565b91505092915050565b7f505249564154453a4561726c7920666f7220756e6c6f636b696e670000000000600082015250565b6000612ef9601b83612ab6565b9150612f0482612ec3565b602082019050919050565b60006020820190508181036000830152612f2881612eec565b9050919050565b7f4e487b7100000000000000000000000000000000000000000000000000000000600052601260045260246000fd5b6000612f6982612627565b9150612f7483612627565b925082612f8457612f83612f2f565b5b828204905092915050565b7f505249564154453a4561726c79666f722076657374696e670000000000000000600082015250565b6000612fc5601883612ab6565b9150612fd082612f8f565b602082019050919050565b60006020820190508181036000830152612ff481612fb8565b9050919050565b7f505249564154453a416c726561647920436c61696d2054474500000000000000600082015250565b6000613031601983612ab6565b915061303c82612ffb565b602082019050919050565b6000602082019050818103600083015261306081613024565b9050919050565b7f4e6f742073746172746564000000000000000000000000000000000000000000600082015250565b600061309d600b83612ab6565b91506130a882613067565b602082019050919050565b600060208201905081810360008301526130cc81613090565b9050919050565b7f505249564154453a4e6f7420696e697469616c00000000000000000000000000600082015250565b6000613109601383612ab6565b9150613114826130d3565b602082019050919050565b60006020820190508181036000830152613138816130fc565b9050919050565b7f505249564154453a4869676572207468616e20746f74616c0000000000000000600082015250565b6000613175601883612ab6565b91506131808261313f565b602082019050919050565b600060208201905081810360008301526131a481613168565b9050919050565b7f505249564154453a41646472657373206e6f742077686974656c697374000000600082015250565b60006131e1601d83612ab6565b91506131ec826131ab565b602082019050919050565b60006020820190508181036000830152613210816131d4565b9050919050565b7f505249564154453a4c657373207468616e205f6d696e57310000000000000000600082015250565b600061324d601883612ab6565b915061325882613217565b602082019050919050565b6000602082019050818103600083015261327c81613240565b9050919050565b7f505249564154453a4d6f7265207468616e206d617869756d0000000000000000600082015250565b60006132b9601883612ab6565b91506132c482613283565b602082019050919050565b600060208201905081810360008301526132e8816132ac565b9050919050565b7f505249564154453a4c657373207468616e205f6d696e57320000000000000000600082015250565b6000613325601883612ab6565b9150613330826132ef565b602082019050919050565b6000602082019050818103600083015261335481613318565b9050919050565b600060408201905061337060008301856126f0565b61337d60208301846126f0565b9392505050565b7f505249564154453a496e737566666963656e7420616c6c6f77616e6365000000600082015250565b60006133ba601d83612ab6565b91506133c582613384565b602082019050919050565b600060208201905081810360008301526133e9816133ad565b9050919050565b600060608201905061340560008301866126f0565b61341260208301856126f0565b61341f6040830184612631565b949350505050565b7f4f776e61626c653a206e6577206f776e657220697320746865207a65726f206160008201527f6464726573730000000000000000000000000000000000000000000000000000602082015250565b6000613483602683612ab6565b915061348e82613427565b604082019050919050565b600060208201905081810360008301526134b281613476565b9050919050565b7f505249564154453a416c72656164792065786973740000000000000000000000600082015250565b60006134ef601583612ab6565b91506134fa826134b9565b602082019050919050565b6000602082019050818103600083015261351e816134e2565b9050919050565b7f505249564154453a496e737566666963656e7420746f6b656e00000000000000600082015250565b600061355b601983612ab6565b915061356682613525565b602082019050919050565b6000602082019050818103600083015261358a8161354e565b905091905056fea2646970667358221220cc5547eadd0fd938d7aee33f62b7e7b15314d43c10a235b85f39deb722e4bffb64736f6c634300080b0033",
  "immutableReferences": {},
  "source": "// SPDX-License-Identifier: MIT\r\n\r\npragma solidity 0.8.11;\r\n\r\nimport \"@openzeppelin/contracts/token/ERC20/IERC20.sol\";\r\nimport \"@openzeppelin/contracts/access/Ownable.sol\";\r\nimport \"@openzeppelin/contracts/security/ReentrancyGuard.sol\";\r\n\r\ncontract PrivateWallet is Ownable, ReentrancyGuard {\r\n    struct User {\r\n        uint256 balance;\r\n        uint256 amountClaimVesting;\r\n        bool isClaimTGE;\r\n    }\r\n    uint256 public _startAt;\r\n    uint256 public _endAt;\r\n    uint256 public _firstLockingTime;\r\n    uint256 public _tge;\r\n    uint256 public _totalVestingPeriod;\r\n    uint256 public _vestingPeriod;\r\n    uint256 public _totalBalances;\r\n    uint256 public _cost;\r\n    uint256 public _minW1;\r\n    uint256 public _maxW1;\r\n    uint256 public _minW2;\r\n    uint256 public _maxW2;\r\n    uint256 public _tgeTime;\r\n\r\n    bool public _soldOut;\r\n\r\n    address public _token;\r\n    address public _exchangeToken;\r\n\r\n    address[] public whiteList1;\r\n    address[] public whiteList2;\r\n    address[] private _userKeys;\r\n\r\n    event Register(address indexed buyer, uint256 amount);\r\n    event ClaimWDA(address indexed buyer, uint256 amount);\r\n    event SoldOut(bool soldout);\r\n    mapping(address => User) public users;\r\n\r\n    constructor(address token_, address exchangeToken_) {\r\n        _token = token_;\r\n        _exchangeToken = exchangeToken_;\r\n    }\r\n\r\n    function initialize(\r\n        uint256 startAt_,\r\n        uint256 firstLockingTime_,\r\n        uint256 tge_,\r\n        uint256 vestingPeriod_,\r\n        uint256 totalVestingPeriod_,\r\n        uint256 totalBalances_,\r\n        uint256 cost_\r\n    ) external onlyOwner {\r\n        _startAt = startAt_;\r\n        _firstLockingTime = firstLockingTime_;\r\n        _tge = tge_;\r\n        _vestingPeriod = vestingPeriod_;\r\n        _totalVestingPeriod = totalVestingPeriod_;\r\n        _totalBalances = totalBalances_;\r\n        _cost = cost_;\r\n    }\r\n\r\n    function setMinMax(\r\n        uint256 minW1_,\r\n        uint256 maxW1_,\r\n        uint256 minW2_,\r\n        uint256 maxW2_\r\n    ) external onlyOwner {\r\n        _minW1 = minW1_;\r\n        _maxW1 = maxW1_;\r\n        _minW2 = minW2_;\r\n        _maxW2 = maxW2_;\r\n    }\r\n\r\n    function buy(uint256 amount) external onlyAfterStart nonReentrant {\r\n        require(_maxW1 != 0 && _maxW2 != 0, \"PRIVATE:Not initial\");\r\n        require(\r\n            getTotalBoughtWDA() + amount <= _totalBalances,\r\n            \"PRIVATE:Higer than total\"\r\n        );\r\n        require(\r\n            isWhiteList1(msg.sender) || isWhiteList2(msg.sender),\r\n            \"PRIVATE:Address not whitelist\"\r\n        );\r\n        if (!isExistAddress(msg.sender)) {\r\n            users[msg.sender] = User(0, 0, false);\r\n            _userKeys.push(msg.sender);\r\n        }\r\n\r\n        User storage user = users[msg.sender];\r\n\r\n        if (isWhiteList1(msg.sender)) {\r\n            require(amount >= _minW1, \"PRIVATE:Less than _minW1\");\r\n            require(\r\n                user.balance + amount <= _maxW1,\r\n                \"PRIVATE:More than maxium\"\r\n            );\r\n        } else if (isWhiteList2(msg.sender)) {\r\n            require(amount >= _minW2, \"PRIVATE:Less than _minW2\");\r\n            require(\r\n                user.balance + amount <= _maxW2,\r\n                \"PRIVATE:More than maxium\"\r\n            );\r\n        }\r\n        user.balance += amount;\r\n        if (getTotalBoughtWDA() == _totalBalances) {\r\n            _soldOut = true;\r\n            emit SoldOut(_soldOut);\r\n        }\r\n        uint256 totalBusd = (amount / 1 ether) * _cost;\r\n        uint256 allowance = IERC20(_exchangeToken).allowance(\r\n            msg.sender,\r\n            address(this)\r\n        );\r\n        require(totalBusd <= allowance, \"PRIVATE:Insufficent allowance\");\r\n        IERC20(_exchangeToken).transferFrom(\r\n            msg.sender,\r\n            address(this),\r\n            totalBusd\r\n        );\r\n        emit Register(msg.sender, amount);\r\n    }\r\n\r\n    function setTgeTime(uint256 tgeTime_) external onlyOwner {\r\n        require(tgeTime_ >= block.timestamp, \"PRIVATE:Tge time invalid\");\r\n        _tgeTime = tgeTime_;\r\n        _firstLockingTime = _firstLockingTime + _tgeTime;\r\n    }\r\n\r\n    function claimTGE() external nonReentrant {\r\n        require(block.timestamp >= _tgeTime, \"PRIVATE: Early for tge\");\r\n        User storage user = users[msg.sender];\r\n        require(!user.isClaimTGE, \"PRIVATE:Already Claim TGE\");\r\n        uint256 balanceOfUser = user.balance;\r\n        uint256 amount = (balanceOfUser * _tge) / 100;\r\n        _claimToken(amount);\r\n        user.isClaimTGE = true;\r\n    }\r\n\r\n    function vesting() external nonReentrant onlyTgeStart {\r\n        require(block.timestamp >= _tgeTime, \"PRIVATE: Early for tge\");\r\n        User storage user = users[msg.sender];\r\n        uint256 amount = getUnlocked(msg.sender);\r\n        require(amount > 0, \"PRIVATE: Unlock token is 0\");\r\n        user.amountClaimVesting += amount;\r\n        _claimToken(amount);\r\n    }\r\n\r\n    function _claimToken(uint256 amount) internal {\r\n        uint256 walletBalances = IERC20(_token).balanceOf(address(this));\r\n        require(amount <= walletBalances, \"PRIVATE:Insufficent token\");\r\n        IERC20(_token).transfer(msg.sender, amount);\r\n        emit ClaimWDA(msg.sender, amount);\r\n    }\r\n\r\n    function getUnlocked(address account) public view returns (uint256) {\r\n        User storage user = users[account];\r\n        uint256 amountUnlock = 0;\r\n        require(\r\n            block.timestamp >= _firstLockingTime,\r\n            \"PRIVATE:Early for unlocking\"\r\n        );\r\n        uint256 times = (block.timestamp - _firstLockingTime) / _vestingPeriod;\r\n        // Vesting right after the locking\r\n        times = times + 1;\r\n        require(times > 0, \"PRIVATE:Earlyfor vesting\");\r\n        uint256 unlockedTokenPerTime = ((user.balance * (100 - _tge)) / 100) /\r\n            _totalVestingPeriod;\r\n        uint256 totalUnlockedToken = (times * unlockedTokenPerTime);\r\n        if (totalUnlockedToken >= ((user.balance * (100 - _tge)) / 100)) {\r\n            amountUnlock = (user.balance * (100 - _tge)) / 100;\r\n        } else {\r\n            amountUnlock = totalUnlockedToken - user.amountClaimVesting;\r\n        }\r\n        return amountUnlock;\r\n    }\r\n\r\n    function setWhiteList1(address[] calldata users_) external onlyOwner {\r\n        delete whiteList1;\r\n        whiteList1 = users_;\r\n    }\r\n\r\n    function isWhiteList1(address account) public view returns (bool) {\r\n        for (uint256 i = 0; i < whiteList1.length; i++) {\r\n            if (whiteList1[i] == account) {\r\n                return true;\r\n            }\r\n        }\r\n        return false;\r\n    }\r\n\r\n    function setWhiteList2(address[] calldata users_) external onlyOwner {\r\n        delete whiteList2;\r\n        whiteList2 = users_;\r\n    }\r\n\r\n    function isWhiteList2(address account) public view returns (bool) {\r\n        for (uint256 i = 0; i < whiteList2.length; i++) {\r\n            if (whiteList2[i] == account) {\r\n                return true;\r\n            }\r\n        }\r\n        return false;\r\n    }\r\n\r\n    function setUserBalance(address account, uint256 amount)\r\n        external\r\n        onlyOwner\r\n    {\r\n        require(!isExistAddress(account), \"PRIVATE:Already exist\");\r\n        users[account] = User(0, 0, false);\r\n        _userKeys.push(account);\r\n        User storage user = users[account];\r\n        user.balance += amount;\r\n    }\r\n\r\n    function withdrawBusd() external onlyOwner {\r\n        uint256 amountBusd = IERC20(_exchangeToken).balanceOf(address(this));\r\n        IERC20(_exchangeToken).transfer(owner(), amountBusd);\r\n    }\r\n\r\n    function getBusdBalance(address account) public view returns (uint256) {\r\n        for (uint256 i = 0; i < _userKeys.length; i++) {\r\n            if (_userKeys[i] == account) {\r\n                return users[_userKeys[i]].balance * _cost;\r\n            }\r\n        }\r\n        return 0;\r\n    }\r\n\r\n    function getWDABalance(address account) public view returns (uint256) {\r\n        for (uint256 i = 0; i < _userKeys.length; i++) {\r\n            if (_userKeys[i] == account) {\r\n                return users[_userKeys[i]].balance;\r\n            }\r\n        }\r\n        return 0;\r\n    }\r\n\r\n    function getTotalBoughtWDA() public view returns (uint256) {\r\n        uint256 totalBought = 0;\r\n        for (uint256 i = 0; i < _userKeys.length; i++) {\r\n            totalBought += users[_userKeys[i]].balance;\r\n        }\r\n        return totalBought;\r\n    }\r\n\r\n    function getTotalUnboughtWDA() public view returns (uint256) {\r\n        return _totalBalances - getTotalBoughtWDA();\r\n    }\r\n\r\n    function isExistAddress(address account) public view returns (bool) {\r\n        for (uint256 i = 0; i < _userKeys.length; i++) {\r\n            if (_userKeys[i] == account) {\r\n                return true;\r\n            }\r\n        }\r\n        return false;\r\n    }\r\n\r\n    modifier onlyAfterStart() {\r\n        require(block.timestamp >= _startAt, \"Not started\");\r\n        _;\r\n    }\r\n    modifier onlyTgeStart() {\r\n        require(_tgeTime > 0, \"SEED: TGE not start\");\r\n        _;\r\n    }\r\n}\r\n",
  "sourcePath": "C:\\Github\\Dao\\Develop\\Blockchain\\dao-project\\contracts\\Wallet\\PrivateWallet.sol",
  "compiler": {
    "name": "solc",
    "version": "0.8.11+commit.d7f03943.Emscripten.clang"
  },
  "schemaVersion": "3.4.7",
  "updatedAt": "2022-06-23T10:13:52.829Z",
  "devdoc": {
    "kind": "dev",
    "methods": {
      "owner()": {
        "details": "Returns the address of the current owner."
      },
      "renounceOwnership()": {
        "details": "Leaves the contract without owner. It will not be possible to call `onlyOwner` functions anymore. Can only be called by the current owner. NOTE: Renouncing ownership will leave the contract without an owner, thereby removing any functionality that is only available to the owner."
      },
      "transferOwnership(address)": {
        "details": "Transfers ownership of the contract to a new account (`newOwner`). Can only be called by the current owner."
      }
    },
    "version": 1
  },
  "userdoc": {
    "kind": "user",
    "methods": {},
    "version": 1
  }
}