{
  "contractName": "RewardOwner",
  "abi": [
    {
      "inputs": [
        {
          "internalType": "contract IDAO",
          "name": "dao_",
          "type": "address"
        },
        {
          "internalType": "contract IVotes",
          "name": "token_",
          "type": "address"
        }
      ],
      "stateMutability": "nonpayable",
      "type": "constructor"
    },
    {
      "anonymous": false,
      "inputs": [
        {
          "indexed": true,
          "internalType": "uint256",
          "name": "proposalId",
          "type": "uint256"
        },
        {
          "indexed": false,
          "internalType": "uint256",
          "name": "value",
          "type": "uint256"
        }
      ],
      "name": "UpdateBalance",
      "type": "event"
    },
    {
      "stateMutability": "payable",
      "type": "receive"
    },
    {
      "inputs": [
        {
          "internalType": "uint256",
          "name": "proposalId",
          "type": "uint256"
        }
      ],
      "name": "updateBalance",
      "outputs": [],
      "stateMutability": "payable",
      "type": "function"
    },
    {
      "inputs": [
        {
          "internalType": "uint256",
          "name": "proposalId",
          "type": "uint256"
        }
      ],
      "name": "claimBNB",
      "outputs": [],
      "stateMutability": "nonpayable",
      "type": "function"
    },
    {
      "inputs": [
        {
          "internalType": "uint256",
          "name": "proposalId",
          "type": "uint256"
        }
      ],
      "name": "getProposalIdToBalances",
      "outputs": [
        {
          "internalType": "uint256",
          "name": "",
          "type": "uint256"
        }
      ],
      "stateMutability": "view",
      "type": "function"
    }
  ],
  "bytecode": "0x60c06040523480156200001157600080fd5b5060405162000efe38038062000efe83398181016040528101906200003791906200016a565b8173ffffffffffffffffffffffffffffffffffffffff1660808173ffffffffffffffffffffffffffffffffffffffff16815250508073ffffffffffffffffffffffffffffffffffffffff1660a08173ffffffffffffffffffffffffffffffffffffffff16815250505050620001b1565b600080fd5b600073ffffffffffffffffffffffffffffffffffffffff82169050919050565b6000620000d982620000ac565b9050919050565b6000620000ed82620000cc565b9050919050565b620000ff81620000e0565b81146200010b57600080fd5b50565b6000815190506200011f81620000f4565b92915050565b60006200013282620000cc565b9050919050565b620001448162000125565b81146200015057600080fd5b50565b600081519050620001648162000139565b92915050565b60008060408385031215620001845762000183620000a7565b5b600062000194858286016200010e565b9250506020620001a78582860162000153565b9150509250929050565b60805160a051610d19620001e56000396000818161029e015261033c0152600081816101bd01526105d30152610d196000f3fe6080604052600436106100385760003560e01c80630e5c1d0a146100445780636125e8d21461006d578063ba7b37d4146100aa5761003f565b3661003f57005b600080fd5b34801561005057600080fd5b5061006b60048036038101906100669190610750565b6100c6565b005b34801561007957600080fd5b50610094600480360381019061008f9190610750565b610570565b6040516100a1919061078c565b60405180910390f35b6100c460048036038101906100bf9190610750565b61058c565b005b6000806000838152602001908152602001600020541161011b576040517f08c379a00000000000000000000000000000000000000000000000000000000081526004016101129061082a565b60405180910390fd5b6001600082815260200190815260200160002060003373ffffffffffffffffffffffffffffffffffffffff1673ffffffffffffffffffffffffffffffffffffffff16815260200190815260200160002060009054906101000a900460ff16156101b9576040517f08c379a00000000000000000000000000000000000000000000000000000000081526004016101b090610896565b60405180910390fd5b60007f000000000000000000000000000000000000000000000000000000000000000073ffffffffffffffffffffffffffffffffffffffff16632d63f693836040518263ffffffff1660e01b8152600401610214919061078c565b602060405180830381865afa158015610231573d6000803e3d6000fd5b505050506040513d601f19601f8201168201806040525081019061025591906108cb565b90506000811161029a576040517f08c379a00000000000000000000000000000000000000000000000000000000081526004016102919061096a565b60405180910390fd5b60007f000000000000000000000000000000000000000000000000000000000000000073ffffffffffffffffffffffffffffffffffffffff16638e539e8c836040518263ffffffff1660e01b81526004016102f5919061078c565b602060405180830381865afa158015610312573d6000803e3d6000fd5b505050506040513d601f19601f8201168201806040525081019061033691906108cb565b905060007f000000000000000000000000000000000000000000000000000000000000000073ffffffffffffffffffffffffffffffffffffffff16633a46b1a833856040518363ffffffff1660e01b81526004016103959291906109cb565b602060405180830381865afa1580156103b2573d6000803e3d6000fd5b505050506040513d601f19601f820116820180604052508101906103d691906108cb565b90506000811161041b576040517f08c379a000000000000000000000000000000000000000000000000000000000815260040161041290610a40565b60405180910390fd5b6000806000868152602001908152602001600020548360648461043e9190610a8f565b6104489190610b18565b6104529190610a8f565b9050600180600087815260200190815260200160002060003373ffffffffffffffffffffffffffffffffffffffff1673ffffffffffffffffffffffffffffffffffffffff16815260200190815260200160002060006101000a81548160ff02191690831515021790555060003373ffffffffffffffffffffffffffffffffffffffff16826040516104e290610b7a565b60006040518083038185875af1925050503d806000811461051f576040519150601f19603f3d011682016040523d82523d6000602084013e610524565b606091505b5050905080610568576040517f08c379a000000000000000000000000000000000000000000000000000000000815260040161055f90610bdb565b60405180910390fd5b505050505050565b6000806000838152602001908152602001600020549050919050565b600034116105cf576040517f08c379a00000000000000000000000000000000000000000000000000000000081526004016105c690610c6d565b60405180910390fd5b60007f000000000000000000000000000000000000000000000000000000000000000073ffffffffffffffffffffffffffffffffffffffff16632d63f693836040518263ffffffff1660e01b815260040161062a919061078c565b602060405180830381865afa158015610647573d6000803e3d6000fd5b505050506040513d601f19601f8201168201806040525081019061066b91906108cb565b9050600081116106b0576040517f08c379a00000000000000000000000000000000000000000000000000000000081526004016106a79061096a565b60405180910390fd5b3460008084815260200190815260200160002060008282546106d29190610c8d565b92505081905550817f616b55db291caee7330621bbeb0b6422a1d8a9bd096781937f839aa4c8f00bc634604051610709919061078c565b60405180910390a25050565b600080fd5b6000819050919050565b61072d8161071a565b811461073857600080fd5b50565b60008135905061074a81610724565b92915050565b60006020828403121561076657610765610715565b5b60006107748482850161073b565b91505092915050565b6107868161071a565b82525050565b60006020820190506107a1600083018461077d565b92915050565b600082825260208201905092915050565b7f5265776172644f776e65723a204e6f74207570646174652062616c616e63652060008201527f7965740000000000000000000000000000000000000000000000000000000000602082015250565b60006108146023836107a7565b915061081f826107b8565b604082019050919050565b6000602082019050818103600083015261084381610807565b9050919050565b7f5265776172644f776e65723a20416c726561647920436c61696d656400000000600082015250565b6000610880601c836107a7565b915061088b8261084a565b602082019050919050565b600060208201905081810360008301526108af81610873565b9050919050565b6000815190506108c581610724565b92915050565b6000602082840312156108e1576108e0610715565b5b60006108ef848285016108b6565b91505092915050565b7f5265776172644f776e65723a2050726f706f73616c206973206e6f742065786960008201527f7374210000000000000000000000000000000000000000000000000000000000602082015250565b60006109546023836107a7565b915061095f826108f8565b604082019050919050565b6000602082019050818103600083015261098381610947565b9050919050565b600073ffffffffffffffffffffffffffffffffffffffff82169050919050565b60006109b58261098a565b9050919050565b6109c5816109aa565b82525050565b60006040820190506109e060008301856109bc565b6109ed602083018461077d565b9392505050565b7f5265776172644f776e65723a204e6f7420612043726f776e20486f6c64657200600082015250565b6000610a2a601f836107a7565b9150610a35826109f4565b602082019050919050565b60006020820190508181036000830152610a5981610a1d565b9050919050565b7f4e487b7100000000000000000000000000000000000000000000000000000000600052601160045260246000fd5b6000610a9a8261071a565b9150610aa58361071a565b9250817fffffffffffffffffffffffffffffffffffffffffffffffffffffffffffffffff0483118215151615610ade57610add610a60565b5b828202905092915050565b7f4e487b7100000000000000000000000000000000000000000000000000000000600052601260045260246000fd5b6000610b238261071a565b9150610b2e8361071a565b925082610b3e57610b3d610ae9565b5b828204905092915050565b600081905092915050565b50565b6000610b64600083610b49565b9150610b6f82610b54565b600082019050919050565b6000610b8582610b57565b9150819050919050565b7f5265776172644f776e65723a205472616e73666572206661696c656400000000600082015250565b6000610bc5601c836107a7565b9150610bd082610b8f565b602082019050919050565b60006020820190508181036000830152610bf481610bb8565b9050919050565b7f5265776172644f776e65723a6d73672e76616c75652073686f756c64206c617260008201527f676572207468616e203000000000000000000000000000000000000000000000602082015250565b6000610c57602a836107a7565b9150610c6282610bfb565b604082019050919050565b60006020820190508181036000830152610c8681610c4a565b9050919050565b6000610c988261071a565b9150610ca38361071a565b9250827fffffffffffffffffffffffffffffffffffffffffffffffffffffffffffffffff03821115610cd857610cd7610a60565b5b82820190509291505056fea2646970667358221220987768725797d76015b334d1524e3dff119f1f2bb3506d0a12b40086cf5b586d64736f6c634300080b0033",
  "immutableReferences": {
    "16375": [
      {
        "length": 32,
        "start": 445
      },
      {
        "length": 32,
        "start": 1491
      }
    ],
    "16378": [
      {
        "length": 32,
        "start": 670
      },
      {
        "length": 32,
        "start": 828
      }
    ]
  },
  "source": "// SPDX-License-Identifier:MIT\r\n\r\npragma solidity 0.8.11;\r\n\r\nimport \"../DAO/IDAO.sol\";\r\nimport \"@openzeppelin/contracts/governance/utils/IVotes.sol\";\r\n\r\ncontract RewardOwner {\r\n    IDAO private immutable _dao;\r\n    IVotes private immutable _token;\r\n    // Balance of each proposalId\r\n    mapping(uint256 => uint256) private balances;\r\n    // mapping from proposalId, address to isClaim\r\n    mapping(uint256 => mapping(address => bool)) private proposalIdToIsClaim; \r\n    event UpdateBalance(uint256 indexed proposalId, uint256 value);\r\n   \r\n    constructor(IDAO dao_,IVotes token_){\r\n        _dao = dao_;\r\n        _token = token_;\r\n    }\r\n\r\n    receive() external payable{\r\n    }\r\n\r\n    function updateBalance(uint256 proposalId) external payable{\r\n        require(msg.value > 0, 'RewardOwner:msg.value should larger than 0');\r\n        uint256 snapShot = _dao.proposalSnapshot(proposalId);\r\n        require(snapShot > 0, 'RewardOwner: Proposal is not exist!');\r\n        balances[proposalId] += msg.value;\r\n        emit UpdateBalance(proposalId, msg.value);\r\n    }\r\n\r\n    function claimBNB(uint256 proposalId) external{\r\n        require(balances[proposalId] > 0,\"RewardOwner: Not update balance yet\");\r\n        require(!proposalIdToIsClaim[proposalId][msg.sender],\"RewardOwner: Already Claimed\");\r\n        uint256 snapShot = _dao.proposalSnapshot(proposalId);\r\n        require(snapShot > 0, 'RewardOwner: Proposal is not exist!');\r\n        uint256 totalSupply = _token.getPastTotalSupply(snapShot);\r\n        uint256 votes = _token.getPastVotes(msg.sender,snapShot);\r\n        require(votes > 0, \"RewardOwner: Not a Crown Holder\");\r\n        uint256 addressToReward = (votes * 100 / totalSupply) * balances[proposalId];\r\n        proposalIdToIsClaim[proposalId][msg.sender] = true;\r\n        (bool success,) = payable(msg.sender).call{value:addressToReward}(\"\");\r\n        require(success,\"RewardOwner: Transfer failed\");\r\n    }\r\n\r\n    function getProposalIdToBalances(uint256 proposalId) external view returns(uint256){\r\n        return balances[proposalId];\r\n    }\r\n\r\n\r\n    \r\n\r\n\r\n}",
  "sourcePath": "C:\\Github\\Dao\\Develop\\Blockchain\\dao-project\\contracts\\Wallet\\RewardOwner.sol",
  "compiler": {
    "name": "solc",
    "version": "0.8.11+commit.d7f03943.Emscripten.clang"
  },
  "schemaVersion": "3.4.7",
  "updatedAt": "2022-06-23T10:13:52.843Z",
  "devdoc": {
    "kind": "dev",
    "methods": {},
    "version": 1
  },
  "userdoc": {
    "kind": "user",
    "methods": {},
    "version": 1
  }
}