{
  "contractName": "ScepterNFT",
  "abi": [
    {
      "inputs": [],
      "stateMutability": "nonpayable",
      "type": "constructor"
    },
    {
      "anonymous": false,
      "inputs": [
        {
          "indexed": true,
          "internalType": "address",
          "name": "account",
          "type": "address"
        },
        {
          "indexed": true,
          "internalType": "address",
          "name": "operator",
          "type": "address"
        },
        {
          "indexed": false,
          "internalType": "bool",
          "name": "approved",
          "type": "bool"
        }
      ],
      "name": "ApprovalForAll",
      "type": "event"
    },
    {
      "anonymous": false,
      "inputs": [
        {
          "indexed": true,
          "internalType": "address",
          "name": "operator",
          "type": "address"
        },
        {
          "indexed": true,
          "internalType": "address",
          "name": "from",
          "type": "address"
        },
        {
          "indexed": true,
          "internalType": "address",
          "name": "to",
          "type": "address"
        },
        {
          "indexed": false,
          "internalType": "uint256[]",
          "name": "ids",
          "type": "uint256[]"
        },
        {
          "indexed": false,
          "internalType": "uint256[]",
          "name": "values",
          "type": "uint256[]"
        }
      ],
      "name": "TransferBatch",
      "type": "event"
    },
    {
      "anonymous": false,
      "inputs": [
        {
          "indexed": true,
          "internalType": "address",
          "name": "operator",
          "type": "address"
        },
        {
          "indexed": true,
          "internalType": "address",
          "name": "from",
          "type": "address"
        },
        {
          "indexed": true,
          "internalType": "address",
          "name": "to",
          "type": "address"
        },
        {
          "indexed": false,
          "internalType": "uint256",
          "name": "id",
          "type": "uint256"
        },
        {
          "indexed": false,
          "internalType": "uint256",
          "name": "value",
          "type": "uint256"
        }
      ],
      "name": "TransferSingle",
      "type": "event"
    },
    {
      "anonymous": false,
      "inputs": [
        {
          "indexed": false,
          "internalType": "string",
          "name": "value",
          "type": "string"
        },
        {
          "indexed": true,
          "internalType": "uint256",
          "name": "id",
          "type": "uint256"
        }
      ],
      "name": "URI",
      "type": "event"
    },
    {
      "inputs": [
        {
          "internalType": "address",
          "name": "account",
          "type": "address"
        },
        {
          "internalType": "uint256",
          "name": "id",
          "type": "uint256"
        }
      ],
      "name": "balanceOf",
      "outputs": [
        {
          "internalType": "uint256",
          "name": "",
          "type": "uint256"
        }
      ],
      "stateMutability": "view",
      "type": "function",
      "constant": true
    },
    {
      "inputs": [
        {
          "internalType": "address[]",
          "name": "accounts",
          "type": "address[]"
        },
        {
          "internalType": "uint256[]",
          "name": "ids",
          "type": "uint256[]"
        }
      ],
      "name": "balanceOfBatch",
      "outputs": [
        {
          "internalType": "uint256[]",
          "name": "",
          "type": "uint256[]"
        }
      ],
      "stateMutability": "view",
      "type": "function",
      "constant": true
    },
    {
      "inputs": [
        {
          "internalType": "address",
          "name": "account",
          "type": "address"
        },
        {
          "internalType": "uint256",
          "name": "id",
          "type": "uint256"
        },
        {
          "internalType": "uint256",
          "name": "value",
          "type": "uint256"
        }
      ],
      "name": "burn",
      "outputs": [],
      "stateMutability": "nonpayable",
      "type": "function"
    },
    {
      "inputs": [
        {
          "internalType": "address",
          "name": "account",
          "type": "address"
        },
        {
          "internalType": "uint256[]",
          "name": "ids",
          "type": "uint256[]"
        },
        {
          "internalType": "uint256[]",
          "name": "values",
          "type": "uint256[]"
        }
      ],
      "name": "burnBatch",
      "outputs": [],
      "stateMutability": "nonpayable",
      "type": "function"
    },
    {
      "inputs": [
        {
          "internalType": "address",
          "name": "account",
          "type": "address"
        },
        {
          "internalType": "address",
          "name": "operator",
          "type": "address"
        }
      ],
      "name": "isApprovedForAll",
      "outputs": [
        {
          "internalType": "bool",
          "name": "",
          "type": "bool"
        }
      ],
      "stateMutability": "view",
      "type": "function",
      "constant": true
    },
    {
      "inputs": [
        {
          "internalType": "address",
          "name": "from",
          "type": "address"
        },
        {
          "internalType": "address",
          "name": "to",
          "type": "address"
        },
        {
          "internalType": "uint256[]",
          "name": "ids",
          "type": "uint256[]"
        },
        {
          "internalType": "uint256[]",
          "name": "amounts",
          "type": "uint256[]"
        },
        {
          "internalType": "bytes",
          "name": "data",
          "type": "bytes"
        }
      ],
      "name": "safeBatchTransferFrom",
      "outputs": [],
      "stateMutability": "nonpayable",
      "type": "function"
    },
    {
      "inputs": [
        {
          "internalType": "address",
          "name": "from",
          "type": "address"
        },
        {
          "internalType": "address",
          "name": "to",
          "type": "address"
        },
        {
          "internalType": "uint256",
          "name": "id",
          "type": "uint256"
        },
        {
          "internalType": "uint256",
          "name": "amount",
          "type": "uint256"
        },
        {
          "internalType": "bytes",
          "name": "data",
          "type": "bytes"
        }
      ],
      "name": "safeTransferFrom",
      "outputs": [],
      "stateMutability": "nonpayable",
      "type": "function"
    },
    {
      "inputs": [
        {
          "internalType": "address",
          "name": "operator",
          "type": "address"
        },
        {
          "internalType": "bool",
          "name": "approved",
          "type": "bool"
        }
      ],
      "name": "setApprovalForAll",
      "outputs": [],
      "stateMutability": "nonpayable",
      "type": "function"
    },
    {
      "inputs": [
        {
          "internalType": "bytes4",
          "name": "interfaceId",
          "type": "bytes4"
        }
      ],
      "name": "supportsInterface",
      "outputs": [
        {
          "internalType": "bool",
          "name": "",
          "type": "bool"
        }
      ],
      "stateMutability": "view",
      "type": "function",
      "constant": true
    },
    {
      "inputs": [
        {
          "internalType": "uint256",
          "name": "",
          "type": "uint256"
        }
      ],
      "name": "uri",
      "outputs": [
        {
          "internalType": "string",
          "name": "",
          "type": "string"
        }
      ],
      "stateMutability": "view",
      "type": "function",
      "constant": true
    },
    {
      "inputs": [
        {
          "internalType": "address",
          "name": "target",
          "type": "address"
        },
        {
          "internalType": "bool",
          "name": "permission",
          "type": "bool"
        }
      ],
      "name": "setValidTarget",
      "outputs": [],
      "stateMutability": "nonpayable",
      "type": "function"
    },
    {
      "inputs": [
        {
          "internalType": "address",
          "name": "newOwner",
          "type": "address"
        }
      ],
      "name": "transferOwnership",
      "outputs": [],
      "stateMutability": "nonpayable",
      "type": "function"
    },
    {
      "inputs": [
        {
          "internalType": "uint256",
          "name": "amount",
          "type": "uint256"
        }
      ],
      "name": "mintValidTarget",
      "outputs": [],
      "stateMutability": "nonpayable",
      "type": "function"
    }
  ],
  "bytecode": "0x60806040523480156200001157600080fd5b506040518060800160405280605a815260200162003695605a91396200003d816200008560201b60201c565b5033600360006101000a81548173ffffffffffffffffffffffffffffffffffffffff021916908373ffffffffffffffffffffffffffffffffffffffff160217905550620001b6565b80600290805190602001906200009d929190620000a1565b5050565b828054620000af9062000180565b90600052602060002090601f016020900481019282620000d357600085556200011f565b82601f10620000ee57805160ff19168380011785556200011f565b828001600101855582156200011f579182015b828111156200011e57825182559160200191906001019062000101565b5b5090506200012e919062000132565b5090565b5b808211156200014d57600081600090555060010162000133565b5090565b7f4e487b7100000000000000000000000000000000000000000000000000000000600052602260045260246000fd5b600060028204905060018216806200019957607f821691505b60208210811415620001b057620001af62000151565b5b50919050565b6134cf80620001c66000396000f3fe608060405234801561001057600080fd5b50600436106100ce5760003560e01c80636b20c4541161008c578063e985e9c511610066578063e985e9c51461021f578063f242432a1461024f578063f2fde38b1461026b578063f5298aca14610287576100ce565b80636b20c454146101cb5780637ae22f33146101e7578063a22cb46514610203576100ce565b8062fdd58e146100d357806301ffc9a7146101035780630e89341c1461013357806311005a90146101635780632eb2c2d61461017f5780634e1273f41461019b575b600080fd5b6100ed60048036038101906100e89190611f04565b6102a3565b6040516100fa9190611f53565b60405180910390f35b61011d60048036038101906101189190611fc6565b61036c565b60405161012a919061200e565b60405180910390f35b61014d60048036038101906101489190612029565b61044e565b60405161015a91906120ef565b60405180910390f35b61017d60048036038101906101789190612029565b6104e2565b005b6101996004803603810190610194919061230e565b61058d565b005b6101b560048036038101906101b091906124a0565b61062e565b6040516101c291906125d6565b60405180910390f35b6101e560048036038101906101e091906125f8565b610747565b005b61020160048036038101906101fc91906126af565b6107e4565b005b61021d600480360381019061021891906126af565b610899565b005b610239600480360381019061023491906126ef565b6108af565b604051610246919061200e565b60405180910390f35b6102696004803603810190610264919061272f565b610943565b005b610285600480360381019061028091906127c6565b6109e4565b005b6102a1600480360381019061029c91906127f3565b610aba565b005b60008073ffffffffffffffffffffffffffffffffffffffff168373ffffffffffffffffffffffffffffffffffffffff161415610314576040517f08c379a000000000000000000000000000000000000000000000000000000000815260040161030b906128b8565b60405180910390fd5b60008083815260200190815260200160002060008473ffffffffffffffffffffffffffffffffffffffff1673ffffffffffffffffffffffffffffffffffffffff16815260200190815260200160002054905092915050565b60007fd9b67a26000000000000000000000000000000000000000000000000000000007bffffffffffffffffffffffffffffffffffffffffffffffffffffffff1916827bffffffffffffffffffffffffffffffffffffffffffffffffffffffff1916148061043757507f0e89341c000000000000000000000000000000000000000000000000000000007bffffffffffffffffffffffffffffffffffffffffffffffffffffffff1916827bffffffffffffffffffffffffffffffffffffffffffffffffffffffff1916145b80610447575061044682610b57565b5b9050919050565b60606002805461045d90612907565b80601f016020809104026020016040519081016040528092919081815260200182805461048990612907565b80156104d65780601f106104ab576101008083540402835291602001916104d6565b820191906000526020600020905b8154815290600101906020018083116104b957829003601f168201915b50505050509050919050565b600460003373ffffffffffffffffffffffffffffffffffffffff1673ffffffffffffffffffffffffffffffffffffffff16815260200190815260200160002060009054906101000a900460ff1661056e576040517f08c379a000000000000000000000000000000000000000000000000000000000815260040161056590612985565b60405180910390fd5b61058a3360008360405180602001604052806000815250610bc1565b50565b610595610d72565b73ffffffffffffffffffffffffffffffffffffffff168573ffffffffffffffffffffffffffffffffffffffff1614806105db57506105da856105d5610d72565b6108af565b5b61061a576040517f08c379a000000000000000000000000000000000000000000000000000000000815260040161061190612a17565b60405180910390fd5b6106278585858585610d7a565b5050505050565b60608151835114610674576040517f08c379a000000000000000000000000000000000000000000000000000000000815260040161066b90612aa9565b60405180910390fd5b6000835167ffffffffffffffff81111561069157610690612116565b5b6040519080825280602002602001820160405280156106bf5781602001602082028036833780820191505090505b50905060005b845181101561073c5761070c8582815181106106e4576106e3612ac9565b5b60200260200101518583815181106106ff576106fe612ac9565b5b60200260200101516102a3565b82828151811061071f5761071e612ac9565b5b6020026020010181815250508061073590612b27565b90506106c5565b508091505092915050565b61074f610d72565b73ffffffffffffffffffffffffffffffffffffffff168373ffffffffffffffffffffffffffffffffffffffff16148061079557506107948361078f610d72565b6108af565b5b6107d4576040517f08c379a00000000000000000000000000000000000000000000000000000000081526004016107cb90612be2565b60405180910390fd5b6107df83838361109c565b505050565b3373ffffffffffffffffffffffffffffffffffffffff16600360009054906101000a900473ffffffffffffffffffffffffffffffffffffffff1673ffffffffffffffffffffffffffffffffffffffff161461083e57600080fd5b80600460008473ffffffffffffffffffffffffffffffffffffffff1673ffffffffffffffffffffffffffffffffffffffff16815260200190815260200160002060006101000a81548160ff0219169083151502179055505050565b6108ab6108a4610d72565b838361136b565b5050565b6000600160008473ffffffffffffffffffffffffffffffffffffffff1673ffffffffffffffffffffffffffffffffffffffff16815260200190815260200160002060008373ffffffffffffffffffffffffffffffffffffffff1673ffffffffffffffffffffffffffffffffffffffff16815260200190815260200160002060009054906101000a900460ff16905092915050565b61094b610d72565b73ffffffffffffffffffffffffffffffffffffffff168573ffffffffffffffffffffffffffffffffffffffff16148061099157506109908561098b610d72565b6108af565b5b6109d0576040517f08c379a00000000000000000000000000000000000000000000000000000000081526004016109c790612be2565b60405180910390fd5b6109dd85858585856114d8565b5050505050565b3373ffffffffffffffffffffffffffffffffffffffff16600360009054906101000a900473ffffffffffffffffffffffffffffffffffffffff1673ffffffffffffffffffffffffffffffffffffffff1614610a3e57600080fd5b600073ffffffffffffffffffffffffffffffffffffffff168173ffffffffffffffffffffffffffffffffffffffff161415610aae576040517f08c379a0000000000000000000000000000000000000000000000000000000008152600401610aa590612c74565b60405180910390fd5b610ab781611774565b50565b610ac2610d72565b73ffffffffffffffffffffffffffffffffffffffff168373ffffffffffffffffffffffffffffffffffffffff161480610b085750610b0783610b02610d72565b6108af565b5b610b47576040517f08c379a0000000000000000000000000000000000000000000000000000000008152600401610b3e90612be2565b60405180910390fd5b610b528383836117b8565b505050565b60007f01ffc9a7000000000000000000000000000000000000000000000000000000007bffffffffffffffffffffffffffffffffffffffffffffffffffffffff1916827bffffffffffffffffffffffffffffffffffffffffffffffffffffffff1916149050919050565b600073ffffffffffffffffffffffffffffffffffffffff168473ffffffffffffffffffffffffffffffffffffffff161415610c31576040517f08c379a0000000000000000000000000000000000000000000000000000000008152600401610c2890612d06565b60405180910390fd5b6000610c3b610d72565b90506000610c48856119ff565b90506000610c55856119ff565b9050610c6683600089858589611a79565b8460008088815260200190815260200160002060008973ffffffffffffffffffffffffffffffffffffffff1673ffffffffffffffffffffffffffffffffffffffff1681526020019081526020016000206000828254610cc59190612d26565b925050819055508673ffffffffffffffffffffffffffffffffffffffff16600073ffffffffffffffffffffffffffffffffffffffff168473ffffffffffffffffffffffffffffffffffffffff167fc3d58168c5ae7397731d063d5bbf3d657854427343f4c083240f7aacaa2d0f628989604051610d43929190612d7c565b60405180910390a4610d5a83600089858589611a81565b610d6983600089898989611a89565b50505050505050565b600033905090565b8151835114610dbe576040517f08c379a0000000000000000000000000000000000000000000000000000000008152600401610db590612e17565b60405180910390fd5b600073ffffffffffffffffffffffffffffffffffffffff168473ffffffffffffffffffffffffffffffffffffffff161415610e2e576040517f08c379a0000000000000000000000000000000000000000000000000000000008152600401610e2590612ea9565b60405180910390fd5b6000610e38610d72565b9050610e48818787878787611a79565b60005b8451811015610ff9576000858281518110610e6957610e68612ac9565b5b602002602001015190506000858381518110610e8857610e87612ac9565b5b60200260200101519050600080600084815260200190815260200160002060008b73ffffffffffffffffffffffffffffffffffffffff1673ffffffffffffffffffffffffffffffffffffffff16815260200190815260200160002054905081811015610f29576040517f08c379a0000000000000000000000000000000000000000000000000000000008152600401610f2090612f3b565b60405180910390fd5b81810360008085815260200190815260200160002060008c73ffffffffffffffffffffffffffffffffffffffff1673ffffffffffffffffffffffffffffffffffffffff168152602001908152602001600020819055508160008085815260200190815260200160002060008b73ffffffffffffffffffffffffffffffffffffffff1673ffffffffffffffffffffffffffffffffffffffff1681526020019081526020016000206000828254610fde9190612d26565b9250508190555050505080610ff290612b27565b9050610e4b565b508473ffffffffffffffffffffffffffffffffffffffff168673ffffffffffffffffffffffffffffffffffffffff168273ffffffffffffffffffffffffffffffffffffffff167f4a39dc06d4c0dbc64b70af90fd698a233a518aa5d07e595d983b8c0526c8f7fb8787604051611070929190612f5b565b60405180910390a4611086818787878787611a81565b611094818787878787611c61565b505050505050565b600073ffffffffffffffffffffffffffffffffffffffff168373ffffffffffffffffffffffffffffffffffffffff16141561110c576040517f08c379a000000000000000000000000000000000000000000000000000000000815260040161110390613004565b60405180910390fd5b8051825114611150576040517f08c379a000000000000000000000000000000000000000000000000000000000815260040161114790612e17565b60405180910390fd5b600061115a610d72565b905061117a81856000868660405180602001604052806000815250611a79565b60005b83518110156112c757600084828151811061119b5761119a612ac9565b5b6020026020010151905060008483815181106111ba576111b9612ac9565b5b60200260200101519050600080600084815260200190815260200160002060008973ffffffffffffffffffffffffffffffffffffffff1673ffffffffffffffffffffffffffffffffffffffff1681526020019081526020016000205490508181101561125b576040517f08c379a000000000000000000000000000000000000000000000000000000000815260040161125290613096565b60405180910390fd5b81810360008085815260200190815260200160002060008a73ffffffffffffffffffffffffffffffffffffffff1673ffffffffffffffffffffffffffffffffffffffff1681526020019081526020016000208190555050505080806112bf90612b27565b91505061117d565b50600073ffffffffffffffffffffffffffffffffffffffff168473ffffffffffffffffffffffffffffffffffffffff168273ffffffffffffffffffffffffffffffffffffffff167f4a39dc06d4c0dbc64b70af90fd698a233a518aa5d07e595d983b8c0526c8f7fb868660405161133f929190612f5b565b60405180910390a461136581856000868660405180602001604052806000815250611a81565b50505050565b8173ffffffffffffffffffffffffffffffffffffffff168373ffffffffffffffffffffffffffffffffffffffff1614156113da576040517f08c379a00000000000000000000000000000000000000000000000000000000081526004016113d190613128565b60405180910390fd5b80600160008573ffffffffffffffffffffffffffffffffffffffff1673ffffffffffffffffffffffffffffffffffffffff16815260200190815260200160002060008473ffffffffffffffffffffffffffffffffffffffff1673ffffffffffffffffffffffffffffffffffffffff16815260200190815260200160002060006101000a81548160ff0219169083151502179055508173ffffffffffffffffffffffffffffffffffffffff168373ffffffffffffffffffffffffffffffffffffffff167f17307eab39ab6107e8899845ad3d59bd9653f200f220920489ca2b5937696c31836040516114cb919061200e565b60405180910390a3505050565b600073ffffffffffffffffffffffffffffffffffffffff168473ffffffffffffffffffffffffffffffffffffffff161415611548576040517f08c379a000000000000000000000000000000000000000000000000000000000815260040161153f90612ea9565b60405180910390fd5b6000611552610d72565b9050600061155f856119ff565b9050600061156c856119ff565b905061157c838989858589611a79565b600080600088815260200190815260200160002060008a73ffffffffffffffffffffffffffffffffffffffff1673ffffffffffffffffffffffffffffffffffffffff16815260200190815260200160002054905085811015611613576040517f08c379a000000000000000000000000000000000000000000000000000000000815260040161160a90612f3b565b60405180910390fd5b85810360008089815260200190815260200160002060008b73ffffffffffffffffffffffffffffffffffffffff1673ffffffffffffffffffffffffffffffffffffffff168152602001908152602001600020819055508560008089815260200190815260200160002060008a73ffffffffffffffffffffffffffffffffffffffff1673ffffffffffffffffffffffffffffffffffffffff16815260200190815260200160002060008282546116c89190612d26565b925050819055508773ffffffffffffffffffffffffffffffffffffffff168973ffffffffffffffffffffffffffffffffffffffff168573ffffffffffffffffffffffffffffffffffffffff167fc3d58168c5ae7397731d063d5bbf3d657854427343f4c083240f7aacaa2d0f628a8a604051611745929190612d7c565b60405180910390a461175b848a8a86868a611a81565b611769848a8a8a8a8a611a89565b505050505050505050565b80600360006101000a81548173ffffffffffffffffffffffffffffffffffffffff021916908373ffffffffffffffffffffffffffffffffffffffff16021790555050565b600073ffffffffffffffffffffffffffffffffffffffff168373ffffffffffffffffffffffffffffffffffffffff161415611828576040517f08c379a000000000000000000000000000000000000000000000000000000000815260040161181f90613004565b60405180910390fd5b6000611832610d72565b9050600061183f846119ff565b9050600061184c846119ff565b905061186c83876000858560405180602001604052806000815250611a79565b600080600087815260200190815260200160002060008873ffffffffffffffffffffffffffffffffffffffff1673ffffffffffffffffffffffffffffffffffffffff16815260200190815260200160002054905084811015611903576040517f08c379a00000000000000000000000000000000000000000000000000000000081526004016118fa90613096565b60405180910390fd5b84810360008088815260200190815260200160002060008973ffffffffffffffffffffffffffffffffffffffff1673ffffffffffffffffffffffffffffffffffffffff16815260200190815260200160002081905550600073ffffffffffffffffffffffffffffffffffffffff168773ffffffffffffffffffffffffffffffffffffffff168573ffffffffffffffffffffffffffffffffffffffff167fc3d58168c5ae7397731d063d5bbf3d657854427343f4c083240f7aacaa2d0f6289896040516119d0929190612d7c565b60405180910390a46119f684886000868660405180602001604052806000815250611a81565b50505050505050565b60606000600167ffffffffffffffff811115611a1e57611a1d612116565b5b604051908082528060200260200182016040528015611a4c5781602001602082028036833780820191505090505b5090508281600081518110611a6457611a63612ac9565b5b60200260200101818152505080915050919050565b505050505050565b505050505050565b611aa88473ffffffffffffffffffffffffffffffffffffffff16611e39565b15611c59578373ffffffffffffffffffffffffffffffffffffffff1663f23a6e6187878686866040518663ffffffff1660e01b8152600401611aee9594939291906131ac565b6020604051808303816000875af1925050508015611b2a57506040513d601f19601f82011682018060405250810190611b27919061321b565b60015b611bd057611b36613255565b806308c379a01415611b935750611b4b613277565b80611b565750611b95565b806040517f08c379a0000000000000000000000000000000000000000000000000000000008152600401611b8a91906120ef565b60405180910390fd5b505b6040517f08c379a0000000000000000000000000000000000000000000000000000000008152600401611bc79061337f565b60405180910390fd5b63f23a6e6160e01b7bffffffffffffffffffffffffffffffffffffffffffffffffffffffff1916817bffffffffffffffffffffffffffffffffffffffffffffffffffffffff191614611c57576040517f08c379a0000000000000000000000000000000000000000000000000000000008152600401611c4e90613411565b60405180910390fd5b505b505050505050565b611c808473ffffffffffffffffffffffffffffffffffffffff16611e39565b15611e31578373ffffffffffffffffffffffffffffffffffffffff1663bc197c8187878686866040518663ffffffff1660e01b8152600401611cc6959493929190613431565b6020604051808303816000875af1925050508015611d0257506040513d601f19601f82011682018060405250810190611cff919061321b565b60015b611da857611d0e613255565b806308c379a01415611d6b5750611d23613277565b80611d2e5750611d6d565b806040517f08c379a0000000000000000000000000000000000000000000000000000000008152600401611d6291906120ef565b60405180910390fd5b505b6040517f08c379a0000000000000000000000000000000000000000000000000000000008152600401611d9f9061337f565b60405180910390fd5b63bc197c8160e01b7bffffffffffffffffffffffffffffffffffffffffffffffffffffffff1916817bffffffffffffffffffffffffffffffffffffffffffffffffffffffff191614611e2f576040517f08c379a0000000000000000000000000000000000000000000000000000000008152600401611e2690613411565b60405180910390fd5b505b505050505050565b6000808273ffffffffffffffffffffffffffffffffffffffff163b119050919050565b6000604051905090565b600080fd5b600080fd5b600073ffffffffffffffffffffffffffffffffffffffff82169050919050565b6000611e9b82611e70565b9050919050565b611eab81611e90565b8114611eb657600080fd5b50565b600081359050611ec881611ea2565b92915050565b6000819050919050565b611ee181611ece565b8114611eec57600080fd5b50565b600081359050611efe81611ed8565b92915050565b60008060408385031215611f1b57611f1a611e66565b5b6000611f2985828601611eb9565b9250506020611f3a85828601611eef565b9150509250929050565b611f4d81611ece565b82525050565b6000602082019050611f686000830184611f44565b92915050565b60007fffffffff0000000000000000000000000000000000000000000000000000000082169050919050565b611fa381611f6e565b8114611fae57600080fd5b50565b600081359050611fc081611f9a565b92915050565b600060208284031215611fdc57611fdb611e66565b5b6000611fea84828501611fb1565b91505092915050565b60008115159050919050565b61200881611ff3565b82525050565b60006020820190506120236000830184611fff565b92915050565b60006020828403121561203f5761203e611e66565b5b600061204d84828501611eef565b91505092915050565b600081519050919050565b600082825260208201905092915050565b60005b83811015612090578082015181840152602081019050612075565b8381111561209f576000848401525b50505050565b6000601f19601f8301169050919050565b60006120c182612056565b6120cb8185612061565b93506120db818560208601612072565b6120e4816120a5565b840191505092915050565b6000602082019050818103600083015261210981846120b6565b905092915050565b600080fd5b7f4e487b7100000000000000000000000000000000000000000000000000000000600052604160045260246000fd5b61214e826120a5565b810181811067ffffffffffffffff8211171561216d5761216c612116565b5b80604052505050565b6000612180611e5c565b905061218c8282612145565b919050565b600067ffffffffffffffff8211156121ac576121ab612116565b5b602082029050602081019050919050565b600080fd5b60006121d56121d084612191565b612176565b905080838252602082019050602084028301858111156121f8576121f76121bd565b5b835b81811015612221578061220d8882611eef565b8452602084019350506020810190506121fa565b5050509392505050565b600082601f8301126122405761223f612111565b5b81356122508482602086016121c2565b91505092915050565b600080fd5b600067ffffffffffffffff82111561227957612278612116565b5b612282826120a5565b9050602081019050919050565b82818337600083830152505050565b60006122b16122ac8461225e565b612176565b9050828152602081018484840111156122cd576122cc612259565b5b6122d884828561228f565b509392505050565b600082601f8301126122f5576122f4612111565b5b813561230584826020860161229e565b91505092915050565b600080600080600060a0868803121561232a57612329611e66565b5b600061233888828901611eb9565b955050602061234988828901611eb9565b945050604086013567ffffffffffffffff81111561236a57612369611e6b565b5b6123768882890161222b565b935050606086013567ffffffffffffffff81111561239757612396611e6b565b5b6123a38882890161222b565b925050608086013567ffffffffffffffff8111156123c4576123c3611e6b565b5b6123d0888289016122e0565b9150509295509295909350565b600067ffffffffffffffff8211156123f8576123f7612116565b5b602082029050602081019050919050565b600061241c612417846123dd565b612176565b9050808382526020820190506020840283018581111561243f5761243e6121bd565b5b835b8181101561246857806124548882611eb9565b845260208401935050602081019050612441565b5050509392505050565b600082601f83011261248757612486612111565b5b8135612497848260208601612409565b91505092915050565b600080604083850312156124b7576124b6611e66565b5b600083013567ffffffffffffffff8111156124d5576124d4611e6b565b5b6124e185828601612472565b925050602083013567ffffffffffffffff81111561250257612501611e6b565b5b61250e8582860161222b565b9150509250929050565b600081519050919050565b600082825260208201905092915050565b6000819050602082019050919050565b61254d81611ece565b82525050565b600061255f8383612544565b60208301905092915050565b6000602082019050919050565b600061258382612518565b61258d8185612523565b935061259883612534565b8060005b838110156125c95781516125b08882612553565b97506125bb8361256b565b92505060018101905061259c565b5085935050505092915050565b600060208201905081810360008301526125f08184612578565b905092915050565b60008060006060848603121561261157612610611e66565b5b600061261f86828701611eb9565b935050602084013567ffffffffffffffff8111156126405761263f611e6b565b5b61264c8682870161222b565b925050604084013567ffffffffffffffff81111561266d5761266c611e6b565b5b6126798682870161222b565b9150509250925092565b61268c81611ff3565b811461269757600080fd5b50565b6000813590506126a981612683565b92915050565b600080604083850312156126c6576126c5611e66565b5b60006126d485828601611eb9565b92505060206126e58582860161269a565b9150509250929050565b6000806040838503121561270657612705611e66565b5b600061271485828601611eb9565b925050602061272585828601611eb9565b9150509250929050565b600080600080600060a0868803121561274b5761274a611e66565b5b600061275988828901611eb9565b955050602061276a88828901611eb9565b945050604061277b88828901611eef565b935050606061278c88828901611eef565b925050608086013567ffffffffffffffff8111156127ad576127ac611e6b565b5b6127b9888289016122e0565b9150509295509295909350565b6000602082840312156127dc576127db611e66565b5b60006127ea84828501611eb9565b91505092915050565b60008060006060848603121561280c5761280b611e66565b5b600061281a86828701611eb9565b935050602061282b86828701611eef565b925050604061283c86828701611eef565b9150509250925092565b7f455243313135353a2062616c616e636520717565727920666f7220746865207a60008201527f65726f2061646472657373000000000000000000000000000000000000000000602082015250565b60006128a2602b83612061565b91506128ad82612846565b604082019050919050565b600060208201905081810360008301526128d181612895565b9050919050565b7f4e487b7100000000000000000000000000000000000000000000000000000000600052602260045260246000fd5b6000600282049050600182168061291f57607f821691505b60208210811415612933576129326128d8565b5b50919050565b7f534345505445524e46543a204e6f742076616c69642074617267657400000000600082015250565b600061296f601c83612061565b915061297a82612939565b602082019050919050565b6000602082019050818103600083015261299e81612962565b9050919050565b7f455243313135353a207472616e736665722063616c6c6572206973206e6f742060008201527f6f776e6572206e6f7220617070726f7665640000000000000000000000000000602082015250565b6000612a01603283612061565b9150612a0c826129a5565b604082019050919050565b60006020820190508181036000830152612a30816129f4565b9050919050565b7f455243313135353a206163636f756e747320616e6420696473206c656e67746860008201527f206d69736d617463680000000000000000000000000000000000000000000000602082015250565b6000612a93602983612061565b9150612a9e82612a37565b604082019050919050565b60006020820190508181036000830152612ac281612a86565b9050919050565b7f4e487b7100000000000000000000000000000000000000000000000000000000600052603260045260246000fd5b7f4e487b7100000000000000000000000000000000000000000000000000000000600052601160045260246000fd5b6000612b3282611ece565b91507fffffffffffffffffffffffffffffffffffffffffffffffffffffffffffffffff821415612b6557612b64612af8565b5b600182019050919050565b7f455243313135353a2063616c6c6572206973206e6f74206f776e6572206e6f7260008201527f20617070726f7665640000000000000000000000000000000000000000000000602082015250565b6000612bcc602983612061565b9150612bd782612b70565b604082019050919050565b60006020820190508181036000830152612bfb81612bbf565b9050919050565b7f4f776e61626c653a206e6577206f776e657220697320746865207a65726f206160008201527f6464726573730000000000000000000000000000000000000000000000000000602082015250565b6000612c5e602683612061565b9150612c6982612c02565b604082019050919050565b60006020820190508181036000830152612c8d81612c51565b9050919050565b7f455243313135353a206d696e7420746f20746865207a65726f2061646472657360008201527f7300000000000000000000000000000000000000000000000000000000000000602082015250565b6000612cf0602183612061565b9150612cfb82612c94565b604082019050919050565b60006020820190508181036000830152612d1f81612ce3565b9050919050565b6000612d3182611ece565b9150612d3c83611ece565b9250827fffffffffffffffffffffffffffffffffffffffffffffffffffffffffffffffff03821115612d7157612d70612af8565b5b828201905092915050565b6000604082019050612d916000830185611f44565b612d9e6020830184611f44565b9392505050565b7f455243313135353a2069647320616e6420616d6f756e7473206c656e6774682060008201527f6d69736d61746368000000000000000000000000000000000000000000000000602082015250565b6000612e01602883612061565b9150612e0c82612da5565b604082019050919050565b60006020820190508181036000830152612e3081612df4565b9050919050565b7f455243313135353a207472616e7366657220746f20746865207a65726f20616460008201527f6472657373000000000000000000000000000000000000000000000000000000602082015250565b6000612e93602583612061565b9150612e9e82612e37565b604082019050919050565b60006020820190508181036000830152612ec281612e86565b9050919050565b7f455243313135353a20696e73756666696369656e742062616c616e636520666f60008201527f72207472616e7366657200000000000000000000000000000000000000000000602082015250565b6000612f25602a83612061565b9150612f3082612ec9565b604082019050919050565b60006020820190508181036000830152612f5481612f18565b9050919050565b60006040820190508181036000830152612f758185612578565b90508181036020830152612f898184612578565b90509392505050565b7f455243313135353a206275726e2066726f6d20746865207a65726f206164647260008201527f6573730000000000000000000000000000000000000000000000000000000000602082015250565b6000612fee602383612061565b9150612ff982612f92565b604082019050919050565b6000602082019050818103600083015261301d81612fe1565b9050919050565b7f455243313135353a206275726e20616d6f756e7420657863656564732062616c60008201527f616e636500000000000000000000000000000000000000000000000000000000602082015250565b6000613080602483612061565b915061308b82613024565b604082019050919050565b600060208201905081810360008301526130af81613073565b9050919050565b7f455243313135353a2073657474696e6720617070726f76616c2073746174757360008201527f20666f722073656c660000000000000000000000000000000000000000000000602082015250565b6000613112602983612061565b915061311d826130b6565b604082019050919050565b6000602082019050818103600083015261314181613105565b9050919050565b61315181611e90565b82525050565b600081519050919050565b600082825260208201905092915050565b600061317e82613157565b6131888185613162565b9350613198818560208601612072565b6131a1816120a5565b840191505092915050565b600060a0820190506131c16000830188613148565b6131ce6020830187613148565b6131db6040830186611f44565b6131e86060830185611f44565b81810360808301526131fa8184613173565b90509695505050505050565b60008151905061321581611f9a565b92915050565b60006020828403121561323157613230611e66565b5b600061323f84828501613206565b91505092915050565b60008160e01c9050919050565b600060033d11156132745760046000803e613271600051613248565b90505b90565b600060443d10156132875761330a565b61328f611e5c565b60043d036004823e80513d602482011167ffffffffffffffff821117156132b757505061330a565b808201805167ffffffffffffffff8111156132d5575050505061330a565b80602083010160043d0385018111156132f257505050505061330a565b61330182602001850186612145565b82955050505050505b90565b7f455243313135353a207472616e7366657220746f206e6f6e204552433131353560008201527f526563656976657220696d706c656d656e746572000000000000000000000000602082015250565b6000613369603483612061565b91506133748261330d565b604082019050919050565b600060208201905081810360008301526133988161335c565b9050919050565b7f455243313135353a204552433131353552656365697665722072656a6563746560008201527f6420746f6b656e73000000000000000000000000000000000000000000000000602082015250565b60006133fb602883612061565b91506134068261339f565b604082019050919050565b6000602082019050818103600083015261342a816133ee565b9050919050565b600060a0820190506134466000830188613148565b6134536020830187613148565b81810360408301526134658186612578565b905081810360608301526134798185612578565b9050818103608083015261348d8184613173565b9050969550505050505056fea2646970667358221220cf67bfdc852f35a9f1369f34624061b1e703cd8e94d32d67e9f054089bd444ec64736f6c634300080b003368747470733a2f2f676174657761792e70696e6174612e636c6f75642f697066732f516d53377732393277377a6e6b3679544b39624252774c4e517557765747666a51696a3969564259514d38516f522f7b69647d2e6a736f6e",
  "immutableReferences": {},
  "source": "// SPDX-License-Identifier: MIT\r\npragma solidity ^0.8.11;\r\nimport \"@openzeppelin/contracts/token/ERC1155/extensions/ERC1155Burnable.sol\";\r\n\r\n\r\ncontract ScepterNFT is ERC1155Burnable {\r\n    uint256 constant SCEPTER = 0;\r\n    address _owner;\r\n\r\n    constructor()\r\n        ERC1155(\r\n            \"https://gateway.pinata.cloud/ipfs/QmS7w292w7znk6yTK9bBRwLNQuWvWGfjQij9iVBYQM8QoR/{id}.json\"\r\n        )\r\n    {\r\n        _owner = msg.sender;\r\n    }\r\n\r\n    mapping(address => bool) private _validTarget;\r\n\r\n    /**\r\n        @dev Setup marketplace for locking period \r\n     */\r\n    function setValidTarget(address target, bool permission)\r\n        external\r\n        onlyOwner\r\n    {\r\n        _validTarget[target] = permission;\r\n    }\r\n\r\n    /**\r\n     * @dev Transfers ownership of the contract to a new account (`newOwner`).\r\n     * Can only be called by the current owner.\r\n     */\r\n    function transferOwnership(address newOwner) public virtual onlyOwner {\r\n        require(\r\n            newOwner != address(0),\r\n            \"Ownable: new owner is the zero address\"\r\n        );\r\n        _transferOwnership(newOwner);\r\n    }\r\n\r\n    /**\r\n     * @dev Transfers ownership of the contract to a new account (`newOwner`).\r\n     * Internal function without access restriction.\r\n     */\r\n    function _transferOwnership(address newOwner) internal virtual {\r\n        _owner = newOwner;\r\n    }\r\n\r\n    /**\r\n     * @dev Only mint for the valid target\r\n     * @param amount - amount\r\n     */\r\n    function mintValidTarget(uint256 amount) external {\r\n        require(_validTarget[msg.sender], \"SCEPTERNFT: Not valid target\");\r\n        _mint(msg.sender, SCEPTER, amount, \"\");\r\n    }\r\n\r\n    modifier onlyOwner() {\r\n        require(_owner == msg.sender);\r\n        _;\r\n    }\r\n}\r\n",
  "sourcePath": "C:\\Github\\Dao\\Develop\\Blockchain\\dao-project\\contracts\\NFT\\ScepterNFT.sol",
  "compiler": {
    "name": "solc",
    "version": "0.8.11+commit.d7f03943.Emscripten.clang"
  },
  "schemaVersion": "3.4.7",
  "updatedAt": "2022-06-23T10:15:17.344Z",
  "networkType": "ethereum",
  "devdoc": {
    "kind": "dev",
    "methods": {
      "balanceOf(address,uint256)": {
        "details": "See {IERC1155-balanceOf}. Requirements: - `account` cannot be the zero address."
      },
      "balanceOfBatch(address[],uint256[])": {
        "details": "See {IERC1155-balanceOfBatch}. Requirements: - `accounts` and `ids` must have the same length."
      },
      "isApprovedForAll(address,address)": {
        "details": "See {IERC1155-isApprovedForAll}."
      },
      "mintValidTarget(uint256)": {
        "details": "Only mint for the valid target",
        "params": {
          "amount": "- amount"
        }
      },
      "safeBatchTransferFrom(address,address,uint256[],uint256[],bytes)": {
        "details": "See {IERC1155-safeBatchTransferFrom}."
      },
      "safeTransferFrom(address,address,uint256,uint256,bytes)": {
        "details": "See {IERC1155-safeTransferFrom}."
      },
      "setApprovalForAll(address,bool)": {
        "details": "See {IERC1155-setApprovalForAll}."
      },
      "setValidTarget(address,bool)": {
        "details": "Setup marketplace for locking period "
      },
      "supportsInterface(bytes4)": {
        "details": "See {IERC165-supportsInterface}."
      },
      "transferOwnership(address)": {
        "details": "Transfers ownership of the contract to a new account (`newOwner`). Can only be called by the current owner."
      },
      "uri(uint256)": {
        "details": "See {IERC1155MetadataURI-uri}. This implementation returns the same URI for *all* token types. It relies on the token type ID substitution mechanism https://eips.ethereum.org/EIPS/eip-1155#metadata[defined in the EIP]. Clients calling this function must replace the `\\{id\\}` substring with the actual token type ID."
      }
    },
    "version": 1
  },
  "userdoc": {
    "kind": "user",
    "methods": {},
    "version": 1
  }
}