{
  "contractName": "SeedWallet",
  "abi": [
    {
      "inputs": [
        {
          "internalType": "address",
          "name": "token_",
          "type": "address"
        },
        {
          "internalType": "address",
          "name": "exchangeToken_",
          "type": "address"
        }
      ],
      "stateMutability": "nonpayable",
      "type": "constructor"
    },
    {
      "anonymous": false,
      "inputs": [
        {
          "indexed": true,
          "internalType": "address",
          "name": "buyer",
          "type": "address"
        },
        {
          "indexed": false,
          "internalType": "uint256",
          "name": "amount",
          "type": "uint256"
        }
      ],
      "name": "ClaimWDA",
      "type": "event"
    },
    {
      "anonymous": false,
      "inputs": [
        {
          "indexed": true,
          "internalType": "address",
          "name": "previousOwner",
          "type": "address"
        },
        {
          "indexed": true,
          "internalType": "address",
          "name": "newOwner",
          "type": "address"
        }
      ],
      "name": "OwnershipTransferred",
      "type": "event"
    },
    {
      "anonymous": false,
      "inputs": [
        {
          "indexed": true,
          "internalType": "address",
          "name": "buyer",
          "type": "address"
        },
        {
          "indexed": false,
          "internalType": "uint256",
          "name": "amount",
          "type": "uint256"
        }
      ],
      "name": "Register",
      "type": "event"
    },
    {
      "anonymous": false,
      "inputs": [
        {
          "indexed": false,
          "internalType": "bool",
          "name": "soldout",
          "type": "bool"
        }
      ],
      "name": "SoldOut",
      "type": "event"
    },
    {
      "inputs": [],
      "name": "_cost",
      "outputs": [
        {
          "internalType": "uint256",
          "name": "",
          "type": "uint256"
        }
      ],
      "stateMutability": "view",
      "type": "function"
    },
    {
      "inputs": [],
      "name": "_endAt",
      "outputs": [
        {
          "internalType": "uint256",
          "name": "",
          "type": "uint256"
        }
      ],
      "stateMutability": "view",
      "type": "function"
    },
    {
      "inputs": [],
      "name": "_exchangeToken",
      "outputs": [
        {
          "internalType": "address",
          "name": "",
          "type": "address"
        }
      ],
      "stateMutability": "view",
      "type": "function"
    },
    {
      "inputs": [],
      "name": "_firstLockingTime",
      "outputs": [
        {
          "internalType": "uint256",
          "name": "",
          "type": "uint256"
        }
      ],
      "stateMutability": "view",
      "type": "function"
    },
    {
      "inputs": [],
      "name": "_max",
      "outputs": [
        {
          "internalType": "uint256",
          "name": "",
          "type": "uint256"
        }
      ],
      "stateMutability": "view",
      "type": "function"
    },
    {
      "inputs": [],
      "name": "_min",
      "outputs": [
        {
          "internalType": "uint256",
          "name": "",
          "type": "uint256"
        }
      ],
      "stateMutability": "view",
      "type": "function"
    },
    {
      "inputs": [],
      "name": "_soldOut",
      "outputs": [
        {
          "internalType": "bool",
          "name": "",
          "type": "bool"
        }
      ],
      "stateMutability": "view",
      "type": "function"
    },
    {
      "inputs": [],
      "name": "_startAt",
      "outputs": [
        {
          "internalType": "uint256",
          "name": "",
          "type": "uint256"
        }
      ],
      "stateMutability": "view",
      "type": "function"
    },
    {
      "inputs": [],
      "name": "_tge",
      "outputs": [
        {
          "internalType": "uint256",
          "name": "",
          "type": "uint256"
        }
      ],
      "stateMutability": "view",
      "type": "function"
    },
    {
      "inputs": [],
      "name": "_tgeTime",
      "outputs": [
        {
          "internalType": "uint256",
          "name": "",
          "type": "uint256"
        }
      ],
      "stateMutability": "view",
      "type": "function"
    },
    {
      "inputs": [],
      "name": "_token",
      "outputs": [
        {
          "internalType": "address",
          "name": "",
          "type": "address"
        }
      ],
      "stateMutability": "view",
      "type": "function"
    },
    {
      "inputs": [],
      "name": "_totalBalances",
      "outputs": [
        {
          "internalType": "uint256",
          "name": "",
          "type": "uint256"
        }
      ],
      "stateMutability": "view",
      "type": "function"
    },
    {
      "inputs": [],
      "name": "_totalVestingPeriod",
      "outputs": [
        {
          "internalType": "uint256",
          "name": "",
          "type": "uint256"
        }
      ],
      "stateMutability": "view",
      "type": "function"
    },
    {
      "inputs": [],
      "name": "_vestingPeriod",
      "outputs": [
        {
          "internalType": "uint256",
          "name": "",
          "type": "uint256"
        }
      ],
      "stateMutability": "view",
      "type": "function"
    },
    {
      "inputs": [],
      "name": "owner",
      "outputs": [
        {
          "internalType": "address",
          "name": "",
          "type": "address"
        }
      ],
      "stateMutability": "view",
      "type": "function"
    },
    {
      "inputs": [],
      "name": "renounceOwnership",
      "outputs": [],
      "stateMutability": "nonpayable",
      "type": "function"
    },
    {
      "inputs": [
        {
          "internalType": "address",
          "name": "newOwner",
          "type": "address"
        }
      ],
      "name": "transferOwnership",
      "outputs": [],
      "stateMutability": "nonpayable",
      "type": "function"
    },
    {
      "inputs": [
        {
          "internalType": "address",
          "name": "",
          "type": "address"
        }
      ],
      "name": "users",
      "outputs": [
        {
          "internalType": "uint256",
          "name": "balance",
          "type": "uint256"
        },
        {
          "internalType": "uint256",
          "name": "amountClaimVesting",
          "type": "uint256"
        },
        {
          "internalType": "bool",
          "name": "isClaimTGE",
          "type": "bool"
        }
      ],
      "stateMutability": "view",
      "type": "function"
    },
    {
      "inputs": [
        {
          "internalType": "uint256",
          "name": "",
          "type": "uint256"
        }
      ],
      "name": "whiteList",
      "outputs": [
        {
          "internalType": "address",
          "name": "",
          "type": "address"
        }
      ],
      "stateMutability": "view",
      "type": "function"
    },
    {
      "inputs": [
        {
          "internalType": "uint256",
          "name": "startAt_",
          "type": "uint256"
        },
        {
          "internalType": "uint256",
          "name": "firstLockingTime_",
          "type": "uint256"
        },
        {
          "internalType": "uint256",
          "name": "tge_",
          "type": "uint256"
        },
        {
          "internalType": "uint256",
          "name": "vestingPeriod_",
          "type": "uint256"
        },
        {
          "internalType": "uint256",
          "name": "totalVestingPeriod_",
          "type": "uint256"
        },
        {
          "internalType": "uint256",
          "name": "totalBalances_",
          "type": "uint256"
        },
        {
          "internalType": "uint256",
          "name": "cost_",
          "type": "uint256"
        },
        {
          "internalType": "uint256",
          "name": "min_",
          "type": "uint256"
        },
        {
          "internalType": "uint256",
          "name": "max_",
          "type": "uint256"
        }
      ],
      "name": "initialize",
      "outputs": [],
      "stateMutability": "nonpayable",
      "type": "function"
    },
    {
      "inputs": [
        {
          "internalType": "uint256",
          "name": "amount",
          "type": "uint256"
        }
      ],
      "name": "buy",
      "outputs": [],
      "stateMutability": "nonpayable",
      "type": "function"
    },
    {
      "inputs": [
        {
          "internalType": "uint256",
          "name": "tgeTime_",
          "type": "uint256"
        }
      ],
      "name": "setTgeTime",
      "outputs": [],
      "stateMutability": "nonpayable",
      "type": "function"
    },
    {
      "inputs": [],
      "name": "claimTGE",
      "outputs": [],
      "stateMutability": "nonpayable",
      "type": "function"
    },
    {
      "inputs": [],
      "name": "vesting",
      "outputs": [],
      "stateMutability": "nonpayable",
      "type": "function"
    },
    {
      "inputs": [
        {
          "internalType": "address",
          "name": "account",
          "type": "address"
        }
      ],
      "name": "getUnlocked",
      "outputs": [
        {
          "internalType": "uint256",
          "name": "",
          "type": "uint256"
        }
      ],
      "stateMutability": "view",
      "type": "function"
    },
    {
      "inputs": [
        {
          "internalType": "address[]",
          "name": "users_",
          "type": "address[]"
        }
      ],
      "name": "setWhiteList",
      "outputs": [],
      "stateMutability": "nonpayable",
      "type": "function"
    },
    {
      "inputs": [
        {
          "internalType": "address",
          "name": "account",
          "type": "address"
        }
      ],
      "name": "isWhiteList",
      "outputs": [
        {
          "internalType": "bool",
          "name": "",
          "type": "bool"
        }
      ],
      "stateMutability": "view",
      "type": "function"
    },
    {
      "inputs": [],
      "name": "withdrawBusd",
      "outputs": [],
      "stateMutability": "nonpayable",
      "type": "function"
    },
    {
      "inputs": [
        {
          "internalType": "address",
          "name": "account",
          "type": "address"
        }
      ],
      "name": "getBusdBalance",
      "outputs": [
        {
          "internalType": "uint256",
          "name": "",
          "type": "uint256"
        }
      ],
      "stateMutability": "view",
      "type": "function"
    },
    {
      "inputs": [
        {
          "internalType": "address",
          "name": "account",
          "type": "address"
        }
      ],
      "name": "getWDABalance",
      "outputs": [
        {
          "internalType": "uint256",
          "name": "",
          "type": "uint256"
        }
      ],
      "stateMutability": "view",
      "type": "function"
    },
    {
      "inputs": [],
      "name": "getTotalBoughtWDA",
      "outputs": [
        {
          "internalType": "uint256",
          "name": "",
          "type": "uint256"
        }
      ],
      "stateMutability": "view",
      "type": "function"
    },
    {
      "inputs": [],
      "name": "getTotalUnboughtWDA",
      "outputs": [
        {
          "internalType": "uint256",
          "name": "",
          "type": "uint256"
        }
      ],
      "stateMutability": "view",
      "type": "function"
    },
    {
      "inputs": [
        {
          "internalType": "address",
          "name": "account",
          "type": "address"
        }
      ],
      "name": "isExistAddress",
      "outputs": [
        {
          "internalType": "bool",
          "name": "",
          "type": "bool"
        }
      ],
      "stateMutability": "view",
      "type": "function"
    }
  ],
  "bytecode": "0x60806040523480156200001157600080fd5b50604051620031d2380380620031d283398181016040528101906200003791906200021e565b620000576200004b620000e860201b60201c565b620000f060201b60201c565b6001808190555081600d60016101000a81548173ffffffffffffffffffffffffffffffffffffffff021916908373ffffffffffffffffffffffffffffffffffffffff16021790555080600e60006101000a81548173ffffffffffffffffffffffffffffffffffffffff021916908373ffffffffffffffffffffffffffffffffffffffff160217905550505062000265565b600033905090565b60008060009054906101000a900473ffffffffffffffffffffffffffffffffffffffff169050816000806101000a81548173ffffffffffffffffffffffffffffffffffffffff021916908373ffffffffffffffffffffffffffffffffffffffff1602179055508173ffffffffffffffffffffffffffffffffffffffff168173ffffffffffffffffffffffffffffffffffffffff167f8be0079c531659141344cd1fd0a4f28419497f9722a3daafe3b4186f6b6457e060405160405180910390a35050565b600080fd5b600073ffffffffffffffffffffffffffffffffffffffff82169050919050565b6000620001e682620001b9565b9050919050565b620001f881620001d9565b81146200020457600080fd5b50565b6000815190506200021881620001ed565b92915050565b60008060408385031215620002385762000237620001b4565b5b6000620002488582860162000207565b92505060206200025b8582860162000207565b9150509250929050565b612f5d80620002756000396000f3fe608060405234801561001057600080fd5b50600436106101fb5760003560e01c80638da5cb5b1161011a578063d96a094a116100ad578063effade411161007c578063effade411461054c578063f2fde38b1461057c578063f99031a714610598578063fd455ebf146105c8578063ff50ed45146105e6576101fb565b8063d96a094a146104d6578063e3897081146104f2578063ecd0c0c314610510578063eeaa306e1461052e576101fb565b8063a87430ba116100e9578063a87430ba1461043a578063c3ce6ac11461046c578063cba1a99c1461049c578063d6c95d20146104ba576101fb565b80638da5cb5b146103c457806394e11ca8146103e25780639b8c1fed14610412578063a730043e1461041c576101fb565b8063489c34031161019257806372edf0631161016157806372edf06314610362578063775b9c131461036c578063812efdb314610388578063837f4579146103a6576101fb565b8063489c3403146102dc57806359d439d1146102f85780635c475d4214610328578063715018a614610358576101fb565b80632bb42a46116101ce5780632bb42a461461027857806332f1360614610296578063352b7039146102b457806344c63eec146102d2576101fb565b806304305f4214610200578063145065241461021e578063146224ff1461023c5780632b9690481461025a575b600080fd5b610208610604565b604051610215919061209b565b60405180910390f35b61022661060a565b604051610233919061209b565b60405180910390f35b610244610610565b604051610251919061209b565b60405180910390f35b610262610616565b60405161026f919061209b565b60405180910390f35b61028061061c565b60405161028d919061209b565b60405180910390f35b61029e610638565b6040516102ab919061209b565b60405180910390f35b6102bc61063e565b6040516102c9919061209b565b60405180910390f35b6102da610644565b005b6102f660048036038101906102f191906120ec565b6107de565b005b610312600480360381019061030d9190612177565b6108bd565b60405161031f919061209b565b60405180910390f35b610342600480360381019061033d91906120ec565b6109f8565b60405161034f91906121b3565b60405180910390f35b610360610a37565b005b61036a610abf565b005b61038660048036038101906103819190612233565b610c86565b005b610390610d26565b60405161039d919061209b565b60405180910390f35b6103ae610d2c565b6040516103bb919061209b565b60405180910390f35b6103cc610d32565b6040516103d991906121b3565b60405180910390f35b6103fc60048036038101906103f79190612177565b610d5b565b604051610409919061209b565b60405180910390f35b61041a610f59565b005b61042461111f565b604051610431919061209b565b60405180910390f35b610454600480360381019061044f9190612177565b6111df565b6040516104639392919061229b565b60405180910390f35b61048660048036038101906104819190612177565b611216565b604051610493919061209b565b60405180910390f35b6104a4611344565b6040516104b1919061209b565b60405180910390f35b6104d460048036038101906104cf91906122d2565b61134a565b005b6104f060048036038101906104eb91906120ec565b611452565b005b6104fa611a41565b60405161050791906121b3565b60405180910390f35b610518611a67565b60405161052591906121b3565b60405180910390f35b610536611a8d565b604051610543919061209b565b60405180910390f35b61056660048036038101906105619190612177565b611a93565b604051610573919061239c565b60405180910390f35b61059660048036038101906105919190612177565b611b42565b005b6105b260048036038101906105ad9190612177565b611c3a565b6040516105bf919061239c565b60405180910390f35b6105d0611ce9565b6040516105dd919061209b565b60405180910390f35b6105ee611cef565b6040516105fb919061239c565b60405180910390f35b60095481565b600b5481565b60025481565b600a5481565b600061062661111f565b60085461063391906123e6565b905090565b60035481565b600c5481565b6002600154141561068a576040517f08c379a000000000000000000000000000000000000000000000000000000000815260040161068190612477565b60405180910390fd5b60026001819055506000600c54116106d7576040517f08c379a00000000000000000000000000000000000000000000000000000000081526004016106ce906124e3565b60405180910390fd5b600c5442101561071c576040517f08c379a00000000000000000000000000000000000000000000000000000000081526004016107139061254f565b60405180910390fd5b6000601160003373ffffffffffffffffffffffffffffffffffffffff1673ffffffffffffffffffffffffffffffffffffffff1681526020019081526020016000209050600061076a33610d5b565b9050600081116107af576040517f08c379a00000000000000000000000000000000000000000000000000000000081526004016107a6906125bb565b60405180910390fd5b808260010160008282546107c391906125db565b925050819055506107d381611d02565b505060018081905550565b6107e6611ed8565b73ffffffffffffffffffffffffffffffffffffffff16610804610d32565b73ffffffffffffffffffffffffffffffffffffffff161461085a576040517f08c379a00000000000000000000000000000000000000000000000000000000081526004016108519061267d565b60405180910390fd5b4281101561089d576040517f08c379a0000000000000000000000000000000000000000000000000000000008152600401610894906126e9565b60405180910390fd5b80600c81905550600c546004546108b491906125db565b60048190555050565b600080600090505b6010805490508110156109ed578273ffffffffffffffffffffffffffffffffffffffff16601082815481106108fd576108fc612709565b5b9060005260206000200160009054906101000a900473ffffffffffffffffffffffffffffffffffffffff1673ffffffffffffffffffffffffffffffffffffffff1614156109da57600954601160006010848154811061095f5761095e612709565b5b9060005260206000200160009054906101000a900473ffffffffffffffffffffffffffffffffffffffff1673ffffffffffffffffffffffffffffffffffffffff1673ffffffffffffffffffffffffffffffffffffffff168152602001908152602001600020600001546109d29190612738565b9150506109f3565b80806109e590612792565b9150506108c5565b50600090505b919050565b600f8181548110610a0857600080fd5b906000526020600020016000915054906101000a900473ffffffffffffffffffffffffffffffffffffffff1681565b610a3f611ed8565b73ffffffffffffffffffffffffffffffffffffffff16610a5d610d32565b73ffffffffffffffffffffffffffffffffffffffff1614610ab3576040517f08c379a0000000000000000000000000000000000000000000000000000000008152600401610aaa9061267d565b60405180910390fd5b610abd6000611ee0565b565b610ac7611ed8565b73ffffffffffffffffffffffffffffffffffffffff16610ae5610d32565b73ffffffffffffffffffffffffffffffffffffffff1614610b3b576040517f08c379a0000000000000000000000000000000000000000000000000000000008152600401610b329061267d565b60405180910390fd5b6000600e60009054906101000a900473ffffffffffffffffffffffffffffffffffffffff1673ffffffffffffffffffffffffffffffffffffffff166370a08231306040518263ffffffff1660e01b8152600401610b9891906121b3565b602060405180830381865afa158015610bb5573d6000803e3d6000fd5b505050506040513d601f19601f82011682018060405250810190610bd991906127f0565b9050600e60009054906101000a900473ffffffffffffffffffffffffffffffffffffffff1673ffffffffffffffffffffffffffffffffffffffff1663a9059cbb610c21610d32565b836040518363ffffffff1660e01b8152600401610c3f92919061281d565b6020604051808303816000875af1158015610c5e573d6000803e3d6000fd5b505050506040513d601f19601f82011682018060405250810190610c829190612872565b5050565b610c8e611ed8565b73ffffffffffffffffffffffffffffffffffffffff16610cac610d32565b73ffffffffffffffffffffffffffffffffffffffff1614610d02576040517f08c379a0000000000000000000000000000000000000000000000000000000008152600401610cf99061267d565b60405180910390fd5b600f6000610d109190611fa4565b8181600f9190610d21929190611fc5565b505050565b60075481565b60085481565b60008060009054906101000a900473ffffffffffffffffffffffffffffffffffffffff16905090565b600080600c5411610da1576040517f08c379a0000000000000000000000000000000000000000000000000000000008152600401610d98906124e3565b60405180910390fd5b6000601160008473ffffffffffffffffffffffffffffffffffffffff1673ffffffffffffffffffffffffffffffffffffffff16815260200190815260200160002090506000600454421015610e2b576040517f08c379a0000000000000000000000000000000000000000000000000000000008152600401610e22906128eb565b60405180910390fd5b600060075460045442610e3e91906123e6565b610e48919061293a565b905060008111610e8d576040517f08c379a0000000000000000000000000000000000000000000000000000000008152600401610e84906129b7565b60405180910390fd5b600060065460646005546064610ea391906123e6565b8660000154610eb29190612738565b610ebc919061293a565b610ec6919061293a565b905060008183610ed69190612738565b905060646005546064610ee991906123e6565b8660000154610ef89190612738565b610f02919061293a565b8110610f395760646005546064610f1991906123e6565b8660000154610f289190612738565b610f32919061293a565b9350610f4c565b846001015481610f4991906123e6565b93505b8395505050505050919050565b6000600c5411610f9e576040517f08c379a0000000000000000000000000000000000000000000000000000000008152600401610f95906124e3565b60405180910390fd5b60026001541415610fe4576040517f08c379a0000000000000000000000000000000000000000000000000000000008152600401610fdb90612477565b60405180910390fd5b6002600181905550600c54421015611031576040517f08c379a00000000000000000000000000000000000000000000000000000000081526004016110289061254f565b60405180910390fd5b6000601160003373ffffffffffffffffffffffffffffffffffffffff1673ffffffffffffffffffffffffffffffffffffffff16815260200190815260200160002090508060020160009054906101000a900460ff16156110c6576040517f08c379a00000000000000000000000000000000000000000000000000000000081526004016110bd90612a23565b60405180910390fd5b60008160000154905060006064600554836110e19190612738565b6110eb919061293a565b90506110f681611d02565b60018360020160006101000a81548160ff02191690831515021790555050505060018081905550565b6000806000905060005b6010805490508110156111d757601160006010838154811061114e5761114d612709565b5b9060005260206000200160009054906101000a900473ffffffffffffffffffffffffffffffffffffffff1673ffffffffffffffffffffffffffffffffffffffff1673ffffffffffffffffffffffffffffffffffffffff16815260200190815260200160002060000154826111c291906125db565b915080806111cf90612792565b915050611129565b508091505090565b60116020528060005260406000206000915090508060000154908060010154908060020160009054906101000a900460ff16905083565b600080600090505b601080549050811015611339578273ffffffffffffffffffffffffffffffffffffffff166010828154811061125657611255612709565b5b9060005260206000200160009054906101000a900473ffffffffffffffffffffffffffffffffffffffff1673ffffffffffffffffffffffffffffffffffffffff1614156113265760116000601083815481106112b5576112b4612709565b5b9060005260206000200160009054906101000a900473ffffffffffffffffffffffffffffffffffffffff1673ffffffffffffffffffffffffffffffffffffffff1673ffffffffffffffffffffffffffffffffffffffff1681526020019081526020016000206000015491505061133f565b808061133190612792565b91505061121e565b50600090505b919050565b60065481565b611352611ed8565b73ffffffffffffffffffffffffffffffffffffffff16611370610d32565b73ffffffffffffffffffffffffffffffffffffffff16146113c6576040517f08c379a00000000000000000000000000000000000000000000000000000000081526004016113bd9061267d565b60405180910390fd5b808210611408576040517f08c379a00000000000000000000000000000000000000000000000000000000081526004016113ff90612a8f565b60405180910390fd5b8860028190555087600481905550866005819055508560078190555084600681905550836008819055508260098190555081600a8190555080600b81905550505050505050505050565b600254421015611497576040517f08c379a000000000000000000000000000000000000000000000000000000000815260040161148e90612afb565b60405180910390fd5b600260015414156114dd576040517f08c379a00000000000000000000000000000000000000000000000000000000081526004016114d490612477565b60405180910390fd5b60026001819055506000600b541161152a576040517f08c379a000000000000000000000000000000000000000000000000000000000815260040161152190612b67565b60405180910390fd5b6008548161153661111f565b61154091906125db565b1115611581576040517f08c379a000000000000000000000000000000000000000000000000000000000815260040161157890612bd3565b60405180910390fd5b600a548110156115c6576040517f08c379a00000000000000000000000000000000000000000000000000000000081526004016115bd90612c65565b60405180910390fd5b6115cf33611c3a565b61160e576040517f08c379a000000000000000000000000000000000000000000000000000000000815260040161160590612cd1565b60405180910390fd5b61161733611a93565b611715576040518060600160405280600081526020016000815260200160001515815250601160003373ffffffffffffffffffffffffffffffffffffffff1673ffffffffffffffffffffffffffffffffffffffff168152602001908152602001600020600082015181600001556020820151816001015560408201518160020160006101000a81548160ff0219169083151502179055509050506010339080600181540180825580915050600190039060005260206000200160009091909190916101000a81548173ffffffffffffffffffffffffffffffffffffffff021916908373ffffffffffffffffffffffffffffffffffffffff1602179055505b6000601160003373ffffffffffffffffffffffffffffffffffffffff1673ffffffffffffffffffffffffffffffffffffffff1681526020019081526020016000209050600b5482826000015461176b91906125db565b11156117ac576040517f08c379a00000000000000000000000000000000000000000000000000000000081526004016117a390612d3d565b60405180910390fd5b818160000160008282546117c091906125db565b925050819055506008546117d261111f565b141561183a576001600d60006101000a81548160ff0219169083151502179055507f0a3cfaceb3e57ff8026ea1ea844ce08ca4b74964e184e542ea2ab22605e34f62600d60009054906101000a900460ff16604051611831919061239c565b60405180910390a15b6000600954670de0b6b3a764000084611853919061293a565b61185d9190612738565b90506000600e60009054906101000a900473ffffffffffffffffffffffffffffffffffffffff1673ffffffffffffffffffffffffffffffffffffffff1663dd62ed3e33306040518363ffffffff1660e01b81526004016118be929190612d5d565b602060405180830381865afa1580156118db573d6000803e3d6000fd5b505050506040513d601f19601f820116820180604052508101906118ff91906127f0565b905080821115611944576040517f08c379a000000000000000000000000000000000000000000000000000000000815260040161193b90612dd2565b60405180910390fd5b600e60009054906101000a900473ffffffffffffffffffffffffffffffffffffffff1673ffffffffffffffffffffffffffffffffffffffff166323b872dd3330856040518463ffffffff1660e01b81526004016119a393929190612df2565b6020604051808303816000875af11580156119c2573d6000803e3d6000fd5b505050506040513d601f19601f820116820180604052508101906119e69190612872565b503373ffffffffffffffffffffffffffffffffffffffff167e7dc6ab80cc84c043b7b8d4fcafc802187470087f7ea7fccd2e17aecd0256a185604051611a2c919061209b565b60405180910390a25050506001808190555050565b600e60009054906101000a900473ffffffffffffffffffffffffffffffffffffffff1681565b600d60019054906101000a900473ffffffffffffffffffffffffffffffffffffffff1681565b60055481565b600080600090505b601080549050811015611b37578273ffffffffffffffffffffffffffffffffffffffff1660108281548110611ad357611ad2612709565b5b9060005260206000200160009054906101000a900473ffffffffffffffffffffffffffffffffffffffff1673ffffffffffffffffffffffffffffffffffffffff161415611b24576001915050611b3d565b8080611b2f90612792565b915050611a9b565b50600090505b919050565b611b4a611ed8565b73ffffffffffffffffffffffffffffffffffffffff16611b68610d32565b73ffffffffffffffffffffffffffffffffffffffff1614611bbe576040517f08c379a0000000000000000000000000000000000000000000000000000000008152600401611bb59061267d565b60405180910390fd5b600073ffffffffffffffffffffffffffffffffffffffff168173ffffffffffffffffffffffffffffffffffffffff161415611c2e576040517f08c379a0000000000000000000000000000000000000000000000000000000008152600401611c2590612e9b565b60405180910390fd5b611c3781611ee0565b50565b600080600090505b600f80549050811015611cde578273ffffffffffffffffffffffffffffffffffffffff16600f8281548110611c7a57611c79612709565b5b9060005260206000200160009054906101000a900473ffffffffffffffffffffffffffffffffffffffff1673ffffffffffffffffffffffffffffffffffffffff161415611ccb576001915050611ce4565b8080611cd690612792565b915050611c42565b50600090505b919050565b60045481565b600d60009054906101000a900460ff1681565b6000600d60019054906101000a900473ffffffffffffffffffffffffffffffffffffffff1673ffffffffffffffffffffffffffffffffffffffff166370a08231306040518263ffffffff1660e01b8152600401611d5f91906121b3565b602060405180830381865afa158015611d7c573d6000803e3d6000fd5b505050506040513d601f19601f82011682018060405250810190611da091906127f0565b905080821115611de5576040517f08c379a0000000000000000000000000000000000000000000000000000000008152600401611ddc90612f07565b60405180910390fd5b600d60019054906101000a900473ffffffffffffffffffffffffffffffffffffffff1673ffffffffffffffffffffffffffffffffffffffff1663a9059cbb33846040518363ffffffff1660e01b8152600401611e4292919061281d565b6020604051808303816000875af1158015611e61573d6000803e3d6000fd5b505050506040513d601f19601f82011682018060405250810190611e859190612872565b503373ffffffffffffffffffffffffffffffffffffffff167fc4f5f666de248767462ece0cae2dd9321323c27827f24a39f78a4a60f915f77583604051611ecc919061209b565b60405180910390a25050565b600033905090565b60008060009054906101000a900473ffffffffffffffffffffffffffffffffffffffff169050816000806101000a81548173ffffffffffffffffffffffffffffffffffffffff021916908373ffffffffffffffffffffffffffffffffffffffff1602179055508173ffffffffffffffffffffffffffffffffffffffff168173ffffffffffffffffffffffffffffffffffffffff167f8be0079c531659141344cd1fd0a4f28419497f9722a3daafe3b4186f6b6457e060405160405180910390a35050565b5080546000825590600052602060002090810190611fc29190612065565b50565b828054828255906000526020600020908101928215612054579160200282015b8281111561205357823573ffffffffffffffffffffffffffffffffffffffff168260006101000a81548173ffffffffffffffffffffffffffffffffffffffff021916908373ffffffffffffffffffffffffffffffffffffffff16021790555091602001919060010190611fe5565b5b5090506120619190612065565b5090565b5b8082111561207e576000816000905550600101612066565b5090565b6000819050919050565b61209581612082565b82525050565b60006020820190506120b0600083018461208c565b92915050565b600080fd5b600080fd5b6120c981612082565b81146120d457600080fd5b50565b6000813590506120e6816120c0565b92915050565b600060208284031215612102576121016120b6565b5b6000612110848285016120d7565b91505092915050565b600073ffffffffffffffffffffffffffffffffffffffff82169050919050565b600061214482612119565b9050919050565b61215481612139565b811461215f57600080fd5b50565b6000813590506121718161214b565b92915050565b60006020828403121561218d5761218c6120b6565b5b600061219b84828501612162565b91505092915050565b6121ad81612139565b82525050565b60006020820190506121c860008301846121a4565b92915050565b600080fd5b600080fd5b600080fd5b60008083601f8401126121f3576121f26121ce565b5b8235905067ffffffffffffffff8111156122105761220f6121d3565b5b60208301915083602082028301111561222c5761222b6121d8565b5b9250929050565b6000806020838503121561224a576122496120b6565b5b600083013567ffffffffffffffff811115612268576122676120bb565b5b612274858286016121dd565b92509250509250929050565b60008115159050919050565b61229581612280565b82525050565b60006060820190506122b0600083018661208c565b6122bd602083018561208c565b6122ca604083018461228c565b949350505050565b60008060008060008060008060006101208a8c0312156122f5576122f46120b6565b5b60006123038c828d016120d7565b99505060206123148c828d016120d7565b98505060406123258c828d016120d7565b97505060606123368c828d016120d7565b96505060806123478c828d016120d7565b95505060a06123588c828d016120d7565b94505060c06123698c828d016120d7565b93505060e061237a8c828d016120d7565b92505061010061238c8c828d016120d7565b9150509295985092959850929598565b60006020820190506123b1600083018461228c565b92915050565b7f4e487b7100000000000000000000000000000000000000000000000000000000600052601160045260246000fd5b60006123f182612082565b91506123fc83612082565b92508282101561240f5761240e6123b7565b5b828203905092915050565b600082825260208201905092915050565b7f5265656e7472616e637947756172643a207265656e7472616e742063616c6c00600082015250565b6000612461601f8361241a565b915061246c8261242b565b602082019050919050565b6000602082019050818103600083015261249081612454565b9050919050565b7f534545443a20544745206e6f7420737461727400000000000000000000000000600082015250565b60006124cd60138361241a565b91506124d882612497565b602082019050919050565b600060208201905081810360008301526124fc816124c0565b9050919050565b7f505249564154453a204561726c7920666f722074676500000000000000000000600082015250565b600061253960168361241a565b915061254482612503565b602082019050919050565b600060208201905081810360008301526125688161252c565b9050919050565b7f505249564154453a20556e6c6f636b20746f6b656e2069732030000000000000600082015250565b60006125a5601a8361241a565b91506125b08261256f565b602082019050919050565b600060208201905081810360008301526125d481612598565b9050919050565b60006125e682612082565b91506125f183612082565b9250827fffffffffffffffffffffffffffffffffffffffffffffffffffffffffffffffff03821115612626576126256123b7565b5b828201905092915050565b7f4f776e61626c653a2063616c6c6572206973206e6f7420746865206f776e6572600082015250565b600061266760208361241a565b915061267282612631565b602082019050919050565b600060208201905081810360008301526126968161265a565b9050919050565b7f534545443a205467652074696d6520696e76616c696400000000000000000000600082015250565b60006126d360168361241a565b91506126de8261269d565b602082019050919050565b60006020820190508181036000830152612702816126c6565b9050919050565b7f4e487b7100000000000000000000000000000000000000000000000000000000600052603260045260246000fd5b600061274382612082565b915061274e83612082565b9250817fffffffffffffffffffffffffffffffffffffffffffffffffffffffffffffffff0483118215151615612787576127866123b7565b5b828202905092915050565b600061279d82612082565b91507fffffffffffffffffffffffffffffffffffffffffffffffffffffffffffffffff8214156127d0576127cf6123b7565b5b600182019050919050565b6000815190506127ea816120c0565b92915050565b600060208284031215612806576128056120b6565b5b6000612814848285016127db565b91505092915050565b600060408201905061283260008301856121a4565b61283f602083018461208c565b9392505050565b61284f81612280565b811461285a57600080fd5b50565b60008151905061286c81612846565b92915050565b600060208284031215612888576128876120b6565b5b60006128968482850161285d565b91505092915050565b7f534545443a4561726c7920666f7220756e6c6f636b696e670000000000000000600082015250565b60006128d560188361241a565b91506128e08261289f565b602082019050919050565b60006020820190508181036000830152612904816128c8565b9050919050565b7f4e487b7100000000000000000000000000000000000000000000000000000000600052601260045260246000fd5b600061294582612082565b915061295083612082565b9250826129605761295f61290b565b5b828204905092915050565b7f534545443a4561726c7920666f722076657374696e6700000000000000000000600082015250565b60006129a160168361241a565b91506129ac8261296b565b602082019050919050565b600060208201905081810360008301526129d081612994565b9050919050565b7f534545443a416c726561647920436c61696d2054474500000000000000000000600082015250565b6000612a0d60168361241a565b9150612a18826129d7565b602082019050919050565b60006020820190508181036000830152612a3c81612a00565b9050919050565b7f534545443a4d696e206c6f776572207468616e206d6178000000000000000000600082015250565b6000612a7960178361241a565b9150612a8482612a43565b602082019050919050565b60006020820190508181036000830152612aa881612a6c565b9050919050565b7f534545443a204e6f742073746172746564000000000000000000000000000000600082015250565b6000612ae560118361241a565b9150612af082612aaf565b602082019050919050565b60006020820190508181036000830152612b1481612ad8565b9050919050565b7f534545443a4e6f7420696e697469616c00000000000000000000000000000000600082015250565b6000612b5160108361241a565b9150612b5c82612b1b565b602082019050919050565b60006020820190508181036000830152612b8081612b44565b9050919050565b7f534545443a4869676572207468616e20746f74616c0000000000000000000000600082015250565b6000612bbd60158361241a565b9150612bc882612b87565b602082019050919050565b60006020820190508181036000830152612bec81612bb0565b9050919050565b7f534545443a416d6f756e742073686f756c64206c6172676572207468616e206d60008201527f696e000000000000000000000000000000000000000000000000000000000000602082015250565b6000612c4f60228361241a565b9150612c5a82612bf3565b604082019050919050565b60006020820190508181036000830152612c7e81612c42565b9050919050565b7f534545443a41646472657373206e6f742077686974656c697374000000000000600082015250565b6000612cbb601a8361241a565b9150612cc682612c85565b602082019050919050565b60006020820190508181036000830152612cea81612cae565b9050919050565b7f534545443a204d6f7265207468616e206d617800000000000000000000000000600082015250565b6000612d2760138361241a565b9150612d3282612cf1565b602082019050919050565b60006020820190508181036000830152612d5681612d1a565b9050919050565b6000604082019050612d7260008301856121a4565b612d7f60208301846121a4565b9392505050565b7f534545443a496e737566666963656e7420616c6c6f77616e6365000000000000600082015250565b6000612dbc601a8361241a565b9150612dc782612d86565b602082019050919050565b60006020820190508181036000830152612deb81612daf565b9050919050565b6000606082019050612e0760008301866121a4565b612e1460208301856121a4565b612e21604083018461208c565b949350505050565b7f4f776e61626c653a206e6577206f776e657220697320746865207a65726f206160008201527f6464726573730000000000000000000000000000000000000000000000000000602082015250565b6000612e8560268361241a565b9150612e9082612e29565b604082019050919050565b60006020820190508181036000830152612eb481612e78565b9050919050565b7f496e737566666963656e7420746f6b656e000000000000000000000000000000600082015250565b6000612ef160118361241a565b9150612efc82612ebb565b602082019050919050565b60006020820190508181036000830152612f2081612ee4565b905091905056fea26469706673582212207e779b2bc6aba762219288492393a986f6f2ce7895bb2eed7699f30a8abcfda164736f6c634300080b0033",
  "immutableReferences": {},
  "source": "// SPDX-License-Identifier: MIT\r\n\r\npragma solidity 0.8.11;\r\n\r\nimport \"@openzeppelin/contracts/token/ERC20/IERC20.sol\";\r\nimport \"@openzeppelin/contracts/access/Ownable.sol\";\r\nimport \"@openzeppelin/contracts/security/ReentrancyGuard.sol\";\r\n\r\ncontract SeedWallet is Ownable, ReentrancyGuard {\r\n    struct User {\r\n        uint256 balance;\r\n        uint256 amountClaimVesting;\r\n        bool isClaimTGE;\r\n    }\r\n\r\n    uint256 public _startAt;\r\n    uint256 public _endAt;\r\n    uint256 public _firstLockingTime;\r\n    uint256 public _tge;\r\n    uint256 public _totalVestingPeriod;\r\n    uint256 public _vestingPeriod;\r\n    uint256 public _totalBalances;\r\n    uint256 public _cost;\r\n    uint256 public _min;\r\n    uint256 public _max;\r\n    uint256 public _tgeTime;\r\n\r\n    bool public _soldOut;\r\n\r\n    address public _token;\r\n    address public _exchangeToken;\r\n    address[] public whiteList;\r\n\r\n    address[] private _userKeys;\r\n\r\n    mapping(address => User) public users;\r\n\r\n    event Register(address indexed buyer, uint256 amount);\r\n    event ClaimWDA(address indexed buyer, uint256 amount);\r\n    event SoldOut(bool soldout);\r\n\r\n    constructor(address token_, address exchangeToken_) {\r\n        _token = token_;\r\n        _exchangeToken = exchangeToken_;\r\n    }\r\n\r\n    function initialize(\r\n        uint256 startAt_,\r\n        uint256 firstLockingTime_,\r\n        uint256 tge_,\r\n        uint256 vestingPeriod_,\r\n        uint256 totalVestingPeriod_,\r\n        uint256 totalBalances_,\r\n        uint256 cost_,\r\n        uint256 min_,\r\n        uint256 max_\r\n    ) external onlyOwner {\r\n        require(min_ < max_, \"SEED:Min lower than max\");\r\n        _startAt = startAt_;\r\n        _firstLockingTime = firstLockingTime_;\r\n        _tge = tge_;\r\n        _vestingPeriod = vestingPeriod_;\r\n        _totalVestingPeriod = totalVestingPeriod_;\r\n        _totalBalances = totalBalances_;\r\n        _cost = cost_;\r\n        _min = min_;\r\n        _max = max_;\r\n    }\r\n\r\n    function buy(uint256 amount) external onlyAfterStart nonReentrant {\r\n        require(_max > 0, \"SEED:Not initial\");\r\n        require(\r\n            getTotalBoughtWDA() + amount <= _totalBalances,\r\n            \"SEED:Higer than total\"\r\n        );\r\n        require(amount >= _min, \"SEED:Amount should larger than min\");\r\n        require(isWhiteList(msg.sender), \"SEED:Address not whitelist\");\r\n        if (!isExistAddress(msg.sender)) {\r\n            users[msg.sender] = User(0, 0, false);\r\n            _userKeys.push(msg.sender);\r\n        }\r\n        User storage user = users[msg.sender];\r\n        require(user.balance + amount <= _max, \"SEED: More than max\");\r\n        user.balance += amount;\r\n\r\n        if (getTotalBoughtWDA() == _totalBalances) {\r\n            _soldOut = true;\r\n            emit SoldOut(_soldOut);\r\n        }\r\n\r\n        uint256 totalBusd = (amount / 1 ether) * _cost;\r\n        uint256 allowance = IERC20(_exchangeToken).allowance(\r\n            msg.sender,\r\n            address(this)\r\n        );\r\n\r\n        require(totalBusd <= allowance, \"SEED:Insufficent allowance\");\r\n        IERC20(_exchangeToken).transferFrom(\r\n            msg.sender,\r\n            address(this),\r\n            totalBusd\r\n        );\r\n        emit Register(msg.sender, amount);\r\n    }\r\n\r\n    function setTgeTime(uint256 tgeTime_) external onlyOwner {\r\n        require(tgeTime_ >= block.timestamp, \"SEED: Tge time invalid\");\r\n        _tgeTime = tgeTime_;\r\n        _firstLockingTime = _firstLockingTime + _tgeTime;\r\n    }\r\n\r\n    function claimTGE() external onlyTgeStart nonReentrant {\r\n        require(block.timestamp >= _tgeTime, \"PRIVATE: Early for tge\");\r\n        User storage user = users[msg.sender];\r\n        require(!user.isClaimTGE, \"SEED:Already Claim TGE\");\r\n        uint256 balanceOfUser = user.balance;\r\n        uint256 amount = (balanceOfUser * _tge) / 100;\r\n        _claimToken(amount);\r\n        user.isClaimTGE = true;\r\n    }\r\n\r\n    function vesting() external nonReentrant onlyTgeStart {\r\n        require(block.timestamp >= _tgeTime, \"PRIVATE: Early for tge\");\r\n        User storage user = users[msg.sender];\r\n        uint256 amount = getUnlocked(msg.sender);\r\n        require(amount > 0, \"PRIVATE: Unlock token is 0\");\r\n        user.amountClaimVesting += amount;\r\n        _claimToken(amount);\r\n    }\r\n\r\n    function _claimToken(uint256 amount) internal {\r\n        uint256 walletBalances = IERC20(_token).balanceOf(address(this));\r\n        require(amount <= walletBalances, \"Insufficent token\");\r\n        IERC20(_token).transfer(msg.sender, amount);\r\n        emit ClaimWDA(msg.sender, amount);\r\n    }\r\n\r\n    function getUnlocked(address account)\r\n        public\r\n        view\r\n        onlyTgeStart\r\n        returns (uint256)\r\n    {\r\n        User storage user = users[account];\r\n        uint256 amountUnlock = 0;\r\n        require(\r\n            block.timestamp >= _firstLockingTime,\r\n            \"SEED:Early for unlocking\"\r\n        );\r\n        uint256 times = (block.timestamp - _firstLockingTime) / _vestingPeriod;\r\n        require(times > 0, \"SEED:Early for vesting\");\r\n        uint256 unlockedTokenPerTime = ((user.balance * (100 - _tge)) / 100) /\r\n            _totalVestingPeriod;\r\n        uint256 totalUnlockedToken = (times * unlockedTokenPerTime);\r\n        if (totalUnlockedToken >= ((user.balance * (100 - _tge)) / 100)) {\r\n            amountUnlock = (user.balance * (100 - _tge)) / 100;\r\n        } else {\r\n            amountUnlock = totalUnlockedToken - user.amountClaimVesting;\r\n        }\r\n        return amountUnlock;\r\n    }\r\n\r\n    function setWhiteList(address[] calldata users_) external onlyOwner {\r\n        delete whiteList;\r\n        whiteList = users_;\r\n    }\r\n\r\n    function isWhiteList(address account) public view returns (bool) {\r\n        for (uint256 i = 0; i < whiteList.length; i++) {\r\n            if (whiteList[i] == account) {\r\n                return true;\r\n            }\r\n        }\r\n        return false;\r\n    }\r\n\r\n    function withdrawBusd() external onlyOwner {\r\n        uint256 amountBusd = IERC20(_exchangeToken).balanceOf(address(this));\r\n        IERC20(_exchangeToken).transfer(owner(), amountBusd);\r\n    }\r\n\r\n    function getBusdBalance(address account) public view returns (uint256) {\r\n        for (uint256 i = 0; i < _userKeys.length; i++) {\r\n            if (_userKeys[i] == account) {\r\n                return users[_userKeys[i]].balance * _cost;\r\n            }\r\n        }\r\n        return 0;\r\n    }\r\n\r\n    function getWDABalance(address account) public view returns (uint256) {\r\n        for (uint256 i = 0; i < _userKeys.length; i++) {\r\n            if (_userKeys[i] == account) {\r\n                return users[_userKeys[i]].balance;\r\n            }\r\n        }\r\n        return 0;\r\n    }\r\n\r\n    function getTotalBoughtWDA() public view returns (uint256) {\r\n        uint256 totalBought = 0;\r\n        for (uint256 i = 0; i < _userKeys.length; i++) {\r\n            totalBought += users[_userKeys[i]].balance;\r\n        }\r\n        return totalBought;\r\n    }\r\n\r\n    function getTotalUnboughtWDA() public view returns (uint256) {\r\n        return _totalBalances - getTotalBoughtWDA();\r\n    }\r\n\r\n    function isExistAddress(address account) public view returns (bool) {\r\n        for (uint256 i = 0; i < _userKeys.length; i++) {\r\n            if (_userKeys[i] == account) {\r\n                return true;\r\n            }\r\n        }\r\n        return false;\r\n    }\r\n\r\n    modifier onlyAfterStart() {\r\n        require(block.timestamp >= _startAt, \"SEED: Not started\");\r\n        _;\r\n    }\r\n\r\n    modifier onlyTgeStart() {\r\n        require(_tgeTime > 0, \"SEED: TGE not start\");\r\n        _;\r\n    }\r\n}\r\n",
  "sourcePath": "C:\\Github\\Dao\\Develop\\Blockchain\\dao-project\\contracts\\Wallet\\SeedWallet.sol",
  "compiler": {
    "name": "solc",
    "version": "0.8.11+commit.d7f03943.Emscripten.clang"
  },
  "schemaVersion": "3.4.7",
  "updatedAt": "2022-06-23T10:13:52.852Z",
  "devdoc": {
    "kind": "dev",
    "methods": {
      "owner()": {
        "details": "Returns the address of the current owner."
      },
      "renounceOwnership()": {
        "details": "Leaves the contract without owner. It will not be possible to call `onlyOwner` functions anymore. Can only be called by the current owner. NOTE: Renouncing ownership will leave the contract without an owner, thereby removing any functionality that is only available to the owner."
      },
      "transferOwnership(address)": {
        "details": "Transfers ownership of the contract to a new account (`newOwner`). Can only be called by the current owner."
      }
    },
    "version": 1
  },
  "userdoc": {
    "kind": "user",
    "methods": {},
    "version": 1
  }
}