{
  "contractName": "Staking",
  "abi": [
    {
      "inputs": [
        {
          "internalType": "address",
          "name": "_token",
          "type": "address"
        }
      ],
      "stateMutability": "nonpayable",
      "type": "constructor"
    },
    {
      "anonymous": false,
      "inputs": [
        {
          "indexed": true,
          "internalType": "uint256",
          "name": "stakeId",
          "type": "uint256"
        },
        {
          "indexed": true,
          "internalType": "address",
          "name": "owner",
          "type": "address"
        },
        {
          "indexed": true,
          "internalType": "uint256",
          "name": "amount",
          "type": "uint256"
        }
      ],
      "name": "Claimed",
      "type": "event"
    },
    {
      "anonymous": false,
      "inputs": [
        {
          "indexed": true,
          "internalType": "uint256",
          "name": "stakeId",
          "type": "uint256"
        },
        {
          "indexed": true,
          "internalType": "address",
          "name": "owner",
          "type": "address"
        },
        {
          "indexed": false,
          "internalType": "uint256",
          "name": "amount",
          "type": "uint256"
        },
        {
          "indexed": false,
          "internalType": "uint256",
          "name": "duration",
          "type": "uint256"
        },
        {
          "indexed": false,
          "internalType": "uint256",
          "name": "apr",
          "type": "uint256"
        },
        {
          "indexed": false,
          "internalType": "uint256",
          "name": "nftId",
          "type": "uint256"
        }
      ],
      "name": "Staked",
      "type": "event"
    },
    {
      "anonymous": false,
      "inputs": [
        {
          "indexed": true,
          "internalType": "uint256",
          "name": "stakeId",
          "type": "uint256"
        },
        {
          "indexed": true,
          "internalType": "address",
          "name": "owner",
          "type": "address"
        },
        {
          "indexed": false,
          "internalType": "uint256",
          "name": "claimed",
          "type": "uint256"
        }
      ],
      "name": "Unstaked",
      "type": "event"
    },
    {
      "inputs": [],
      "name": "totalStaked",
      "outputs": [
        {
          "internalType": "uint256",
          "name": "",
          "type": "uint256"
        }
      ],
      "stateMutability": "view",
      "type": "function"
    },
    {
      "inputs": [
        {
          "internalType": "uint256",
          "name": "stakingId",
          "type": "uint256"
        },
        {
          "internalType": "uint256",
          "name": "newDurationTime",
          "type": "uint256"
        }
      ],
      "name": "setDuration",
      "outputs": [],
      "stateMutability": "nonpayable",
      "type": "function"
    },
    {
      "inputs": [
        {
          "internalType": "address",
          "name": "_CrownAddress",
          "type": "address"
        }
      ],
      "name": "setCrownContract",
      "outputs": [],
      "stateMutability": "nonpayable",
      "type": "function"
    },
    {
      "inputs": [
        {
          "internalType": "address",
          "name": "newAddress",
          "type": "address"
        }
      ],
      "name": "setDaoTreasuryWallet",
      "outputs": [],
      "stateMutability": "nonpayable",
      "type": "function"
    },
    {
      "inputs": [
        {
          "internalType": "uint256",
          "name": "maxP",
          "type": "uint256"
        }
      ],
      "name": "setMaxPercent",
      "outputs": [],
      "stateMutability": "nonpayable",
      "type": "function"
    },
    {
      "inputs": [
        {
          "internalType": "address",
          "name": "_newDAOAddress",
          "type": "address"
        }
      ],
      "name": "setWinDAOAddress",
      "outputs": [],
      "stateMutability": "nonpayable",
      "type": "function"
    },
    {
      "inputs": [
        {
          "internalType": "uint256",
          "name": "newUnit",
          "type": "uint256"
        }
      ],
      "name": "setToSecond",
      "outputs": [],
      "stateMutability": "nonpayable",
      "type": "function"
    },
    {
      "inputs": [
        {
          "internalType": "uint256",
          "name": "stakingId",
          "type": "uint256"
        },
        {
          "internalType": "uint256",
          "name": "decreasingAmount",
          "type": "uint256"
        }
      ],
      "name": "decreasingTime",
      "outputs": [],
      "stateMutability": "nonpayable",
      "type": "function"
    },
    {
      "inputs": [],
      "name": "initialize",
      "outputs": [],
      "stateMutability": "nonpayable",
      "type": "function"
    },
    {
      "inputs": [],
      "name": "withdrawWDAToDAOTreasury",
      "outputs": [],
      "stateMutability": "nonpayable",
      "type": "function"
    },
    {
      "inputs": [
        {
          "internalType": "uint256",
          "name": "percentChange",
          "type": "uint256"
        },
        {
          "internalType": "uint8",
          "name": "action",
          "type": "uint8"
        }
      ],
      "name": "setProposal",
      "outputs": [],
      "stateMutability": "nonpayable",
      "type": "function"
    },
    {
      "inputs": [
        {
          "internalType": "uint256",
          "name": "nftId",
          "type": "uint256"
        }
      ],
      "name": "getListPackage",
      "outputs": [
        {
          "components": [
            {
              "internalType": "uint256",
              "name": "apr",
              "type": "uint256"
            },
            {
              "internalType": "uint256",
              "name": "duration",
              "type": "uint256"
            },
            {
              "internalType": "uint8",
              "name": "id",
              "type": "uint8"
            },
            {
              "internalType": "uint256",
              "name": "testLockTime",
              "type": "uint256"
            }
          ],
          "internalType": "struct Staking.Package[4]",
          "name": "",
          "type": "tuple[4]"
        }
      ],
      "stateMutability": "view",
      "type": "function"
    },
    {
      "inputs": [
        {
          "internalType": "uint8",
          "name": "_stakingId",
          "type": "uint8"
        },
        {
          "internalType": "uint256",
          "name": "_nftId",
          "type": "uint256"
        },
        {
          "internalType": "uint256",
          "name": "_amount",
          "type": "uint256"
        }
      ],
      "name": "stake",
      "outputs": [],
      "stateMutability": "nonpayable",
      "type": "function"
    },
    {
      "inputs": [
        {
          "internalType": "uint256",
          "name": "_stakingId",
          "type": "uint256"
        }
      ],
      "name": "claim",
      "outputs": [],
      "stateMutability": "nonpayable",
      "type": "function"
    },
    {
      "inputs": [
        {
          "internalType": "uint256",
          "name": "_stakingId",
          "type": "uint256"
        }
      ],
      "name": "unstake",
      "outputs": [],
      "stateMutability": "nonpayable",
      "type": "function"
    },
    {
      "inputs": [
        {
          "internalType": "uint256",
          "name": "stakingId",
          "type": "uint256"
        }
      ],
      "name": "getEarned",
      "outputs": [
        {
          "internalType": "uint256",
          "name": "",
          "type": "uint256"
        }
      ],
      "stateMutability": "view",
      "type": "function"
    },
    {
      "inputs": [
        {
          "internalType": "address",
          "name": "newOwner",
          "type": "address"
        }
      ],
      "name": "transferOwnership",
      "outputs": [],
      "stateMutability": "nonpayable",
      "type": "function"
    }
  ],
  "bytecode": "0x6080604052600a601655610e106018553480156200001c57600080fd5b5060405162002c0038038062002c00833981810160405281019062000042919062000135565b80600160006101000a81548173ffffffffffffffffffffffffffffffffffffffff021916908373ffffffffffffffffffffffffffffffffffffffff16021790555033600260006101000a81548173ffffffffffffffffffffffffffffffffffffffff021916908373ffffffffffffffffffffffffffffffffffffffff1602179055505062000167565b600080fd5b600073ffffffffffffffffffffffffffffffffffffffff82169050919050565b6000620000fd82620000d0565b9050919050565b6200010f81620000f0565b81146200011b57600080fd5b50565b6000815190506200012f8162000104565b92915050565b6000602082840312156200014e576200014d620000cb565b5b60006200015e848285016200011e565b91505092915050565b612a8980620001776000396000f3fe608060405234801561001057600080fd5b506004361061010b5760003560e01c806378642aa2116100a2578063cd7ea09511610071578063cd7ea0951461023e578063e59cb8081461025a578063e938750414610276578063f2351f95146102a6578063f2fde38b146102d65761010b565b806378642aa2146101f05780638129fc1c1461020c578063817b1cd214610216578063a7d7d3f3146102345761010b565b8063379607f5116100de578063379607f5146101805780635b39e2b51461019c578063602bc979146101b85780636b970932146101d45761010b565b806305d13c0e1461011057806315d311f21461012c5780631ee8a675146101485780632e17de7814610164575b600080fd5b61012a60048036038101906101259190611f20565b6102f2565b005b61014660048036038101906101419190611f83565b610336565b005b610162600480360381019061015d9190611fe9565b610340565b005b61017e60048036038101906101799190611f83565b6109b6565b005b61019a60048036038101906101959190611f83565b610cb5565b005b6101b660048036038101906101b19190611f20565b610fd8565b005b6101d260048036038101906101cd9190611f83565b61101c565b005b6101ee60048036038101906101e99190611f20565b611026565b005b61020a6004803603810190610205919061203c565b61106a565b005b6102146112cd565b005b61021e6115ad565b60405161022b919061208b565b60405180910390f35b61023c6115b3565b005b610258600480360381019061025391906120a6565b611773565b005b610274600480360381019061026f91906120a6565b6117a1565b005b610290600480360381019061028b9190611f83565b6117e1565b60405161029d919061208b565b60405180910390f35b6102c060048036038101906102bb9190611f83565b6117f5565b6040516102cd91906121f5565b60405180910390f35b6102f060048036038101906102eb9190611f20565b6119d3565b005b80600360006101000a81548173ffffffffffffffffffffffffffffffffffffffff021916908373ffffffffffffffffffffffffffffffffffffffff16021790555050565b8060168190555050565b600060068460ff166004811061035957610358612211565b5b6004020160405180608001604052908160008201548152602001600182015481526020016002820160009054906101000a900460ff1660ff1660ff1681526020016003820154815250509050600083141580156103ba575060038460ff1614155b156105d2573373ffffffffffffffffffffffffffffffffffffffff16600460009054906101000a900473ffffffffffffffffffffffffffffffffffffffff1673ffffffffffffffffffffffffffffffffffffffff16636352211e856040518263ffffffff1660e01b8152600401610431919061208b565b602060405180830381865afa15801561044e573d6000803e3d6000fd5b505050506040513d601f19601f820116820180604052508101906104729190612255565b73ffffffffffffffffffffffffffffffffffffffff16146104c8576040517f08c379a00000000000000000000000000000000000000000000000000000000081526004016104bf906122df565b60405180910390fd5b6000600460009054906101000a900473ffffffffffffffffffffffffffffffffffffffff1673ffffffffffffffffffffffffffffffffffffffff1663e1dc0761856040518263ffffffff1660e01b8152600401610525919061208b565b608060405180830381865afa158015610542573d6000803e3d6000fd5b505050506040513d601f19601f820116820180604052508101906105669190612455565b90506000151581606001511515146105b3576040517f08c379a00000000000000000000000000000000000000000000000000000000081526004016105aa906124ce565b60405180910390fd5b8060200151826000018181516105c9919061251d565b91508181525050505b6000600160009054906101000a900473ffffffffffffffffffffffffffffffffffffffff1673ffffffffffffffffffffffffffffffffffffffff1663dd62ed3e33306040518363ffffffff1660e01b8152600401610631929190612582565b602060405180830381865afa15801561064e573d6000803e3d6000fd5b505050506040513d601f19601f8201168201806040525081019061067291906125ab565b9050828110156106b7576040517f08c379a00000000000000000000000000000000000000000000000000000000081526004016106ae90612624565b60405180910390fd5b600160009054906101000a900473ffffffffffffffffffffffffffffffffffffffff1673ffffffffffffffffffffffffffffffffffffffff166323b872dd3330866040518463ffffffff1660e01b815260040161071693929190612644565b6020604051808303816000875af1158015610735573d6000803e3d6000fd5b505050506040513d601f19601f82011682018060405250810190610759919061267b565b506000841415801561076f575060038560ff1614155b1561080557600460009054906101000a900473ffffffffffffffffffffffffffffffffffffffff1673ffffffffffffffffffffffffffffffffffffffff1663223218a18560016040518363ffffffff1660e01b81526004016107d29291906126b7565b600060405180830381600087803b1580156107ec57600080fd5b505af1158015610800573d6000803e3d6000fd5b505050505b82600080828254610816919061251d565b925050819055506000600580549050905060056040518061010001604052808381526020013373ffffffffffffffffffffffffffffffffffffffff16815260200142815260200186815260200160038960ff161415610876576000610878565b875b81526020018560200151815260200185600001518152602001856060015181525090806001815401808255809150506001900390600052602060002090600802016000909190919091506000820151816000015560208201518160010160006101000a81548173ffffffffffffffffffffffffffffffffffffffff021916908373ffffffffffffffffffffffffffffffffffffffff16021790555060408201518160020155606082015181600301556080820151816004015560a0820151816005015560c0820151816006015560e0820151816007015550503373ffffffffffffffffffffffffffffffffffffffff16817fa26c9ce7e5e8c0b316b21906f4538c8002dcdae14c090dbcfca25bfb8b0947ba86866020015187600001518a6040516109a694939291906126e0565b60405180910390a3505050505050565b6000600582815481106109cc576109cb612211565b5b906000526020600020906008020160405180610100016040529081600082015481526020016001820160009054906101000a900473ffffffffffffffffffffffffffffffffffffffff1673ffffffffffffffffffffffffffffffffffffffff1673ffffffffffffffffffffffffffffffffffffffff1681526020016002820154815260200160038201548152602001600482015481526020016005820154815260200160068201548152602001600782015481525050905060008160a0015114610acb576040517f08c379a0000000000000000000000000000000000000000000000000000000008152600401610ac290612797565b60405180910390fd5b806020015173ffffffffffffffffffffffffffffffffffffffff163373ffffffffffffffffffffffffffffffffffffffff1614610b3d576040517f08c379a0000000000000000000000000000000000000000000000000000000008152600401610b34906122df565b60405180910390fd5b6000610b4a836001611adf565b90508160600151600080828254610b6191906127b7565b92505081905550610b7183611cad565b3373ffffffffffffffffffffffffffffffffffffffff16837f37375b03d8924bd8f076f11f8411b9962aa5c02fb489021507bc6bb6f850e36583604051610bb8919061208b565b60405180910390a36000811115610cb057600160009054906101000a900473ffffffffffffffffffffffffffffffffffffffff1673ffffffffffffffffffffffffffffffffffffffff1663a9059cbb33836040518363ffffffff1660e01b8152600401610c269291906127eb565b6020604051808303816000875af1158015610c45573d6000803e3d6000fd5b505050506040513d601f19601f82011682018060405250810190610c69919061267b565b50803373ffffffffffffffffffffffffffffffffffffffff16847f4ec90e965519d92681267467f775ada5bd214aa92c0dc93d90a5e880ce9ed02660405160405180910390a45b505050565b600060058281548110610ccb57610cca612211565b5b906000526020600020906008020160405180610100016040529081600082015481526020016001820160009054906101000a900473ffffffffffffffffffffffffffffffffffffffff1673ffffffffffffffffffffffffffffffffffffffff1673ffffffffffffffffffffffffffffffffffffffff16815260200160028201548152602001600382015481526020016004820154815260200160058201548152602001600682015481526020016007820154815250509050806020015173ffffffffffffffffffffffffffffffffffffffff163373ffffffffffffffffffffffffffffffffffffffff1614610df5576040517f08c379a0000000000000000000000000000000000000000000000000000000008152600401610dec906122df565b60405180910390fd5b60008160400151905060008260a00151905060008114610e6f576018548360e00151610e219190612814565b82610e2c919061251d565b421015610e6e576040517f08c379a0000000000000000000000000000000000000000000000000000000008152600401610e65906128ba565b60405180910390fd5b5b6000610e7c856000611adf565b905060008214610eb0578360600151600080828254610e9b91906127b7565b92505081905550610eab85611cad565b610ee1565b4263ffffffff1660058681548110610ecb57610eca612211565b5b9060005260206000209060080201600201819055505b6000811115610fd157600160009054906101000a900473ffffffffffffffffffffffffffffffffffffffff1673ffffffffffffffffffffffffffffffffffffffff1663a9059cbb33836040518363ffffffff1660e01b8152600401610f479291906127eb565b6020604051808303816000875af1158015610f66573d6000803e3d6000fd5b505050506040513d601f19601f82011682018060405250810190610f8a919061267b565b50803373ffffffffffffffffffffffffffffffffffffffff16867f4ec90e965519d92681267467f775ada5bd214aa92c0dc93d90a5e880ce9ed02660405160405180910390a45b5050505050565b80600460006101000a81548173ffffffffffffffffffffffffffffffffffffffff021916908373ffffffffffffffffffffffffffffffffffffffff16021790555050565b8060188190555050565b80601760006101000a81548173ffffffffffffffffffffffffffffffffffffffff021916908373ffffffffffffffffffffffffffffffffffffffff16021790555050565b600260009054906101000a900473ffffffffffffffffffffffffffffffffffffffff1673ffffffffffffffffffffffffffffffffffffffff163373ffffffffffffffffffffffffffffffffffffffff1614806111135750601760009054906101000a900473ffffffffffffffffffffffffffffffffffffffff1673ffffffffffffffffffffffffffffffffffffffff163373ffffffffffffffffffffffffffffffffffffffff16145b611152576040517f08c379a0000000000000000000000000000000000000000000000000000000008152600401611149906122df565b60405180910390fd5b601654821115611197576040517f08c379a000000000000000000000000000000000000000000000000000000000815260040161118e90612926565b60405180910390fd5b60008160ff16141561122f578160066000600481106111b9576111b8612211565b5b6004020160000160008282546111cf91906127b7565b925050819055508160066001600481106111ec576111eb612211565b5b60040201600001600082825461120291906127b7565b9250508190555081600660026004811061121f5761121e612211565b5b60040201600001819055506112c9565b81600660006004811061124557611244612211565b5b60040201600001600082825461125b919061251d565b9250508190555081600660016004811061127857611277612211565b5b60040201600001600082825461128e919061251d565b925050819055508160066002600481106112ab576112aa612211565b5b6004020160000160008282546112c1919061251d565b925050819055505b5050565b600260009054906101000a900473ffffffffffffffffffffffffffffffffffffffff1673ffffffffffffffffffffffffffffffffffffffff163373ffffffffffffffffffffffffffffffffffffffff161461135d576040517f08c379a0000000000000000000000000000000000000000000000000000000008152600401611354906122df565b60405180910390fd5b6064600660006004811061137457611373612211565b5b6004020160000181905550601e600660006004811061139657611395612211565b5b6004020160010181905550600060066000600481106113b8576113b7612211565b5b6004020160020160006101000a81548160ff021916908360ff160217905550600160066000600481106113ee576113ed612211565b5b6004020160030181905550608a60066001600481106114105761140f612211565b5b6004020160000181905550605a600660016004811061143257611431612211565b5b60040201600101819055506001600660016004811061145457611453612211565b5b6004020160020160006101000a81548160ff021916908360ff1602179055506002600660016004811061148a57611489612211565b5b600402016003018190555060dc60066002600481106114ac576114ab612211565b5b600402016000018190555060b460066002600481106114ce576114cd612211565b5b6004020160010181905550600360066002600481106114f0576114ef612211565b5b60040201600301819055506002600660026004811061151257611511612211565b5b6004020160020160006101000a81548160ff021916908360ff1602179055506005600660036004811061154857611547612211565b5b60040201600001819055506000600660036004811061156a57611569612211565b5b60040201600101819055506003600660036004811061158c5761158b612211565b5b6004020160020160006101000a81548160ff021916908360ff160217905550565b60005481565b600260009054906101000a900473ffffffffffffffffffffffffffffffffffffffff1673ffffffffffffffffffffffffffffffffffffffff163373ffffffffffffffffffffffffffffffffffffffff161461160d57600080fd5b6000600160009054906101000a900473ffffffffffffffffffffffffffffffffffffffff1673ffffffffffffffffffffffffffffffffffffffff166370a08231306040518263ffffffff1660e01b815260040161166a9190612946565b602060405180830381865afa158015611687573d6000803e3d6000fd5b505050506040513d601f19601f820116820180604052508101906116ab91906125ab565b9050600160009054906101000a900473ffffffffffffffffffffffffffffffffffffffff1673ffffffffffffffffffffffffffffffffffffffff1663a9059cbb600360009054906101000a900473ffffffffffffffffffffffffffffffffffffffff16836040518363ffffffff1660e01b815260040161172c9291906127eb565b6020604051808303816000875af115801561174b573d6000803e3d6000fd5b505050506040513d601f19601f8201168201806040525081019061176f919061267b565b5050565b806005838154811061178857611787612211565b5b9060005260206000209060080201600501819055505050565b80600583815481106117b6576117b5612211565b5b906000526020600020906008020160020160008282546117d691906127b7565b925050819055505050565b60006117ee826001611adf565b9050919050565b6117fd611e5b565b60006006600480602002604051908101604052809291906000905b8282101561187b5783826004020160405180608001604052908160008201548152602001600182015481526020016002820160009054906101000a900460ff1660ff1660ff16815260200160038201548152505081526020019060010190611818565b505050509050600083146119ca576000600460009054906101000a900473ffffffffffffffffffffffffffffffffffffffff1673ffffffffffffffffffffffffffffffffffffffff1663e1dc0761856040518263ffffffff1660e01b81526004016118e6919061208b565b608060405180830381865afa158015611903573d6000803e3d6000fd5b505050506040513d601f19601f820116820180604052508101906119279190612455565b905080602001518260006004811061194257611941612211565b5b6020020151600001818151611957919061251d565b9150818152505080602001518260016004811061197757611976612211565b5b602002015160000181815161198c919061251d565b915081815250508060200151826002600481106119ac576119ab612211565b5b60200201516000018181516119c1919061251d565b91508181525050505b80915050919050565b600073ffffffffffffffffffffffffffffffffffffffff168173ffffffffffffffffffffffffffffffffffffffff161415611a43576040517f08c379a0000000000000000000000000000000000000000000000000000000008152600401611a3a906129d3565b60405180910390fd5b600260009054906101000a900473ffffffffffffffffffffffffffffffffffffffff1673ffffffffffffffffffffffffffffffffffffffff163373ffffffffffffffffffffffffffffffffffffffff1614611ad3576040517f08c379a0000000000000000000000000000000000000000000000000000000008152600401611aca906122df565b60405180910390fd5b611adc81611e17565b50565b60008060058481548110611af657611af5612211565b5b906000526020600020906008020160405180610100016040529081600082015481526020016001820160009054906101000a900473ffffffffffffffffffffffffffffffffffffffff1673ffffffffffffffffffffffffffffffffffffffff1673ffffffffffffffffffffffffffffffffffffffff1681526020016002820154815260200160038201548152602001600482015481526020016005820154815260200160068201548152602001600782015481525050905060008160c00151905060008260a001511415611c5057600062015180836040015142611bda91906127b7565b611be49190612a22565b90506000601e600c606484868860600151611bff9190612814565b611c099190612814565b611c139190612a22565b611c1d9190612a22565b611c279190612a22565b905085611c345780611c45565b808460600151611c44919061251d565b5b945050505050611ca7565b600c601e60648385606001518660a00151611c6b9190612814565b611c759190612814565b611c7f9190612a22565b611c899190612a22565b611c939190612a22565b8260600151611ca2919061251d565b925050505b92915050565b600060058281548110611cc357611cc2612211565b5b90600052602060002090600802016004015414611d9057600460009054906101000a900473ffffffffffffffffffffffffffffffffffffffff1673ffffffffffffffffffffffffffffffffffffffff1663223218a160058381548110611d2c57611d2b612211565b5b90600052602060002090600802016004015460006040518363ffffffff1660e01b8152600401611d5d9291906126b7565b600060405180830381600087803b158015611d7757600080fd5b505af1158015611d8b573d6000803e3d6000fd5b505050505b60058181548110611da457611da3612211565b5b90600052602060002090600802016000808201600090556001820160006101000a81549073ffffffffffffffffffffffffffffffffffffffff0219169055600282016000905560038201600090556004820160009055600582016000905560068201600090556007820160009055505050565b80600260006101000a81548173ffffffffffffffffffffffffffffffffffffffff021916908373ffffffffffffffffffffffffffffffffffffffff16021790555050565b60405180608001604052806004905b611e72611e88565b815260200190600190039081611e6a5790505090565b60405180608001604052806000815260200160008152602001600060ff168152602001600081525090565b6000604051905090565b600080fd5b600073ffffffffffffffffffffffffffffffffffffffff82169050919050565b6000611eed82611ec2565b9050919050565b611efd81611ee2565b8114611f0857600080fd5b50565b600081359050611f1a81611ef4565b92915050565b600060208284031215611f3657611f35611ebd565b5b6000611f4484828501611f0b565b91505092915050565b6000819050919050565b611f6081611f4d565b8114611f6b57600080fd5b50565b600081359050611f7d81611f57565b92915050565b600060208284031215611f9957611f98611ebd565b5b6000611fa784828501611f6e565b91505092915050565b600060ff82169050919050565b611fc681611fb0565b8114611fd157600080fd5b50565b600081359050611fe381611fbd565b92915050565b60008060006060848603121561200257612001611ebd565b5b600061201086828701611fd4565b935050602061202186828701611f6e565b925050604061203286828701611f6e565b9150509250925092565b6000806040838503121561205357612052611ebd565b5b600061206185828601611f6e565b925050602061207285828601611fd4565b9150509250929050565b61208581611f4d565b82525050565b60006020820190506120a0600083018461207c565b92915050565b600080604083850312156120bd576120bc611ebd565b5b60006120cb85828601611f6e565b92505060206120dc85828601611f6e565b9150509250929050565b600060049050919050565b600081905092915050565b6000819050919050565b61210f81611f4d565b82525050565b61211e81611fb0565b82525050565b60808201600082015161213a6000850182612106565b50602082015161214d6020850182612106565b5060408201516121606040850182612115565b5060608201516121736060850182612106565b50505050565b60006121858383612124565b60808301905092915050565b6000602082019050919050565b6121a7816120e6565b6121b181846120f1565b92506121bc826120fc565b8060005b838110156121ed5781516121d48782612179565b96506121df83612191565b9250506001810190506121c0565b505050505050565b60006102008201905061220b600083018461219e565b92915050565b7f4e487b7100000000000000000000000000000000000000000000000000000000600052603260045260246000fd5b60008151905061224f81611ef4565b92915050565b60006020828403121561226b5761226a611ebd565b5b600061227984828501612240565b91505092915050565b600082825260208201905092915050565b7f4f776e61626c653a204e6f74206f776e65720000000000000000000000000000600082015250565b60006122c9601283612282565b91506122d482612293565b602082019050919050565b600060208201905081810360008301526122f8816122bc565b9050919050565b600080fd5b6000601f19601f8301169050919050565b7f4e487b7100000000000000000000000000000000000000000000000000000000600052604160045260246000fd5b61234d82612304565b810181811067ffffffffffffffff8211171561236c5761236b612315565b5b80604052505050565b600061237f611eb3565b905061238b8282612344565b919050565b60008151905061239f81611f57565b92915050565b60008115159050919050565b6123ba816123a5565b81146123c557600080fd5b50565b6000815190506123d7816123b1565b92915050565b6000608082840312156123f3576123f26122ff565b5b6123fd6080612375565b9050600061240d84828501612390565b600083015250602061242184828501612390565b602083015250604061243584828501612390565b6040830152506060612449848285016123c8565b60608301525092915050565b60006080828403121561246b5761246a611ebd565b5b6000612479848285016123dd565b91505092915050565b7f43726f776e207374616b65640000000000000000000000000000000000000000600082015250565b60006124b8600c83612282565b91506124c382612482565b602082019050919050565b600060208201905081810360008301526124e7816124ab565b9050919050565b7f4e487b7100000000000000000000000000000000000000000000000000000000600052601160045260246000fd5b600061252882611f4d565b915061253383611f4d565b9250827fffffffffffffffffffffffffffffffffffffffffffffffffffffffffffffffff03821115612568576125676124ee565b5b828201905092915050565b61257c81611ee2565b82525050565b60006040820190506125976000830185612573565b6125a46020830184612573565b9392505050565b6000602082840312156125c1576125c0611ebd565b5b60006125cf84828501612390565b91505092915050565b7f4f76657220616c6c6f77616e6365205744410000000000000000000000000000600082015250565b600061260e601283612282565b9150612619826125d8565b602082019050919050565b6000602082019050818103600083015261263d81612601565b9050919050565b60006060820190506126596000830186612573565b6126666020830185612573565b612673604083018461207c565b949350505050565b60006020828403121561269157612690611ebd565b5b600061269f848285016123c8565b91505092915050565b6126b1816123a5565b82525050565b60006040820190506126cc600083018561207c565b6126d960208301846126a8565b9392505050565b60006080820190506126f5600083018761207c565b612702602083018661207c565b61270f604083018561207c565b61271c606083018461207c565b95945050505050565b7f43616e6e6f7420756e7374616b65206669786564207374616b696e672070616360008201527f6b61676500000000000000000000000000000000000000000000000000000000602082015250565b6000612781602483612282565b915061278c82612725565b604082019050919050565b600060208201905081810360008301526127b081612774565b9050919050565b60006127c282611f4d565b91506127cd83611f4d565b9250828210156127e0576127df6124ee565b5b828203905092915050565b60006040820190506128006000830185612573565b61280d602083018461207c565b9392505050565b600061281f82611f4d565b915061282a83611f4d565b9250817fffffffffffffffffffffffffffffffffffffffffffffffffffffffffffffffff0483118215151615612863576128626124ee565b5b828202905092915050565b7f5374616b696e67206c6f636b6564000000000000000000000000000000000000600082015250565b60006128a4600e83612282565b91506128af8261286e565b602082019050919050565b600060208201905081810360008301526128d381612897565b9050919050565b7f50657263656e7461676520746f6f206269670000000000000000000000000000600082015250565b6000612910601283612282565b915061291b826128da565b602082019050919050565b6000602082019050818103600083015261293f81612903565b9050919050565b600060208201905061295b6000830184612573565b92915050565b7f4f776e61626c653a206e6577206f776e657220697320746865207a65726f206160008201527f6464726573730000000000000000000000000000000000000000000000000000602082015250565b60006129bd602683612282565b91506129c882612961565b604082019050919050565b600060208201905081810360008301526129ec816129b0565b9050919050565b7f4e487b7100000000000000000000000000000000000000000000000000000000600052601260045260246000fd5b6000612a2d82611f4d565b9150612a3883611f4d565b925082612a4857612a476129f3565b5b82820490509291505056fea2646970667358221220567877735c51ba81e7ecae7f193db3f731047164c20180b73ef0fb1d5b13c43864736f6c634300080b0033",
  "immutableReferences": {},
  "source": "// SPDX-License-Identifier: MIT\r\npragma solidity ^0.8.11;\r\n\r\nimport \"@openzeppelin/contracts/token/ERC20/IERC20.sol\";\r\nimport \"../NFT/ICrownNFT.sol\";\r\n\r\ncontract Staking {\r\n    uint256 public totalStaked;\r\n\r\n    struct Package {\r\n        uint256 apr;\r\n        uint256 duration;\r\n        uint8 id;\r\n        uint256 testLockTime;\r\n    }\r\n\r\n    /**\r\n     * @param owner: address of user staked\r\n     * @param timestamp: last time check\r\n     * @param amount: amount that user spent\r\n     */\r\n    struct Stake {\r\n        uint256 stakeId;\r\n        address owner;\r\n        uint256 timestamp;\r\n        uint256 amount;\r\n        uint256 nftId;\r\n        uint256 duration;\r\n        uint256 apr;\r\n        uint256 testLockTime;\r\n    }\r\n\r\n    event Staked(\r\n        uint256 indexed stakeId,\r\n        address indexed owner,\r\n        uint256 amount,\r\n        uint256 duration,\r\n        uint256 apr,\r\n        uint256 nftId\r\n    );\r\n\r\n    event Unstaked(\r\n        uint256 indexed stakeId,\r\n        address indexed owner,\r\n        uint256 claimed\r\n    );\r\n\r\n    event Claimed(\r\n        uint256 indexed stakeId,\r\n        address indexed owner,\r\n        uint256 indexed amount\r\n    );\r\n\r\n    address _WDAtokenAddress;\r\n    address _owner;\r\n    address _DaoTreasuryWallet;\r\n\r\n    ICrownNFT CrownContract;\r\n\r\n    // maps address of user to stake\r\n    Stake[] vault;\r\n    Package[4] packages;\r\n\r\n    constructor(address _token) {\r\n        _WDAtokenAddress = _token;\r\n        _owner = msg.sender;\r\n    }\r\n\r\n    //** -------------- TEST ONLY --------------- */\r\n    function setDuration(uint256 stakingId, uint256 newDurationTime) public {\r\n        vault[stakingId].duration = newDurationTime;\r\n    }\r\n\r\n    function setCrownContract(address _CrownAddress) external {\r\n        CrownContract = ICrownNFT(_CrownAddress);\r\n    }\r\n\r\n    function setDaoTreasuryWallet(address newAddress) external {\r\n        _DaoTreasuryWallet = newAddress;\r\n    }\r\n\r\n    uint256 maxPercent = 10;\r\n\r\n    function setMaxPercent(uint256 maxP) external {\r\n        maxPercent = maxP;\r\n    }\r\n\r\n    address WinDaoAddress;\r\n\r\n    function setWinDAOAddress(address _newDAOAddress) external {\r\n        WinDaoAddress = _newDAOAddress;\r\n    }\r\n\r\n    uint256 unitToSecond = 60 * 60;\r\n\r\n    function setToSecond(uint256 newUnit) external {\r\n        unitToSecond = newUnit;\r\n    }\r\n\r\n    function decreasingTime(uint256 stakingId, uint256 decreasingAmount)\r\n        external\r\n    {\r\n        vault[stakingId].timestamp -= decreasingAmount;\r\n    }\r\n\r\n    //** -------------- END OF TEST ONLY --------------- */\r\n\r\n    function initialize() external {\r\n        require(msg.sender == _owner, \"Ownable: Not owner\");\r\n        packages[0].apr = 100;\r\n        packages[0].duration = 30;\r\n        packages[0].id = 0;\r\n        packages[0].testLockTime = 1;\r\n        packages[1].apr = 138;\r\n        packages[1].duration = 90;\r\n        packages[1].id = 1;\r\n        packages[1].testLockTime = 2;\r\n        packages[2].apr = 220;\r\n        packages[2].duration = 180;\r\n        packages[2].testLockTime = 3;\r\n        packages[2].id = 2;\r\n        packages[3].apr = 5;\r\n        packages[3].duration = 0;\r\n        packages[3].id = 3;\r\n    }\r\n\r\n    /**\r\n     * @dev function for the future voting for update staking v2\r\n     */\r\n    function withdrawWDAToDAOTreasury() external {\r\n        require(msg.sender == _owner);\r\n        uint256 amount = IERC20(_WDAtokenAddress).balanceOf(address(this));\r\n        IERC20(_WDAtokenAddress).transfer(_DaoTreasuryWallet, amount);\r\n    }\r\n\r\n    /**\r\n     * @param percentChange: update percent proposal\r\n     * @param action: 0 deceasing, 1: increasting\r\n     */\r\n    function setProposal(uint256 percentChange, uint8 action) external {\r\n        require(\r\n            msg.sender == _owner || msg.sender == WinDaoAddress,\r\n            \"Ownable: Not owner\"\r\n        );\r\n        require(percentChange <= maxPercent, \"Percentage too big\");\r\n        if (action == 0) {\r\n            packages[0].apr -= percentChange;\r\n            packages[1].apr -= percentChange;\r\n            packages[2].apr = percentChange;\r\n        } else {\r\n            packages[0].apr += percentChange;\r\n            packages[1].apr += percentChange;\r\n            packages[2].apr += percentChange;\r\n        }\r\n    }\r\n\r\n    /**\r\n     * @param nftId: 0-unuse\r\n     */\r\n\r\n    function getListPackage(uint256 nftId)\r\n        public\r\n        view\r\n        returns (Package[4] memory)\r\n    {\r\n        Package[4] memory finalPackage = packages;\r\n\r\n        if (nftId != 0) {\r\n            ICrownNFT.CrownTraits memory nftDetail = CrownContract.getTraits(\r\n                nftId\r\n            );\r\n            finalPackage[0].apr += nftDetail.aprBonus;\r\n            finalPackage[1].apr += nftDetail.aprBonus;\r\n            finalPackage[2].apr += nftDetail.aprBonus;\r\n        }\r\n        return finalPackage;\r\n    }\r\n\r\n    function _calculateEarned(uint256 stakingId, bool isGetAll)\r\n        internal\r\n        view\r\n        returns (uint256)\r\n    {\r\n        Stake memory ownerStaking = vault[stakingId];\r\n        uint256 finalApr = ownerStaking.apr;\r\n        if (ownerStaking.duration == 0) {\r\n            uint256 stakedTimeClaim = (block.timestamp -\r\n                ownerStaking.timestamp) / 1 days;\r\n            uint256 earned = (ownerStaking.amount *\r\n                finalApr *\r\n                stakedTimeClaim) /\r\n                100 /\r\n                12 /\r\n                30; // tin li theo ngy * s ngy\r\n\r\n            return isGetAll ? ownerStaking.amount + earned : earned;\r\n        } else {\r\n            return\r\n                ownerStaking.amount +\r\n                ((ownerStaking.duration * ownerStaking.amount * finalApr) /\r\n                    100 /\r\n                    30 /\r\n                    12); // tin li theo ngy * s ngy\r\n        }\r\n    }\r\n\r\n    /**\r\n     * @param _stakingId: 0 fixed - 30, 1 fixed - 90, 2 fixed - 180, 3: unfixed\r\n     * @param _nftId: nft id for more % bonus nft\r\n     * @param _amount: amount user spent\r\n     */\r\n    function stake(\r\n        uint8 _stakingId,\r\n        uint256 _nftId,\r\n        uint256 _amount\r\n    ) external {\r\n        Package memory finalPackage = packages[_stakingId];\r\n        if (_nftId != 0 && _stakingId != 3) {\r\n            require(\r\n                CrownContract.ownerOf(_nftId) == msg.sender,\r\n                \"Ownable: Not owner\"\r\n            );\r\n            ICrownNFT.CrownTraits memory nftDetail = CrownContract.getTraits(\r\n                _nftId\r\n            );\r\n            require(nftDetail.staked == false, \"Crown staked\");\r\n            finalPackage.apr += nftDetail.aprBonus;\r\n        }\r\n\r\n        uint256 allowance = IERC20(_WDAtokenAddress).allowance(\r\n            msg.sender,\r\n            address(this)\r\n        );\r\n        require(allowance >= _amount, \"Over allowance WDA\");\r\n        IERC20(_WDAtokenAddress).transferFrom(\r\n            msg.sender,\r\n            address(this),\r\n            _amount\r\n        );\r\n\r\n        if (_nftId != 0 && _stakingId != 3) {\r\n            CrownContract.stakeOrUnstake(_nftId, true);\r\n        }\r\n\r\n        totalStaked += _amount;\r\n        uint256 newStakeId = vault.length;\r\n        vault.push(\r\n            Stake(\r\n                newStakeId,\r\n                msg.sender,\r\n                block.timestamp,\r\n                _amount,\r\n                _stakingId != 3 ? _nftId : 0,\r\n                finalPackage.duration,\r\n                finalPackage.apr,\r\n                finalPackage.testLockTime\r\n            )\r\n        );\r\n        emit Staked(\r\n            newStakeId,\r\n            msg.sender,\r\n            _amount,\r\n            finalPackage.duration,\r\n            finalPackage.apr,\r\n            _nftId\r\n        );\r\n    }\r\n\r\n    function claim(uint256 _stakingId) external {\r\n        Stake memory staked = vault[_stakingId];\r\n        require(msg.sender == staked.owner, \"Ownable: Not owner\");\r\n        uint256 lastTimeCheck = staked.timestamp;\r\n        uint256 stakeDuration = staked.duration;\r\n        if (stakeDuration != 0) {\r\n            require(\r\n                block.timestamp >=\r\n                    (lastTimeCheck + (staked.testLockTime * unitToSecond)),\r\n                \"Staking locked\"\r\n            );\r\n        }\r\n        uint256 earned = _calculateEarned(_stakingId, false);\r\n        if (stakeDuration != 0) {\r\n            totalStaked -= staked.amount;\r\n            _deleteStakingPackage(_stakingId); // gi c nh rt xong th unstake lun\r\n        } else {\r\n            vault[_stakingId].timestamp = uint32(block.timestamp);\r\n        }\r\n        if (earned > 0) {\r\n            IERC20(_WDAtokenAddress).transfer(msg.sender, earned);\r\n            emit Claimed(_stakingId, msg.sender, earned);\r\n        }\r\n    }\r\n\r\n    function unstake(uint256 _stakingId) external {\r\n        Stake memory staked = vault[_stakingId];\r\n        require(staked.duration == 0, \"Cannot unstake fixed staking package\");\r\n        require(msg.sender == staked.owner, \"Ownable: Not owner\");\r\n        // xo staking\r\n        uint256 earned = _calculateEarned(_stakingId, true);\r\n        totalStaked -= staked.amount;\r\n        _deleteStakingPackage(_stakingId);\r\n        emit Unstaked(_stakingId, msg.sender, earned);\r\n        if (earned > 0) {\r\n            IERC20(_WDAtokenAddress).transfer(msg.sender, earned);\r\n            emit Claimed(_stakingId, msg.sender, earned);\r\n        }\r\n    }\r\n\r\n    function getEarned(uint256 stakingId) external view returns (uint256) {\r\n        return _calculateEarned(stakingId, true);\r\n    }\r\n\r\n    function _deleteStakingPackage(uint256 stakingId) internal {\r\n        if (vault[stakingId].nftId != 0) {\r\n            CrownContract.stakeOrUnstake(vault[stakingId].nftId, false);\r\n        }\r\n        delete vault[stakingId];\r\n    }\r\n\r\n    /**\r\n     * @dev Transfers ownership of the contract to a new account (`newOwner`).\r\n     * Can only be called by the current owner.\r\n     */\r\n    function transferOwnership(address newOwner) public virtual {\r\n        require(\r\n            newOwner != address(0),\r\n            \"Ownable: new owner is the zero address\"\r\n        );\r\n        require(msg.sender == _owner, \"Ownable: Not owner\");\r\n        _transferOwnership(newOwner);\r\n    }\r\n\r\n    /**\r\n     * @dev Transfers ownership of the contract to a new account (`newOwner`).\r\n     * Internal function without access restriction.\r\n     */\r\n    function _transferOwnership(address newOwner) internal virtual {\r\n        _owner = newOwner;\r\n    }\r\n}\r\n",
  "sourcePath": "C:\\Github\\Dao\\Develop\\Blockchain\\dao-project\\contracts\\Staking\\StakingWDA.sol",
  "compiler": {
    "name": "solc",
    "version": "0.8.11+commit.d7f03943.Emscripten.clang"
  },
  "schemaVersion": "3.4.7",
  "updatedAt": "2022-06-23T10:13:52.772Z",
  "devdoc": {
    "kind": "dev",
    "methods": {
      "getListPackage(uint256)": {
        "params": {
          "nftId": ": 0-unuse"
        }
      },
      "setProposal(uint256,uint8)": {
        "params": {
          "action": ": 0 deceasing, 1: increasting",
          "percentChange": ": update percent proposal"
        }
      },
      "stake(uint8,uint256,uint256)": {
        "params": {
          "_amount": ": amount user spent",
          "_nftId": ": nft id for more % bonus nft",
          "_stakingId": ": 0 fixed - 30, 1 fixed - 90, 2 fixed - 180, 3: unfixed"
        }
      },
      "transferOwnership(address)": {
        "details": "Transfers ownership of the contract to a new account (`newOwner`). Can only be called by the current owner."
      },
      "withdrawWDAToDAOTreasury()": {
        "details": "function for the future voting for update staking v2"
      }
    },
    "version": 1
  },
  "userdoc": {
    "kind": "user",
    "methods": {},
    "version": 1
  }
}