{
  "contractName": "SwapScepter",
  "abi": [
    {
      "inputs": [
        {
          "internalType": "address",
          "name": "CrownNFT_",
          "type": "address"
        },
        {
          "internalType": "address",
          "name": "ScepterNFT_",
          "type": "address"
        }
      ],
      "stateMutability": "nonpayable",
      "type": "constructor"
    },
    {
      "inputs": [],
      "name": "MAX_SUPPLY",
      "outputs": [
        {
          "internalType": "uint256",
          "name": "",
          "type": "uint256"
        }
      ],
      "stateMutability": "view",
      "type": "function"
    },
    {
      "inputs": [],
      "name": "PRICE",
      "outputs": [
        {
          "internalType": "uint256",
          "name": "",
          "type": "uint256"
        }
      ],
      "stateMutability": "view",
      "type": "function"
    },
    {
      "inputs": [],
      "name": "currentSupply",
      "outputs": [
        {
          "internalType": "uint256",
          "name": "",
          "type": "uint256"
        }
      ],
      "stateMutability": "view",
      "type": "function"
    },
    {
      "inputs": [
        {
          "internalType": "bytes4",
          "name": "interfaceId",
          "type": "bytes4"
        }
      ],
      "name": "supportsInterface",
      "outputs": [
        {
          "internalType": "bool",
          "name": "",
          "type": "bool"
        }
      ],
      "stateMutability": "view",
      "type": "function"
    },
    {
      "inputs": [],
      "name": "swapCrown",
      "outputs": [],
      "stateMutability": "nonpayable",
      "type": "function"
    },
    {
      "inputs": [],
      "name": "burnScepter",
      "outputs": [],
      "stateMutability": "nonpayable",
      "type": "function"
    },
    {
      "inputs": [
        {
          "internalType": "address",
          "name": "",
          "type": "address"
        },
        {
          "internalType": "address",
          "name": "",
          "type": "address"
        },
        {
          "internalType": "uint256",
          "name": "",
          "type": "uint256"
        },
        {
          "internalType": "bytes",
          "name": "",
          "type": "bytes"
        }
      ],
      "name": "onERC721Received",
      "outputs": [
        {
          "internalType": "bytes4",
          "name": "",
          "type": "bytes4"
        }
      ],
      "stateMutability": "pure",
      "type": "function"
    },
    {
      "inputs": [
        {
          "internalType": "address",
          "name": "",
          "type": "address"
        },
        {
          "internalType": "address",
          "name": "",
          "type": "address"
        },
        {
          "internalType": "uint256",
          "name": "",
          "type": "uint256"
        },
        {
          "internalType": "uint256",
          "name": "",
          "type": "uint256"
        },
        {
          "internalType": "bytes",
          "name": "",
          "type": "bytes"
        }
      ],
      "name": "onERC1155Received",
      "outputs": [
        {
          "internalType": "bytes4",
          "name": "",
          "type": "bytes4"
        }
      ],
      "stateMutability": "pure",
      "type": "function"
    },
    {
      "inputs": [
        {
          "internalType": "address",
          "name": "",
          "type": "address"
        },
        {
          "internalType": "address",
          "name": "",
          "type": "address"
        },
        {
          "internalType": "uint256[]",
          "name": "",
          "type": "uint256[]"
        },
        {
          "internalType": "uint256[]",
          "name": "",
          "type": "uint256[]"
        },
        {
          "internalType": "bytes",
          "name": "",
          "type": "bytes"
        }
      ],
      "name": "onERC1155BatchReceived",
      "outputs": [
        {
          "internalType": "bytes4",
          "name": "",
          "type": "bytes4"
        }
      ],
      "stateMutability": "pure",
      "type": "function"
    }
  ],
  "bytecode": "0x60806040523480156200001157600080fd5b50604051620010723803806200107283398181016040528101906200003791906200012a565b816000806101000a81548173ffffffffffffffffffffffffffffffffffffffff021916908373ffffffffffffffffffffffffffffffffffffffff16021790555080600160006101000a81548173ffffffffffffffffffffffffffffffffffffffff021916908373ffffffffffffffffffffffffffffffffffffffff160217905550505062000171565b600080fd5b600073ffffffffffffffffffffffffffffffffffffffff82169050919050565b6000620000f282620000c5565b9050919050565b6200010481620000e5565b81146200011057600080fd5b50565b6000815190506200012481620000f9565b92915050565b60008060408385031215620001445762000143620000c0565b5b6000620001548582860162000113565b9250506020620001678582860162000113565b9150509250929050565b610ef180620001816000396000f3fe608060405234801561001057600080fd5b50600436106100935760003560e01c8063771282f611610066578063771282f6146101205780638d859f3e1461013e578063bc197c811461015c578063e22aabfc1461018c578063f23a6e611461019657610093565b806301ffc9a714610098578063150b7a02146100c857806332cb6b0c146100f8578063380d5a9314610116575b600080fd5b6100b260048036038101906100ad9190610737565b6101c6565b6040516100bf919061077f565b60405180910390f35b6100e260048036038101906100dd9190610893565b6101d8565b6040516100ef919061092a565b60405180910390f35b610100610206565b60405161010d9190610954565b60405180910390f35b61011e61020b565b005b6101286104e9565b6040516101359190610954565b60405180910390f35b6101466104ef565b6040516101539190610954565b60405180910390f35b610176600480360381019061017191906109c5565b6104f6565b604051610183919061092a565b60405180910390f35b610194610527565b005b6101b060048036038101906101ab9190610aa1565b61063c565b6040516101bd919061092a565b60405180910390f35b60006101d18261066b565b9050919050565b60007f150b7a023d4804d13e8c85fb27262cb750cf6ba9f9dd3bb30d90f482ceeb4b1f905095945050505050565b600a81565b6000600160009054906101000a900473ffffffffffffffffffffffffffffffffffffffff16905060008060009054906101000a900473ffffffffffffffffffffffffffffffffffffffff16905060008273ffffffffffffffffffffffffffffffffffffffff1662fdd58e3360006040518363ffffffff1660e01b8152600401610295929190610b8f565b602060405180830381865afa1580156102b2573d6000803e3d6000fd5b505050506040513d601f19601f820116820180604052508101906102d69190610bcd565b905062030d4081101561031e576040517f08c379a000000000000000000000000000000000000000000000000000000000815260040161031590610c57565b60405180910390fd5b6001600260008282546103319190610ca6565b92505081905550600a600254111561037e576040517f08c379a000000000000000000000000000000000000000000000000000000000815260040161037590610d48565b60405180910390fd5b60008273ffffffffffffffffffffffffffffffffffffffff166311005a9060016040518263ffffffff1660e01b81526004016103ba9190610da3565b6020604051808303816000875af11580156103d9573d6000803e3d6000fd5b505050506040513d601f19601f820116820180604052508101906103fd9190610bcd565b90508373ffffffffffffffffffffffffffffffffffffffff1663f242432a3330600062030d406040518563ffffffff1660e01b81526004016104429493929190610df5565b600060405180830381600087803b15801561045c57600080fd5b505af1158015610470573d6000803e3d6000fd5b505050508273ffffffffffffffffffffffffffffffffffffffff166342842e0e3033846040518463ffffffff1660e01b81526004016104b193929190610e4d565b600060405180830381600087803b1580156104cb57600080fd5b505af11580156104df573d6000803e3d6000fd5b5050505050505050565b60025481565b62030d4081565b60007fbc197c819b3e337a6f9652dd10becd7eef83032af3b9d958d3d42f6694146621905098975050505050505050565b6000600160009054906101000a900473ffffffffffffffffffffffffffffffffffffffff1690508073ffffffffffffffffffffffffffffffffffffffff1663f5298aca3060008473ffffffffffffffffffffffffffffffffffffffff1662fdd58e3060006040518363ffffffff1660e01b81526004016105a8929190610b8f565b602060405180830381865afa1580156105c5573d6000803e3d6000fd5b505050506040513d601f19601f820116820180604052508101906105e99190610bcd565b6040518463ffffffff1660e01b815260040161060793929190610e84565b600060405180830381600087803b15801561062157600080fd5b505af1158015610635573d6000803e3d6000fd5b5050505050565b60007ff23a6e612e1ff4830e658fe43f4e3cb4a5f8170bd5d9e69fb5d7a7fa9e4fdf9790509695505050505050565b60007f01ffc9a7000000000000000000000000000000000000000000000000000000007bffffffffffffffffffffffffffffffffffffffffffffffffffffffff1916827bffffffffffffffffffffffffffffffffffffffffffffffffffffffff1916149050919050565b600080fd5b600080fd5b60007fffffffff0000000000000000000000000000000000000000000000000000000082169050919050565b610714816106df565b811461071f57600080fd5b50565b6000813590506107318161070b565b92915050565b60006020828403121561074d5761074c6106d5565b5b600061075b84828501610722565b91505092915050565b60008115159050919050565b61077981610764565b82525050565b60006020820190506107946000830184610770565b92915050565b600073ffffffffffffffffffffffffffffffffffffffff82169050919050565b60006107c58261079a565b9050919050565b6107d5816107ba565b81146107e057600080fd5b50565b6000813590506107f2816107cc565b92915050565b6000819050919050565b61080b816107f8565b811461081657600080fd5b50565b60008135905061082881610802565b92915050565b600080fd5b600080fd5b600080fd5b60008083601f8401126108535761085261082e565b5b8235905067ffffffffffffffff8111156108705761086f610833565b5b60208301915083600182028301111561088c5761088b610838565b5b9250929050565b6000806000806000608086880312156108af576108ae6106d5565b5b60006108bd888289016107e3565b95505060206108ce888289016107e3565b94505060406108df88828901610819565b935050606086013567ffffffffffffffff811115610900576108ff6106da565b5b61090c8882890161083d565b92509250509295509295909350565b610924816106df565b82525050565b600060208201905061093f600083018461091b565b92915050565b61094e816107f8565b82525050565b60006020820190506109696000830184610945565b92915050565b60008083601f8401126109855761098461082e565b5b8235905067ffffffffffffffff8111156109a2576109a1610833565b5b6020830191508360208202830111156109be576109bd610838565b5b9250929050565b60008060008060008060008060a0898b0312156109e5576109e46106d5565b5b60006109f38b828c016107e3565b9850506020610a048b828c016107e3565b975050604089013567ffffffffffffffff811115610a2557610a246106da565b5b610a318b828c0161096f565b9650965050606089013567ffffffffffffffff811115610a5457610a536106da565b5b610a608b828c0161096f565b9450945050608089013567ffffffffffffffff811115610a8357610a826106da565b5b610a8f8b828c0161083d565b92509250509295985092959890939650565b60008060008060008060a08789031215610abe57610abd6106d5565b5b6000610acc89828a016107e3565b9650506020610add89828a016107e3565b9550506040610aee89828a01610819565b9450506060610aff89828a01610819565b935050608087013567ffffffffffffffff811115610b2057610b1f6106da565b5b610b2c89828a0161083d565b92509250509295509295509295565b610b44816107ba565b82525050565b6000819050919050565b6000819050919050565b6000610b79610b74610b6f84610b4a565b610b54565b6107f8565b9050919050565b610b8981610b5e565b82525050565b6000604082019050610ba46000830185610b3b565b610bb16020830184610b80565b9392505050565b600081519050610bc781610802565b92915050565b600060208284031215610be357610be26106d5565b5b6000610bf184828501610bb8565b91505092915050565b600082825260208201905092915050565b7f5377617053636570746f723a496e737566666963656e742062616c616e636500600082015250565b6000610c41601f83610bfa565b9150610c4c82610c0b565b602082019050919050565b60006020820190508181036000830152610c7081610c34565b9050919050565b7f4e487b7100000000000000000000000000000000000000000000000000000000600052601160045260246000fd5b6000610cb1826107f8565b9150610cbc836107f8565b9250827fffffffffffffffffffffffffffffffffffffffffffffffffffffffffffffffff03821115610cf157610cf0610c77565b5b828201905092915050565b7f5377617053636570746f723a2052756e206f7574206f662043726f776e4e4654600082015250565b6000610d32602083610bfa565b9150610d3d82610cfc565b602082019050919050565b60006020820190508181036000830152610d6181610d25565b9050919050565b6000819050919050565b6000610d8d610d88610d8384610d68565b610b54565b6107f8565b9050919050565b610d9d81610d72565b82525050565b6000602082019050610db86000830184610d94565b92915050565b600082825260208201905092915050565b50565b6000610ddf600083610dbe565b9150610dea82610dcf565b600082019050919050565b600060a082019050610e0a6000830187610b3b565b610e176020830186610b3b565b610e246040830185610b80565b610e316060830184610945565b8181036080830152610e4281610dd2565b905095945050505050565b6000606082019050610e626000830186610b3b565b610e6f6020830185610b3b565b610e7c6040830184610945565b949350505050565b6000606082019050610e996000830186610b3b565b610ea66020830185610b80565b610eb36040830184610945565b94935050505056fea264697066735822122090c11abb23fbe2232868834c015a24337c616c9433ffdf8ae197928922a0a5b464736f6c634300080b0033",
  "immutableReferences": {},
  "source": "// SPDX-License-Identifier: MIT\r\n\r\npragma solidity ^0.8.0;\r\n\r\nimport \"@openzeppelin/contracts/interfaces/IERC721Receiver.sol\";\r\nimport \"@openzeppelin/contracts/interfaces/IERC1155Receiver.sol\";\r\nimport \"@openzeppelin/contracts/utils/introspection/ERC165.sol\";\r\nimport \"./ICrownNFT.sol\";\r\nimport \"./IScepterNFT.sol\";\r\n\r\ncontract SwapScepter is ERC165, IERC721Receiver, IERC1155Receiver {\r\n    uint256 public constant PRICE = 200000;\r\n    uint256 public constant MAX_SUPPLY = 10;\r\n    address private _CrownNFT;\r\n    address private _ScepterNFT;\r\n    uint256 public currentSupply;\r\n\r\n    constructor(address CrownNFT_, address ScepterNFT_) {\r\n        _CrownNFT = CrownNFT_;\r\n        _ScepterNFT = ScepterNFT_;\r\n    }\r\n\r\n    function supportsInterface(bytes4 interfaceId)\r\n        public\r\n        view\r\n        virtual\r\n        override(IERC165, ERC165)\r\n        returns (bool)\r\n    {\r\n        return super.supportsInterface(interfaceId);\r\n    }\r\n\r\n    function swapCrown() external {\r\n        IScepterNFT sceptor = IScepterNFT(_ScepterNFT);\r\n        ICrownNFT crown = ICrownNFT(_CrownNFT);\r\n        uint256 userBalance = sceptor.balanceOf(msg.sender, 0);\r\n        require(userBalance >= PRICE, \"SwapSceptor:Insufficent balance\");\r\n        currentSupply += 1;\r\n        require(\r\n            currentSupply <= MAX_SUPPLY,\r\n            \"SwapSceptor: Run out of CrownNFT\"\r\n        );\r\n        uint256 nftId = crown.mintValidTarget(1);\r\n        sceptor.safeTransferFrom(msg.sender, address(this), 0, PRICE, \"\");\r\n        crown.safeTransferFrom(address(this), msg.sender, nftId);\r\n    }\r\n\r\n    function burnScepter() external {\r\n        IScepterNFT sceptor = IScepterNFT(_ScepterNFT);\r\n        sceptor.burn(address(this), 0, sceptor.balanceOf(address(this), 0));\r\n    }\r\n\r\n    function onERC721Received(\r\n        address,\r\n        address,\r\n        uint256,\r\n        bytes calldata\r\n    ) external pure override returns (bytes4) {\r\n        return\r\n            bytes4(\r\n                keccak256(\"onERC721Received(address,address,uint256,bytes)\")\r\n            );\r\n    }\r\n\r\n    function onERC1155Received(\r\n        address,\r\n        address,\r\n        uint256,\r\n        uint256,\r\n        bytes calldata\r\n    ) external pure override returns (bytes4) {\r\n        return\r\n            bytes4(\r\n                keccak256(\r\n                    \"onERC1155Received(address,address,uint256,uint256,bytes)\"\r\n                )\r\n            );\r\n    }\r\n\r\n    function onERC1155BatchReceived(\r\n        address,\r\n        address,\r\n        uint256[] calldata,\r\n        uint256[] calldata,\r\n        bytes calldata\r\n    ) external pure override returns (bytes4) {\r\n        return\r\n            bytes4(\r\n                keccak256(\r\n                    \"onERC1155BatchReceived(address,address,uint256[],uint256[],bytes)\"\r\n                )\r\n            );\r\n    }\r\n}\r\n",
  "sourcePath": "C:\\Github\\Dao\\Develop\\Blockchain\\dao-project\\contracts\\NFT\\SwapScepter.sol",
  "compiler": {
    "name": "solc",
    "version": "0.8.11+commit.d7f03943.Emscripten.clang"
  },
  "schemaVersion": "3.4.7",
  "updatedAt": "2022-06-23T10:13:52.743Z",
  "devdoc": {
    "kind": "dev",
    "methods": {},
    "version": 1
  },
  "userdoc": {
    "kind": "user",
    "methods": {},
    "version": 1
  }
}