{
  "contractName": "WDA",
  "abi": [
    {
      "inputs": [
        {
          "internalType": "string",
          "name": "name_",
          "type": "string"
        },
        {
          "internalType": "string",
          "name": "symbol_",
          "type": "string"
        },
        {
          "internalType": "uint256",
          "name": "initialSupply",
          "type": "uint256"
        }
      ],
      "stateMutability": "nonpayable",
      "type": "constructor"
    },
    {
      "anonymous": false,
      "inputs": [
        {
          "indexed": true,
          "internalType": "address",
          "name": "owner",
          "type": "address"
        },
        {
          "indexed": true,
          "internalType": "address",
          "name": "spender",
          "type": "address"
        },
        {
          "indexed": false,
          "internalType": "uint256",
          "name": "value",
          "type": "uint256"
        }
      ],
      "name": "Approval",
      "type": "event"
    },
    {
      "anonymous": false,
      "inputs": [
        {
          "indexed": false,
          "internalType": "uint256",
          "name": "sellTax",
          "type": "uint256"
        },
        {
          "indexed": false,
          "internalType": "uint256",
          "name": "_buyTax",
          "type": "uint256"
        }
      ],
      "name": "ChangeTax",
      "type": "event"
    },
    {
      "anonymous": false,
      "inputs": [
        {
          "indexed": true,
          "internalType": "address",
          "name": "previousOwner",
          "type": "address"
        },
        {
          "indexed": true,
          "internalType": "address",
          "name": "newOwner",
          "type": "address"
        }
      ],
      "name": "OwnershipTransferred",
      "type": "event"
    },
    {
      "anonymous": false,
      "inputs": [
        {
          "indexed": true,
          "internalType": "address",
          "name": "liquidity",
          "type": "address"
        }
      ],
      "name": "SetLiquidity",
      "type": "event"
    },
    {
      "anonymous": false,
      "inputs": [
        {
          "indexed": true,
          "internalType": "address",
          "name": "from",
          "type": "address"
        },
        {
          "indexed": true,
          "internalType": "address",
          "name": "to",
          "type": "address"
        },
        {
          "indexed": false,
          "internalType": "uint256",
          "name": "value",
          "type": "uint256"
        }
      ],
      "name": "Transfer",
      "type": "event"
    },
    {
      "inputs": [],
      "name": "_buyTax",
      "outputs": [
        {
          "internalType": "uint256",
          "name": "",
          "type": "uint256"
        }
      ],
      "stateMutability": "view",
      "type": "function"
    },
    {
      "inputs": [],
      "name": "_rewardPool",
      "outputs": [
        {
          "internalType": "address",
          "name": "",
          "type": "address"
        }
      ],
      "stateMutability": "view",
      "type": "function"
    },
    {
      "inputs": [],
      "name": "_sellTax",
      "outputs": [
        {
          "internalType": "uint256",
          "name": "",
          "type": "uint256"
        }
      ],
      "stateMutability": "view",
      "type": "function"
    },
    {
      "inputs": [
        {
          "internalType": "address",
          "name": "owner",
          "type": "address"
        },
        {
          "internalType": "address",
          "name": "spender",
          "type": "address"
        }
      ],
      "name": "allowance",
      "outputs": [
        {
          "internalType": "uint256",
          "name": "",
          "type": "uint256"
        }
      ],
      "stateMutability": "view",
      "type": "function"
    },
    {
      "inputs": [
        {
          "internalType": "address",
          "name": "spender",
          "type": "address"
        },
        {
          "internalType": "uint256",
          "name": "amount",
          "type": "uint256"
        }
      ],
      "name": "approve",
      "outputs": [
        {
          "internalType": "bool",
          "name": "",
          "type": "bool"
        }
      ],
      "stateMutability": "nonpayable",
      "type": "function"
    },
    {
      "inputs": [
        {
          "internalType": "address",
          "name": "account",
          "type": "address"
        }
      ],
      "name": "balanceOf",
      "outputs": [
        {
          "internalType": "uint256",
          "name": "",
          "type": "uint256"
        }
      ],
      "stateMutability": "view",
      "type": "function"
    },
    {
      "inputs": [],
      "name": "decimals",
      "outputs": [
        {
          "internalType": "uint8",
          "name": "",
          "type": "uint8"
        }
      ],
      "stateMutability": "view",
      "type": "function"
    },
    {
      "inputs": [
        {
          "internalType": "address",
          "name": "spender",
          "type": "address"
        },
        {
          "internalType": "uint256",
          "name": "subtractedValue",
          "type": "uint256"
        }
      ],
      "name": "decreaseAllowance",
      "outputs": [
        {
          "internalType": "bool",
          "name": "",
          "type": "bool"
        }
      ],
      "stateMutability": "nonpayable",
      "type": "function"
    },
    {
      "inputs": [
        {
          "internalType": "address",
          "name": "spender",
          "type": "address"
        },
        {
          "internalType": "uint256",
          "name": "addedValue",
          "type": "uint256"
        }
      ],
      "name": "increaseAllowance",
      "outputs": [
        {
          "internalType": "bool",
          "name": "",
          "type": "bool"
        }
      ],
      "stateMutability": "nonpayable",
      "type": "function"
    },
    {
      "inputs": [],
      "name": "name",
      "outputs": [
        {
          "internalType": "string",
          "name": "",
          "type": "string"
        }
      ],
      "stateMutability": "view",
      "type": "function"
    },
    {
      "inputs": [],
      "name": "owner",
      "outputs": [
        {
          "internalType": "address",
          "name": "",
          "type": "address"
        }
      ],
      "stateMutability": "view",
      "type": "function"
    },
    {
      "inputs": [],
      "name": "renounceOwnership",
      "outputs": [],
      "stateMutability": "nonpayable",
      "type": "function"
    },
    {
      "inputs": [],
      "name": "symbol",
      "outputs": [
        {
          "internalType": "string",
          "name": "",
          "type": "string"
        }
      ],
      "stateMutability": "view",
      "type": "function"
    },
    {
      "inputs": [],
      "name": "totalSupply",
      "outputs": [
        {
          "internalType": "uint256",
          "name": "",
          "type": "uint256"
        }
      ],
      "stateMutability": "view",
      "type": "function"
    },
    {
      "inputs": [
        {
          "internalType": "address",
          "name": "to",
          "type": "address"
        },
        {
          "internalType": "uint256",
          "name": "amount",
          "type": "uint256"
        }
      ],
      "name": "transfer",
      "outputs": [
        {
          "internalType": "bool",
          "name": "",
          "type": "bool"
        }
      ],
      "stateMutability": "nonpayable",
      "type": "function"
    },
    {
      "inputs": [
        {
          "internalType": "address",
          "name": "from",
          "type": "address"
        },
        {
          "internalType": "address",
          "name": "to",
          "type": "address"
        },
        {
          "internalType": "uint256",
          "name": "amount",
          "type": "uint256"
        }
      ],
      "name": "transferFrom",
      "outputs": [
        {
          "internalType": "bool",
          "name": "",
          "type": "bool"
        }
      ],
      "stateMutability": "nonpayable",
      "type": "function"
    },
    {
      "inputs": [
        {
          "internalType": "address",
          "name": "newOwner",
          "type": "address"
        }
      ],
      "name": "transferOwnership",
      "outputs": [],
      "stateMutability": "nonpayable",
      "type": "function"
    },
    {
      "inputs": [
        {
          "internalType": "address",
          "name": "liquidity",
          "type": "address"
        },
        {
          "internalType": "bool",
          "name": "permission",
          "type": "bool"
        }
      ],
      "name": "setLiquidityAddress",
      "outputs": [],
      "stateMutability": "nonpayable",
      "type": "function"
    },
    {
      "inputs": [
        {
          "internalType": "address",
          "name": "rewardPool_",
          "type": "address"
        }
      ],
      "name": "setRewardPool",
      "outputs": [],
      "stateMutability": "nonpayable",
      "type": "function"
    },
    {
      "inputs": [
        {
          "internalType": "uint256",
          "name": "sellTax_",
          "type": "uint256"
        },
        {
          "internalType": "uint256",
          "name": "buyTax_",
          "type": "uint256"
        }
      ],
      "name": "setTaxes",
      "outputs": [],
      "stateMutability": "nonpayable",
      "type": "function"
    }
  ],
  "bytecode": "0x60806040523480156200001157600080fd5b50604051620028b1380380620028b18339818101604052810190620000379190620005b4565b82828160039080519060200190620000519291906200032c565b5080600490805190602001906200006a9291906200032c565b5050506200008d62000081620000d260201b60201c565b620000da60201b60201c565b620000c933620000a2620001a060201b60201c565b600a620000b09190620007de565b83620000bd91906200082f565b620001a960201b60201c565b50505062000a03565b600033905090565b6000600560009054906101000a900473ffffffffffffffffffffffffffffffffffffffff16905081600560006101000a81548173ffffffffffffffffffffffffffffffffffffffff021916908373ffffffffffffffffffffffffffffffffffffffff1602179055508173ffffffffffffffffffffffffffffffffffffffff168173ffffffffffffffffffffffffffffffffffffffff167f8be0079c531659141344cd1fd0a4f28419497f9722a3daafe3b4186f6b6457e060405160405180910390a35050565b60006012905090565b600073ffffffffffffffffffffffffffffffffffffffff168273ffffffffffffffffffffffffffffffffffffffff1614156200021c576040517f08c379a00000000000000000000000000000000000000000000000000000000081526004016200021390620008f1565b60405180910390fd5b62000230600083836200032260201b60201c565b806002600082825462000244919062000913565b92505081905550806000808473ffffffffffffffffffffffffffffffffffffffff1673ffffffffffffffffffffffffffffffffffffffff16815260200190815260200160002060008282546200029b919062000913565b925050819055508173ffffffffffffffffffffffffffffffffffffffff16600073ffffffffffffffffffffffffffffffffffffffff167fddf252ad1be2c89b69c2b068fc378daa952ba7f163c4a11628f55a4df523b3ef8360405162000302919062000981565b60405180910390a36200031e600083836200032760201b60201c565b5050565b505050565b505050565b8280546200033a90620009cd565b90600052602060002090601f0160209004810192826200035e5760008555620003aa565b82601f106200037957805160ff1916838001178555620003aa565b82800160010185558215620003aa579182015b82811115620003a95782518255916020019190600101906200038c565b5b509050620003b99190620003bd565b5090565b5b80821115620003d8576000816000905550600101620003be565b5090565b6000604051905090565b600080fd5b600080fd5b600080fd5b600080fd5b6000601f19601f8301169050919050565b7f4e487b7100000000000000000000000000000000000000000000000000000000600052604160045260246000fd5b6200044582620003fa565b810181811067ffffffffffffffff821117156200046757620004666200040b565b5b80604052505050565b60006200047c620003dc565b90506200048a82826200043a565b919050565b600067ffffffffffffffff821115620004ad57620004ac6200040b565b5b620004b882620003fa565b9050602081019050919050565b60005b83811015620004e5578082015181840152602081019050620004c8565b83811115620004f5576000848401525b50505050565b6000620005126200050c846200048f565b62000470565b905082815260208101848484011115620005315762000530620003f5565b5b6200053e848285620004c5565b509392505050565b600082601f8301126200055e576200055d620003f0565b5b815162000570848260208601620004fb565b91505092915050565b6000819050919050565b6200058e8162000579565b81146200059a57600080fd5b50565b600081519050620005ae8162000583565b92915050565b600080600060608486031215620005d057620005cf620003e6565b5b600084015167ffffffffffffffff811115620005f157620005f0620003eb565b5b620005ff8682870162000546565b935050602084015167ffffffffffffffff811115620006235762000622620003eb565b5b620006318682870162000546565b925050604062000644868287016200059d565b9150509250925092565b7f4e487b7100000000000000000000000000000000000000000000000000000000600052601160045260246000fd5b60008160011c9050919050565b6000808291508390505b6001851115620006dc57808604811115620006b457620006b36200064e565b5b6001851615620006c45780820291505b8081029050620006d4856200067d565b945062000694565b94509492505050565b600082620006f75760019050620007ca565b81620007075760009050620007ca565b81600181146200072057600281146200072b5762000761565b6001915050620007ca565b60ff84111562000740576200073f6200064e565b5b8360020a9150848211156200075a57620007596200064e565b5b50620007ca565b5060208310610133831016604e8410600b84101617156200079b5782820a9050838111156200079557620007946200064e565b5b620007ca565b620007aa84848460016200068a565b92509050818404811115620007c457620007c36200064e565b5b81810290505b9392505050565b600060ff82169050919050565b6000620007eb8262000579565b9150620007f883620007d1565b9250620008277fffffffffffffffffffffffffffffffffffffffffffffffffffffffffffffffff8484620006e5565b905092915050565b60006200083c8262000579565b9150620008498362000579565b9250817fffffffffffffffffffffffffffffffffffffffffffffffffffffffffffffffff04831182151516156200088557620008846200064e565b5b828202905092915050565b600082825260208201905092915050565b7f45524332303a206d696e7420746f20746865207a65726f206164647265737300600082015250565b6000620008d9601f8362000890565b9150620008e682620008a1565b602082019050919050565b600060208201905081810360008301526200090c81620008ca565b9050919050565b6000620009208262000579565b91506200092d8362000579565b9250827fffffffffffffffffffffffffffffffffffffffffffffffffffffffffffffffff038211156200096557620009646200064e565b5b828201905092915050565b6200097b8162000579565b82525050565b600060208201905062000998600083018462000970565b92915050565b7f4e487b7100000000000000000000000000000000000000000000000000000000600052602260045260246000fd5b60006002820490506001821680620009e657607f821691505b60208210811415620009fd57620009fc6200099e565b5b50919050565b611e9e8062000a136000396000f3fe608060405234801561001057600080fd5b506004361061012c5760003560e01c806378238c37116100ad578063c647b20e11610071578063c647b20e14610347578063ca9ec19914610363578063dc7ced3d14610381578063dd62ed3e1461039f578063f2fde38b146103cf5761012c565b806378238c371461028f5780638da5cb5b146102ab57806395d89b41146102c9578063a457c2d7146102e7578063a9059cbb146103175761012c565b806339509351116100f457806339509351146101eb57806342a110951461021b57806350ab825d1461023957806370a0823114610255578063715018a6146102855761012c565b806306fdde0314610131578063095ea7b31461014f57806318160ddd1461017f57806323b872dd1461019d578063313ce567146101cd575b600080fd5b6101396103eb565b604051610146919061146d565b60405180910390f35b61016960048036038101906101649190611528565b61047d565b6040516101769190611583565b60405180910390f35b6101876104a0565b60405161019491906115ad565b60405180910390f35b6101b760048036038101906101b291906115c8565b6104aa565b6040516101c49190611583565b60405180910390f35b6101d56104d9565b6040516101e29190611637565b60405180910390f35b61020560048036038101906102009190611528565b6104e2565b6040516102129190611583565b60405180910390f35b610223610519565b60405161023091906115ad565b60405180910390f35b610253600480360381019061024e919061167e565b61051f565b005b61026f600480360381019061026a91906116be565b610639565b60405161027c91906115ad565b60405180910390f35b61028d610681565b005b6102a960048036038101906102a491906116be565b610709565b005b6102b36107c9565b6040516102c091906116fa565b60405180910390f35b6102d16107f3565b6040516102de919061146d565b60405180910390f35b61030160048036038101906102fc9190611528565b610885565b60405161030e9190611583565b60405180910390f35b610331600480360381019061032c9190611528565b6108fc565b60405161033e9190611583565b60405180910390f35b610361600480360381019061035c9190611715565b61091f565b005b61036b6109e6565b60405161037891906115ad565b60405180910390f35b6103896109ec565b60405161039691906116fa565b60405180910390f35b6103b960048036038101906103b49190611755565b610a12565b6040516103c691906115ad565b60405180910390f35b6103e960048036038101906103e491906116be565b610a99565b005b6060600380546103fa906117c4565b80601f0160208091040260200160405190810160405280929190818152602001828054610426906117c4565b80156104735780601f1061044857610100808354040283529160200191610473565b820191906000526020600020905b81548152906001019060200180831161045657829003601f168201915b5050505050905090565b600080610488610b91565b9050610495818585610b99565b600191505092915050565b6000600254905090565b6000806104b5610b91565b90506104c2858285610d64565b6104cd858585610df0565b60019150509392505050565b60006012905090565b6000806104ed610b91565b905061050e8185856104ff8589610a12565b6105099190611825565b610b99565b600191505092915050565b60075481565b610527610b91565b73ffffffffffffffffffffffffffffffffffffffff166105456107c9565b73ffffffffffffffffffffffffffffffffffffffff161461059b576040517f08c379a0000000000000000000000000000000000000000000000000000000008152600401610592906118c7565b60405180910390fd5b80600960008473ffffffffffffffffffffffffffffffffffffffff1673ffffffffffffffffffffffffffffffffffffffff16815260200190815260200160002060006101000a81548160ff0219169083151502179055508173ffffffffffffffffffffffffffffffffffffffff167fb1bf07c4fc051a6a9a5c08ec750c206e557417ed53dd6c0223c3ab594c38de4860405160405180910390a25050565b60008060008373ffffffffffffffffffffffffffffffffffffffff1673ffffffffffffffffffffffffffffffffffffffff168152602001908152602001600020549050919050565b610689610b91565b73ffffffffffffffffffffffffffffffffffffffff166106a76107c9565b73ffffffffffffffffffffffffffffffffffffffff16146106fd576040517f08c379a00000000000000000000000000000000000000000000000000000000081526004016106f4906118c7565b60405180910390fd5b6107076000611083565b565b610711610b91565b73ffffffffffffffffffffffffffffffffffffffff1661072f6107c9565b73ffffffffffffffffffffffffffffffffffffffff1614610785576040517f08c379a000000000000000000000000000000000000000000000000000000000815260040161077c906118c7565b60405180910390fd5b80600860006101000a81548173ffffffffffffffffffffffffffffffffffffffff021916908373ffffffffffffffffffffffffffffffffffffffff16021790555050565b6000600560009054906101000a900473ffffffffffffffffffffffffffffffffffffffff16905090565b606060048054610802906117c4565b80601f016020809104026020016040519081016040528092919081815260200182805461082e906117c4565b801561087b5780601f106108505761010080835404028352916020019161087b565b820191906000526020600020905b81548152906001019060200180831161085e57829003601f168201915b5050505050905090565b600080610890610b91565b9050600061089e8286610a12565b9050838110156108e3576040517f08c379a00000000000000000000000000000000000000000000000000000000081526004016108da90611959565b60405180910390fd5b6108f08286868403610b99565b60019250505092915050565b600080610907610b91565b9050610914818585610df0565b600191505092915050565b610927610b91565b73ffffffffffffffffffffffffffffffffffffffff166109456107c9565b73ffffffffffffffffffffffffffffffffffffffff161461099b576040517f08c379a0000000000000000000000000000000000000000000000000000000008152600401610992906118c7565b60405180910390fd5b81600681905550806007819055507f2f6bc9e735d08a1f686baf986b13e2b26586c8d4cd7c520609495fb53e5d0dbd82826040516109da929190611979565b60405180910390a15050565b60065481565b600860009054906101000a900473ffffffffffffffffffffffffffffffffffffffff1681565b6000600160008473ffffffffffffffffffffffffffffffffffffffff1673ffffffffffffffffffffffffffffffffffffffff16815260200190815260200160002060008373ffffffffffffffffffffffffffffffffffffffff1673ffffffffffffffffffffffffffffffffffffffff16815260200190815260200160002054905092915050565b610aa1610b91565b73ffffffffffffffffffffffffffffffffffffffff16610abf6107c9565b73ffffffffffffffffffffffffffffffffffffffff1614610b15576040517f08c379a0000000000000000000000000000000000000000000000000000000008152600401610b0c906118c7565b60405180910390fd5b600073ffffffffffffffffffffffffffffffffffffffff168173ffffffffffffffffffffffffffffffffffffffff161415610b85576040517f08c379a0000000000000000000000000000000000000000000000000000000008152600401610b7c90611a14565b60405180910390fd5b610b8e81611083565b50565b600033905090565b600073ffffffffffffffffffffffffffffffffffffffff168373ffffffffffffffffffffffffffffffffffffffff161415610c09576040517f08c379a0000000000000000000000000000000000000000000000000000000008152600401610c0090611aa6565b60405180910390fd5b600073ffffffffffffffffffffffffffffffffffffffff168273ffffffffffffffffffffffffffffffffffffffff161415610c79576040517f08c379a0000000000000000000000000000000000000000000000000000000008152600401610c7090611b38565b60405180910390fd5b80600160008573ffffffffffffffffffffffffffffffffffffffff1673ffffffffffffffffffffffffffffffffffffffff16815260200190815260200160002060008473ffffffffffffffffffffffffffffffffffffffff1673ffffffffffffffffffffffffffffffffffffffff168152602001908152602001600020819055508173ffffffffffffffffffffffffffffffffffffffff168373ffffffffffffffffffffffffffffffffffffffff167f8c5be1e5ebec7d5bd14f71427d1e84f3dd0314c0f7b2291e5b200ac8c7c3b92583604051610d5791906115ad565b60405180910390a3505050565b6000610d708484610a12565b90507fffffffffffffffffffffffffffffffffffffffffffffffffffffffffffffffff8114610dea5781811015610ddc576040517f08c379a0000000000000000000000000000000000000000000000000000000008152600401610dd390611ba4565b60405180910390fd5b610de98484848403610b99565b5b50505050565b6000600960008573ffffffffffffffffffffffffffffffffffffffff1673ffffffffffffffffffffffffffffffffffffffff16815260200190815260200160002060009054906101000a900460ff1615610e6557606482600754610e549190611bc4565b610e5e9190611c4d565b9050610ed5565b600960008473ffffffffffffffffffffffffffffffffffffffff1673ffffffffffffffffffffffffffffffffffffffff16815260200190815260200160002060009054906101000a900460ff1615610ed457606482600654610ec79190611bc4565b610ed19190611c4d565b90505b5b600a60008573ffffffffffffffffffffffffffffffffffffffff1673ffffffffffffffffffffffffffffffffffffffff16815260200190815260200160002060009054906101000a900460ff1680610f765750600a60008473ffffffffffffffffffffffffffffffffffffffff1673ffffffffffffffffffffffffffffffffffffffff16815260200190815260200160002060009054906101000a900460ff165b80610fce5750600860009054906101000a900473ffffffffffffffffffffffffffffffffffffffff1673ffffffffffffffffffffffffffffffffffffffff168473ffffffffffffffffffffffffffffffffffffffff16145b806110265750600860009054906101000a900473ffffffffffffffffffffffffffffffffffffffff1673ffffffffffffffffffffffffffffffffffffffff168373ffffffffffffffffffffffffffffffffffffffff16145b1561103057600090505b60008111156110675761106684600860009054906101000a900473ffffffffffffffffffffffffffffffffffffffff1683611149565b5b61107d848483856110789190611c7e565b611149565b50505050565b6000600560009054906101000a900473ffffffffffffffffffffffffffffffffffffffff16905081600560006101000a81548173ffffffffffffffffffffffffffffffffffffffff021916908373ffffffffffffffffffffffffffffffffffffffff1602179055508173ffffffffffffffffffffffffffffffffffffffff168173ffffffffffffffffffffffffffffffffffffffff167f8be0079c531659141344cd1fd0a4f28419497f9722a3daafe3b4186f6b6457e060405160405180910390a35050565b600073ffffffffffffffffffffffffffffffffffffffff168373ffffffffffffffffffffffffffffffffffffffff1614156111b9576040517f08c379a00000000000000000000000000000000000000000000000000000000081526004016111b090611d24565b60405180910390fd5b600073ffffffffffffffffffffffffffffffffffffffff168273ffffffffffffffffffffffffffffffffffffffff161415611229576040517f08c379a000000000000000000000000000000000000000000000000000000000815260040161122090611db6565b60405180910390fd5b6112348383836113ca565b60008060008573ffffffffffffffffffffffffffffffffffffffff1673ffffffffffffffffffffffffffffffffffffffff168152602001908152602001600020549050818110156112ba576040517f08c379a00000000000000000000000000000000000000000000000000000000081526004016112b190611e48565b60405180910390fd5b8181036000808673ffffffffffffffffffffffffffffffffffffffff1673ffffffffffffffffffffffffffffffffffffffff16815260200190815260200160002081905550816000808573ffffffffffffffffffffffffffffffffffffffff1673ffffffffffffffffffffffffffffffffffffffff168152602001908152602001600020600082825461134d9190611825565b925050819055508273ffffffffffffffffffffffffffffffffffffffff168473ffffffffffffffffffffffffffffffffffffffff167fddf252ad1be2c89b69c2b068fc378daa952ba7f163c4a11628f55a4df523b3ef846040516113b191906115ad565b60405180910390a36113c48484846113cf565b50505050565b505050565b505050565b600081519050919050565b600082825260208201905092915050565b60005b8381101561140e5780820151818401526020810190506113f3565b8381111561141d576000848401525b50505050565b6000601f19601f8301169050919050565b600061143f826113d4565b61144981856113df565b93506114598185602086016113f0565b61146281611423565b840191505092915050565b600060208201905081810360008301526114878184611434565b905092915050565b600080fd5b600073ffffffffffffffffffffffffffffffffffffffff82169050919050565b60006114bf82611494565b9050919050565b6114cf816114b4565b81146114da57600080fd5b50565b6000813590506114ec816114c6565b92915050565b6000819050919050565b611505816114f2565b811461151057600080fd5b50565b600081359050611522816114fc565b92915050565b6000806040838503121561153f5761153e61148f565b5b600061154d858286016114dd565b925050602061155e85828601611513565b9150509250929050565b60008115159050919050565b61157d81611568565b82525050565b60006020820190506115986000830184611574565b92915050565b6115a7816114f2565b82525050565b60006020820190506115c2600083018461159e565b92915050565b6000806000606084860312156115e1576115e061148f565b5b60006115ef868287016114dd565b9350506020611600868287016114dd565b925050604061161186828701611513565b9150509250925092565b600060ff82169050919050565b6116318161161b565b82525050565b600060208201905061164c6000830184611628565b92915050565b61165b81611568565b811461166657600080fd5b50565b60008135905061167881611652565b92915050565b600080604083850312156116955761169461148f565b5b60006116a3858286016114dd565b92505060206116b485828601611669565b9150509250929050565b6000602082840312156116d4576116d361148f565b5b60006116e2848285016114dd565b91505092915050565b6116f4816114b4565b82525050565b600060208201905061170f60008301846116eb565b92915050565b6000806040838503121561172c5761172b61148f565b5b600061173a85828601611513565b925050602061174b85828601611513565b9150509250929050565b6000806040838503121561176c5761176b61148f565b5b600061177a858286016114dd565b925050602061178b858286016114dd565b9150509250929050565b7f4e487b7100000000000000000000000000000000000000000000000000000000600052602260045260246000fd5b600060028204905060018216806117dc57607f821691505b602082108114156117f0576117ef611795565b5b50919050565b7f4e487b7100000000000000000000000000000000000000000000000000000000600052601160045260246000fd5b6000611830826114f2565b915061183b836114f2565b9250827fffffffffffffffffffffffffffffffffffffffffffffffffffffffffffffffff038211156118705761186f6117f6565b5b828201905092915050565b7f4f776e61626c653a2063616c6c6572206973206e6f7420746865206f776e6572600082015250565b60006118b16020836113df565b91506118bc8261187b565b602082019050919050565b600060208201905081810360008301526118e0816118a4565b9050919050565b7f45524332303a2064656372656173656420616c6c6f77616e63652062656c6f7760008201527f207a65726f000000000000000000000000000000000000000000000000000000602082015250565b60006119436025836113df565b915061194e826118e7565b604082019050919050565b6000602082019050818103600083015261197281611936565b9050919050565b600060408201905061198e600083018561159e565b61199b602083018461159e565b9392505050565b7f4f776e61626c653a206e6577206f776e657220697320746865207a65726f206160008201527f6464726573730000000000000000000000000000000000000000000000000000602082015250565b60006119fe6026836113df565b9150611a09826119a2565b604082019050919050565b60006020820190508181036000830152611a2d816119f1565b9050919050565b7f45524332303a20617070726f76652066726f6d20746865207a65726f2061646460008201527f7265737300000000000000000000000000000000000000000000000000000000602082015250565b6000611a906024836113df565b9150611a9b82611a34565b604082019050919050565b60006020820190508181036000830152611abf81611a83565b9050919050565b7f45524332303a20617070726f766520746f20746865207a65726f20616464726560008201527f7373000000000000000000000000000000000000000000000000000000000000602082015250565b6000611b226022836113df565b9150611b2d82611ac6565b604082019050919050565b60006020820190508181036000830152611b5181611b15565b9050919050565b7f45524332303a20696e73756666696369656e7420616c6c6f77616e6365000000600082015250565b6000611b8e601d836113df565b9150611b9982611b58565b602082019050919050565b60006020820190508181036000830152611bbd81611b81565b9050919050565b6000611bcf826114f2565b9150611bda836114f2565b9250817fffffffffffffffffffffffffffffffffffffffffffffffffffffffffffffffff0483118215151615611c1357611c126117f6565b5b828202905092915050565b7f4e487b7100000000000000000000000000000000000000000000000000000000600052601260045260246000fd5b6000611c58826114f2565b9150611c63836114f2565b925082611c7357611c72611c1e565b5b828204905092915050565b6000611c89826114f2565b9150611c94836114f2565b925082821015611ca757611ca66117f6565b5b828203905092915050565b7f45524332303a207472616e736665722066726f6d20746865207a65726f20616460008201527f6472657373000000000000000000000000000000000000000000000000000000602082015250565b6000611d0e6025836113df565b9150611d1982611cb2565b604082019050919050565b60006020820190508181036000830152611d3d81611d01565b9050919050565b7f45524332303a207472616e7366657220746f20746865207a65726f206164647260008201527f6573730000000000000000000000000000000000000000000000000000000000602082015250565b6000611da06023836113df565b9150611dab82611d44565b604082019050919050565b60006020820190508181036000830152611dcf81611d93565b9050919050565b7f45524332303a207472616e7366657220616d6f756e742065786365656473206260008201527f616c616e63650000000000000000000000000000000000000000000000000000602082015250565b6000611e326026836113df565b9150611e3d82611dd6565b604082019050919050565b60006020820190508181036000830152611e6181611e25565b905091905056fea2646970667358221220157c62769fe45d94f1108d78c6d524d60a6efa7d8fedb98fe781677d4a805e4364736f6c634300080b0033",
  "immutableReferences": {},
  "source": "// SPDX-License-Identifier: MIT\r\n\r\npragma solidity 0.8.11;\r\n\r\nimport \"@openzeppelin/contracts/token/ERC20/ERC20.sol\";\r\nimport \"@openzeppelin/contracts/access/Ownable.sol\";\r\n\r\ncontract WDA is ERC20, Ownable {\r\n    uint256 public _sellTax;\r\n    uint256 public _buyTax;\r\n\r\n    address public _rewardPool;\r\n\r\n    mapping(address => bool) _liquidityAddress;\r\n    mapping(address => bool) _exclusidAccount;\r\n\r\n    event ChangeTax(uint256 sellTax, uint256 _buyTax);\r\n    event SetLiquidity(address indexed liquidity);\r\n\r\n    constructor(\r\n        string memory name_,\r\n        string memory symbol_,\r\n        uint256 initialSupply\r\n    ) ERC20(name_, symbol_) {\r\n        _mint(msg.sender, initialSupply * 10**decimals());\r\n    }\r\n\r\n    function setLiquidityAddress(address liquidity, bool permission)\r\n        external\r\n        onlyOwner\r\n    {\r\n        _liquidityAddress[liquidity] = permission;\r\n        emit SetLiquidity(liquidity);\r\n    }\r\n\r\n    function setRewardPool(address rewardPool_) external onlyOwner {\r\n        _rewardPool = rewardPool_;\r\n    }\r\n\r\n    function setTaxes(\r\n        uint256 sellTax_,\r\n        uint256 buyTax_\r\n    ) external onlyOwner {\r\n        _sellTax = sellTax_;\r\n        _buyTax = buyTax_;\r\n        emit ChangeTax(sellTax_, buyTax_);\r\n    }\r\n\r\n    function _transfer(\r\n        address from,\r\n        address to,\r\n        uint256 amount\r\n    ) internal override {\r\n        uint256 amountTax = 0;\r\n        if (_liquidityAddress[from]) {\r\n            amountTax = (_buyTax * amount) / 100;\r\n        } else if (_liquidityAddress[to]) {\r\n            amountTax = (_sellTax * amount) / 100;\r\n        }\r\n        if (\r\n            _exclusidAccount[from] ||\r\n            _exclusidAccount[to] ||\r\n            from == _rewardPool ||\r\n            to == _rewardPool\r\n        ) {\r\n            amountTax = 0;\r\n        }\r\n        if (amountTax > 0) {\r\n            super._transfer(from, _rewardPool, amountTax);\r\n        }\r\n        super._transfer(from, to, amount - amountTax);\r\n    }\r\n}\r\n",
  "sourcePath": "C:\\Github\\Dao\\Develop\\Blockchain\\dao-project\\contracts\\WinDAO.sol",
  "compiler": {
    "name": "solc",
    "version": "0.8.11+commit.d7f03943.Emscripten.clang"
  },
  "schemaVersion": "3.4.7",
  "updatedAt": "2022-06-23T10:13:52.865Z",
  "devdoc": {
    "kind": "dev",
    "methods": {
      "allowance(address,address)": {
        "details": "See {IERC20-allowance}."
      },
      "approve(address,uint256)": {
        "details": "See {IERC20-approve}. NOTE: If `amount` is the maximum `uint256`, the allowance is not updated on `transferFrom`. This is semantically equivalent to an infinite approval. Requirements: - `spender` cannot be the zero address."
      },
      "balanceOf(address)": {
        "details": "See {IERC20-balanceOf}."
      },
      "decimals()": {
        "details": "Returns the number of decimals used to get its user representation. For example, if `decimals` equals `2`, a balance of `505` tokens should be displayed to a user as `5.05` (`505 / 10 ** 2`). Tokens usually opt for a value of 18, imitating the relationship between Ether and Wei. This is the value {ERC20} uses, unless this function is overridden; NOTE: This information is only used for _display_ purposes: it in no way affects any of the arithmetic of the contract, including {IERC20-balanceOf} and {IERC20-transfer}."
      },
      "decreaseAllowance(address,uint256)": {
        "details": "Atomically decreases the allowance granted to `spender` by the caller. This is an alternative to {approve} that can be used as a mitigation for problems described in {IERC20-approve}. Emits an {Approval} event indicating the updated allowance. Requirements: - `spender` cannot be the zero address. - `spender` must have allowance for the caller of at least `subtractedValue`."
      },
      "increaseAllowance(address,uint256)": {
        "details": "Atomically increases the allowance granted to `spender` by the caller. This is an alternative to {approve} that can be used as a mitigation for problems described in {IERC20-approve}. Emits an {Approval} event indicating the updated allowance. Requirements: - `spender` cannot be the zero address."
      },
      "name()": {
        "details": "Returns the name of the token."
      },
      "owner()": {
        "details": "Returns the address of the current owner."
      },
      "renounceOwnership()": {
        "details": "Leaves the contract without owner. It will not be possible to call `onlyOwner` functions anymore. Can only be called by the current owner. NOTE: Renouncing ownership will leave the contract without an owner, thereby removing any functionality that is only available to the owner."
      },
      "symbol()": {
        "details": "Returns the symbol of the token, usually a shorter version of the name."
      },
      "totalSupply()": {
        "details": "See {IERC20-totalSupply}."
      },
      "transfer(address,uint256)": {
        "details": "See {IERC20-transfer}. Requirements: - `to` cannot be the zero address. - the caller must have a balance of at least `amount`."
      },
      "transferFrom(address,address,uint256)": {
        "details": "See {IERC20-transferFrom}. Emits an {Approval} event indicating the updated allowance. This is not required by the EIP. See the note at the beginning of {ERC20}. NOTE: Does not update the allowance if the current allowance is the maximum `uint256`. Requirements: - `from` and `to` cannot be the zero address. - `from` must have a balance of at least `amount`. - the caller must have allowance for ``from``'s tokens of at least `amount`."
      },
      "transferOwnership(address)": {
        "details": "Transfers ownership of the contract to a new account (`newOwner`). Can only be called by the current owner."
      }
    },
    "version": 1
  },
  "userdoc": {
    "kind": "user",
    "methods": {},
    "version": 1
  }
}