{
  "contractName": "WinDAO",
  "abi": [
    {
      "inputs": [
        {
          "internalType": "contract IVotes",
          "name": "token_",
          "type": "address"
        }
      ],
      "stateMutability": "nonpayable",
      "type": "constructor"
    },
    {
      "anonymous": false,
      "inputs": [
        {
          "indexed": false,
          "internalType": "uint256",
          "name": "proposalId",
          "type": "uint256"
        },
        {
          "indexed": false,
          "internalType": "address",
          "name": "proposer",
          "type": "address"
        },
        {
          "indexed": false,
          "internalType": "address",
          "name": "targets",
          "type": "address"
        },
        {
          "indexed": false,
          "internalType": "uint256",
          "name": "values",
          "type": "uint256"
        },
        {
          "indexed": false,
          "internalType": "bytes",
          "name": "calldatas",
          "type": "bytes"
        },
        {
          "indexed": false,
          "internalType": "uint256",
          "name": "startBlock",
          "type": "uint256"
        },
        {
          "indexed": false,
          "internalType": "uint256",
          "name": "endBlock",
          "type": "uint256"
        },
        {
          "indexed": false,
          "internalType": "string",
          "name": "description",
          "type": "string"
        }
      ],
      "name": "ProposalCreated",
      "type": "event"
    },
    {
      "anonymous": false,
      "inputs": [
        {
          "indexed": false,
          "internalType": "uint256",
          "name": "proposalId",
          "type": "uint256"
        }
      ],
      "name": "ProposalExecuted",
      "type": "event"
    },
    {
      "anonymous": false,
      "inputs": [
        {
          "indexed": true,
          "internalType": "address",
          "name": "voter",
          "type": "address"
        },
        {
          "indexed": false,
          "internalType": "uint256",
          "name": "proposalId",
          "type": "uint256"
        },
        {
          "indexed": false,
          "internalType": "uint8",
          "name": "support",
          "type": "uint8"
        },
        {
          "indexed": false,
          "internalType": "uint256",
          "name": "weight",
          "type": "uint256"
        },
        {
          "indexed": false,
          "internalType": "string",
          "name": "reason",
          "type": "string"
        }
      ],
      "name": "VoteCast",
      "type": "event"
    },
    {
      "anonymous": false,
      "inputs": [
        {
          "indexed": false,
          "internalType": "uint256",
          "name": "finalProposalId",
          "type": "uint256"
        },
        {
          "indexed": false,
          "internalType": "uint64",
          "name": "voteStart",
          "type": "uint64"
        },
        {
          "indexed": false,
          "internalType": "uint64",
          "name": "voteEnd",
          "type": "uint64"
        }
      ],
      "name": "setFinalProposal",
      "type": "event"
    },
    {
      "inputs": [],
      "name": "BALLOT_TYPEHASH",
      "outputs": [
        {
          "internalType": "bytes32",
          "name": "",
          "type": "bytes32"
        }
      ],
      "stateMutability": "view",
      "type": "function"
    },
    {
      "inputs": [],
      "name": "COUNTING_MODE",
      "outputs": [
        {
          "internalType": "string",
          "name": "",
          "type": "string"
        }
      ],
      "stateMutability": "pure",
      "type": "function"
    },
    {
      "inputs": [
        {
          "internalType": "uint256",
          "name": "proposalId",
          "type": "uint256"
        }
      ],
      "name": "_resetCountVote",
      "outputs": [],
      "stateMutability": "nonpayable",
      "type": "function"
    },
    {
      "inputs": [
        {
          "internalType": "uint256",
          "name": "proposalId",
          "type": "uint256"
        },
        {
          "internalType": "uint8",
          "name": "support",
          "type": "uint8"
        }
      ],
      "name": "castVote",
      "outputs": [
        {
          "internalType": "uint256",
          "name": "",
          "type": "uint256"
        }
      ],
      "stateMutability": "nonpayable",
      "type": "function"
    },
    {
      "inputs": [
        {
          "internalType": "uint256",
          "name": "proposalId",
          "type": "uint256"
        },
        {
          "internalType": "uint8",
          "name": "support",
          "type": "uint8"
        },
        {
          "internalType": "uint8",
          "name": "v",
          "type": "uint8"
        },
        {
          "internalType": "bytes32",
          "name": "r",
          "type": "bytes32"
        },
        {
          "internalType": "bytes32",
          "name": "s",
          "type": "bytes32"
        }
      ],
      "name": "castVoteBySig",
      "outputs": [
        {
          "internalType": "uint256",
          "name": "",
          "type": "uint256"
        }
      ],
      "stateMutability": "nonpayable",
      "type": "function"
    },
    {
      "inputs": [
        {
          "internalType": "uint256",
          "name": "proposalId",
          "type": "uint256"
        },
        {
          "internalType": "uint8",
          "name": "support",
          "type": "uint8"
        },
        {
          "internalType": "string",
          "name": "reason",
          "type": "string"
        }
      ],
      "name": "castVoteWithReason",
      "outputs": [
        {
          "internalType": "uint256",
          "name": "",
          "type": "uint256"
        }
      ],
      "stateMutability": "nonpayable",
      "type": "function"
    },
    {
      "inputs": [],
      "name": "deminator",
      "outputs": [
        {
          "internalType": "uint256",
          "name": "",
          "type": "uint256"
        }
      ],
      "stateMutability": "pure",
      "type": "function"
    },
    {
      "inputs": [
        {
          "internalType": "address",
          "name": "targets",
          "type": "address"
        },
        {
          "internalType": "uint256",
          "name": "values",
          "type": "uint256"
        },
        {
          "internalType": "bytes",
          "name": "calldatas",
          "type": "bytes"
        },
        {
          "internalType": "bytes32",
          "name": "descriptionHash",
          "type": "bytes32"
        }
      ],
      "name": "execute",
      "outputs": [
        {
          "internalType": "uint256",
          "name": "",
          "type": "uint256"
        }
      ],
      "stateMutability": "payable",
      "type": "function"
    },
    {
      "inputs": [
        {
          "internalType": "uint256",
          "name": "proposalId",
          "type": "uint256"
        },
        {
          "internalType": "address",
          "name": "account",
          "type": "address"
        }
      ],
      "name": "hasVoted",
      "outputs": [
        {
          "internalType": "bool",
          "name": "",
          "type": "bool"
        }
      ],
      "stateMutability": "view",
      "type": "function"
    },
    {
      "inputs": [
        {
          "internalType": "address",
          "name": "targets",
          "type": "address"
        },
        {
          "internalType": "uint256",
          "name": "values",
          "type": "uint256"
        },
        {
          "internalType": "bytes",
          "name": "calldatas",
          "type": "bytes"
        },
        {
          "internalType": "bytes32",
          "name": "descriptionHash",
          "type": "bytes32"
        }
      ],
      "name": "hashProposal",
      "outputs": [
        {
          "internalType": "uint256",
          "name": "",
          "type": "uint256"
        }
      ],
      "stateMutability": "pure",
      "type": "function"
    },
    {
      "inputs": [],
      "name": "name",
      "outputs": [
        {
          "internalType": "string",
          "name": "",
          "type": "string"
        }
      ],
      "stateMutability": "view",
      "type": "function"
    },
    {
      "inputs": [
        {
          "internalType": "bool",
          "name": "isFinal",
          "type": "bool"
        }
      ],
      "name": "numerator",
      "outputs": [
        {
          "internalType": "uint256",
          "name": "",
          "type": "uint256"
        }
      ],
      "stateMutability": "view",
      "type": "function"
    },
    {
      "inputs": [
        {
          "internalType": "uint256",
          "name": "proposalId",
          "type": "uint256"
        }
      ],
      "name": "proposalDeadline",
      "outputs": [
        {
          "internalType": "uint256",
          "name": "",
          "type": "uint256"
        }
      ],
      "stateMutability": "view",
      "type": "function"
    },
    {
      "inputs": [
        {
          "internalType": "uint256",
          "name": "proposalId",
          "type": "uint256"
        }
      ],
      "name": "proposalSnapshot",
      "outputs": [
        {
          "internalType": "uint256",
          "name": "",
          "type": "uint256"
        }
      ],
      "stateMutability": "view",
      "type": "function"
    },
    {
      "inputs": [
        {
          "internalType": "uint256",
          "name": "proposalId",
          "type": "uint256"
        }
      ],
      "name": "proposalVotes",
      "outputs": [
        {
          "internalType": "uint256",
          "name": "againstVotes",
          "type": "uint256"
        },
        {
          "internalType": "uint256",
          "name": "forVotes",
          "type": "uint256"
        },
        {
          "internalType": "address[]",
          "name": "votedAddress",
          "type": "address[]"
        }
      ],
      "stateMutability": "view",
      "type": "function"
    },
    {
      "inputs": [],
      "name": "proposeCoolDown",
      "outputs": [
        {
          "internalType": "uint256",
          "name": "",
          "type": "uint256"
        }
      ],
      "stateMutability": "view",
      "type": "function"
    },
    {
      "inputs": [],
      "name": "setFirstFinalProposal",
      "outputs": [],
      "stateMutability": "nonpayable",
      "type": "function"
    },
    {
      "inputs": [],
      "name": "token",
      "outputs": [
        {
          "internalType": "contract IVotes",
          "name": "",
          "type": "address"
        }
      ],
      "stateMutability": "view",
      "type": "function"
    },
    {
      "inputs": [],
      "name": "version",
      "outputs": [
        {
          "internalType": "string",
          "name": "",
          "type": "string"
        }
      ],
      "stateMutability": "view",
      "type": "function"
    },
    {
      "inputs": [],
      "name": "votingDelay",
      "outputs": [
        {
          "internalType": "uint256",
          "name": "",
          "type": "uint256"
        }
      ],
      "stateMutability": "view",
      "type": "function"
    },
    {
      "inputs": [],
      "name": "votingFinalPeriod",
      "outputs": [
        {
          "internalType": "uint256",
          "name": "",
          "type": "uint256"
        }
      ],
      "stateMutability": "view",
      "type": "function"
    },
    {
      "inputs": [],
      "name": "votingPeriod",
      "outputs": [
        {
          "internalType": "uint256",
          "name": "",
          "type": "uint256"
        }
      ],
      "stateMutability": "view",
      "type": "function"
    },
    {
      "stateMutability": "payable",
      "type": "receive"
    },
    {
      "inputs": [
        {
          "internalType": "uint256",
          "name": "blockNumber",
          "type": "uint256"
        }
      ],
      "name": "setProposeCoolDown",
      "outputs": [],
      "stateMutability": "nonpayable",
      "type": "function"
    },
    {
      "inputs": [
        {
          "internalType": "address",
          "name": "account",
          "type": "address"
        }
      ],
      "name": "getBlockToPropose",
      "outputs": [
        {
          "internalType": "uint256",
          "name": "",
          "type": "uint256"
        }
      ],
      "stateMutability": "view",
      "type": "function"
    },
    {
      "inputs": [
        {
          "internalType": "uint256",
          "name": "blockNumber",
          "type": "uint256"
        },
        {
          "internalType": "bool",
          "name": "isFinal",
          "type": "bool"
        }
      ],
      "name": "quorum",
      "outputs": [
        {
          "internalType": "uint256",
          "name": "",
          "type": "uint256"
        }
      ],
      "stateMutability": "view",
      "type": "function"
    },
    {
      "inputs": [
        {
          "internalType": "address",
          "name": "account",
          "type": "address"
        },
        {
          "internalType": "uint256",
          "name": "blockNumber",
          "type": "uint256"
        }
      ],
      "name": "getVotes",
      "outputs": [
        {
          "internalType": "uint256",
          "name": "",
          "type": "uint256"
        }
      ],
      "stateMutability": "view",
      "type": "function"
    },
    {
      "inputs": [
        {
          "internalType": "uint256",
          "name": "proposalId",
          "type": "uint256"
        }
      ],
      "name": "proposalForRate",
      "outputs": [
        {
          "internalType": "uint256",
          "name": "",
          "type": "uint256"
        }
      ],
      "stateMutability": "view",
      "type": "function"
    },
    {
      "inputs": [
        {
          "internalType": "uint256",
          "name": "proposalId",
          "type": "uint256"
        }
      ],
      "name": "state",
      "outputs": [
        {
          "internalType": "enum IDAO.ProposalState",
          "name": "",
          "type": "uint8"
        }
      ],
      "stateMutability": "view",
      "type": "function"
    },
    {
      "inputs": [
        {
          "internalType": "address",
          "name": "targets",
          "type": "address"
        },
        {
          "internalType": "uint256",
          "name": "values",
          "type": "uint256"
        },
        {
          "internalType": "bytes",
          "name": "calldatas",
          "type": "bytes"
        },
        {
          "internalType": "string",
          "name": "description",
          "type": "string"
        }
      ],
      "name": "propose",
      "outputs": [
        {
          "internalType": "uint256",
          "name": "",
          "type": "uint256"
        }
      ],
      "stateMutability": "nonpayable",
      "type": "function"
    },
    {
      "inputs": [],
      "name": "proposalThreshold",
      "outputs": [
        {
          "internalType": "uint256",
          "name": "",
          "type": "uint256"
        }
      ],
      "stateMutability": "view",
      "type": "function"
    },
    {
      "inputs": [
        {
          "internalType": "bytes4",
          "name": "interfaceId",
          "type": "bytes4"
        }
      ],
      "name": "supportsInterface",
      "outputs": [
        {
          "internalType": "bool",
          "name": "",
          "type": "bool"
        }
      ],
      "stateMutability": "view",
      "type": "function"
    }
  ],
  "bytecode": "0x6101606040526019600555602860065560c86007553480156200002157600080fd5b50604051620044e0380380620044e083398181016040528101906200004791906200033f565b806040518060400160405280600681526020017f57494e44414f0000000000000000000000000000000000000000000000000000815250806200008f6200019860201b60201c565b60008280519060200120905060008280519060200120905060007f8b73c3c69bb8fe3d512ecc4cf759cc79239f7b179b0ffacaa9a75d522b39400f90508260e081815250508161010081815250504660a08181525050620000f8818484620001d560201b60201c565b608081815250503073ffffffffffffffffffffffffffffffffffffffff1660c08173ffffffffffffffffffffffffffffffffffffffff1681525050806101208181525050505050505080600090805190602001906200015992919062000211565b50508073ffffffffffffffffffffffffffffffffffffffff166101408173ffffffffffffffffffffffffffffffffffffffff168152505050506200047a565b60606040518060400160405280600181526020017f3100000000000000000000000000000000000000000000000000000000000000815250905090565b60008383834630604051602001620001f2959493929190620003b8565b6040516020818303038152906040528051906020012090509392505050565b8280546200021f9062000444565b90600052602060002090601f0160209004810192826200024357600085556200028f565b82601f106200025e57805160ff19168380011785556200028f565b828001600101855582156200028f579182015b828111156200028e57825182559160200191906001019062000271565b5b5090506200029e9190620002a2565b5090565b5b80821115620002bd576000816000905550600101620002a3565b5090565b600080fd5b600073ffffffffffffffffffffffffffffffffffffffff82169050919050565b6000620002f382620002c6565b9050919050565b60006200030782620002e6565b9050919050565b6200031981620002fa565b81146200032557600080fd5b50565b60008151905062000339816200030e565b92915050565b600060208284031215620003585762000357620002c1565b5b6000620003688482850162000328565b91505092915050565b6000819050919050565b620003868162000371565b82525050565b6000819050919050565b620003a1816200038c565b82525050565b620003b281620002e6565b82525050565b600060a082019050620003cf60008301886200037b565b620003de60208301876200037b565b620003ed60408301866200037b565b620003fc606083018562000396565b6200040b6080830184620003a7565b9695505050505050565b7f4e487b7100000000000000000000000000000000000000000000000000000000600052602260045260246000fd5b600060028204905060018216806200045d57607f821691505b6020821081141562000474576200047362000415565b5b50919050565b60805160a05160c05160e051610100516101205161014051613fef620004f160003960008181610da101528181610f98015281816113e60152818161149f0152611c8201526000611e3c01526000611e7e01526000611e5d01526000611d9201526000611de801526000611e110152613fef6000f3fe6080604052600436106101dc5760003560e01c80637545785411610102578063a184145911610095578063dd4e2ba511610064578063dd4e2ba5146107ad578063deaaa7cc146107d8578063eb9019d414610803578063fc0c546a1461084057610222565b8063a1841459146106dd578063b58131b014610708578063b9781fa914610733578063c01f9e371461077057610222565b8063843f47f3116100d1578063843f47f31461060a57806388aa4c121461064757806398692689146106775780639b804dea146106b457610222565b8063754578541461053c5780637b3c71d3146105655780637b926699146105a257806382ff16c1146105cd57610222565b80633932abb11161017a578063544ffc9c11610149578063544ffc9c1461047e57806354fd4d50146104bd57806356781388146104e857806356f4d6661461052557610222565b80633932abb11461039c5780633bccf4fd146103c75780633e4f49e614610404578063438596321461044157610222565b8063188a8b34116101b6578063188a8b34146102ba5780631ed10aad146102f75780632d63f6931461032257806331d133c21461035f57610222565b806301ffc9a71461022757806302a251a31461026457806306fdde031461028f57610222565b36610222573073ffffffffffffffffffffffffffffffffffffffff1661020061086b565b73ffffffffffffffffffffffffffffffffffffffff161461022057600080fd5b005b600080fd5b34801561023357600080fd5b5061024e60048036038101906102499190612690565b61087a565b60405161025b91906126d8565b60405180910390f35b34801561027057600080fd5b5061027961088c565b604051610286919061270c565b60405180910390f35b34801561029b57600080fd5b506102a4610895565b6040516102b191906127c0565b60405180910390f35b3480156102c657600080fd5b506102e160048036038101906102dc919061283a565b610927565b6040516102ee919061270c565b60405180910390f35b34801561030357600080fd5b5061030c61093b565b604051610319919061270c565b60405180910390f35b34801561032e57600080fd5b506103496004803603810190610344919061287a565b610944565b604051610356919061270c565b60405180910390f35b34801561036b57600080fd5b5061038660048036038101906103819190612a70565b6109b2565b604051610393919061270c565b60405180910390f35b3480156103a857600080fd5b506103b16109ee565b6040516103be919061270c565b60405180910390f35b3480156103d357600080fd5b506103ee60048036038101906103e99190612b2c565b6109f3565b6040516103fb919061270c565b60405180910390f35b34801561041057600080fd5b5061042b6004803603810190610426919061287a565b610a7d565b6040516104389190612c1e565b60405180910390f35b34801561044d57600080fd5b5061046860048036038101906104639190612c39565b610a8f565b60405161047591906126d8565b60405180910390f35b34801561048a57600080fd5b506104a560048036038101906104a0919061287a565b610afa565b6040516104b493929190612d37565b60405180910390f35b3480156104c957600080fd5b506104d2610bd8565b6040516104df91906127c0565b60405180910390f35b3480156104f457600080fd5b5061050f600480360381019061050a9190612d75565b610c15565b60405161051c919061270c565b60405180910390f35b34801561053157600080fd5b5061053a610c46565b005b34801561054857600080fd5b50610563600480360381019061055e919061287a565b610d20565b005b34801561057157600080fd5b5061058c60048036038101906105879190612e15565b610d2a565b604051610599919061270c565b60405180910390f35b3480156105ae57600080fd5b506105b7610d92565b6040516105c4919061270c565b60405180910390f35b3480156105d957600080fd5b506105f460048036038101906105ef9190612f2a565b610d9b565b604051610601919061270c565b60405180910390f35b34801561061657600080fd5b50610631600480360381019061062c919061287a565b610f83565b60405161063e919061270c565b60405180910390f35b610661600480360381019061065c9190612a70565b61105f565b60405161066e919061270c565b60405180910390f35b34801561068357600080fd5b5061069e60048036038101906106999190612fc9565b61118a565b6040516106ab919061270c565b60405180910390f35b3480156106c057600080fd5b506106db60048036038101906106d6919061287a565b6111d3565b005b3480156106e957600080fd5b506106f26112d2565b6040516106ff919061270c565b60405180910390f35b34801561071457600080fd5b5061071d6112d8565b60405161072a919061270c565b60405180910390f35b34801561073f57600080fd5b5061075a60048036038101906107559190612ff6565b6112e7565b604051610767919061270c565b60405180910390f35b34801561077c57600080fd5b506107976004803603810190610792919061287a565b611301565b6040516107a4919061270c565b60405180910390f35b3480156107b957600080fd5b506107c261136f565b6040516107cf91906127c0565b60405180910390f35b3480156107e457600080fd5b506107ed6113ac565b6040516107fa9190613032565b60405180910390f35b34801561080f57600080fd5b5061082a6004803603810190610825919061304d565b6113d0565b604051610837919061270c565b60405180910390f35b34801561084c57600080fd5b506108556113e4565b60405161086291906130ec565b60405180910390f35b6000610875611408565b905090565b600061088582611410565b9050919050565b600060c8905090565b6060600080546108a490613136565b80601f01602080910402602001604051908101604052809291908181526020018280546108d090613136565b801561091d5780601f106108f25761010080835404028352916020019161091d565b820191906000526020600020905b81548152906001019060200180831161090057829003601f168201915b5050505050905090565b6000610933838361148a565b905092915050565b60006064905090565b60006109a1600160008481526020019081526020016000206000016040518060200160405290816000820160009054906101000a900467ffffffffffffffff1667ffffffffffffffff1667ffffffffffffffff1681525050611553565b67ffffffffffffffff169050919050565b6000848484846040516020016109cb94939291906131cc565b6040516020818303038152906040528051906020012060001c9050949350505050565b600090565b600080610a54610a4c7fe6e8268452f7a82713f37e02b29c2cde1ec4860a33511b802ba594aee308c5e48989604051602001610a3193929190613227565b60405160208183030381529060405280519060200120611561565b86868661157b565b9050610a71878288604051806020016040528060008152506115a6565b91505095945050505050565b6000610a88826116fa565b9050919050565b60006004600084815260200190815260200160002060030160008373ffffffffffffffffffffffffffffffffffffffff1673ffffffffffffffffffffffffffffffffffffffff16815260200190815260200160002060009054906101000a900460ff16905092915050565b6000806060600460008581526020019081526020016000206000015460046000868152602001908152602001600020600101546004600087815260200190815260200160002060020180805480602002602001604051908101604052809291908181526020018280548015610bc457602002820191906000526020600020905b8160009054906101000a900473ffffffffffffffffffffffffffffffffffffffff1673ffffffffffffffffffffffffffffffffffffffff1681526020019060010190808311610b7a575b505050505090509250925092509193909250565b60606040518060400160405280600181526020017f3100000000000000000000000000000000000000000000000000000000000000815250905090565b600080610c2061181c565b9050610c3d848285604051806020016040528060008152506115a6565b91505092915050565b6000610c50611824565b90506000811415610c96576040517f08c379a0000000000000000000000000000000000000000000000000000000008152600401610c8d906132aa565b60405180910390fd5b60006002541480610cd5575060016005811115610cb657610cb5612ba7565b5b610cc1600254610a7d565b6005811115610cd357610cd2612ba7565b5b145b610d14576040517f08c379a0000000000000000000000000000000000000000000000000000000008152600401610d0b90613316565b60405180910390fd5b610d1d81611904565b50565b8060078190555050565b600080610d3561181c565b9050610d8786828787878080601f016020809104026020016040519081016040528093929190818152602001838380828437600081840152601f19601f820116905080830192505050505050506115a6565b915050949350505050565b600060c8905090565b600060327f000000000000000000000000000000000000000000000000000000000000000073ffffffffffffffffffffffffffffffffffffffff16638e539e8c600143610de89190613365565b6040518263ffffffff1660e01b8152600401610e04919061270c565b602060405180830381865afa158015610e21573d6000803e3d6000fd5b505050506040513d601f19601f82011682018060405250810190610e4591906133ae565b1015610e86576040517f08c379a0000000000000000000000000000000000000000000000000000000008152600401610e7d90613427565b60405180910390fd5b6000600860003373ffffffffffffffffffffffffffffffffffffffff1673ffffffffffffffffffffffffffffffffffffffff168152602001908152602001600020541480610f13575043600860003373ffffffffffffffffffffffffffffffffffffffff1673ffffffffffffffffffffffffffffffffffffffff1681526020019081526020016000205411155b610f1c57600080fd5b60075443610f2a9190613447565b600860003373ffffffffffffffffffffffffffffffffffffffff1673ffffffffffffffffffffffffffffffffffffffff16815260200190815260200160002081905550610f79858585856119c4565b9050949350505050565b600080821415610f96576000905061105a565b7f000000000000000000000000000000000000000000000000000000000000000073ffffffffffffffffffffffffffffffffffffffff16638e539e8c610fdb84610944565b6040518263ffffffff1660e01b8152600401610ff7919061270c565b602060405180830381865afa158015611014573d6000803e3d6000fd5b505050506040513d601f19601f8201168201806040525081019061103891906133ae565b606461104384611c41565b61104d919061349d565b6110579190613526565b90505b919050565b60008061106e868686866109b2565b9050600061107b82610a7d565b90506002600581111561109157611090612ba7565b5b8160058111156110a4576110a3612ba7565b5b146110e4576040517f08c379a00000000000000000000000000000000000000000000000000000000081526004016110db906135a3565b60405180910390fd5b600180600084815260200190815260200160002060020160006101000a81548160ff02191690831515021790555060006002819055507f712ae1383f79ac853f8d882153778e0260ef8f03b504e2866e0593e04d2b291f82604051611149919061270c565b60405180910390a161115e8288888888611c61565b6000611168611824565b90506000811461117c5761117b81611904565b5b829350505050949350505050565b6000600860008373ffffffffffffffffffffffffffffffffffffffff1673ffffffffffffffffffffffffffffffffffffffff168152602001908152602001600020549050919050565b6000600460008381526020019081526020016000209050600081600101819055506000816000018190555060005b81600201805490508110156112bd57600082600301600084600201848154811061122e5761122d6135c3565b5b9060005260206000200160009054906101000a900473ffffffffffffffffffffffffffffffffffffffff1673ffffffffffffffffffffffffffffffffffffffff1673ffffffffffffffffffffffffffffffffffffffff16815260200190815260200160002060006101000a81548160ff02191690831515021790555080806112b5906135f2565b915050611201565b508060020160006112ce91906125e6565b5050565b60075481565b60006112e2611c75565b905090565b6000816112f6576005546112fa565b6006545b9050919050565b600061135e600160008481526020019081526020016000206001016040518060200160405290816000820160009054906101000a900467ffffffffffffffff1667ffffffffffffffff1667ffffffffffffffff1681525050611553565b67ffffffffffffffff169050919050565b60606040518060400160405280602081526020017f737570706f72743d627261766f2671756f72756d3d666f722c6162737461696e815250905090565b7fe6e8268452f7a82713f37e02b29c2cde1ec4860a33511b802ba594aee308c5e481565b60006113dc8383611c7e565b905092915050565b7f000000000000000000000000000000000000000000000000000000000000000081565b600030905090565b60007ffa7e98c3000000000000000000000000000000000000000000000000000000007bffffffffffffffffffffffffffffffffffffffffffffffffffffffff1916827bffffffffffffffffffffffffffffffffffffffffffffffffffffffff19161480611483575061148282611d24565b5b9050919050565b600061149461093b565b61149d836112e7565b7f000000000000000000000000000000000000000000000000000000000000000073ffffffffffffffffffffffffffffffffffffffff16638e539e8c866040518263ffffffff1660e01b81526004016114f6919061270c565b602060405180830381865afa158015611513573d6000803e3d6000fd5b505050506040513d601f19601f8201168201806040525081019061153791906133ae565b611541919061349d565b61154b9190613526565b905092915050565b600081600001519050919050565b600061157461156e611d8e565b83611ea8565b9050919050565b600080600061158c87878787611edb565b9150915061159981611fe8565b8192505050949350505050565b600080600160008781526020019081526020016000209050600060058111156115d2576115d1612ba7565b5b6115db87610a7d565b60058111156115ed576115ec612ba7565b5b1461162d576040517f08c379a0000000000000000000000000000000000000000000000000000000008152600401611624906136ad565b60405180910390fd5b600061168b8661167c846000016040518060200160405290816000820160009054906101000a900467ffffffffffffffff1667ffffffffffffffff1667ffffffffffffffff1681525050611553565b67ffffffffffffffff166113d0565b9050611699878787846121bd565b8573ffffffffffffffffffffffffffffffffffffffff167fb8e138887d0aa13bab447e82de9d5c1777041ecd21ca36ba824ff1e6c07ddda4888784886040516116e594939291906136cd565b60405180910390a28092505050949350505050565b6000806001600084815260200190815260200160002090508060020160009054906101000a900460ff1615611733576005915050611817565b600061173e84610944565b90506000811415611784576040517f08c379a000000000000000000000000000000000000000000000000000000000815260040161177b90613765565b60405180910390fd5b600061178f85611301565b90504381106117a45760009350505050611817565b60025485146117e4576117b6856123e6565b80156117c757506117c685612432565b5b156117d85760039350505050611817565b60049350505050611817565b6117ed856123e6565b80156117fe57506117fd85612432565b5b1561180f5760029350505050611817565b600193505050505b919050565b600033905090565b6000806000905060005b6003805490508110156118fc576003600581111561184f5761184e612ba7565b5b61187660038381548110611866576118656135c3565b5b9060005260206000200154610a7d565b600581111561188857611887612ba7565b5b1480156118c2575061189982610f83565b6118c0600383815481106118b0576118af6135c3565b5b9060005260206000200154610f83565b115b156118e957600381815481106118db576118da6135c3565b5b906000526020600020015491505b80806118f4906135f2565b91505061182e565b508091505090565b600060016000838152602001908152602001600020905081600281905550600061192d43612496565b9050600061194161193c610d92565b612496565b8261194c9190613799565b905061196482846000016124ed90919063ffffffff16565b61197a81846001016124ed90919063ffffffff16565b7fd083a4007c09ee1d08bf2f9c79262b0b170b3d9acca0685926606c15cb6a752f8483836040516119ad939291906137e6565b60405180910390a16119be846111d3565b50505050565b60006119ce6112d8565b6119e4336001436119df9190613365565b6113d0565b1015611a25576040517f08c379a0000000000000000000000000000000000000000000000000000000008152600401611a1c906138b5565b60405180910390fd5b6000611a3a86868686805190602001206109b2565b9050600073ffffffffffffffffffffffffffffffffffffffff168673ffffffffffffffffffffffffffffffffffffffff161415611aac576040517f08c379a0000000000000000000000000000000000000000000000000000000008152600401611aa390613921565b60405180910390fd5b6000600160008381526020019081526020016000209050611b0c816000016040518060200160405290816000820160009054906101000a900467ffffffffffffffff1667ffffffffffffffff1667ffffffffffffffff168152505061251c565b611b4b576040517f08c379a0000000000000000000000000000000000000000000000000000000008152600401611b429061398d565b60405180910390fd5b60038290806001815401808255809150506001900390600052602060002001600090919091909150556000611b86611b816109ee565b612496565b611b8f43612496565b611b999190613799565b90506000611bad611ba861088c565b612496565b82611bb89190613799565b9050611bd082846000016124ed90919063ffffffff16565b611be681846001016124ed90919063ffffffff16565b7fac341d0bc6fed14ce9987fffa4e91d2de9f7701bb95cddeb4e06fb293a07762e84611c1061181c565b8b8b8b87878d604051611c2a9897969594939291906139de565b60405180910390a183945050505050949350505050565b600060046000838152602001908152602001600020600101549050919050565b611c6e8585858585612536565b5050505050565b60006003905090565b60007f000000000000000000000000000000000000000000000000000000000000000073ffffffffffffffffffffffffffffffffffffffff16633a46b1a884846040518363ffffffff1660e01b8152600401611cdb929190613a6a565b602060405180830381865afa158015611cf8573d6000803e3d6000fd5b505050506040513d601f19601f82011682018060405250810190611d1c91906133ae565b905092915050565b60007f01ffc9a7000000000000000000000000000000000000000000000000000000007bffffffffffffffffffffffffffffffffffffffffffffffffffffffff1916827bffffffffffffffffffffffffffffffffffffffffffffffffffffffff1916149050919050565b60007f000000000000000000000000000000000000000000000000000000000000000073ffffffffffffffffffffffffffffffffffffffff163073ffffffffffffffffffffffffffffffffffffffff16148015611e0a57507f000000000000000000000000000000000000000000000000000000000000000046145b15611e37577f00000000000000000000000000000000000000000000000000000000000000009050611ea5565b611ea27f00000000000000000000000000000000000000000000000000000000000000007f00000000000000000000000000000000000000000000000000000000000000007f00000000000000000000000000000000000000000000000000000000000000006125ac565b90505b90565b60008282604051602001611ebd929190613b0b565b60405160208183030381529060405280519060200120905092915050565b6000807f7fffffffffffffffffffffffffffffff5d576e7357a4501ddfe92f46681b20a08360001c1115611f16576000600391509150611fdf565b601b8560ff1614158015611f2e5750601c8560ff1614155b15611f40576000600491509150611fdf565b600060018787878760405160008152602001604052604051611f659493929190613b42565b6020604051602081039080840390855afa158015611f87573d6000803e3d6000fd5b505050602060405103519050600073ffffffffffffffffffffffffffffffffffffffff168173ffffffffffffffffffffffffffffffffffffffff161415611fd657600060019250925050611fdf565b80600092509250505b94509492505050565b60006004811115611ffc57611ffb612ba7565b5b81600481111561200f5761200e612ba7565b5b141561201a576121ba565b6001600481111561202e5761202d612ba7565b5b81600481111561204157612040612ba7565b5b1415612082576040517f08c379a000000000000000000000000000000000000000000000000000000000815260040161207990613bd3565b60405180910390fd5b6002600481111561209657612095612ba7565b5b8160048111156120a9576120a8612ba7565b5b14156120ea576040517f08c379a00000000000000000000000000000000000000000000000000000000081526004016120e190613c3f565b60405180910390fd5b600360048111156120fe576120fd612ba7565b5b81600481111561211157612110612ba7565b5b1415612152576040517f08c379a000000000000000000000000000000000000000000000000000000000815260040161214990613cd1565b60405180910390fd5b60048081111561216557612164612ba7565b5b81600481111561217857612177612ba7565b5b14156121b9576040517f08c379a00000000000000000000000000000000000000000000000000000000081526004016121b090613d63565b60405180910390fd5b5b50565b60006004600086815260200190815260200160002090508060030160008573ffffffffffffffffffffffffffffffffffffffff1673ffffffffffffffffffffffffffffffffffffffff16815260200190815260200160002060009054906101000a900460ff1615612263576040517f08c379a000000000000000000000000000000000000000000000000000000000815260040161225a90613dcf565b60405180910390fd5b60018160030160008673ffffffffffffffffffffffffffffffffffffffff1673ffffffffffffffffffffffffffffffffffffffff16815260200190815260200160002060006101000a81548160ff02191690831515021790555080600201849080600181540180825580915050600190039060005260206000200160009091909190916101000a81548173ffffffffffffffffffffffffffffffffffffffff021916908373ffffffffffffffffffffffffffffffffffffffff1602179055506000600181111561233657612335612ba7565b5b60ff168360ff16141561236357818160000160008282546123579190613447565b925050819055506123df565b60018081111561237657612375612ba7565b5b60ff168360ff1614156123a357818160010160008282546123979190613447565b925050819055506123de565b6040517f08c379a00000000000000000000000000000000000000000000000000000000081526004016123d590613e61565b60405180910390fd5b5b5050505050565b600080600460008481526020019081526020016000209050806000015481600101546124129190613447565b61242861241e85610944565b6002548614610927565b1115915050919050565b60008061243e83610f83565b905060008061244c85610afa565b5091509150600254851461246457601983101561248c565b604b81836124729190613447565b60648361247f919061349d565b6124899190613526565b10155b9350505050919050565b600067ffffffffffffffff80168211156124e5576040517f08c379a00000000000000000000000000000000000000000000000000000000081526004016124dc90613ef3565b60405180910390fd5b819050919050565b808260000160006101000a81548167ffffffffffffffff021916908367ffffffffffffffff1602179055505050565b600080826000015167ffffffffffffffff16149050919050565b60008473ffffffffffffffffffffffffffffffffffffffff16848460405161255e9190613f4f565b60006040518083038185875af1925050503d806000811461259b576040519150601f19603f3d011682016040523d82523d6000602084013e6125a0565b606091505b50509050505050505050565b600083838346306040516020016125c7959493929190613f66565b6040516020818303038152906040528051906020012090509392505050565b50805460008255906000526020600020908101906126049190612607565b50565b5b80821115612620576000816000905550600101612608565b5090565b6000604051905090565b600080fd5b600080fd5b60007fffffffff0000000000000000000000000000000000000000000000000000000082169050919050565b61266d81612638565b811461267857600080fd5b50565b60008135905061268a81612664565b92915050565b6000602082840312156126a6576126a561262e565b5b60006126b48482850161267b565b91505092915050565b60008115159050919050565b6126d2816126bd565b82525050565b60006020820190506126ed60008301846126c9565b92915050565b6000819050919050565b612706816126f3565b82525050565b600060208201905061272160008301846126fd565b92915050565b600081519050919050565b600082825260208201905092915050565b60005b83811015612761578082015181840152602081019050612746565b83811115612770576000848401525b50505050565b6000601f19601f8301169050919050565b600061279282612727565b61279c8185612732565b93506127ac818560208601612743565b6127b581612776565b840191505092915050565b600060208201905081810360008301526127da8184612787565b905092915050565b6127eb816126f3565b81146127f657600080fd5b50565b600081359050612808816127e2565b92915050565b612817816126bd565b811461282257600080fd5b50565b6000813590506128348161280e565b92915050565b600080604083850312156128515761285061262e565b5b600061285f858286016127f9565b925050602061287085828601612825565b9150509250929050565b6000602082840312156128905761288f61262e565b5b600061289e848285016127f9565b91505092915050565b600073ffffffffffffffffffffffffffffffffffffffff82169050919050565b60006128d2826128a7565b9050919050565b6128e2816128c7565b81146128ed57600080fd5b50565b6000813590506128ff816128d9565b92915050565b600080fd5b600080fd5b7f4e487b7100000000000000000000000000000000000000000000000000000000600052604160045260246000fd5b61294782612776565b810181811067ffffffffffffffff821117156129665761296561290f565b5b80604052505050565b6000612979612624565b9050612985828261293e565b919050565b600067ffffffffffffffff8211156129a5576129a461290f565b5b6129ae82612776565b9050602081019050919050565b82818337600083830152505050565b60006129dd6129d88461298a565b61296f565b9050828152602081018484840111156129f9576129f861290a565b5b612a048482856129bb565b509392505050565b600082601f830112612a2157612a20612905565b5b8135612a318482602086016129ca565b91505092915050565b6000819050919050565b612a4d81612a3a565b8114612a5857600080fd5b50565b600081359050612a6a81612a44565b92915050565b60008060008060808587031215612a8a57612a8961262e565b5b6000612a98878288016128f0565b9450506020612aa9878288016127f9565b935050604085013567ffffffffffffffff811115612aca57612ac9612633565b5b612ad687828801612a0c565b9250506060612ae787828801612a5b565b91505092959194509250565b600060ff82169050919050565b612b0981612af3565b8114612b1457600080fd5b50565b600081359050612b2681612b00565b92915050565b600080600080600060a08688031215612b4857612b4761262e565b5b6000612b56888289016127f9565b9550506020612b6788828901612b17565b9450506040612b7888828901612b17565b9350506060612b8988828901612a5b565b9250506080612b9a88828901612a5b565b9150509295509295909350565b7f4e487b7100000000000000000000000000000000000000000000000000000000600052602160045260246000fd5b60068110612be757612be6612ba7565b5b50565b6000819050612bf882612bd6565b919050565b6000612c0882612bea565b9050919050565b612c1881612bfd565b82525050565b6000602082019050612c336000830184612c0f565b92915050565b60008060408385031215612c5057612c4f61262e565b5b6000612c5e858286016127f9565b9250506020612c6f858286016128f0565b9150509250929050565b600081519050919050565b600082825260208201905092915050565b6000819050602082019050919050565b612cae816128c7565b82525050565b6000612cc08383612ca5565b60208301905092915050565b6000602082019050919050565b6000612ce482612c79565b612cee8185612c84565b9350612cf983612c95565b8060005b83811015612d2a578151612d118882612cb4565b9750612d1c83612ccc565b925050600181019050612cfd565b5085935050505092915050565b6000606082019050612d4c60008301866126fd565b612d5960208301856126fd565b8181036040830152612d6b8184612cd9565b9050949350505050565b60008060408385031215612d8c57612d8b61262e565b5b6000612d9a858286016127f9565b9250506020612dab85828601612b17565b9150509250929050565b600080fd5b600080fd5b60008083601f840112612dd557612dd4612905565b5b8235905067ffffffffffffffff811115612df257612df1612db5565b5b602083019150836001820283011115612e0e57612e0d612dba565b5b9250929050565b60008060008060608587031215612e2f57612e2e61262e565b5b6000612e3d878288016127f9565b9450506020612e4e87828801612b17565b935050604085013567ffffffffffffffff811115612e6f57612e6e612633565b5b612e7b87828801612dbf565b925092505092959194509250565b600067ffffffffffffffff821115612ea457612ea361290f565b5b612ead82612776565b9050602081019050919050565b6000612ecd612ec884612e89565b61296f565b905082815260208101848484011115612ee957612ee861290a565b5b612ef48482856129bb565b509392505050565b600082601f830112612f1157612f10612905565b5b8135612f21848260208601612eba565b91505092915050565b60008060008060808587031215612f4457612f4361262e565b5b6000612f52878288016128f0565b9450506020612f63878288016127f9565b935050604085013567ffffffffffffffff811115612f8457612f83612633565b5b612f9087828801612a0c565b925050606085013567ffffffffffffffff811115612fb157612fb0612633565b5b612fbd87828801612efc565b91505092959194509250565b600060208284031215612fdf57612fde61262e565b5b6000612fed848285016128f0565b91505092915050565b60006020828403121561300c5761300b61262e565b5b600061301a84828501612825565b91505092915050565b61302c81612a3a565b82525050565b60006020820190506130476000830184613023565b92915050565b600080604083850312156130645761306361262e565b5b6000613072858286016128f0565b9250506020613083858286016127f9565b9150509250929050565b6000819050919050565b60006130b26130ad6130a8846128a7565b61308d565b6128a7565b9050919050565b60006130c482613097565b9050919050565b60006130d6826130b9565b9050919050565b6130e6816130cb565b82525050565b600060208201905061310160008301846130dd565b92915050565b7f4e487b7100000000000000000000000000000000000000000000000000000000600052602260045260246000fd5b6000600282049050600182168061314e57607f821691505b6020821081141561316257613161613107565b5b50919050565b613171816128c7565b82525050565b600081519050919050565b600082825260208201905092915050565b600061319e82613177565b6131a88185613182565b93506131b8818560208601612743565b6131c181612776565b840191505092915050565b60006080820190506131e16000830187613168565b6131ee60208301866126fd565b81810360408301526132008185613193565b905061320f6060830184613023565b95945050505050565b61322181612af3565b82525050565b600060608201905061323c6000830186613023565b61324960208301856126fd565b6132566040830184613218565b949350505050565b7f44414f3a51756575656420456d70747900000000000000000000000000000000600082015250565b6000613294601083612732565b915061329f8261325e565b602082019050919050565b600060208201905081810360008301526132c381613287565b9050919050565b7f44414f3a20496e76616c69642070726f706f73616c4964000000000000000000600082015250565b6000613300601783612732565b915061330b826132ca565b602082019050919050565b6000602082019050818103600083015261332f816132f3565b9050919050565b7f4e487b7100000000000000000000000000000000000000000000000000000000600052601160045260246000fd5b6000613370826126f3565b915061337b836126f3565b92508282101561338e5761338d613336565b5b828203905092915050565b6000815190506133a8816127e2565b92915050565b6000602082840312156133c4576133c361262e565b5b60006133d284828501613399565b91505092915050565b7f57696e44414f3a496e73756666696369656e7420746f74616c20737570706c79600082015250565b6000613411602083612732565b915061341c826133db565b602082019050919050565b6000602082019050818103600083015261344081613404565b9050919050565b6000613452826126f3565b915061345d836126f3565b9250827fffffffffffffffffffffffffffffffffffffffffffffffffffffffffffffffff0382111561349257613491613336565b5b828201905092915050565b60006134a8826126f3565b91506134b3836126f3565b9250817fffffffffffffffffffffffffffffffffffffffffffffffffffffffffffffffff04831182151516156134ec576134eb613336565b5b828202905092915050565b7f4e487b7100000000000000000000000000000000000000000000000000000000600052601260045260246000fd5b6000613531826126f3565b915061353c836126f3565b92508261354c5761354b6134f7565b5b828204905092915050565b7f44414f3a2070726f706f73616c206e6f74207375636365737366756c00000000600082015250565b600061358d601c83612732565b915061359882613557565b602082019050919050565b600060208201905081810360008301526135bc81613580565b9050919050565b7f4e487b7100000000000000000000000000000000000000000000000000000000600052603260045260246000fd5b60006135fd826126f3565b91507fffffffffffffffffffffffffffffffffffffffffffffffffffffffffffffffff8214156136305761362f613336565b5b600182019050919050565b7f476f7665726e6f723a20766f7465206e6f742063757272656e746c792061637460008201527f6976650000000000000000000000000000000000000000000000000000000000602082015250565b6000613697602383612732565b91506136a28261363b565b604082019050919050565b600060208201905081810360008301526136c68161368a565b9050919050565b60006080820190506136e260008301876126fd565b6136ef6020830186613218565b6136fc60408301856126fd565b818103606083015261370e8184612787565b905095945050505050565b7f44414f3a20756e6b6e6f776e2070726f706f73616c2069640000000000000000600082015250565b600061374f601883612732565b915061375a82613719565b602082019050919050565b6000602082019050818103600083015261377e81613742565b9050919050565b600067ffffffffffffffff82169050919050565b60006137a482613785565b91506137af83613785565b92508267ffffffffffffffff038211156137cc576137cb613336565b5b828201905092915050565b6137e081613785565b82525050565b60006060820190506137fb60008301866126fd565b61380860208301856137d7565b61381560408301846137d7565b949350505050565b7f476f7665726e6f72436f6d7061746962696c697479427261766f3a2070726f7060008201527f6f73657220766f7465732062656c6f772070726f706f73616c2074687265736860208201527f6f6c640000000000000000000000000000000000000000000000000000000000604082015250565b600061389f604383612732565b91506138aa8261381d565b606082019050919050565b600060208201905081810360008301526138ce81613892565b9050919050565b7f44414f3a20546172676574206e6f74206e756c6c000000000000000000000000600082015250565b600061390b601483612732565b9150613916826138d5565b602082019050919050565b6000602082019050818103600083015261393a816138fe565b9050919050565b7f44414f3a2070726f706f73616c20616c72656164792065786973747300000000600082015250565b6000613977601c83612732565b915061398282613941565b602082019050919050565b600060208201905081810360008301526139a68161396a565b9050919050565b60006139c86139c36139be84613785565b61308d565b6126f3565b9050919050565b6139d8816139ad565b82525050565b6000610100820190506139f4600083018b6126fd565b613a01602083018a613168565b613a0e6040830189613168565b613a1b60608301886126fd565b8181036080830152613a2d8187613193565b9050613a3c60a08301866139cf565b613a4960c08301856139cf565b81810360e0830152613a5b8184612787565b90509998505050505050505050565b6000604082019050613a7f6000830185613168565b613a8c60208301846126fd565b9392505050565b600081905092915050565b7f1901000000000000000000000000000000000000000000000000000000000000600082015250565b6000613ad4600283613a93565b9150613adf82613a9e565b600282019050919050565b6000819050919050565b613b05613b0082612a3a565b613aea565b82525050565b6000613b1682613ac7565b9150613b228285613af4565b602082019150613b328284613af4565b6020820191508190509392505050565b6000608082019050613b576000830187613023565b613b646020830186613218565b613b716040830185613023565b613b7e6060830184613023565b95945050505050565b7f45434453413a20696e76616c6964207369676e61747572650000000000000000600082015250565b6000613bbd601883612732565b9150613bc882613b87565b602082019050919050565b60006020820190508181036000830152613bec81613bb0565b9050919050565b7f45434453413a20696e76616c6964207369676e6174757265206c656e67746800600082015250565b6000613c29601f83612732565b9150613c3482613bf3565b602082019050919050565b60006020820190508181036000830152613c5881613c1c565b9050919050565b7f45434453413a20696e76616c6964207369676e6174757265202773272076616c60008201527f7565000000000000000000000000000000000000000000000000000000000000602082015250565b6000613cbb602283612732565b9150613cc682613c5f565b604082019050919050565b60006020820190508181036000830152613cea81613cae565b9050919050565b7f45434453413a20696e76616c6964207369676e6174757265202776272076616c60008201527f7565000000000000000000000000000000000000000000000000000000000000602082015250565b6000613d4d602283612732565b9150613d5882613cf1565b604082019050919050565b60006020820190508181036000830152613d7c81613d40565b9050919050565b7f44414f436f756e74566f7465733a20766f746520616c72656164792063617374600082015250565b6000613db9602083612732565b9150613dc482613d83565b602082019050919050565b60006020820190508181036000830152613de881613dac565b9050919050565b7f44414f436f756e74566f7465733a20696e76616c69642076616c756520666f7260008201527f20656e756d20566f746554797065000000000000000000000000000000000000602082015250565b6000613e4b602e83612732565b9150613e5682613def565b604082019050919050565b60006020820190508181036000830152613e7a81613e3e565b9050919050565b7f53616665436173743a2076616c756520646f65736e27742066697420696e203660008201527f3420626974730000000000000000000000000000000000000000000000000000602082015250565b6000613edd602683612732565b9150613ee882613e81565b604082019050919050565b60006020820190508181036000830152613f0c81613ed0565b9050919050565b600081905092915050565b6000613f2982613177565b613f338185613f13565b9350613f43818560208601612743565b80840191505092915050565b6000613f5b8284613f1e565b915081905092915050565b600060a082019050613f7b6000830188613023565b613f886020830187613023565b613f956040830186613023565b613fa260608301856126fd565b613faf6080830184613168565b969550505050505056fea26469706673582212207c462e2a0d300918e0de540b0141b1ff9fa7ee06d7fff3a8c2aaf79fe9d82f1f64736f6c634300080b0033",
  "immutableReferences": {
    "6045": [
      {
        "length": 32,
        "start": 7697
      }
    ],
    "6047": [
      {
        "length": 32,
        "start": 7656
      }
    ],
    "6049": [
      {
        "length": 32,
        "start": 7570
      }
    ],
    "6051": [
      {
        "length": 32,
        "start": 7773
      }
    ],
    "6053": [
      {
        "length": 32,
        "start": 7806
      }
    ],
    "6055": [
      {
        "length": 32,
        "start": 7740
      }
    ],
    "9076": [
      {
        "length": 32,
        "start": 3489
      },
      {
        "length": 32,
        "start": 3992
      },
      {
        "length": 32,
        "start": 5094
      },
      {
        "length": 32,
        "start": 5279
      },
      {
        "length": 32,
        "start": 7298
      }
    ]
  },
  "source": "// SPDX-License-Identifier:MIT\r\n\r\npragma solidity ^0.8.0;\r\n\r\nimport \"./DAO.sol\";\r\nimport \"./DAOCountVotes.sol\";\r\nimport \"./DAOQuorum.sol\";\r\nimport \"./DAOVotes.sol\";\r\n\r\ncontract WinDAO is DAO, DAOCountVotes, DAOVotes, DAOQuorum {\r\n    // Block number that cooldown for next propose\r\n    uint256 public proposeCoolDown = (10*60)/3;\r\n\r\n    mapping (address => uint256) private addressToBlockPropose;\r\n    constructor(IVotes token_) DAO(\"WINDAO\") DAOVotes(token_) {}\r\n\r\n    // =============TEST ONLY================\r\n\r\n    function setProposeCoolDown(uint256 blockNumber) external {\r\n        proposeCoolDown = blockNumber;\r\n    }\r\n\r\n    // =============END OF TEST ONLY================\r\n\r\n    function getBlockToPropose(address account) external view returns(uint256){\r\n        return addressToBlockPropose[account];\r\n    }\r\n\r\n    function quorum(uint256 blockNumber, bool isFinal)\r\n        public\r\n        view\r\n        override(IDAO, DAOQuorum)\r\n        returns (uint256)\r\n    {\r\n        return super.quorum(blockNumber, isFinal);\r\n    }\r\n\r\n    function getVotes(address account, uint256 blockNumber)\r\n        public\r\n        view\r\n        override(DAO, DAOVotes)\r\n        returns (uint256)\r\n    {\r\n        return super.getVotes(account, blockNumber);\r\n    }\r\n\r\n    function proposalForRate(uint256 proposalId)\r\n        public\r\n        view\r\n        override\r\n        returns (uint256)\r\n    {\r\n        if (proposalId == 0) return 0;\r\n        return\r\n            (super.proposalForRate(proposalId) * 100) /\r\n            token.getPastTotalSupply(proposalSnapshot(proposalId));\r\n    }\r\n\r\n    function state(uint256 proposalId)\r\n        public\r\n        view\r\n        override(DAO)\r\n        returns (ProposalState)\r\n    {\r\n        return super.state(proposalId);\r\n    }\r\n    function propose(\r\n        address targets,\r\n        uint256 values,\r\n        bytes memory calldatas,\r\n        string memory description\r\n    ) public override(DAO) returns (uint256) {\r\n        require(\r\n            token.getPastTotalSupply(block.number - 1) >= 50,\r\n            \"WinDAO:Insufficient total supply\"\r\n        );\r\n        require(addressToBlockPropose[msg.sender] == 0 || addressToBlockPropose[msg.sender] <= block.number);\r\n        addressToBlockPropose[msg.sender] = block.number + proposeCoolDown;\r\n        return super.propose(targets, values, calldatas, description);\r\n    }\r\n\r\n    function proposalThreshold() public view override(DAO) returns (uint256) {\r\n        return super.proposalThreshold();\r\n    }\r\n\r\n    function _execute(\r\n        uint256 proposalId,\r\n        address targets,\r\n        uint256 values,\r\n        bytes memory calldatas,\r\n        bytes32 descriptionHash\r\n    ) internal override(DAO) {\r\n        super._execute(proposalId, targets, values, calldatas, descriptionHash);\r\n    }\r\n\r\n    function _executor() internal view override(DAO) returns (address) {\r\n        return super._executor();\r\n    }\r\n\r\n    function supportsInterface(bytes4 interfaceId)\r\n        public\r\n        view\r\n        override(DAO)\r\n        returns (bool)\r\n    {\r\n        return super.supportsInterface(interfaceId);\r\n    }\r\n}\r\n",
  "sourcePath": "C:\\Github\\Dao\\Develop\\Blockchain\\dao-project\\contracts\\DAO\\WinDAO.sol",
  "compiler": {
    "name": "solc",
    "version": "0.8.11+commit.d7f03943.Emscripten.clang"
  },
  "schemaVersion": "3.4.7",
  "updatedAt": "2022-06-23T10:13:52.631Z",
  "devdoc": {
    "kind": "dev",
    "methods": {
      "COUNTING_MODE()": {
        "details": "Although `support=bravo`, but we only count the againstVotes and forVotes."
      },
      "_resetCountVote(uint256)": {
        "details": "See {DAO-_resetCountVote}"
      },
      "castVote(uint256,uint8)": {
        "details": "See {IGovernor-castVote}."
      },
      "castVoteBySig(uint256,uint8,uint8,bytes32,bytes32)": {
        "details": "See {IGovernor-castVoteBySig}."
      },
      "castVoteWithReason(uint256,uint8,string)": {
        "details": "See {IGovernor-castVoteWithReason}."
      },
      "execute(address,uint256,bytes,bytes32)": {
        "details": "See {IGovernor-execute}."
      },
      "hasVoted(uint256,address)": {
        "details": "See {IDAO-hasVoted}."
      },
      "hashProposal(address,uint256,bytes,bytes32)": {
        "details": "See {IDAO-hashProposal}. The proposal id is produced by hashing the RLC encoded `targets` array, the `values` array, the `calldatas` array and the descriptionHash (bytes32 which itself is the keccak256 hash of the description string). This proposal id can be produced from the proposal data which is part of the {ProposalCreated} event. It can even be computed in advance, before the proposal is submitted. Note that the chainId and the governor address are not part of the proposal id computation. Consequently, the same proposal (with same operation and same description) will have the same id if submitted on multiple governors accross multiple networks. This also means that in order to execute the same operation twice (on the same governor) the proposer will have to change the description in order to avoid proposal id conflicts."
      },
      "name()": {
        "details": "See {IDAO-name}."
      },
      "proposalDeadline(uint256)": {
        "details": "see {IDAO-proposalDeadline}"
      },
      "proposalForRate(uint256)": {
        "details": "proposalForRate"
      },
      "proposalSnapshot(uint256)": {
        "details": "see {IDAO-proposalSnapshot}"
      },
      "proposalThreshold()": {
        "details": "Part of the Governor Bravo's interface: _\"The number of votes required in order for a voter to become a proposer\"_."
      },
      "proposalVotes(uint256)": {
        "details": "Accessor to the internal vote counts."
      },
      "propose(address,uint256,bytes,string)": {
        "details": "See {IDAO-propose}."
      },
      "setFirstFinalProposal()": {
        "details": "set first final proposal when the block start."
      },
      "state(uint256)": {
        "details": "See {IDAO-state}"
      },
      "supportsInterface(bytes4)": {
        "details": "Override supportInterfaces see {IERC165-supportInterface}"
      },
      "version()": {
        "details": "See {IDAO-version}."
      },
      "votingDelay()": {
        "details": "See {IDAO-votingDelay}"
      },
      "votingPeriod()": {
        "details": "See {IDAO-votingPeriod}"
      }
    },
    "version": 1
  },
  "userdoc": {
    "kind": "user",
    "methods": {},
    "version": 1
  }
}